:020000040000FA
:030000000200D724
:03002B000206EEDC
:03004B0002066842
:030053000206F1B1
:100083000206D000000080FBE490010178037902AE
:100093008002F0A3D8FCD9FA7A037B029001077897
:1000A3008379018015E493A3AD82AE838A828B8327
:1000B300F0A3AA82AB838D828E83D8E9D9E77582B8
:1000C3007C75831374001200E9758286758300744E
:1000D300001200E975D0007581BF7510017511011B
:1000E300759F0002008BC09FF59FE473D09F22D0C1
:1000F30083D082C09FE493C0E0740193C0E0740294
:1001030093F59F22496E69740A00FFFFFFFFE0FF2A
:10011300FFFF2000000064000000E8030000C800A7
:100123000000010000010001010000000000303167
:100133003233343536373839414243444546002853
:100143006E756C6C20706F696E7465722900303146
:100153003233343536373839616263646566004655
:100163004C4F4154533F2077726F6E6720666F7216
:100173006D617474657220696E7374616C6C65640F
:1001830021003F3F3F001200F20D11001200F2DA8E
:1001930011001200F20F12001200F25513001200A8
:1001A300F26813001200F2E31D001200F2FD1D00BD
:1001B3001200F2221E001200F2FC19001200F22EAD
:1001C3001A001200F2961A001200F27314001200C1
:1001D300F2D514001200F26C16001200F2B91600E8
:1001E3001200F2EA1E001200F2FB1E001200F2CD12
:1001F3001E001200F2E116001200F2EA17001200CC
:10020300F25A18001200F2061C001200F23E1C0003
:100213001200F24A1C001200F28C1C001200F2952C
:100223001C001200F29F1C001200F2A91C00120015
:10023300F2501D001200F28C1D001200F2D51D00B9
:100243001200F2DC1D001200F2B91C001200F2DDF4
:100253001C001200F21A1D001200F2381D001200D9
:10026300F2191B001200F2D318001200F214190045
:100273001200F22107001200F2A11E001200F24A3E
:100283001E001200F25A1E00000022C008C3E096AE
:10029300F50808A3E096420808A3E096420808A3DD
:1002A300E0964208A2D265D033E5087001D3D008A6
:1002B30022E4CFC0E0E4CEC0E0E4CDC0E0E4CCC0B3
:1002C300E075F020E626F608E633F608E633F6088E
:1002D300E633F6181818EC33FCED33FDEE33FEEF7E
:1002E30033FFC3EC9709ED9709EE9709EF971919B7
:1002F30019400FFFEC97FC09ED97FD09EE97FE19E6
:100303001906D5F0BFECF709EDF709EEF709EFF79A
:10031300191919D0E0FCD0E0FDD0E0FED0E0FF22B7
:10032300E4C396F608E496F608E496F608E496F62F
:10033300227009080808226016181818C6C333C6A5
:1003430008C633C608C633C608C633C6D5E0EA2294
:10035300E026F608A3E036F608A3E036F608A3E0A5
:1003630036F622E026F008A3E036F008A3E036F0E4
:1003730008A3E036F022C3E697F60809E697F608E5
:1003830009E697F60809E697F622C3E096F008A374
:10039300E096F008A3E096F008A3E096F022E0F6DA
:1003A30008A3E0F608A3E0F608A3E0F622E6F008C7
:1003B300A3E6F008A3E6F008A3E6F022E0FAA3E040
:1003C300FBA3E0FCA3E0FD22E0FCA3E0FDA3E0FE31
:1003D300A3E0FF22ECF0A3EDF0A3EEF0A3EFF022F5
:1003E300CAC0E0E6F0A308DAFAD0E0FA22CAC0E015
:1003F300E0A3C582CCC582C583CDC583F0A3C582E6
:10040300CCC582C583CDC583DAE6D0E0CA22B90064
:1004130010BB0008E88AF084F8AAF022E4FBC8FACB
:1004230022EB70227B10C833C8C933C9335007C3CA
:100433009AC3DBF280069A50012ADBEAC833F4C878
:10044300C933F4C9FA2275F008E4C833C8C933C9FB
:1004530033C99AC99B5004C92AC93BD5F0ECFBC8E0
:1004630033F4C8E4C9FA22700422600D18C6C333FA
:10047300C608C633C6D5E0F41822251010AF08F518
:1004830010400C15118008F51040021511D2AF224F
:1004930000C0D0251010AF08F510500C05118008CE
:1004A300F51050020511D2AFD0D0222510F58210DD
:1004B300AF08F510400C15118008F5104002151116
:1004C300D2AF851183222510F582E43511F58322FD
:1004D3002510F8E43511F9222510FAE43511FB2231
:1004E3002510FCE43511FD22E4732510C582C0E01C
:1004F300E51134FFC583C0E0E510C3958224F810ED
:10050300AF08858311858210800885831185821049
:10051300D2AFCEF0A3E520F0A37808E608F0A3DE7F
:10052300FAEFF0A3E58124FAF8E608F0A3E608F071
:10053300A3E608F0A30808E608F0A3E608F0A3156D
:10054300811581D0E0FED0E0F8158115811581E891
:10055300C0E0EEC0E022851183851082E0A3FEE0B7
:10056300A3F5207808E0A3F608DFFAE0A3FFE0A3F1
:10057300C0E0E0A3C0E0E0A3C0E0E0A3C0E0E0A3EC
:10058300C0E010AF08858210858311800885821032
:10059300858311D2AFD083D0820200EFC0D0251063
:1005A300C582C0E0E51134FFC583C0E0E510C39503
:1005B3008224F310AF088583118582108008858318
:1005C30011858210D2AFC8F0A3E9F0A3EAF0A3EB40
:1005D300F0A37908E709F0A3D8FAECF0A3EDF0A3B0
:1005E300EEF0A3EFF0A3D0E0F0A3D0E0F0A3D0E0CF
:1005F300F0A3E520F0A3E5F0F0A322851183851095
:1006030082E0C0E0A3E0F9A3E0FAA3E0FBA378084B
:10061300E0F608A3DFFAE0FCA3E0FDA3E0FEA3E01D
:10062300FFA3E0C0E0A3E0C0E0A3E0F5D0A3E0F5C2
:1006330020A3E0A3F5F010AF088583118582108015
:1006430008858311858210D2AFD082D083D0E0F8A1
:10065300D0E03274028000C0E0F4041204AED0E0B3
:040663001203E32279
:10066800C0E074F212059F900103E02401F0A3E0BA
:100678003400F0900103C3E094E8A3E09403404100
:10068800900105E0700474018001E4F0E0F91201C2
:100698009B900103E4F0A3F0900107F0900108E0BB
:1006A80004F0C394044007E4F090010604F0E5E187
:1006B800600F7901120219900101E0A2E650F8E4F6
:1006C800F0C2C17F010205FEC0E0C0D0C082C08375
:1006D800E591900101F0759B00E0F4F591D083D08D
:1006E80082D0D0D0E032C2C732C0E0C0D0E8C0E08B
:1006F800C082C083A8A1E8A2E45006900200740159
:10070800F0E8F4F5A1C2C2D083D082D0E0F8D0D00E
:10071800D0E03200758701002274F01204ED74B342
:1007280012047D851082851183EAF0A3EBF0740F23
:100738001204C9ECF0A3EDF0740B1204C9E4F0A3A1
:10074800801B745D1204C9121008740F1204C912B8
:1007580010181204EB740B1204C91210A2F0121034
:1007680025F9851082851183E02401FAA3E034007D
:10077800FB851082851183EAF0A3EBF0742569608C
:1007880015E970BE740B1204C9121008744D1204D6
:10079800937F080205591210256425701985108267
:1007A800851183E02401081210AB745D1204C9128C
:1007B800100879258094740E1204C9E4F0740D129F
:1007C80004C9E4F074081204C9E4F074071204C9F7
:1007D800E4F0741B1204D374021204C91210B67424
:1007E800191204C9742DF0A3740280197407120435
:1007F800C9E0700774071204C9EAF08510828511F0
:1008080083E8F0A3E9F0121076FAA3E0F5838A8270
:10081800E0FA24E060D624FD601724F860D624FEB0
:10082800600624FD600F801174081204C9E004807A
:10083800C9740D80F5740E80F185108285118312BC
:100848000FFFE0642A7044745F1204C9120FFF128C
:100858001008EAFCEBFD8A82F583121008EC2402EA
:10086800FC50010D745F1204C912104BC3EB120F38
:10087800D05013C3E49AFCE49BFDECFAEDFB74083A
:100888001204C9E004F01210B0803C7A007B0080AA
:100898002AEA75F00AA4FAA9F075F00AEBA429FB74
:1008A800EA28F8E43BF9E824D0FAE934FFFB85109C
:1008B80082851183E02401F81210AB121025F87418
:1008C800D028C3940A40CA74081204C9E0600774A7
:1008D8000E1204C9E4F0121025642E600302097296
:1008E800851082851183120FF5851082851183E8A2
:1008F800F0A3E91210DB642A702E745F1204C91287
:100908001039F98882F583120FEF74041204C9ECC8
:10091800F0A3EDF0E82402F8500109745F1204C94D
:100928001210821210E2804B74041204C9E4F0A37E
:100938001210DBFC74D02CC3940A503874041204CF
:10094800C9120FE875F00AA4F8ADF075F00AE9A429
:100958002DF9E82CF8E439F9E824D0F8E934FFF95E
:1009680074041204C91210E280C674041204C97413
:10097800FFF0A3F07C00121076FDA3E0F5838D82D2
:10098800E024B4600824E4600624FC70057C0112AD
:1009980010B0121025C0E074061204C9D0E012107D
:1009A800E6F074061204C9E07003020E7324BB70EB
:1009B80003020E3E24FE7003020E3E24EF70030273
:1009C8000B9424F57003020A73147003020C351497
:1009D8007003020E3E147003020E3E147003020EE2
:1009E8003E24FE7003020C3524FB602414700302BD
:1009F8000B6A147003020B9424FD7003020AB324DB
:100A0800FE7003020B9424FD7003020B88020E7F14
:100A1800745F1204C912108FE8FEE9FFE50824028A
:100A2800F50850020509ECA2E0740B50271204C91E
:100A3800120FE23395E0FA8E828F831210B6A3EA82
:100A4800F0A3F0745F1204C9121018E508F0A3E5CA
:100A5800090207651204C9120FE28E828F831210F1
:100A6800B6745F1204C9120FFF80E0745F1204C9E4
:100A7800121039F5838882E0C0E0741B1204C9D0D3
:100A8800E0F0745F1204C912102B2402F8A3E034BA
:100A980000F9745F1204C91210821210B6741C1285
:100AA80004C9A882A9837409020B60745F1204C97F
:100AB80012108FE5082402FCE43509FD745F120466
:100AC800C912104B74021204C91210B6E849700C0E
:100AD80074021204C9743EF0A37402F07404120480
:100AE800C9121040500C74041204C97410F0A37495
:100AF80027F07E007F0080050EEE70010F74021251
:100B080004C9120FE28882F583A3AC82AD83740214
:100B18001204C9ECF0A3EDF088828983E0601474B4
:100B2800041204C9120FE2C3EE98EF99A2D265D05D
:100B38003340C574021204C912105974091204C949
:100B48001210B6C3E49EF8E49FF974091204C9E0D0
:100B580028F8A3E039F974021204C9E8F0A3E902FD
:100B68000E96740D1204C9E0601674041204C912BA
:100B78000FE849700B74041204C97401F0A3E4F07F
:100B880074191204C9744DF0A37402F0745F12044E
:100B9800C912106774061204C9E0647070388508B9
:100BA80082850983120FEF74111204C9ECF0A3EDCA
:100BB8001210D4E508120FD81204C91210821210AC
:100BC800B674151204C974101210D4A3F074071265
:100BD80004C9E4020CAAECA2E0E5085016120FBD05
:100BE8001204C91210BC1203CB74111204C91203E7
:100BF800D78019120FD81204C91210CFF8A3E0F940
:100C080074111204C9E8F0A3E91210D4740612048E
:100C1800C9E0646F700974151204C9740880A9E0EA
:100C28006475709D74151204C9740A809B745F12F0
:100C380004C9121067ECA2E0E5085010120FBD12AB
:100C480004C91210BC78081203A18016120FD8121A
:100C580004C91210CFF508A3E0F5093395E0F50AA9
:100C6800F50B74111204C978081203B090022978A0
:100C78000812028E402174071204C9742DF07411F1
:100C88001204C978081203A17808120323741112F8
:100C980004C978081203B074151204C9740A121032
:100CA800D4A3F0744C1204C9A882A9837402120454
:100CB800C91210B674091204C91210B674111204BC
:100CC800C91203CBEC4D4E4F6004D2008010C20015
:100CD80074041204C9120FE8497003020DAD7402BE
:100CE8001204C912105974021204C91210B67411F0
:100CF8001204C9780C1203A174151204C9780812D9
:100D080003A1780C79081202B474191204C9E025F9
:100D180008F8A3E035098882F583E0C0E074021280
:100D280004C9121018D0E0F074111204C9780C121A
:100D380003A174151204C978081203A1780C790864
:100D48001202B474111204C9780C1203B07411128F
:100D580004C91203CBEC4D4E4F708374041204C9BE
:100D68001210405040740E1204C9E0603874071223
:100D780004C9E06004D2F08002C2F0A2F0E433F8C3
:100D8800EA98F8EB9400F974041204C9E8F0A3E9AE
:100D9800801274021204C91210B674021204C91225
:100DA80010187430F074021204C9121059744C12DD
:100DB80004C9C082C08374021204C9120FEFD08321
:100DC800D082E582C39CFEE5839DFF74041204C9AA
:100DD800120FEFC3EE9CEF9DA2D265D03340B374DF
:100DE8000D1204C9E07003020E97A2004003020E20
:100DF8009774061204C9E064786005E064587010BE
:100E0800E088828983F0E824FF18E934FFF980122A
:100E1800E0646F707A74021204C9121082E06430C0
:100E2800606D74021204C91210B674021204C91259
:100E380010187430805874021204C9745EF0A374D8
:100E480002F074091204C9745EF0A37402F0740904
:100E58001204C912102B603774091204C9120FF555
:100E680074091204C9E8F0A3E980E28510828511AB
:100E78008312105E1210AF74021204C97481F0A3B9
:100E88007402F074091204C97484F0A37402F07433
:100E9800091204C9C082C08374021204C9120FE285
:100EA800D083D082E0C398F8A3E099F974041204BF
:100EB800C91210B674041204C9E0F8C3EA98EB9991
:100EC800A2D265D03350067E007F008021740712BD
:100ED80004C9E06004D2F08002C2F0EAC398F8EBDB
:100EE80099F9A2F0E433FAE89AFEE99400FF74084D
:100EF8001204C9E070208019745D1204C912100E22
:100F08001204C91210181204EB740B1204C912103F
:100F18009D120FC750E274071204C9E06051745D56
:100F28001204C912100874071204C9E0F9740F12E8
:100F380004C91210181204EB802D745D1204C91232
:100F4800100874021204C912102BF9740F1204C984
:100F58001210181204EB74021204C9E01210FB7488
:100F6800021204C91210B6740B1204C912109D742F
:100F7800041204C9E024FFF0A3E034FFF074041263
:100F880004C912104050B374081204C9E070030277
:100F98000766120FC75003020766745D1204C91270
:100FA800100E1204C91210181204EB740B1204C9A3
:100FB80012109D80DD2404F8E43509F9745F22EEEF
:100FC80024FF1EEF34FFFFC39400A2D265D0332262
:100FD8002402F8E43509F9745F22E0F8A3E0F92265
:100FE800E0F8A3E0F9E822E0FCA3E0FD22E0240118
:100FF80008A3E03400F922E0FAA3E0F5838A82220C
:10100800E0FAA3E0FB22E0FAA3E0FB7920740F22C8
:1010180012101C22E0F8A3E0F58388822285108252
:1010280085118312102F22E0F8A3E0F5838882E06F
:101038002212102FF8A3E022C3A3E09400A2D265E5
:10104800D03322E0FEA3E0F5838E82ECF0A3EDF02E
:101058002212105EF922E024FFF8A3E034FF2212E6
:10106800106B2212101CE0F508A3E0F50922851088
:1010780082851183E01210F1E02212108622E0FC32
:10108800A3E0F5838C822212106B850882F583E039
:10109800F8A3E0F9221210A2F022E02401F0A3E064
:1010A800340022A3E03400F9851082851183E8F02A
:1010B800A3E9F0221210C022121086E8F0A3E9F08A
:1010C800850882850983221210C0E022F0A3E4F08B
:1010D800A3F02212110412103022E8F0A3E9121131
:1010E800041210F1E8F0A3E9221210FB85108285A2
:1010F8001183222401F8A3E03400F922F08510823C
:10110800851183E022C082C08374CD12047D7422CD
:101118001204C974AA7806F0A3D8FC74281204C96A
:10112800E4F0A3F0742A1204C9E4F0742B1204C981
:101138001211D1742F1204C91211D174111204C9D9
:1011480074BB7806F0A3D8FC74171204C97401F0B4
:10115800A3E4F074191204C9E4F0741A1204C91251
:1011680011D1741E1204C91211D174CC8510828554
:1011780011837806F0A3D8FC74061204C97402F02F
:10118800A3E4F074081204C9E4F074091204C91243
:1011980011D1740D1204C91211D174221204C97C20
:1011A8005D7D0174111203F074111204C9741112D7
:1011B80003F085108285118374111203F0743312C1
:1011C8000493D083D0820200EFE4F0A3F0A3F0A34D
:1011D800F022C082C083E490010F784BF0A3D8FCC2
:1011E8009001987864F0A3D8FCF8F9745A28F5822D
:1011F800740139F583E4F008E8700109C39403E940
:1012080012146B40E680BB74F01204ED74F41204FF
:101218007D8A088B098C0A8D0B74057808120334B3
:10122800E9700302130074081204E374021204DB69
:1012380012024F74041204E3AA10AB11120249748B
:10124800081204C9780C1203A174041204C9780C9A
:1012580012038D851082851183C082C083740212A7
:1012680004C9E0F8A3E0F9D083D082C3E098A3E0F2
:10127800998510828511835035E02400F0A3E0346D
:101288007DF074021204C9E0F8A3E0F985108285A4
:101298001183C3E098F0A3E099F0900209780C124A
:1012A80003A174041204C9780C1203668008C3E011
:1012B80098F0A3E099F0851082851183E0F8A3E007
:1012C800F97AD17B03120411880C890DE4F50EF527
:1012D8000F7808790C12037974041204C9780C1277
:1012E80003A17405780C1203347808790C12037979
:1012F80090020D7808120353900211780812028E9A
:101308004007900102E4F0803A9002157808120232
:101318008E9001024004740180027402F0AA08ABA6
:1013280009AC0AAD0B120237790112025B12023DB9
:101338001201E9900102E0F9120231120243790127
:10134800120255740C1204937F08020559E953F4EC
:10135800FB6007D29243FE0480031214600200EF80
:1013680053C6C775E40275E54475DA0075DB7DD2AE
:10137800B90200EF900101E4F053F4FB121460127B
:1013880001E353F4FB53FEFB43F6047A037B02129A
:10139800028579011202131201F579171201FB1265
:1013A800020D7A007B00750801750900EA780812B9
:1013B800046AE508F4F852F352FD528F43F72052BD
:1013C800F452FE52F643F7400AEA70010BC3940840
:1013D80012146A40D17A007B00750801750900EA89
:1013E800780812046AE508F452F552FF52F743F7F9
:1013F800800AEA70010BC3940512146A40DB790075
:101408009002191203BF120195790112019B79000C
:1014180090021D1203BF120195790012019B7940B9
:1014280012022B1201A11201897A197B0012026D96
:101438008A088B0979FF1201C5AA08AB0912026153
:1014480080111201DD900106E060F712018F900112
:1014580006E4F01201D780ED53FEFB53F6FB43F789
:101468004022EB9400A2D265D0332274F41204ED2A
:10147800EAFEEBFF7A007B00740C1204C9E0F50A5F
:10148800A3E0F50B802AEE2AF582EF3BF583E0C056
:10149800E08A088B097402780812046A7498250A8D
:1014A800F87401350B1214C9D0E0F00AEA70010B88
:1014B800C3EA9CEB9DA2D265D03340CA7F040205E3
:1014C80059F9E82508F582E93509F5832274F612F9
:1014D80004ED74C712047D900101E4F012021F901C
:1014E8000101E0A2E650F890607FE0600302164B2D
:1014F800900101E0A2E0400302164B741F1204E3BE
:1015080074191204DB1201BF741F1204C9E0FC78BD
:10151800017900741F1204C91216ADC0E08510824B
:10152800851183E58228FAE58339FBEA24FFF582F1
:10153800EB34FFF583D0E0F008E8700109C3941A92
:10154800E99400A2D265D03340C9EC603E146064CF
:101558001470030215E624F87003021613147003BE
:1015680002161824F7700302161814700302161DC9
:101578001470030216221470030216271470030253
:10158800162C14700302163102164BAC10AD117AEA
:101598000F7B011201B9E4F508F50978081206561F
:1015A8007C197D0074021204DB12165F12049390FA
:1015B800015A8052AC10AD117A287B011201B9751D
:1015C800080175090078081206567C197D00740216
:1015D8001204DB12165F12049390015B8028AC1092
:1015E800AD117A417B011201B975080275090078BD
:1015F800081206567C197D0074021204DB12165F6D
:1016080012049390015C7401F08038750802801C04
:1016180075080380177508048012750805800D7514
:10162800080680087508078003750808750900789A
:10163800081206567C197D0074021204DB12165F2C
:101648001204937981120219900101E4F07439129D
:1016580004937F020205591201CB740222D083D071
:10166800820200EFC082C08374F812047D900221C8
:10167800AC10AD1174081203F0F8F98510828511C9
:10168800831216ADC0E0749028F582740139F58391
:10169800D0E0F008E87001097408684970DD740842
:1016A80012049380B8E58228F582E58339F583E052
:1016B80022C082C083900107E070127401F090018B
:1016C80008E060091460061460031470031201D165
:1016D800808BD083D0820200EF74F61204ED750877
:1016E8008075090078081206567C007D007A007B18
:1016F800601202797402120493120207759C7790A3
:10170800618AE0640170F8906001E054FC1217DC13
:10171800906003E0C2E0F0E0C2E1F0E0C2E2F090E5
:10172800618A7401F090618BE0640170F890600246
:10173800E0543FF0E0C2E0F0E0C2E11217DC906054
:1017480018E0C2E2F0E0D2E0F0E0C2E4F0A37427CF
:10175800F09060047403F0906008E4F0A37455F00E
:10176800A3F0A3F090618B7401F09061877469F025
:1017780090618674F3F09061BC7407F090626574B0
:1017880013F09061A27410F09061807440F0906141
:10179800907404F0A37448F0A3E4F0A374A3F09049
:1017A80061A57401F0906194E4F0A374D6F0A37479
:1017B800BEF0A37489F0A3748EF09061E0E4F0A306
:1017C800745BF0A37406F0A3E4F09061E904F07F81
:1017D80002020559F0E0C2E2F0E0C2E3F0E054CFC3
:1017E800F022C082C083E9FA90618AE0640170F84F
:1017F80090618DE05403600479048053E924E96022
:101808000A24E8601024CA601C802A906000E05412
:10181800804417802B906000E05480442FF0906043
:101828000C74268021906000E054804465F090603C
:101838000C74278011747F5AF8906000E054804837
:10184800F090600C7425F090618A7401F0790002C0
:1018580016DA74F71204EDE9FE7800C3941B40040D
:101868007903804E740D29F5D975D902740B29F5C1
:10187800D98C828D83E0F5D9A31218BF1218BFA3A3
:101888001218CD1218CDA3E0F5D975D90275D90172
:1018980075D904740129F5D975D9FF800EE8FCEAD9
:1018A8002CF582E43BF583E0F5D908E8C39E40EDCA
:1018B80079007F010205591218C322E0F5D98C82FC
:1018C8008D83A3A3221218C3A3A32274F71204EDD5
:1018D800ECF8EDF98A828B83A3AE82AF83E0FAA39A
:1018E800E0FBEAC398FCEB99FDC3EC9404ED94008B
:1018F80040158E828F83E8F0A3E9F088828983E41B
:10190800F0A3EAF0A3EBF07F0102055974F5120485
:10191800ED900201E0F8A3E0F9E849700A900201AD
:101928007485F0A37402F0900201E0FEA3E0FF7456
:1019380084C39EFC74039FFDEA2403F8E43BF9C3C7
:10194800EC98ED994040E08E82F5837401F09002A6
:1019580001E02AFCA3E03B8C82F583A3A3A3AC821D
:10196800AD83900201ECF0A3EDF08E828F83A3EC9F
:10197800F0A3EDF0C3E49AF8E49BF9900201E028A3
:10198800FAA3E0398062788579028004ECF8EDF9F1
:1019980088088909C3E5089EE5099F504E88828911
:1019A80083A3E0FCA3E0FD88828983E070DEECC3BA
:1019B8009508F508ED9509F509E50824FDF508E50C
:1019C8000934FFF509C3E5089AE5099B40BEE824F8
:1019D80003FEE439FF7401F0EE2AFCEF3BFDE8FA60
:1019E800E9FB120267EEFAEFFB80047A007B007FC6
:1019F80003020559C082C08378007900EC28F5827B
:101A0800ED39F583E0C0E0EA28F582EB39F583D0BB
:101A1800E0F008E8700109C39419121A8D40DDD06E
:101A280083D0820200EFC082C0839061C8E0C39473
:101A38001B404DE5D9E5D9E5D978007900E5D9C04D
:101A4800E0EA28F582EB39F583D0E0F008E8700188
:101A580009C39406121A8D40E4E5D9E5D9E5D9E51C
:101A6800D9E5D978007900E5D9C0E0EC28F582ED10
:101A780039F583D0E0F008E8700109121A8A40E7C6
:101A8800809DC3941AE99400A2D265D0332274F7DA
:101A98001204ED74E612047D900101E4F0851082D1
:101AA800851183781AF0A3D8FCE985108285118303
:101AB800F078017900EA28FCEB39FDEC24FFF58287
:101AC800ED34FFF583E0C0E0851082851183E5825F
:101AD80028F582E58339F583D0E0F008E87001093C
:101AE800121A8A40D07C097D01791AAA10AB11120A
:101AF8000201120225900101E0A2E650F879911244
:101B08000219900101E4F0741A1204937F0102058E
:101B18005974F41204EDEAFEEBFF7A857B027885AE
:101B28007902EE4F700C021C01E8FAE9FBE0F8A319
:101B3800E0F9900201E0F50AA3E0F50BC3E8950A85
:101B4800E9950B4003021C0188828983A3AC82AD0E
:101B580083E82403F508E439F509EE65087003EF16
:101B6800650970C588828983E07003021C018C8234
:101B78008D83E0F508A3E0F509C3E508950AE509B2
:101B8800950B5006AE08AF098004E8FEE9FF8E8287
:101B98008F83E0F50A8A828B83E07022E50A700C55
:101BA8008E828F83A3E0F508A3E0F5098A828B83F0
:101BB800A3E508F0A3E509F0EAF8EBF9801DE50ACA
:101BC80070138E828F83A3E0FAA3E0FB8C828D834F
:101BD800EAF0A3EBF088828983E4F088828983A302
:101BE800E0FAA3E0FB900201E06A7003A3E06B70E7
:101BF80008900201E8F0A3E9F07F0402055974F6A1
:101C08001204ED75088075090078081206567C00E4
:101C18007D007A007B601202797402120493798144
:101C2800120219799112021990618674E1021C3826
:101C3800F07F02020559C082C0839061B1E0D2E012
:101C4800803AC082C083E9F8906188E0F99061B178
:101C5800E06015E9A2E24010E8601FE5E170FC755C
:101C6800E10BE591A2E650FAE0C2E0F0759100754B
:101C78009B0090607F740FF079008001F0D083D0D2
:101C8800820200EFE5E170FC89E10200EFE5E17016
:101C9800FC75E1080200EFE5E170FC75E10902005E
:101CA800EFC082C083906182E049F0439A01021C30
:101CB80085C082C08375C300EA4B600BE5A28A82A7
:101CC8008B83F0E5A3A3F0EC4D6003121CFCD083DA
:101CD800D0820200EFC082C08375C311EA4B600B4B
:101CE800E5A28A828B83F0E5A3A3F0EC4D60031292
:101CF8001CFC80DAE5A48C828D83F0E5A5A3F0E5D1
:101D0800A68C828D83A3A3F08C828D83A3A3A3E4E6
:101D1800F022A2AFE433F8C2AFE960034394024370
:101D28009401E594A2E250FAE8A2E092AF0200EF33
:101D3800A2AFE433F8C2AFE960034394025394FEC0
:101D4800E594A2E240FA80E074F71204EDE9FEE5BA
:101D5800BE54FC4EF5BEE9C3940240099061B1E05F
:101D6800C2E0F0800579041201AD12071CEEC3949D
:101D78000240079061B1E0D2E0F079001201A77F3C
:101D88000102055974F41204ED8A088B098C0A8D36
:101D98000BE59DA2E050FAE5959001FCF0E596A3CD
:101DA800F0E597A3F0A3E4F09001FC78081203662D
:101DB8009001FEE0F5979001FDE0F596E5ADA2E013
:101DC80050FA9001FCE0F5957F04020559C2C7D28C
:101DD800AD0200EFC2C7C2AD0200EF740169700521
:101DE80075C6C98006E9700353C680A8C6E59E6813
:101DF80070FB0200EFC0088908E59E53080753C628
:101E0800F8E50833333354F8450842C6A8C6E59EBA
:101E18006870FB7900D0080200EFE9FAE59EA2E6B7
:101E2800400479018019E9700553C67F8008740160
:101E38006A700343C680A8C6E59E6870FB790002F5
:101E480000EFEEC0E0E9FA7B0012028BD0E0FE0260
:101E580000EF74F61204ED74FE12047D740C120483
:101E6800D3851082851183E8F0A3E9F0A810A911A1
:101E7800880889097808120656E4F508F5097808EB
:101E88001206567C7F7D0212027374041204937446
:101E9800021204937F02020559C082C08385108212
:101EA800851183E0F8A3E0F9E84960128A828B8300
:101EB800ECF0A3E824FF18E934FFF94870F2D08366
:101EC800D0820200EFC082C08375BE807901120102
:101ED800A779001201B379001201A7D083D082023A
:101EE80000EFC082C0831201EF1201E9D083D082D3
:081EF8000200EFD2AF0200EF7F
:04000005000000D720
:00000001FF
