:020000040000FA
:030000000200D724
:03002B00020FAE13
:03004B00020F2081
:03005300020FB1E8
:10008300020F9000000080FBE4900101784D79029B
:100093008002F0A3D8FCD9FA7A4D7B02900107784D
:1000A300AE79018015E493A3AD82AE838A828B83FC
:1000B300F0A3AA82AB838D828E83D8E9D9E77582B8
:1000C300AC75834C74001200E975828675830074E5
:1000D300001200E975D0007581BF7510017511011B
:1000E300759F0002008BC09FF59FE473D09F22D0C1
:1000F30083D082C09FE493C0E0740193C0E0740294
:1001030093F59F22496E69740A0025642025640AC9
:1001130000E8030000C80000000100000100010125
:1001230000FFFFFFFFE0FFFFFF200000006400006F
:1001330000000000000000003F01000000000080FC
:100143003F00000034000000403031323334353694
:1001530037383941424344454600286E756C6C205C
:10016300706F696E746572290030313233343536FD
:1001730037383961626364656600464C4F415453B6
:100183003F2077726F6E6720666F726D617474655E
:100193007220696E7374616C6C656421003F3F3F2C
:1001A30000C503423F1A51123FF304B53F000080DC
:1001B3003E1200F2984C001200F21556001200F2A3
:1001C3002F56001200F25456001200F22449001276
:1001D30000F23D49001200F2024A001200F22E4AD8
:1001E300001200F28A4A001200F2C44A001200F21E
:1001F300574B001200F2AE41001200F2724200129D
:1002030000F2A242001200F22645001200F2554508
:10021300001200F2B345001200F20849001200F286
:100223001249001200F2C357001200F2D457001211
:1002330000F2A657001200F2A44E001200F2AD4FD6
:10024300001200F21D50001200F23854001200F2A6
:100253007054001200F27C54001200F2BE540012DB
:1002630000F2C754001200F2D154001200F2DB5422
:10027300001200F28255001200F2BE55001200F285
:100283000756001200F20E56001200F2EB54001251
:1002930000F20F55001200F24C55001200F26A559D
:1002A300001200F2FD0F001200F2BB10001200F268
:1002B3008622001200F25233001200F2843500123B
:1002C30000F24B53001200F22252001200F263526A
:1002D300001200F27C56001200F2C237001200F244
:1002E3003457001200F27A57001200F2DD56001262
:1002F30000F2ED56001200F2965000000022A2E731
:1003030092D65002F40430F70663F0FF05F0B340D1
:100313000384800384F40430D60563F0FF05F022E0
:10032300C008C3E096F50808A3E096420808A3E0D6
:1003330096420808A3E0964208A2D265D033E508A6
:100343007001D3D00822080808E630E711120B83A6
:10035300120361080808C64480C618181822181822
:1003630018E9799EC608CAC608CBC608CCC6C370AE
:10037300207996CACBCC7019798ECBCC7013798641
:10038300CC700EF9802ACA33CACB33CBCC33CC33EF
:100393001930E7F2CCCBCA3350147004EA30E00DC5
:1003A300E4CA3ACACB3BCBCC3CCC500209C3E913D9
:1003B300C6CC182313C6CB18C6CA18C6F922120412
:1003C3000120F01430E72B74FFFCFBFA747F8022CA
:1003D300E4FCFBFA7480801AB48008BC00F2BB0012
:1003E300EF800F50EBF9E4C39AFAE49BFBE49CFC27
:1003F300E499C6CC18C6CB18C6CA18C6F922E4C9F4
:10040300C608CAC608CBC6D3330308CCC63392F09A
:10041300C3947F402E94184019C9B90704CACBCCA2
:10042300225025C309CA33CACB33CBCC33CC33D9FF
:10043300F422F4600DC9CCC313CB13CBCA13CAD9AE
:10044300F6CC22E4FCFBFA2214FCFBFA22E6261883
:10045300461846184622E72719471947194722180D
:100463001818E60846087009E626087005E633F40E
:10047300220822191919E70947097009E7270970A2
:1004830005E733F4220922E6084608C31346083376
:100493006002E633F422E7094709C31347093360CF
:1004A30002E733F42212048A6025120499602012B1
:1004B30004507003020459080808E76670101819FD
:1004C300E766700A1819E76670041819E76622F4DC
:1004D3002212048A601C12049960171204507007D8
:1004E3001204597001D322C0D01204597006D0D01F
:1004F300B322C32233D0D0501430E0F6C3E79608BA
:1005030009E7960809E7960809E796B32220E0D59C
:10051300E6970809E6970809E6970809E697B322DC
:1005230012048A601B120499601612045070071299
:100533000459600CB322C0D01204597005D0D022E4
:10054300C32233D0D0501330E0EBC3E7960809E75A
:10055300960809E7960809E7962220E0E4E697085B
:1005630009E6970809E6970809E697220012048A24
:10057300604F1204996012E7548066F612046270A9
:1005830011120459703B090909F4F618F618F61804
:10059300F622120476701512045008080860EAE681
:1005A300447FF618768018E4F618F6221204506099
:1005B300161204597012E4F608F608F608E6548099
:1005C300F609090918181822EAC0E0EBC0E0ECC0EC
:1005D300E0EDC0E0E687F0A4FBACF008E687F0A40A
:1005E3002CFCE435F0FA1809E687F0A42C4B6002E2
:1005F3007401CA35F0FCE433FB09E687F0D2F7A4B3
:100603002CCB35F0FC1908E687F0A42BCC35F0FB96
:10061300E433FD0819E687F0D2E7A42C4ACB35F082
:10062300CD3400FC09E687F0D2E7A42DCC35F0FDEC
:10063300E433FA0918E687F0D2F7A42CCD35F0CAD3
:100643003400FC08E687F0D2E7D2F7A42ACC35F0D1
:100653007A7E20E70B0ACB33CBCD33CDCC33CC33EF
:10066300CB3350147004ED30E00ED2F1E4CD3DCD28
:10067300CC3CCC3B5005DA05C2F1EB547FC63308C2
:10068300E63392F0FBE73309E733C39A502D2B701F
:10069300190C0D4C4D70151806E608C333700D2068
:1006A300F10AA2F013F6E418800B4024E4F630F0CC
:1006B30002768018F618F618F68024D33B145010EF
:1006C30074FFA2F013F6187680E418F618F6800F7C
:1006D300A2F013F618E63303F618ECF618EDF6D08D
:1006E300E0FDD0E0FCD0E0FBD0E0FA2212049960F8
:1006F3004612048A603DE9687008F618F618F61881
:10070300F622748067F7120723090909748067F7D3
:100713002212048A601D1204997005191919801A8E
:10072300120462701F120476C37003E6673319194B
:100733001940071818182208080874FFF618F61845
:10074300F618F6221204766017120459702192F0FB
:100753001204507019501720F014080808090909E9
:10076300E7F61819E7F61819E7F61819E7F622124B
:10077300045060E6E869701F0808E62480F608E480
:1007830036F618547FB47F0CE654806007F6E418FD
:10079300F618F622181822E9C6CC08C6CD08C6CE2C
:1007A30008C6CFC0E0E8C0E0EAC0E0EBC0E009E97A
:1007B300F809E7FA09E7FBE6F918E6F8C3EC98ED60
:1007C30099EE9AEBC2E7F5F0EFC2E795F0500E60B1
:1007D3000CEBCFFBEACEFAE9CDF9E8CCF8EAA2E7D5
:1007E300D2E7FAEB33FB13F5F0EEA2E7D2E7FEEF25
:1007F30033FFC5F013A2E730E601B313C5F0C3C05E
:10080300E0C0F07F00C39BFB605E9418600F401D47
:1008130014601AD0E023F9D0E0F80208F58AF0E971
:10082300486003D2F0E4AFF0FAF9F8803BEB30E430
:100833000D89F0EA6003D2F0E4AFF0F9CAF8EB30C7
:10084300E30D88F0EF6002D2F0AFF0E4CAC9F8EB31
:1008530054076014FBC3EA13FAE913F9E813F8EF3A
:10086300135002D2E0FFDBEDD0E0C0E030E739C344
:10087300E49FFFF5F0EC98FC42F0ED99FD42F0EEB9
:100883009AFE42F0D0E0F9D0E0F8E5F0607AE9238F
:10089300F9EE20E742D8028067C3EF33FFEC33FC65
:1008A300ED33FDEE33FE80EAEC28FCED39FDEE3A44
:1008B300FED0E023F9D0E0F84002801BC3EE13FE24
:1008C300ED13FDEC13FCEF135002D2E0FF08B80068
:1008D300067F7F74FF802EEF3350178CF020F002D9
:1008E30060100CBC000C0DBD00080EBE000408E82F
:1008F30060DFE933E813FFEE2313FE4F4D4C80080E
:10090300E95480FFE4FEFDFCEE33EF33F47004FCA6
:10091300FD7E80D0E0FBD0E0FAD0E0F8D0E0CFC697
:1009230018CEC618CDC618CCC6F92212048A700494
:1009330018181822120499700D74FFF61819F61876
:1009430019F61819F622E7548066F6120450700F50
:1009530012045970F014F608F608F608F680D1125E
:100963000459700CF608F608768008E6447F80EC9C
:10097300120479700C12046560BFE65480F6E480BB
:10098300BB120465700519191980A5E869700C7606
:100993003F18768018F618F6E8F922E6CDC0E0187D
:1009A300ECC0E0E633CD33CDD313F6E719FCE719FA
:1009B3001933CC33C3947F400ECD9D502408E654A5
:1009C30080F6E418F6800FF4043D14501408E6444E
:1009D3007FF6187680E418F618F6D0E0FCD0E0FD38
:1009E30022CCD313CCFD18E4C6CBC0E018E4C6CAAE
:1009F300C0E00808ED08C633E613F618E433C675FD
:100A0300F003C3CA97CA09CB97CB199C40047D084E
:100A1300802EBD0003020AD716B6FF050606081688
:100A230018C3CA33CACB33CB33CA27CA09CB37CB94
:100A3300193CC37D08803E187D0820E75CC633C699
:100A4300CA33CACB33CB33DDF1D5F0EB30E77BCA06
:100A530097CA09CB974ACB199C406F4B7025E62068
:100A6300E0218066187D08C3CA97CA09CB97CB19C2
:100A73009CD3C633C6CA33CACB33CB3350C9DDE7A5
:100A8300D5F0E1D3E4C636C608C636C608C636C6B0
:100A930008C636C61818188031C3CA97CA09CB9737
:100AA300CB199CB34097C633C6CA33CACB33CB33B7
:100AB300DD34D5F02EC6A2E0C640C8CA27CA09CB8A
:100AC30037194A70BECB3CB480B90808E63308E650
:100AD30033601F181818D0E0FAD0E0FBD0E0FCD048
:100AE300E0FD22187D08CA27CA09CB37CB193CD3AE
:100AF300808013F618E4B67F11F618B6FF0EF618C9
:100B0300C60470D20808768080CAF618F618F680F4
:100B1300C5E4CFC0E0E4CEC0E0E4CDC0E0E4CCC0A7
:100B2300E075F020E626F608E633F608E633F60825
:100B3300E633F6181818EC33FCED33FDEE33FEEF15
:100B430033FFC3EC9709ED9709EE9709EF9719194E
:100B530019400FFFEC97FC09ED97FD09EE97FE197D
:100B63001906D5F0BFECF709EDF709EEF709EFF732
:100B7300191919D0E0FCD0E0FDD0E0FED0E0FF224F
:100B8300181818E4C396F608E496F608E496F608EF
:100B9300E496F6227009080808226016181818C689
:100BA300C333C608C633C608C633C608C633C6D55C
:100BB300E0EA22E026F608A3E036F608A3E036F6DC
:100BC30008A3E036F622E026F008A3E036F008A3F7
:100BD300E036F008A3E036F022C3E697F60809E60C
:100BE30097F60809E697F60809E697F622C3E09612
:100BF300F008A3E096F008A3E096F008A3E096F0CF
:100C030022E0F608A3E0F608A3E0F608A3E0F62244
:100C1300E6F008A3E6F008A3E6F008A3E6F022E076
:100C2300FAA3E0FBA3E0FCA3E0FD22EAF0A3EBF0D0
:100C3300A3ECF0A3EDF022E0FCA3E0FDA3E0FEA310
:100C4300E0FF22ECF0A3EDF0A3EEF0A3EFF022E03F
:100C5300F8A3E0F9A3E0FAA3E0FB22E8F0A3E9F0AC
:100C6300A3EAF0A3EBF022CAC0E0E6F0A308DAFAA5
:100C7300D0E0FA22CAC0E0E0A3C582CCC582C58316
:100C8300CDC583F0A3C582CCC582C583CDC583DA28
:100C9300E6D0E0CA22B90010BB0008E88AF084F865
:100CA300AAF022E4FBC8FA22EB70227B10C833C8F7
:100CB300C933C9335007C39AC3DBF280069A500184
:100CC3002ADBEAC833F4C8C933F4C9FA2275F00839
:100CD300E4C833C8C933C933C99AC99B5004C92A64
:100CE300C93BD5F0ECFBC833F4C8E4C9FA2270045D
:100CF30022600D18C6C333C608C633C6D5E0F41840
:100D030022251010AF08F510400C15118008F510BE
:100D130040021511D2AF2200C0D0251010AF08F544
:100D230010500C05118008F51050020511D2AFD0F8
:100D3300D0222510F58210AF08F510400C15118054
:100D430008F51040021511D2AF851183222510F545
:100D530082E43511F583222510F8E43511F92225B3
:100D630010FAE43511FB222510FCE43511FD22E4D1
:100D7300732510C582C0E0E51134FFC583C0E0E5EB
:100D830010C3958224F810AF0885831185821080E3
:100D930008858311858210D2AFCEF0A3E520F0A39E
:100DA3007808E608F0A3DEFAEFF0A3E58124FAF869
:100DB300E608F0A3E608F0A3E608F0A30808E608AF
:100DC300F0A3E608F0A315811581D0E0FED0E0F88A
:100DD300158115811581E8C0E0EEC0E022851183FD
:100DE300851082E0A3FEE0A3F5207808E0A3F608CF
:100DF300DFFAE0A3FFE0A3C0E0E0A3C0E0E0A3C00C
:100E0300E0E0A3C0E0E0A3C0E010AF088582108556
:100E130083118008858210858311D2AFD083D0825D
:100E23000200EFC0D02510C582C0E0E51134FFC534
:100E330083C0E0E510C3958224F310AF08858311C6
:100E43008582108008858311858210D2AFC8F0A3F4
:100E5300E9F0A3EAF0A3EBF0A37908E709F0A3D83C
:100E6300FAECF0A3EDF0A3EEF0A3EFF0A3D0E0F0E3
:100E7300A3D0E0F0A3D0E0F0A3E520F0A3E5F0F0E9
:100E8300A322851183851082E0C0E0A3E0F9A3E0EB
:100E9300FAA3E0FBA37808E0F608A3DFFAE0FCA3DB
:100EA300E0FDA3E0FEA3E0FFA3E0C0E0A3E0C0E019
:100EB300A3E0F5D0A3E0F520A3E0A3F5F010AF087D
:100EC3008583118582108008858311858210D2AFB6
:100ED300D082D083D0E0F8D0E03274028000C0E04A
:100EE300F404120D35D0E0120C6A227404800474E9
:100EF300028000CCC0E0EDC0E0E510C39CCCAD1196
:100F030050011D10AF068C108D1180068C108D11B1
:0C0F1300D2AF120C77D0E0FDD0E0FC2241
:100F2000C0E074F2120E26900102E02401F0A3E06A
:100F30003400F0900102C3E094B8A3E0940B404960
:100F4000900104E0700474018001E4F0E0F9120102
:100F5000CC900102E4F0A3F0900106F0900107E0CC
:100F600004F0900242E0F8900107E0C3984007E4E3
:100F7000F090010504F0E5E1600F790112025C9048
:100F80000101E0A2E650F8E4F0C2C17F01020E8543
:100F9000C0E0C0D0C082C083E591900101F0759B94
:100FA00000E0F4F591D083D082D0D0D0E032C2C737
:100FB00032C0E0C0D0E8C0E0C082C083A8A1E8A2EF
:100FC000E450069002487401F0E8F4F5A1C2C2D0E2
:100FD00083D082D0E0F8D0D0D0E032007587010015
:100FE000221231C98882F58322120FED22E0F50822
:100FF000A3E0F50922F08510828511832274F01296
:101000000D748C088D097410120D50E0FEA3E0FFE2
:101010007416120D50E0F50AA3E0F50B7418120DCA
:1010200050E0F50EA3E0F50F850E0CF50D780C12CF
:101030000EDD7416120D50120EF2780A120EDD74C7
:1010400018120D50120EF28E0C8F0D780C120EDD50
:101050001202AA740A120D1A780E120EDD741612FC
:101060000D50120EF2780A120EDD7418120D501285
:101070000EF2EEFCEFFDAA08AB091202B0740812E2
:101080000D1AC3EB1221BB50067AFF7BFF80297833
:101090000A120EDD7414120D50120EF27418120D95
:1010A00050120EF2EEFCEFFDAA08AB091202B67464
:1010B00006120D1A7A007B000231C474F0120D740E
:1010C00074C8120D047414120D501232D27414121A
:1010D0000D50E0F50A7448120D50120FE9E50A852B
:1010E00008F0A4C50AA8F08509F0A428F88508F03E
:1010F000EDA428F50B7402780A120CF1780A120E8E
:10110000DDEAFCEBFD744C120D501221D51202E009
:101110007402120D1A744E120D501232E0741A122B
:101120000D5012222C120D501232E37406120D5083
:10113000E4F0A3F0744A120D50123798120D5012B9
:1011400037BC120D507401F0A3E4F07448120D5036
:1011500012325D742C120D50122238120D501232C0
:10116000B7120CF1740C120D501232CB80698A0840
:101170008B0974027808120CF17404120D501221BC
:1011800067120D50123322120D5012220E120C044F
:101190007420120D507808120C04780C790812058E
:1011A0006F740A120D5012220E120C130AEA70010B
:1011B0000B7448120D5012221440B37410120D50CB
:1011C000123798120D501237AD120D501237A47409
:1011D00008120D501232F6F07406120D50C082C083
:1011E000837448120D501231E0D083D0821232073E
:1011F00040030219FC7406120D501232B7120CF1A2
:101200007412120D5012334A7420120D50780812C5
:101210000C04741A120D50780C120C047808790C16
:1012200012056F7412120D50122173120D501221FB
:10123000C9120C137406120D501231DB1222551212
:101240000D5012379E120D501233067420120D509D
:101250001232D8804B120D507808120C047406120A
:101260000D50123286120CF17402120D501232928D
:10127000120C04E50FC2E7F50F7808790C12071479
:101280007420120D507808120C1312227A120D508D
:1012900012379E120D501221DB120D50E8F0A3E917
:1012A000120FF5C082C0837414120D501231E0D0B9
:1012B00083D082122190409D120D507808120C04A8
:1012C000900282780C120C047808790C1204D44035
:1012D000030215AB7406120D501231DB12225512A7
:1012E0000D5012379E120D501233067426120D50F7
:1012F0001232D8806D120D5012379E120D501221ED
:10130000E1120C047420120D507808120C04780CB1
:10131000790812092E8A828B83780C120C13850CA3
:1013200008850D09850E0A850F0B780C79081205C2
:101330006F7426120D507808120C04780C7908127C
:1013400007147426120D50780C120C1312227A1204
:101350000D5012379E120D501221DB120D50E8F085
:10136000A3E9120FF5C082C0837414120D5012311C
:10137000E0D083D082123207741250030212F512A9
:101380000D50123798120D5012327A120D5012333E
:1013900022120D501232C5120C0490027A780C12EF
:1013A0000C047808790C12052374265013120D5082
:1013B000120C221202F8741A120D50120C2E801107
:1013C000120D50120C22122156120D507808120CD8
:1013D00013740A120D5012329E120C527430120DF8
:1013E00050120C5E7430120D507808120C04741AEE
:1013F000120D50780C120C047808790C12056F74D9
:1014000026120D50780C120C047808790C1206EF95
:101410007434120D507808120C137430120D507879
:1014200008120C04741A120D50780C120C0478086F
:10143000790C1206EF740A120D501232C5120C13F9
:101440007408120D50122206807A741E120D50126A
:10145000379E120D5012327A120D50122232120D96
:10146000507808120C047412120D5012379E120D8F
:10147000501221F5120C047808790C12056F740AC9
:10148000120D5012220E120C047808790C12071457
:10149000740A120D501232C5120C130AEA70010BB5
:1014A000740C120D5012379E120D50123237F9740F
:1014B00002120D501233067414120D5012221440F1
:1014C000891232F0120FF5C082C0837448120D5099
:1014D0001231E0D083D08212320740030215AB7480
:1014E00006120D501221D57416120D501232E374EB
:1014F00004120D5012379E120D50122262120CF17E
:10150000741E120D501232CB805E7412120D5012E6
:10151000379E120D5012218A120C04741E120D50A7
:1015200012379E120D501221F5120C047808790C16
:1015300012056F7416120D50780C120C047808798D
:101540000C1207147416120D507808120C130AEAC4
:1015500070010B740C120D5012379E120D50122197
:10156000DB120D50E8F0A3E9F07414120D501222B2
:101570001440977416120D507808120C047434122B
:101580000D50780C120C047808790C12092E741680
:10159000120D507808120C137406120D501221D53A
:1015A0007404120D501231DB0214AE7406120D5089
:1015B0001231DB122255120D501231DB803A7412B7
:1015C000120D5012379E120D501221E1120C0474AC
:1015D00020120D507808120C04780C790812056F4F
:1015E0008A828B83780C120C1312227A120D5012FD
:1015F000379E120D50123237F97402120D5012221A
:101600003EC082C0837414120D501231E0D083D0DA
:101610008212320740A8741A120D507808120C0476
:101620007420120D50780C120C047808790C1205F5
:101630006F7412120D501231E0744E120D501221BF
:10164000C9120C13741A120D5012222C120D5012C2
:101650002226120D50123798120D501221C3120D6E
:10166000501237AD120D50C082C0837414120D5049
:101670001231E0D083D08212320740030211BB74D2
:1016800006120D501231E0742C120D50E0687003F8
:10169000A3E06970030211BB7408120D50122206F8
:1016A0008033120D507808120C04123280120CF1A3
:1016B0007404120D50123292120C04E50FC2E7F5B9
:1016C0000F7808790C1207147420120D5078081244
:1016D0000C131232F0120FF5C082C0837448120D41
:1016E000501231E0D083D08212219040B5120D50BB
:1016F0007808120C04900282780C120C0478087995
:101700000C1204D440030211BB7408120D501233A2
:10171000037426120D501232D880661232B1120CA8
:10172000F17404120D5012376EE8FAE9FB8882F565
:1017300083780C120C047420120D507808120C04DB
:10174000780C790812092E8A828B83780C120C137C
:10175000850C08850D09850E0A850F0B780C790814
:1017600012056F7426120D507808120C04780C794B
:10177000081207147426120D50780C120C13123232
:10178000F0120FF5C082C0837448120D501231E080
:10179000D083D08212320740827408120D50123268
:1017A000B7120CF17404120D50122167120D501271
:1017B0003322120D501232C5120C0490027A780CAA
:1017C000120C047808790C12052374265013120D9C
:1017D00050120C221202F8741A120D50120C2E80A4
:1017E00011120D50120C22122156120D50780812AF
:1017F0000C13740A120D5012329E120C52743012D5
:101800000D50120C5E7430120D507808120C0474D6
:101810001A120D50780C120C047808790C12056F0E
:101820007426120D50780C120C047808790C1206EC
:10183000EF7434120D507808120C137430120D50DE
:101840007808120C04741A120D50780C120C0478DB
:1018500008790C1206EF740A120D501232C5120CE0
:10186000137408120D501221D580428A088B097416
:10187000027808120CF17404120D501221CF120CD0
:10188000047434120D507808120C04780C79081284
:10189000092E8A088B0974027808120CF174501210
:1018A0000D501221CF120C130AEA70010B7448126A
:1018B0000D5012221440B47406120D50C082C08321
:1018C0007414120D5012325DD083D0821232074050
:1018D000030219F17408120D501233037410120D23
:1018E000501231DB80788A088B0974027808120C58
:1018F000F1AC08AD097402120D50E02CF8A3E03DE4
:10190000F9740A120D50122232120D50780C120C7A
:10191000047450120D50122179120C04780C7908BD
:1019200012056F740A120D501232C5120C04780C95
:101930007908120714740A120D5012220E120C1399
:101940000AEA70010B7448120D50122214409712CB
:10195000227A120D5012379E120D50123237F9743E
:1019600002120D5012223EC082C0837414120D5018
:101970001231E0D083D08212320750757408120DF4
:10198000501221D57416120D501232E3804E8A087F
:101990008B0974027808120CF1AC08AD09740412BA
:1019A0000D5012217F780C120C047402120D50128B
:1019B0002179120C04780C790812056F7416120D37
:1019C000507808120C04780C790812071474161257
:1019D0000D50780C120C130AEA70010B7448120DAA
:1019E0005012221440A87408120D501221D5021969
:1019F000457408120D501221D50211B17448120D10
:101A000050E024FEF508A3E034FFF5097448120DF8
:101A100050E0F50A8508F0A4C50AA8F08509F0A4ED
:101A200028F88508F0E9A428F50B7402780A120C4E
:101A3000F1744A120D50E0250AF8A3E0350BF97451
:101A400004120D50122238120D50E0F50CA3E0F5EF
:101A50000D742C120D50E0F50AA3E0F50BE50C8592
:101A60000AF0A4C50CA8F0850BF0A428F8850AF0AC
:101A7000E50DA428F50D7402780C120CF1742E12E9
:101A80000D50E50CF0A3E50DF0742E120D5012313F
:101A9000E0744C120D501221C3120D501233067413
:101AA0000C120D501221AE120D501221A21222481A
:101AB000740C120D50122173120D501221A2F583D5
:101AC000120C52741A120D50120C5E740C120D503E
:101AD0001231E0C3E498F8E499F9742A120D501217
:101AE0003306742A120D50E0F87410120D501221B2
:101AF000C3120D501237AD120D5012334A742C120E
:101B00000D5012216D120D50E8F0A3E9021BB31223
:101B100032B1120CF17410120D501237831232E3ED
:101B20007424120D501221EF120D50122274120D56
:101B3000501221EF120D5012219C120D5012223E14
:101B4000C082C0837448120D501231E0D083D0821D
:101B500012320740BA7424120D501221AE120D50E9
:101B60001232711222487424120D50122173120D78
:101B700050123267120C52741A120D50120C5E740D
:101B800006120D5012221F120D50123798120D50CE
:101B9000122196120D50123306742A120D50122182
:101BA000AE120D501221C3120D501237BC120D503F
:101BB00012321BF07406120D501221B45003021D94
:101BC000F6740C120D501221AE120D5012324274E6
:101BD0001E120D501237AD120D501232B7120CF109
:101BE0007424120D5012334A741A120D50780812D0
:101BF0000C0490027A780C120C047808790C120408
:101C0000A87003021DDF741E120D501221EF120D79
:101C1000501237BC120D5012377380621232B1125B
:101C20000CF17404120D501232AB120C0474081231
:101C30000D50123286120CF17404120D50123292B1
:101C4000120C047808790C12092E741A120D5078AF
:101C50000C120C047808790C12092E7424120D5001
:101C60001221EF120D501221C9120C1312227A12F6
:101C70000D501221EF120D5012219C120D50122204
:101C80003EC082C0837448120D501231E0D083D020
:101C90008212320740867408120D50122206807894
:101CA0007412120D501221EF120D5012327A120DD1
:101CB00050122232120D507808120C047424120DA6
:101CC000501221EF120D501221F5120C04780879F0
:101CD0000C12056F740A120D5012220E120C0478A9
:101CE00008790C120714740A120D501232C5120C26
:101CF000130AEA70010B740C120D501221EF120D31
:101D000050123237F9740E120D50122238120D5043
:101D1000122214408B1232F0120FF5C082C083746D
:101D200048120D501231E0D083D0821232074003A6
:101D3000021DDF7416120D501232E37408120D509A
:101D40001221D5741E120D501221EF120D501222C5
:101D500062120CF17412120D501232CB80638A0899
:101D60008B0974027808120CF17404120D501232AF
:101D7000AB120C047412120D501221EF120D5012FE
:101D800021F5120C047808790C12056F7416120DE7
:101D900050780C120C047808790C1207147416127F
:101DA0000D507808120C130AEA70010B740C120D16
:101DB000501221EF120D5012219C120D50E8F0A389
:101DC000E9F07448120D5012221440927408120D5A
:101DD000501221D5741E120D501231DB021D0474F5
:101DE0001E120D501221EF120D501237BC120D5061
:101DF000123773021B3D742E120D501231E0744ADB
:101E0000120D50122196120D50123306742C120D21
:101E1000501231E07406120D50122238120D501279
:101E2000216D807D7410120D5012379E120D5012CC
:101E30002274120D5012379E120D50123237F9745F
:101E400002120D5012223EC082C0837414120D5033
:101E50001231E0D083D08212320740C87412120DC2
:101E6000501232C5120C04900286780C120C0478C1
:101E700008790C1207147412120D501232C5120C8C
:101E8000137406120D5012216D120D501237AD123F
:101E90000D5012221F120D50123798120D501221A0
:101EA00096120D501237AD120D501221B45003028C
:101EB00021517406120D501232B7120CF174101227
:101EC0000D5012334A7410120D501231E0744E123C
:101ED0000D50123267120C52741A120D50120C5E11
:101EE0007408120D5012220680171232B1120CF132
:101EF0007404120D501237831232D8120FF51232B9
:101F0000F6120FF5C082C0837448120D501231E0F2
:101F1000D083D08212320740D17410120D50123784
:101F200098120D501232427412120D501233067470
:101F30001A120D507808120C0490027A780C120CC8
:101F4000047808790C1204A8700302213D74081269
:101F50000D50122206807A740E120D5012379E1206
:101F60000D5012327A120D50122232120D50780892
:101F7000120C047410120D5012379E120D501221C3
:101F8000F5120C047808790C12056F740A120D50C2
:101F900012220E120C047808790C120714740A121B
:101FA0000D501232C5120C130AEA70010B740C1298
:101FB0000D5012379E120D50123237F97402120D65
:101FC000501233067414120D50122214408912322A
:101FD000F0120FF5C082C0837448120D501231E028
:101FE000D083D08212320740030220CF7416120D24
:101FF00050122226120D50123798120D501221DB6A
:10200000120D501237BC120D501221D51232B112DE
:102010000CF1740E120D501232CB805E7410120D42
:102020005012379E120D5012218A120C04740E1297
:102030000D5012379E120D501221F5120C04780823
:10204000790C12056F7416120D50780C120C04786E
:1020500008790C1207147416120D507808120C131C
:102060000AEA70010B740C120D5012379E120D50BB
:102070001221DB120D50E8F0A3E9F07414120D5098
:1020800012221440977416120D507808120C047422
:1020900012120D5012220E120C047808790C12093B
:1020A0002E741A120D50780C120C047808790C1248
:1020B000092E7416120D507808120C137406120DA6
:1020C000501221D57404120D501231DB021FBB7463
:1020D00006120D501231DB122255120D501231DB57
:1020E000F97402120D5012223EC082C08374141281
:1020F0000D501231E0D083D0821232074003021E0D
:102100005C7410120D5012379E120D501221E11204
:102110000C04741A120D507808120C04780C79080B
:1021200012092E8A828B83780C120C1312227A12D7
:102130000D5012379E120D5012323780A3740612C2
:102140000D501231DB122255120D501231DB021EDE
:102150003E74380231C11202F88A088B098C0AEDEC
:10216000B2E7F50B741A2212376E740A221231E4A8
:102170007408221231E474502212217F780822E080
:102180002CF8A3E03D8882F583221221FB780822F7
:1021900012320B7420221232467404221232467418
:1021A0000E22123246E824FCF582E934FF22123175
:1021B000E4741022C3A3E01221BB229400A2D265D2
:1021C000D0332212324674102212326B7808221257
:1021D0003787780C22E0FAA3E0FB22123246740221
:1021E00022123246E8FAE9FB8882F583780C221243
:1021F00031E4740E221221FB780C22E028FCA3E0CB
:10220000398C82F58322123777E8F0A3E922123263
:10221000A2780C221231E4C3EA98EB123214221293
:10222000321FF0742A221232E7740C221232E77441
:10223000202212330A74162212330A7448221233EF
:102240000A85108285118322F58312332FF0221222
:10225000377712323BF985108285118312330A7465
:102260000422E8F0A3E912333BF508A3E0F5097472
:102270000278082212326B1232E7851082851183B0
:102280001237A8740C2274F0120D7474BC120D0471
:10229000743E120D50EAF0A3EBF0742E120D5012A2
:1022A00032D27402120D50E4F0A3F0742A120D50D1
:1022B0001232D8807E7402120D501232B7120CF115
:1022C0007458120D501232AB120C04E50BC2E7F534
:1022D0000B7402120D50123286120CF1745A120D48
:1022E00050123292120C04E50FC2E7F50F7808790C
:1022F0000C1207147414120D507808120C13742A5F
:10230000120D507808120C047414120D50780C122F
:102310000C047808790C12052350107414120D5017
:10232000120C52742A120D50120C5E7402120D50CF
:102330001232F6F07402120D50C082C083742E1255
:102340000D501231E0D083D08212320750030222A6
:10235000B5742A120D507808120C0490028A780C79
:10236000120C047808790C12056F7440120D507825
:1023700008120C13742E120D5012325D7428120DB7
:1023800050123306742E120D501232B7120CF17423
:1023900032120D501232CB80667436120D5012324A
:1023A00057120D50123242E8FAE98882F583780814
:1023B000120C04E50BB2E7F50B8A828983780812C8
:1023C0000C137408120D50123344120D5012325770
:1023D000120D50123237F97426120D501237BC12FA
:1023E0000D50C082C083742E120D501231E0D08384
:1023F000D08212320740A27428120D5012321BF004
:102400007428120D501221B450030231BB743C12D7
:102410000D50E4F0A3F07428120D501232B7120CD4
:10242000F17436120D5012334A7436120D501232B6
:1024300051120D501232427434120D501233067480
:1024400036120D5012324B120D50123242743012AD
:102450000D501233068037743A120D501232511259
:102460000D501232671232E37410120D50120C52DA
:102470007434120D501231D2120C5E742A120D50A7
:10248000120C527430120D501231D2120C5E74289C
:10249000120D501233037440120D507808120C04C0
:1024A000123280120CF1745A120D50123292120C28
:1024B00004E50FC2E7F50F7808790C1204D4500335
:1024C0000228007440120D507808120C0412328059
:1024D000120CF17458120D501231C9F9E824FCF5B0
:1024E00082E934FFF583780C120C04E50FC2E7F59E
:1024F0000F7808790C1204D440108510828511835E
:1025000012321BF0C31221BB508C7420120D5012DA
:1025100032E3741C120D50123328F8A3E0F9740250
:10252000120D50E8F0A3E90226641232B1120CF148
:10253000EC2508F8ED3509F9E824FCF8E934FFF951
:102540007438120D501233067438120D5012329E28
:10255000120C527414120D50120C5E740A120D50AB
:102560001231EA39F97424120D5012330674241210
:102570000D5012329E120C527404120D50120C5E49
:102580007414120D507808120C047420120D507837
:102590000C120C047808790C12056FC008C009C031
:1025A0000AC00B7404120D50780C120C04741C1227
:1025B0000D507808120C04780C790812056FD00BB6
:1025C000D00AD009D0087808790C12071474381290
:1025D0000D501232C5120C137404120D50780812EB
:1025E0000C047420120D50780C120C047808790C2D
:1025F00012056FC008C009C00AC00B7414120D5038
:10260000780C120C04741C120D507808120C04780B
:102610000C790812056FD00BD00AD009D0087808C1
:10262000790C1206EF7424120D501232C5120C13DD
:102630007408120D50123344120D501231F2FD7411
:1026400008120D50C082C083743E120D501231E04A
:10265000D083D082123207500302252A7402120D51
:10266000501232F6F07428120D50C082C0837402EA
:10267000120D501231E0D083D08212320750030283
:1026800028007402120D501232B7120CF1740A12A3
:102690000D5012334A740A120D50123251120D505D
:1026A000E028FAA3E039FB8A82F583780C120C0447
:1026B000741C120D507808120C047808790C12055D
:1026C0006F7410120D507808120C137420120D50F4
:1026D0007808120C04780C790812056F8A828B83B3
:1026E000780C120C137440120D507808120C0474FC
:1026F00010120D50780C120C04E50FC2E7F50F789C
:1027000008790C1204D45003022800740A120D50E8
:1027100012324B120D501231FB120C52740C120D6E
:1027200050120C5E7410120D507808120C047410C4
:10273000120D50780C120C047808790C12056FC039
:1027400008C009C00AC00B740C120D50780C120C92
:1027500004740C120D507808120C04780C790812CD
:10276000056FD00BD00AD009D0087808790C120771
:1027700014AA08AB09AC0AAD0B1202F8EAF8EBF99F
:10278000ECFAEDFB7418120D50120C5E7418120D59
:1027900050120C528E828F83120C5E740C120D50EC
:1027A0007808120C047418120D50780C120C04786E
:1027B00008790C12092E7420120D507808120C138F
:1027C0007410120D507808120C047418120D507801
:1027D0000C120C047808790C12092EE50BB2E7F5FF
:1027E0000B741C120D507808120C137408120D5043
:1027F000E4F0A3F07454120D50E0FCA3E002263E76
:102800007430120D5012329E120C527404120D507C
:10281000120C5E8510828511831231E07428120D2E
:1028200050E0687003A3E069704D7404120D507895
:1028300008120C0490027A780C120C047808790CB7
:1028400012052340030223F77404120D5078081276
:102850000C04E50BB2E7F50B7430120D501232C5C3
:10286000120C137408120D50E4F0A3F07456120DFC
:10287000501231DB0223D6743C120D50C3E0941E7B
:102880001221B540077AFF7BFF0231BF743C120D65
:10289000501232F6122266120CF1743A120D5012D6
:1028A000334A743A120D5012324B120D50123267E5
:1028B000120C52742A120D50120C5E7430120D500C
:1028C000123228120C527414120D50120C5E743411
:1028D000120D50123228120C52740C120D50120CA0
:1028E0005E7434120D5012329E120C527418120D76
:1028F00050120C5E7414120D507808120C047404FB
:10290000120D50780C120C047808790C1206EFC0E6
:1029100008C009C00AC00B7414120D50780C120CB8
:10292000047404120D507808120C04780C79081203
:102930000714D00BD00AD009D0087808790C1205FA
:102940006FC008C009C00AC00B740C120D50780883
:10295000120C047418120D50780C120C04780879BB
:102960000C1206EFC008C009C00AC00B740C120D8F
:1029700050780C120C047418120D507808120C04C4
:10298000780C7908120714D00BD00AD009D0087837
:1029900008790C12056FD00FD00ED00DD00C780C2A
:1029A0007908120714C00CC00DC00EC00F741812A5
:1029B0000D507808120C0490028E780C120C0478DA
:1029C00008790C12056F7414120D50780C120C0457
:1029D0007808790C12056FD00FD00ED00DD00C787E
:1029E0000C790812092E7410120D50780C120C1369
:1029F0007410120D507808120C047410120D5078D7
:102A00000C120C047808790C12056F900286780C71
:102A1000120C047808790C120714AA08AB09AC0A46
:102A2000AD0B1202F8740C120D50120C2E74101211
:102A30000D507808120C0490027A780C120C04786D
:102A400008790C120523501A740C120D50780812D4
:102A50000C04E50BB2E7F50B740C120D507808125C
:102A60000C13742A120D507808120C047404120D01
:102A700050780C120C047808790C1206EFC008C0CC
:102A800009C00AC00B742A120D50780C120C047481
:102A900004120D507808120C04780C7908120714EF
:102AA000D00BD00AD009D0087808790C12056FC075
:102AB00008C009C00AC00B7414120D507808120C1B
:102AC00004C008C009C00AC00B7410120D50780C65
:102AD000120C04740C120D507808120C04780C7946
:102AE00008120714D00BD00AD009D0087808790C46
:102AF00012092E7418120D50780C120C04780879F3
:102B00000C1206EF7418120D50780C120C04780891
:102B1000790C12056FD00FD00ED00DD00C780C7937
:102B200008120714742A120D507808120C04780C3D
:102B3000790812092E7410120D50780C120C1374AF
:102B400020120D5012224A741C120D5012332824E8
:102B500001F8A3E03400F97402120D50E8F0A3E983
:102B6000022C7A7424120D501231EA123310F8A399
:102B7000E034FFF9740A120D50123322120D501274
:102B8000329E120C527414120D50120C5E123298B6
:102B9000120C527404120D50120C5E7420120D505F
:102BA0007808120C047414120D50780C120C04786E
:102BB00008790C12056FC008C009C00AC00B741C4C
:102BC000120D50780C120C047404120D5078081277
:102BD0000C04780C790812056FD00BD00AD009D0FC
:102BE000087808790C120714740A120D501232C5B5
:102BF000120C137420120D507808120C0474041275
:102C00000D50780C120C047808790C12056FC0086E
:102C1000C009C00AC00B741C120D50780C120C04B1
:102C20007414120D507808120C04780C79081205EF
:102C30006FD00BD00AD009D0087808790C1206EFB3
:102C40001232BF120C137408120D50123344120DBD
:102C5000501231F2FD7408120D50C082C083743ED0
:102C6000120D501231E0D083D0821232075003028D
:102C70002B637402120D501232F6F07428120D50AC
:102C8000C082C0837402120D501231E0D083D08212
:102C900012320750030224577402120D501232B739
:102CA000120CF17424120D5012334A7424120D5078
:102CB000123251120D501231FB120C52740C120DC3
:102CC00050120C5E7424120D5012324B120D501221
:102CD000327A120D50123322120D5012329E120C03
:102CE000527414120D50120C5E741C120D50780C9C
:102CF000120C04740C120D507808120C04780C7924
:102D00000812056F7418120D50780C120C13740C05
:102D1000120D50780C120C047420120D5078081209
:102D20000C04780C790812056F740C120D50780C95
:102D3000120C137410120D507808120C0474101237
:102D40000D50780C120C047808790C12056FC0082D
:102D5000C009C00AC00B7418120D50780C120C0474
:102D60007418120D507808120C04780C79081205AA
:102D70006FD00BD00AD009D0087808790C1207144C
:102D8000AA08AB09AC0AAD0B1202F87404120D507C
:102D9000120C2E7404120D50120C52EE24FCF5820B
:102DA000EF34FFF583120C5E7410120D5078081288
:102DB0000C047404120D50780C120C047808790C71
:102DC00012092E7420120D507808120C1374181268
:102DD0000D507808120C047404120D50780C120C6B
:102DE000047808790C12092E741C120D5078081200
:102DF0000C13742A120D507808120C047420120D52
:102E000050780C120C047808790C12056FC008C0B9
:102E100009C00AC00B740C120D50780C120C04740B
:102E20001C120D507808120C04780C790812056FEA
:102E3000D00BD00AD009D0087808790C1207147486
:102E400010120D507808120C13740C120D507808E3
:102E5000120C047420120D50780C120C04780879AE
:102E60000C12056FC008C009C00AC00B742A120DED
:102E700050780C120C04741C120D507808120C04BB
:102E8000780C790812056FD00BD00AD009D00878D9
:102E900008790C1206EF740C120D507808120C13FE
:102EA0007414120D507808120C04741C120D507812
:102EB0000C120C047808790C12056F7418120D505E
:102EC0007808120C137414120D507808120C047444
:102ED00020120D50780C120C047808790C12056F32
:102EE0007414120D507808120C137408120D50E46B
:102EF000F0A3F07456120D501231DB022FF174243E
:102F0000120D50123257120D50E028F8A3E0123380
:102F100010FCA3E034FFFD8C82F583120C52742A5E
:102F2000120D50120C5E123298120C527404120DD3
:102F300050120C5E742A120D507808120C04742082
:102F4000120D50780C120C047808790C12056FC021
:102F500008C009C00AC00B7404120D50780C120C82
:102F600004741C120D507808120C04780C790812A5
:102F7000056FD00BD00AD009D0087808790C120759
:102F8000148C828D837808120C137404120D5078FF
:102F900008120C047420120D50780C120C047808DE
:102FA000790C12056FC008C009C00AC00B742A1240
:102FB0000D50780C120C04741C120D507808120C71
:102FC00004780C790812056FD00BD00AD009D0080C
:102FD0007808790C1206EF1232BF120C1374081223
:102FE0000D50123344120D50123257120D5012323E
:102FF00037F97426120D501237BC120D50C082C022
:1030000083742E120D501231E0D083D08212320719
:103010005003022EFE7410120D507808120C047426
:1030200010120D50780C120C047808790C12056FF0
:10303000C008C009C00AC00B7418120D50780C12D9
:103040000C047418120D507808120C04780C7908CE
:1030500012056FD00BD00AD009D0087808790C126D
:103060000714AA08AB09AC0AAD0B1202F8740412DB
:103070000D50120C2E7404120D50120C52740A12C0
:103080000D50E0FCA3E0CC24FCF582EC34FFF5838A
:10309000120C5E7404120D507808120C0490027A1F
:1030A000780C120C047808790C1204A8604A741089
:1030B000120D507808120C047404120D50780C1282
:1030C0000C047808790C12092E7420120D5078081F
:1030D000120C137418120D507808120C0474041298
:1030E0000D50780C120C047808790C12092E741CFF
:1030F000120D507808120C137420120D507808121B
:103100000C04740C120D50780C120C047808790C15
:1031100012056FC008C009C00AC00B741C120D5004
:10312000780C120C047414120D507808120C0478E8
:103130000C790812056FD00BD00AD009D008780896
:10314000790C1207147410120D507808120C1374B5
:1031500020120D507808120C047414120D50780CC3
:10316000120C047808790C12056FC008C009C00A57
:10317000C00B741C120D50780C120C04740C120D40
:10318000507808120C04780C790812056FD00BD017
:103190000AD009D0087808790C1206EF742A120DAB
:1031A000507808120C137408120D50E4F0A3F07458
:1031B00054120D50E0FCA3E0022C547A007B007402
:1031C00044120D1A7F08020DE0E0250CF8A3E0354B
:1031D0000D22E0FCA3E0F5838C8222E0F8A3E0223C
:1031E0001231E422E0F8A3E0F9221231E4EC28F8ED
:1031F000ED221231E4EC28FCED3922E028FEA3E0B8
:1032000039FF8E82F5832212320B22C3E098A3E0AD
:103210001232142299A2D265D0332212321F22E038
:1032200024FFF0A3E034FF22E0F8A3E0C824FCF57B
:1032300082E834FFF5832212323B22E028F8A3E033
:1032400039221232462212323BF9221231E47458EA
:10325000221231E4745A221231E4742622E024FF4F
:10326000F8A3E034FFF92212326B22123271F58397
:1032700022E028FAA3E0398A8222123246740A2216
:10328000851082851183E0F50CA3E0F50D740278BA
:103290000C22120FE1780C228510828511831232E4
:1032A000A222E0F8A3E0F58388822212378778080B
:1032B00022851082851183120FED74027808228511
:1032C00010828511831232A2780822E508F0A3E566
:1032D0000922ECF0A3EDF022E4F0A3F0A3F0A32286
:1032E0001232A21232E722E4F0A3F0A3F0A3F022FC
:1032F0008510828511831232FA22E02401F0A3E0C6
:1033000034002212377712330A22E8F0A3E9F022C0
:1033100039F9851082851183E8F0A3E912333B2443
:10332000FC2212330A740A2212332F12333B22E496
:10333000F0A3F0A37480F0A3743F22F0851082857F
:103340001183E0221237A8743222E508F0A3E509C0
:10335000F02274F0120D7474F4120D04740A120D3C
:1033600050EAF0A3EBF07406120D501232D2740240
:10337000120D50E4F0A3F07406120D501232B71281
:103380000CF17404120D501232CB80501232BF1265
:103390000C04850C82850D83120C528510828511D8
:1033A00083E0FEA3E0F5838E82120C5E850C82859D
:1033B0000D837808120C130CEC70010D7404120DBF
:1033C0005012224F120D5012356B7406120D50120E
:1033D000357940B87402120D501232F6F0740212B0
:1033E0000D50C082C0837406120D5012325DD0831E
:1033F000D08212320740030235587402120D50E099
:10340000FEA3E0FF7402120D50E02401FCA3E0349F
:1034100000FD8033850C82850D83780C120C048CA2
:10342000088D0974027808120CF1741C120D5012E8
:1034300032AB120C04780C79081205235004ECFE10
:10344000EDFF0CEC70010D8E088F097402780812E4
:103450000CF1741C120D50E02508F50CA3E03509A1
:10346000F50D7406120D5012357940A87402120D34
:1034700050E06E7003A3E06F70030233D474021245
:103480000D501232B7120CF17408120D5012334A5B
:103490007408120D501231E0741C120D50E028FC1B
:1034A000A3E039FD8C82F5837808120C04850C8228
:1034B000850D83120C528C828D83120C5E850C82DA
:1034C000850D837808120C138E088F097402780812
:1034D000120CF1741E120D501237B3120D5012312E
:1034E000E0741E120D5012355D803F1232BF120C77
:1034F00004850C82850D83120C5285108285118300
:10350000E0C0E0A3E0F583D082120C5E850C8285DA
:103510000D837808120C130CEC70010D7404120D5D
:103520005012224F120D5012356B740A120D5012A8
:10353000357940B78E088F0974027808120CF1743F
:1035400020120D501237B3120D501231E0742012B8
:103550000D5012355D0233CA740C0231C1E028F5FA
:103560000CA3E039F50D7C007D00221231E4E50C5E
:1035700028F50CE50D39F50D221231E4C3EC98ED78
:103580001232142274F0120D7474EE120D04740CC5
:10359000120D50EAF0A3EBF0740A120D501232D261
:1035A000742A120D50E0FEA3E0FF740A120D5012AF
:1035B00032C5120C0490028A780C120C0478087937
:1035C0000C12056F8E0CEFF50D3395E0F50EF50F2F
:1035D000780C1203497808790C12056F7424120DC7
:1035E00050780C120C04780C7908120523500A74D8
:1035F00024120D507808120C137408120D50E4F0C8
:10360000A3F07422120D50123798120D5012330687
:10361000742C120D50123773801E7408120D501244
:1036200037A48E088F0974027808120CF174041202
:103630000D50123768120D501237BC120D50C3E0F6
:103640009EA3E09FA2D265D033400302375974068F
:10365000120D50E4F0A3F0740C120D5012379E12AC
:103660000D5002372F8C088D0974027808120CF166
:10367000740A120D50123783120C52740E120D5030
:10368000120C5E7424120D50780C120C04740E127D
:103690000D507808120C04780C790812052350524A
:1036A0008C088D0974027808120CF17404120D5004
:1036B0001232AB120C047402120D5012220E120CB4
:1036C000047808790C12056F740E120D50780C12E4
:1036D0000C047808790C12092E851082851183124A
:1036E000220E120C047808790C1207141232BF1241
:1036F0000C130CEC70010D7402120D5012375E7435
:1037000002120D50E8F0A3E9F0C3EC9EED9FA2D2A7
:1037100065D03350030236657406120D501237A47B
:1037200085108285118312375E8510828511831280
:1037300037AD120D50C082C0837428120D50123163
:10374000E0D083D082123207400302361A7C007D1B
:10375000001232981232D880AF74120231C1E024C4
:1037600004F8A3E03400F92212376E7404221237F1
:103770008FF92212377722E0F8A3E0F985108285CD
:103780001183221237872212378F8882F58322E035
:103790002508F8A3E03509221231E474042212311D
:1037A000E47402221237A8221232FAF02212330AEB
:1037B00074062212376E85108285118312330A74C3
:1037C000082274F0120D7474B3120D0485108285F2
:1037D0001183EAF0A3EBF0740F120D50ECF0A3ED9F
:1037E000F0740B120D50E4F0A3801B745D120D50A9
:1037F0001240A9740F120D501240B9120D72740BC1
:10380000120D50124143F01240C6F9851082851105
:1038100083E02401FAA3E03400FB85108285118344
:10382000EAF0A3EBF07425696015E970BE740B1221
:103830000D501240A9744D120D1A7F08020DE012AE
:1038400040C664257019851082851183E024010823
:1038500012414C745D120D501240A9792580947468
:103860000E120D50E4F0740D120D50E4F0740812B5
:103870000D50E4F07407120D50E4F0741B120D5A51
:103880007402120D501241577419120D507492F0B7
:10389000A3740280197407120D50E07007740712A8
:1038A0000D50EAF0851082851183E8F0A3E9F0124B
:1038B0004117FAA3E0F5838A82E0FA24E060D62477
:1038C000FD601724F860D624FE600624FD600F809A
:1038D000117408120D50E00480C9740D80F5740E47
:1038E00080F18510828511831240A0E0642A704423
:1038F000745F120D501240A01240A9EAFCEBFD8A41
:1039000082F5831240A9EC2402FC50010D745F1271
:103910000D501240ECC3EB1240715013C3E49AFCFB
:10392000E49BFDECFAEDFB7408120D50E004F0127C
:103930004151803C7A007B00802AEA75F00AA4FAA3
:10394000A9F075F00AEBA429FBEA28F8E43BF9E8B2
:1039500024D0FAE934FFFB851082851183E024012D
:10396000F812414C1240C6F874D028C3940A40CAD9
:103970007408120D50E06007740E120D50E4F0123E
:1039800040C6642E6003023A1385108285118312AB
:103990004096851082851183E8F0A3E912417C648A
:1039A0002A702E745F120D501240DAF98882F58366
:1039B0001240907404120D50ECF0A3EDF0E82402D4
:1039C000F8500109745F120D501241231241838097
:1039D0004B7404120D50E4F0A312417CFC74D02C03
:1039E000C3940A50387404120D5012408975F00ABD
:1039F000A4F8ADF075F00AE9A42DF9E82CF8E43943
:103A0000F9E824D0F8E934FFF97404120D5012419A
:103A10008380C67404120D5074FFF0A3F07C001272
:103A20004117FDA3E0F5838D82E024B4600824E40F
:103A3000600624FC70057C011241511240C6C0E0B2
:103A40007406120D50D0E0124187F07406120D502A
:103A5000E07003023F1424BB7003023EDF24FE70BB
:103A600003023EDF24EF7003023C3524F5700302AD
:103A70003B14147003023CD6147003023EDF147032
:103A800003023EDF147003023EDF24FE7003023C9B
:103A9000D624FB6024147003023C0B147003023C18
:103AA0003524FD7003023B5424FE7003023C352490
:103AB000FD7003023C29023F20745F120D50124139
:103AC00030E8FEE9FFE5082402F50850020509EC9C
:103AD000A2E0740B5027120D501240833395E0FA88
:103AE0008E828F83124157A3EAF0A3F0745F120D08
:103AF000501240B9E508F0A3E509023806120D504E
:103B00001240838E828F83124157745F120D5012C0
:103B100040A080E0745F120D501240DAF583888275
:103B2000E0C0E0741B120D50D0E0F0745F120D5035
:103B30001240CC2402F8A3E03400F9745F120D5057
:103B4000124123124157741C120D50A882A983748C
:103B500009023C01745F120D50124130E508240245
:103B6000FCE43509FD745F120D501240EC74021232
:103B70000D50124157E849700C7402120D5074A395
:103B8000F0A37402F07404120D501240E1500C7452
:103B900004120D507410F0A37427F07E007F008093
:103BA000050EEE70010F7402120D501240838882D0
:103BB000F583A3AC82AD837402120D50ECF0A3ED3B
:103BC000F088828983E060147404120D50124083DF
:103BD000C3EE98EF99A2D265D03340C57402120D9E
:103BE000501240FA7409120D50124157C3E49EF866
:103BF000E49FF97409120D50E028F8A3E039F97434
:103C000002120D50E8F0A3E9023F37740D120D5077
:103C1000E060167404120D5012408949700B740450
:103C2000120D507401F0A3E4F07419120D5074B227
:103C3000F0A37402F0745F120D5012410874061262
:103C40000D50E064707038850882850983124090B9
:103C50007411120D50ECF0A3ED124175E5081240FD
:103C600079120D501241231241577415120D5074E0
:103C700010124175A3F07407120D50E4023D4BEC95
:103C8000A2E0E508501612405E120D5012415D127E
:103C90000C3A7411120D50120C4680191240791210
:103CA0000D50124170F8A3E0F97411120D50E8F0B4
:103CB000A3E91241757406120D50E0646F70097427
:103CC00015120D50740880A9E06475709D7415126A
:103CD0000D50740A809B745F120D50124108ECA2C3
:103CE000E0E508501012405E120D5012415D780858
:103CF000120C048016124079120D50124170F50812
:103D0000A3E0F5093395E0F50AF50B7411120D5097
:103D10007808120C1390027A780812032340217459
:103D200007120D50742DF07411120D507808120CFA
:103D3000047808120B867411120D507808120C13B7
:103D40007415120D50740A124175A3F0744C120DC3
:103D500050A882A9837402120D501241577409129F
:103D60000D501241577411120D50120C3AEC4D4E79
:103D70004F6004D2008010C2007404120D50124033
:103D800089497003023E4E7402120D501240FA74BB
:103D900002120D501241577411120D50780C120C72
:103DA000047415120D507808120C04780C7908125E
:103DB0000B147419120D50E02508F8A3E03509889A
:103DC00082F583E0C0E07402120D501240B9D0E0D9
:103DD000F07411120D50780C120C047415120D5061
:103DE0007808120C04780C7908120B147411120D57
:103DF00050780C120C137411120D50120C3AEC4D39
:103E00004E4F70837404120D501240E15040740EF6
:103E1000120D50E060387407120D50E06004D2F0CB
:103E20008002C2F0A2F0E433F8EA98F8EB9400F9CB
:103E30007404120D50E8F0A3E980127402120D50C0
:103E40001241577402120D501240B97430F07402CE
:103E5000120D501240FA744C120D50C082C083747F
:103E600002120D50124090D083D082E582C39CFE96
:103E7000E5839DFF7404120D50124090C3EE9CEF39
:103E80009DA2D265D03340B3740D120D50E0700383
:103E9000023F38A2004003023F387406120D50E082
:103EA00064786005E064587010E088828983F0E8E7
:103EB00024FF18E934FFF98012E0646F707A74020D
:103EC000120D50124123E06430606D7402120D50E7
:103ED0001241577402120D501240B9743080587458
:103EE00002120D5074C3F0A37402F07409120D5045
:103EF00074C3F0A37402F07409120D501240CC6028
:103F0000377409120D501240967409120D50E8F0E2
:103F1000A3E980E28510828511831240FF1241508F
:103F20007402120D5074E6F0A37402F07409120DBD
:103F30005074E9F0A37402F07409120D50C082C0ED
:103F4000837402120D50124083D083D082E0C39854
:103F5000F8A3E099F97404120D5012415774041239
:103F60000D50E0F8C3EA98EB99A2D265D033500621
:103F70007E007F0080217407120D50E06004D2F0B3
:103F80008002C2F0EAC398F8EB99F9A2F0E433FAA0
:103F9000E89AFEE99400FF7408120D50E07020804A
:103FA00019745D120D501240AF120D501240B9122B
:103FB0000D72740B120D5012413E12406850E274A3
:103FC00007120D50E06051745D120D501240A9743B
:103FD00007120D50E0F9740F120D501240B9120D76
:103FE00072802D745D120D501240A97402120D5092
:103FF0001240CCF9740F120D501240B9120D7274A8
:1040000002120D50E012419C7402120D50124157E1
:10401000740B120D5012413E7404120D50E024FF37
:10402000F0A3E034FFF07404120D501240E150B3DD
:104030007408120D50E070030238071240685003F4
:10404000023807745D120D501240AF120D5012402D
:10405000B9120D72740B120D5012413E80DD240412
:10406000F8E43509F9745F22EE24FF1EEF34FFFFF8
:10407000C39400A2D265D033222402F8E43509F9B2
:10408000745F22E0F8A3E0F922E0F8A3E0F9E82267
:10409000E0FCA3E0FD22E0240108A3E03400F922C3
:1040A000E0FAA3E0F5838A8222E0FAA3E0FB22E0B3
:1040B000FAA3E0FB7920740F221240BD22E0F8A39E
:1040C000E0F5838882228510828511831240D022F8
:1040D000E0F8A3E0F5838882E0221240D0F8A3E064
:1040E00022C3A3E09400A2D265D03322E0FEA3E075
:1040F000F5838E82ECF0A3EDF0221240FFF922E06E
:1041000024FFF8A3E034FF2212410C221240BDE04C
:10411000F508A3E0F50922851082851183E012419C
:1041200092E02212412722E0FCA3E0F5838C822258
:1041300012410C850882F583E0F8A3E0F9221241D0
:1041400043F022E02401F0A3E0340022A3E0340095
:10415000F9851082851183E8F0A3E9F0221241610C
:1041600022124127E8F0A3E9F0850882850983221D
:10417000124161E022F0A3E4F0A3F0221241A51263
:1041800040D122E8F0A3E91241A5124192E8F0A340
:10419000E92212419C851082851183222401F8A313
:1041A000E03400F922F0851082851183E02274F258
:1041B000120D7474C8120D04EAFEEBFF8C0A8D0B0D
:1041C0007A087B001202CE8A088B09EA4B700A7AC1
:1041D000007B001200860242687808120EDD740A25
:1041E000120D5A880C890D780C120EDD7404120D14
:1041F0005A880C890D780C120EDD741E120D5A8827
:104200000C890D780C120EDD750C02750D00780C02
:10421000120EDD7C047D00EEFAEFFB1202A4740A9C
:10422000120D1AAA08AB091202C2780A120EDD7525
:1042300008027509007808120EDD75080478081266
:104240000EDD90027A120EEE7412120D5A88088951
:10425000097808120EDD740C120D6A7424120D62B6
:104260001202BC740C120D1A7438120D1A7F060259
:104270000DE074F7120D7479017E007F008012EA60
:104280002EF582EB3FF583E0600279000EEE7001BF
:104290000FC3EE9CEF9DA2D265D03340E27F0102B6
:1042A0000DE074F0120D7474F6120D047408120D02
:1042B00050EAF0A3EBF0741A120D50E06C7003A3F7
:1042C000E06D60030244457402120D50E4F0A380D7
:1042D000087402120D5012450BF07402120D50C0FA
:1042E00082C0837408120D50124514D083D08212FC
:1042F000451A4003024445851082851183E4F0A3EA
:10430000024414EAF8EBF9E875F019A4F8ACF0757A
:10431000F019E9A42CF9851082851183E024DEFCD4
:10432000A3E03401FDEC28F582ED39F583E0F50CCE
:10433000E4F50DF50EF50F780C1203648A088B096D
:1043400074027808120CF17402120D50E0F50AA301
:10435000E0F50B7404780A120CF174BE250AF874A7
:1043600001350BF9E82508F582E93509F583780868
:10437000120C04780C790812056F7404120D507831
:1043800008120C04780C79081207147404120D50EA
:10439000780C120C130AEA70010B741A120D5012E9
:1043A0004514C3EA98EB99A2D265D0335003024377
:1043B000037404120D507808120C0490027E780CDD
:1043C000120C047808790C12071478081203C1C083
:1043D00008851082851183C082C0837402120D503B
:1043E000124514E875F019A4F8AAF075F019E9A4BB
:1043F0002AF9740E28F8740139F9D083D082E028A4
:10440000F8A3E0398882F583D0E0F0851082851129
:104410008312450BF0851082851183C082C083749E
:104420001C120D50124514D083D08212451A40033D
:104430000242D17404120D50E4F0A3F0A3F0A3F0F3
:10444000FAFB02439A7E007F00EEF8EFF9E875F080
:1044500019A4F8AAF075F019E9A42AF9740E28F540
:1044600008740139F5097C197D00AA08FB1201FCCA
:10447000E9707D850882850983E0FCEEF8EFF9E8B4
:1044800075F011A4F8AAF075F011E9A42AF9746284
:1044900028FA740139FBEA2408F582E43BF583E04D
:1044A000F8ECC398F895E0F9E824FF18E934FFF92F
:1044B000C312454D500478007900ECF08808E9F506
:1044C000093395E0F50AF50BEA240DF582E43BF596
:1044D000837808120BC99002827808120C048A8231
:1044E0008B83A3A3A3A3A3A3A3A3A37808120BC99D
:1044F0000EEE70010FC39403EF12454D50030244BA
:1045000049740A120D1A7F08020DE0E02401F0A39D
:10451000E0340022E0F8A3E0F922C3E098A3E09998
:10452000A2D265D03322C082C083C3EC9401ED12C5
:10453000454D40128A828B83E4F0A3EC24FF1CEDEE
:1045400034FFFD4C70F2D083D0820200EF9400A2C1
:10455000D265D0332274F5120D7478007900740B93
:10456000120D50E0F508A3E0F5098036EA28F5823F
:10457000EB39F583E0C0E0E50875F019A4FE85F09D
:104580000A75F019E509A4250AFF74DE2EFE7401F0
:104590003FFFEE28F582EF39F583D0E0F008E870B0
:1045A0000109C3E89CE99DA2D265D03340BE7F03D8
:1045B000020DE074F6120D7474C7120D049001011F
:1045C000E4F0120262900101E0A2E650F890607FF0
:1045D000E060030248E3900101E0A2E040030248EA
:1045E000E3741F120D6A7419120D621201DE741F3A
:1045F000120D50E0FC78017900741F120D50E58215
:1046000028F582E58339F583E0C0E08510828511C5
:1046100083E58228FAE58339FBEA24FFF582EB344F
:10462000FFF583D0E0F008E8700109C3941AE9129D
:10463000454D40C5EC605014607C1470030246E7A1
:1046400014700302471414700302473214700302FB
:10465000475124FB70030247731470030247A024E0
:10466000F770030247D11470030247FC1470030271
:10467000482B14700302485A1470030248881470BF
:10468000030248B60248E3E4F508F5097808120E7B
:10469000DD7C197D007402120D621248F7120D1AAA
:1046A0009001597401F090010274DCF0A3740512BA
:1046B0004903E40247C87508017509007808120E1D
:1046C000DD7C197D007402120D621248F7120D1A7A
:1046D00090015A7401F090010274E8F0A37403127F
:1046E000490374010247C875080275090078081269
:1046F0000EDD7C197D007402120D621248F7120D56
:104700001A90015B7401F090010274F4F0A3124955
:10471000010247CDE4F508F5097808120EDD7C1991
:104720007D007402120D621248F7120D1A900159A1
:10473000803C7508017509007808120EDD7C197D32
:10474000007402120D621248F7120D1A90015A807D
:104750001D7508027509007808120EDD7C197D00B0
:104760007402120D621248F7120D1A90015B740167
:104770000248E27508027509007808120EDD7C19FE
:104780007D007402120D621248F7120D1A90010298
:1047900074DCF0A37405F090015B124901048028D9
:1047A0007508037509007808120EDD7C197D007408
:1047B00002120D621248F7120D1A90010274E8F00D
:1047C000A374031248FD7403F0900195E0040248BD
:1047D000E27508037509007808120EDD7C197D006A
:1047E0007402120D621248F7120D1A90010274DC65
:1047F000F0A374051248FD74030248E275080475BD
:1048000009007808120EDD7C197D007402120D6219
:104810001248F7120D1A90010274DCF0A37405F02F
:1048200090015D12490174040248E275080575099A
:10483000007808120EDD7C197D007402120D6212E0
:1048400048F7120D1A90010274E8F0A37403F09077
:10485000015E12490174050248E2750806750900F7
:104860007808120EDD7C197D007402120D62124868
:10487000F7120D1A90010274E8F0A37403F090018E
:104880005F1249017406805A750807750900780897
:10489000120EDD7C197D007402120D621248F712AF
:1048A0000D1A90010274F4F0A37401F090016012EB
:1048B00049037407802C7508087509007808120EE2
:1048C000DD7C197D007402120D621248F7120D1A78
:1048D00090010274F4F0A37401F090016112490395
:1048E0007408F0798112025C900101E4F0743912CD
:1048F0000D1A7F02020DE012020E740222F09001E6
:104900005C7401F090010722C082C0831201E402AE
:104910004546C082C083120214024546120D1A7F1A
:1049200008020DE0E953F4FB6007D29243FE0480D5
:104930000953FEFB53F6FB43F7400200EFC082C071
:104940008374CD120D047422120D5074AA7806F0EF
:10495000A3D8FC7428120D50E4F0A3F0742A120DB1
:1049600050E4F0742B120D501249F9742F120D50AF
:104970001249F97411120D5074BB7806F0A3D8FCDB
:104980007417120D507401F0A3E4F07419120D5055
:10499000E4F0741A120D501249F9741E120D5012DF
:1049A00049F974CC8510828511837806F0A3D8FC70
:1049B0007406120D507402F0A3E4F07408120D5046
:1049C000E4F07409120D501249F9740D120D5012D1
:1049D00049F97422120D507C627D017411120C771A
:1049E0007411120D507411120C7785108285118389
:1049F0007411120C777433802BE4F0A3F0A3F0A3AE
:104A0000F022C082C083E490010E784BF0A3D8FC62
:104A10009001DE7864F0A3D8FC9001597809F0A3E6
:104A2000D8FC8003120D1AD083D0820200EFC0821E
:104A3000C0839061C8E0C3941B404DE5D9E5D9E53A
:104A4000D978007900E5D9C0E0EA28F582EB39F59C
:104A500083D0E0F008E8700109C39406124B3D4092
:104A6000E4E5D9E5D9E5D9E5D9E5D978007900E5D6
:104A7000D9C0E0EC28F582ED39F583D0E0F008E804
:104A8000700109124B3A40E7809DC082C08374F8E0
:104A9000120D04900262AC10AD117408120C77F87C
:104AA000F9124B46E0C0E0749628F582740139F59E
:104AB00083D0E0F008E87001097408684970E27476
:104AC00008024A2474F7120D7474E6120D04900162
:104AD00001E4F0851082851183781AF0A3D8FCE9EF
:104AE000851082851183F078017900EA28FCEB3982
:104AF000FDEC24FFF582ED34FFF583E0C0E0124BBE
:104B000046D0E0F008E8700109124B3A40DD7C081D
:104B10007D01791AAA10AB111202441202689001A9
:104B200001E0A2E650F8799112025C900101E4F0F4
:104B3000741A120D1A7F01020DE0C3941AE9940051
:104B4000A2D265D03322851082851183E58228F5B3
:104B500082E58339F5832274F0120D7474F4120D1A
:104B6000048A088B098C0A8D0B74057808120B9740
:104B7000E97003024C487408120D6A7402120D6247
:104B80001202927404120D6AAA10AB1112028C74F4
:104B900008120D50780C120C047404120D50780C8D
:104BA000120BF0851082851183C082C083740212BB
:104BB0000D50E0F8A3E0F9D083D082C3E098A3E0E1
:104BC000998510828511835035E02400F0A3E034EC
:104BD0007DF07402120D50E0F8A3E0F98510828593
:104BE0001183C3E098F0A3E099F090026A780C1268
:104BF0000C047404120D50780C120BC98008C3E029
:104C000098F0A3E099F0851082851183E0F8A3E085
:104C1000F97AD17B03120C98880C890DE4F50EF516
:104C20000F7808790C120BDC7404120D50780C12FA
:104C30000C047405780C120B977808790C120BDCB5
:104C400090026E7808120BB6900272780812032355
:104C50004007900243E4F0803A900276780812030D
:104C6000239002434004740180027402F0AA08AB4E
:104C700009AC0AAD0B12027A790112029E1202806F
:104C800012022C900243E0F912027412028679019A
:104C9000120298740C02491C53C6C775E40275E5EC
:104CA0004475DA0075DB7DD2B90200EF900101E4B2
:104CB000F053F4FB53FEFB53F6FB43F7401202267E
:104CC00053F4FB53FEFB43F6047A4D7B021202F2CF
:104CD0007901120256120238791712023E1202505E
:104CE0007A007B00750801750900EA7808120CF15A
:104CF000E508F4F852F352FD528F43F72052F45274
:104D0000FE52F643F7400AEA70010BC39408124EB4
:104D10007740D17A007B00750801750900EA7808B0
:104D2000120CF1E508F452F552FF52F743F7800AEE
:104D3000EA70010BC39405124E7740DB79009002B4
:104D40005A120C221201F079011201CC7900900262
:104D50005E120C221201F079001201CC794012028D
:104D60006E9002427404F01201D27A197B00120292
:104D7000CE8A088B0979FF1201EAAA08AB09120250
:104D8000C21201B4024E71120220900105E060F7D8
:104D90007E007F00EEF8EFF9E828F8E933F9749621
:104DA00028F50C740139F50D74592EF58274013F04
:104DB000F583E0700B7C027D00AA0CAB0D1202089B
:104DC0008E088F0974037808120CF1749E2508F57B
:104DD0000E74013509F50F850C82850D83124E8006
:104DE000120364850E82850F83124E8D850C828599
:104DF0000D83A3124E80120364850E82850F83A358
:104E0000A3A3A3124E8D0EEE70010FC39404EF12F4
:104E10004E7840807CBE7D017A9E7B011201F67542
:104E200008197509007808120EDD75080478081253
:104E30000EDD7C047D007A027B00120202740412F3
:104E40000D1A90017BE0F5087808120EDD90016ADA
:104E5000E0F5087808120EDD7A537B021202F27434
:104E600004120D1A900195E4F01201D8900105E4A6
:104E7000F012021A024D8AEB9400A2D265D03322BE
:104E8000E0F508E4F509F50AF50B780822E508F0E5
:104E9000A3E509F0A3E50AF0A3E50BF022D083D047
:104EA000820200EF74F6120D74750880750900789F
:104EB00008120EDD7C007D007A007B601202E67431
:104EC00002120D1A12024A759C7790618AE0640101
:104ED00070F8906001E054FC124F9F906003E0C2B4
:104EE000E0F0E0C2E1F0E0C2E2F090618A7401F02B
:104EF00090618BE0640170F8906002E0543FF0E054
:104F0000C2E0F0E0C2E1124F9F906018E0C2E2F010
:104F1000E0D2E0F0E0C2E4F0A37427F09060047403
:104F200003F0906008E4F0A37455F0A3F0A3F090B0
:104F3000618B7401F09061877469F090618674F3FD
:104F4000F09061BC7407F09062657413F09061A2F8
:104F50007410F09061807440F09061907404F0A33C
:104F60007448F0A3E4F0A374A3F09061A57401F079
:104F7000906194E4F0A374D6F0A374BEF0A3748996
:104F8000F0A3748EF09061E0E4F0A3745BF0A3747E
:104F900006F0A3E4F09061E904F07F02020DE0F076
:104FA000E0C2E2F0E0C2E3F0E054CFF022C082C001
:104FB00083E9FA90618AE0640170F890618DE054B1
:104FC00003600479048053E924E9600A24E860104E
:104FD00024CA601C802A906000E054804417802B13
:104FE000906000E05480442FF090600C7426802183
:104FF000906000E054804465F090600C742780114C
:10500000747F5AF8906000E0548048F090600C740F
:1050100025F090618A7401F07900024E9D74F712B8
:105020000D74E9FE7800C3941B40047903804E742C
:105030000D29F5D975D902740B29F5D98C828D8388
:10504000E0F5D9A3125082125082A3125090125050
:1050500090A3E0F5D975D90275D90175D904740109
:1050600029F5D975D9FF800EE8FCEA2CF582E43BDE
:10507000F583E0F5D908E8C39E40ED79007F010291
:105080000DE012508622E0F5D98C828D83A3A322F5
:10509000125086A3A32274F0120D7474F6120D043C
:1050A0007406120D50EAF0A3EBF0A3ECF0A3EDF0C0
:1050B0007406120D507808120C04900282780C12BB
:1050C0000C047808790C120523503A7406120D501E
:1050D0007808120C0490027A780C120C0478087983
:1050E0000C1204A8700B7A007B007C007D00025239
:1050F000189002497421F0A3E4F07AFF7BFF7C7FD3
:105100007D7F025218A810A9118808890978081211
:105110000EDD7408120D50120C221202D474021209
:105120000D1A7402120D50120C2E7402120D5078CA
:1051300008120C049002EA780C120C047808790C1E
:105140001207149002EE780C120C047808790C12F5
:10515000056F7402120D50780C120C04780C79084B
:1051600012092E780C7908120714850C08850D0990
:10517000850E0A850F0B851082851183E0A2E05011
:10518000251475F002120301FA9002F2780C120C49
:10519000047808790C12056FEAA2E713FAE41325E4
:1051A0000AF50AEA801175F002120301A2E713F86A
:1051B000E413250AF50AE8350BF50B7402120D50BD
:1051C0007808120C137402120D507808120C049017
:1051D00002F6780C120C047808790C12056FC008DE
:1051E000C009C00AC00B7406120D50780C120C04D2
:1051F0007402120D507808120C04780C7908120908
:105200002ED00BD00AD009D0087808790C120714D8
:10521000AA08AB09AC0AAD0B740A120D1A7F08027A
:105220000DE074F7120D74ECF8EDF98A828B83A30C
:10523000AE82AF83E0FAA3E0FBEAC398FCEB99FDF2
:10524000C3EC9404ED940040158E828F83E8F0A3A4
:10525000E9F088828983E4F0A3EAF0A3EBF07F0110
:10526000020DE074F5120D7490024BE0F8A3E0F922
:10527000E849700A90024B74FAF0A37402F09002AD
:105280004BE0FEA3E0FF74F9C39EFC74039FFDEAAC
:105290002403F8E43BF9C3EC98ED994040E08E829A
:1052A000F5837401F090024BE02AFCA3E03B8C8272
:1052B000F583A3A3A3AC82AD8390024BECF0A3EDE6
:1052C000F08E828F83A3ECF0A3EDF0C3E49AF8E4B0
:1052D0009BF990024BE028FAA3E039806278FA79D2
:1052E000028004ECF8EDF988088909C3E5089EE519
:1052F000099F504E88828983A3E0FCA3E0FD888249
:105300008983E070DEECC39508F508ED9509F50991
:10531000E50824FDF508E50934FFF509C3E5089A19
:10532000E5099B40BEE82403FEE439FF7401F0EE7A
:105330002AFCEF3BFDE8FAE9FB1202C8EEFAEFFBAC
:1053400080047A007B007F03020DE074F4120D7478
:10535000EAFEEBFF7AFA7B0278FA7902EE4F700CE4
:10536000025433E8FAE9FBE0F8A3E0F990024BE0DD
:10537000F50AA3E0F50BC3E8950AE9950B40030293
:10538000543388828983A3AC82AD83E82403F50873
:10539000E439F509EE65087003EF650970C5888288
:1053A0008983E070030254338C828D83E0F508A377
:1053B000E0F509C3E508950AE509950B5006AE0826
:1053C000AF098004E8FEE9FF8E828F83E0F50A8A48
:1053D000828B83E07022E50A700C8E828F83A3E0BB
:1053E000F508A3E0F5098A828B83A3E508F0A3E51D
:1053F00009F0EAF8EBF9801DE50A70138E828F83BD
:10540000A3E0FAA3E0FB8C828D83EAF0A3EBF088A3
:10541000828983E4F088828983A3E0FAA3E0FB9089
:10542000024BE06A7003A3E06B700890024BE8F057
:10543000A3E9F07F04020DE074F6120D7475088084
:105440007509007808120EDD7C007D007A007B6013
:105450001202E67402120D1A798112025C7991121D
:10546000025C90618674E102546AF07F02020DE0F2
:10547000C082C0839061B1E0D2E0803AC082C08334
:10548000E9F8906188E0F99061B1E06015E9A2E285
:105490004010E8601FE5E170FC75E10BE591A2E6C4
:1054A00050FAE0C2E0F0759100759B0090607F7447
:1054B0000FF079008001F0D083D0820200EFE5E1A7
:1054C00070FC89E10200EFE5E170FC75E108020083
:1054D000EFE5E170FC75E1090200EFC082C0839046
:1054E0006182E049F0439A010254B7C082C08375DB
:1054F000C300EA4B600BE5A28A828B83F0E5A3A38D
:10550000F0EC4D600312552ED083D0820200EFC024
:1055100082C08375C311EA4B600BE5A28A828B833C
:10552000F0E5A3A3F0EC4D600312552E80DAE5A45C
:105530008C828D83F0E5A5A3F0E5A68C828D83A3F4
:10554000A3F08C828D83A3A3A3E4F022A2AFE43363
:10555000F8C2AFE96003439402439401E594A2E2E8
:1055600050FAE8A2E092AF0200EFA2AFE433F8C233
:10557000AFE960034394025394FEE594A2E240FA3B
:1055800080E074F7120D74E9FEE5BE54FC4EF5BEE2
:10559000E9C3940240099061B1E0C2E0F08005796E
:1055A000041201C0120FDCEEC3940240079061B1F7
:1055B000E0D2E0F079001201BA7F01020DE074F44C
:1055C000120D748A088B098C0A8D0BE59DA2E050A0
:1055D000FAE595900244F0E596A3F0E597A3F0A3D1
:1055E000E4F09002447808120BC9900246E0F59767
:1055F000900245E0F596E5ADA2E050FA900244E055
:10560000F5957F04020DE0C2C7D2AD0200EFC2C71C
:10561000C2AD0200EF740169700575C6C98006E964
:10562000700353C680A8C6E59E6870FB0200EFC0F9
:10563000088908E59E53080753C6F8E50833333355
:1056400054F8450842C6A8C6E59E6870FB7900D0AC
:10565000080200EFE9FAE59EA2E64004790180190C
:10566000E9700553C67F800874016A700343C680E1
:10567000A8C6E59E6870FB79000200EF74F0120D79
:10568000748A088B098C0A8D0B7410120D50E0F887
:10569000A3E0F9E8FAE9FB90027A780C120C04789E
:1056A00008790C1204A8700E8A828B83E4F0A3F0B0
:1056B000FAFBFCFD8022EC33ED332482F83395E0D5
:1056C000F98A828B83E8F0A3E9F0AA08AB09ED54CC
:1056D00080443FFDECC2E7FC7F08020DE0EEC0E035
:1056E000E9FA7B001202FED0E0FE0200EF74F6122F
:1056F0000D7474FE120D04740C120D5A85108285FF
:105700001183E8F0A3E9F0A810A9118808890978A5
:1057100008120EDDE4F508F5097808120EDD7CECC0
:105720007D021202DA7404120D1A7402120D1A7F2D
:1057300002020DE074F6120D74EAF8EBF9740A1225
:105740000D50E0FEA3E0FF80188C828D83E08882FC
:105750008983F0A3A882A9838C828D83A3AC82ADB8
:10576000838E088F09E50824FF1EE50934FFFFE555
:1057700008450970D47F02020DE0C082C083851005
:1057800082851183E0F8A3E0F9E84960128A828BF0
:1057900083ECF0A3E824FF18E934FFF94870F2D055
:1057A00083D0820200EFC082C08375BE807901126F
:1057B00001BA79001201C679001201BAD083D082F1
:1057C0000200EFC082C08312023212022CD083D0BA
:0957D000820200EFD2AF0200EFEB
:04000005000000D720
:00000001FF
