:020000040000FA
:030000000200D724
:03002B0002086E5A
:03004B000207DCCD
:030053000208712F
:1000830002085000000080FBE4900101781479011C
:100093008002F0A3D8FCD9FA7A147B019001077887
:1000A300DC79018015E493A3AD82AE838A828B83CE
:1000B300F0A3AA82AB838D828E83D8E9D9E77582B8
:1000C300EA75831874001200E975828675830074DB
:1000D300001200E975D0007581BF7510017511011B
:1000E300759F0002008BC09FF59FE473D09F22D0C1
:1000F30083D082C09FE493C0E0740193C0E0740294
:1001030093F59F22454D505459205041434B41474D
:10011300450A00257820256C7520256C750A002575
:10012300782052454E45570A002A0054696D656F81
:1001330075740A002D20005052462E454E4443410B
:100143005553453A2025640A00496E69740A00AA8A
:10015300AAAAAAAAAABBBBBBBBBBBBFFFFFFFFE00C
:10016300FFFFFF200000006400000001000000E822
:10017300030000C8000000000000003031323334B7
:10018300353637383941424344454600286E756C4D
:100193006C20706F696E74657229003031323334AC
:1001A300353637383961626364656600464C4F41C2
:1001B30054533F2077726F6E6720666F726D617460
:1001C30074657220696E7374616C6C656421003FA1
:1001D3003F3F00010000006D4EC641393000001260
:1001E30000F28D12001200F29413001200F2F713C2
:1001F300001200F27F14001200F2EC14001200F25D
:100203003C16001200F2D718001200F2DF21001290
:1002130000F2F921001200F21E22001200F22D2337
:10022300001200F23E23001200F21023001200F22B
:100233005C1C001200F2741C001200F27D1C001200
:1002430000F2861D001200F20C20001200F244207E
:10025300001200F25020001200F29220001200F26D
:100263009B20001200F2A520001200F24C21001284
:1002730000F28821001200F2D121001200F2D821ED
:10028300001200F2B520001200F2D920001200F291
:100293001621001200F23421001200F21F1F001277
:1002A30000F2F61D001200F2371E001200F21D1AB2
:1002B300001200F2A108001200F2E422001200F280
:1002C3004622001200F25622001200F29D22000084
:1002D3000022C008C3E096F50808A3E09642080888
:1002E300A3E096420808A3E0964208A2D265D03361
:1002F300E5087001D3D00822C3E7960809E79608FA
:1003030009E7960809E79622080808EAC0E0EBC067
:10031300E086F0E7A4FA180986F0E7A42AFA180998
:1003230086F0E7A42AFA180986F0E7A42AFA1986C0
:10033300F0E7A4FBE5F02AFA190886F0E7A42BFB03
:10034300E5F03AFA190886F0E7A42BFBE5F03AFA50
:1003530018180986F0E7A4C5F02BFBE43AFA19084C
:10036300E7C5F0C6A426F6E5F03BFBE43AFA1886A7
:10037300F0E7A4F6E5F00826F6E43B08F6E43A08CD
:10038300F6D0E0FBD0E0FA22E4CFC0E0E4CEC0E058
:10039300E4CDC0E0E4CCC0E075F020E626F608E644
:1003A30033F608E633F608E633F6181818EC33FC90
:1003B300ED33FDEE33FEEF33FFC3EC9709ED970901
:1003C300EE9709EF97191919400FFFEC97FC09ED08
:1003D30097FD09EE97FE191906D5F0BFECF709ED65
:1003E300F709EEF709EFF7191919D0E0FCD0E0FD92
:1003F300D0E0FED0E0FF22E4C396F608E496F608C8
:10040300E496F608E496F6226016080808C6C313B5
:10041300C618C613C618C613C618C613C6D5E0EA4F
:10042300227009080808226016181818C6C333C6B4
:1004330008C633C608C633C608C633C6D5E0EA22A3
:10044300E627F60809E637F60809E637F60809E667
:1004530037F622E026F608A3E036F608A3E036F6E0
:1004630008A3E036F622E026F008A3E036F008A35E
:10047300E036F008A3E036F022C3E697F60809E673
:1004830097F60809E697F60809E697F622C3E09679
:10049300F008A3E096F008A3E096F008A3E096F036
:1004A30022E0F608A3E0F608A3E0F608A3E0F622AC
:1004B300E6F008A3E6F008A3E6F008A3E6F022E0DE
:1004C300FAA3E0FBA3E0FCA3E0FD22E0FCA3E0FD34
:1004D300A3E0FEA3E0FF22ECF0A3EDF0A3EEF0A374
:1004E300EFF022CAC0E0E6F0A308DAFAD0E0FA227D
:1004F300CAC0E0E0A3C582CCC582C583CDC583F065
:10050300A3C582CCC582C583CDC583DAE6D0E0CA54
:1005130022C3E498F8E499F91205558026C3E49AB6
:10052300FAE49BFBE920E7E9120555E498F8E4991E
:10053300F922C3E498F8E499F9120555E498F8E42C
:1005430099F9C3E49AFAE49BFB22EB20E7CFE92075
:10055300E7E0B90010BB0008E88AF084F8AAF022AB
:10056300E4FBC8FA22EB70227B10C833C8C933C935
:10057300335007C39AC3DBF280069A50012ADBEAA1
:10058300C833F4C8C933F4C9FA2275F008E4C83390
:10059300C8C933C933C99AC99B5004C92AC93BD5B1
:1005A300F0ECFBC833F4C8E4C9FA22700422600DEE
:1005B30018C6C333C608C633C6D5E0F418222510BF
:1005C30010AF08F510400C15118008F51040021506
:1005D30011D2AF2200C0D0251010AF08F510500C77
:1005E30005118008F51050020511D2AFD0D0222595
:1005F30010F58210AF08F510400C15118008F510A6
:1006030040021511D2AF851183222510F582E435FE
:1006130011F583222510F8E43511F9222510FAE4A7
:100623003511FB222510FCE43511FD22E47325105E
:10063300C582C0E0E51134FFC583C0E0E510C39572
:100643008224F810AF088583118582108008858382
:1006530011858210D2AFCEF0A3E520F0A37808E68F
:1006630008F0A3DEFAEFF0A3E58124FAF8E608F038
:10067300A3E608F0A3E608F0A30808E608F0A3E65B
:1006830008F0A315811581D0E0FED0E0F81581159F
:10069300811581E8C0E0EEC0E022851183851082D8
:1006A300E0A3FEE0A3F5207808E0A3F608DFFAE074
:1006B300A3FFE0A3C0E0E0A3C0E0E0A3C0E0E0A3A9
:1006C300C0E0E0A3C0E010AF0885821085831180ED
:1006D30008858210858311D2AFD083D0820200EFC8
:1006E300C0D02510C582C0E0E51134FFC583C0E04A
:1006F300E510C3958224F310AF088583118582101A
:100703008008858311858210D2AFC8F0A3E9F0A3D6
:10071300EAF0A3EBF0A37908E709F0A3D8FAECF029
:10072300A3EDF0A3EEF0A3EFF0A3D0E0F0A3D0E0AD
:10073300F0A3D0E0F0A3E520F0A3E5F0F0A3228539
:100743001183851082E0C0E0A3E0F9A3E0FAA3E0FF
:10075300FBA37808E0F608A3DFFAE0FCA3E0FDA31F
:10076300E0FEA3E0FFA3E0C0E0A3E0C0E0A3E0F568
:10077300D0A3E0F520A3E0A3F5F010AF0885831123
:100783008582108008858311858210D2AFD082D0F4
:1007930083D0E0F8D0E0327404800474028000C097
:1007A300E0F4041205F2D0E01204E622740480009F
:1007B300CCC0E0EDC0E0E510C39CCCAD1150011DF1
:1007C30010AF068C108D1180068C108D11D2AF12D4
:1007D30004F3D0E0FDD0E0FC22C0E074F21206E3A3
:1007E300900102E0F8A3E0F9900106E0687003A32A
:1007F300E06970079001057401803E900102C3E037
:1008030094E9A3E094034032900104E0700474017E
:100813008001E4F0E0F91202061202CCEAF8EBF9E7
:100823007AE87B0312054D900106EAF0A3EBF09002
:100833000102E4F0A3F0900105F0C2C1900102E0CF
:100843002401F0A3E03400F07F01020742C0E0C0BE
:10085300D0C082C083E59190010CF0759B00E0F459
:10086300F591D083D082D0D0D0E032C2C732C0E07D
:10087300C0D0E8C0E0C082C083A8A1E8A2E45006CB
:100883009001117401F0E8F4F5A1C2C2D083D082C3
:10089300D0E0F8D0D0D0E03200758701002274F0A8
:1008A30012063174B31205C1851082851183EAF0F3
:1008B300A3EBF0740F12060DECF0A3EDF0740B1222
:1008C300060DE4F0A3801B745D12060D12118874EB
:1008D3000F12060D12119812062F740B12060D1229
:1008E3001222F01211A5F9851082851183E02401EB
:1008F300FAA3E03400FB851082851183EAF0A3EBB1
:10090300F07425696015E970BE740B12060D12119F
:1009130088744D1205D77F0802069D1211A5642520
:100923007019851082851183E024010812122B743B
:100933005D12060D12118879258094740E12060D2E
:10094300E4F0740D12060DE4F0740812060DE4F0E1
:10095300740712060DE4F0741B12061774021206D4
:100963000D121236741912060D748BF0A3740180E4
:1009730019740712060DE07007740712060DEAF0EA
:10098300851082851183E8F0A3E9F01211F6FAA32A
:10099300E0F5838A82E0FA24E060D624FD60172420
:1009A300F860D624FE600624FD600F8011740812DF
:1009B300060DE00480C9740D80F5740E80F1851076
:1009C3008285118312117FE0642A7044745F1206DA
:1009D3000D12117F121188EAFCEBFD8A82F5831256
:1009E3001188EC2402FC50010D745F12060D1211E4
:1009F300CBC3EB1211505013C3E49AFCE49BFDEC00
:100A0300FAEDFB740812060DE004F0121230803C7C
:100A13007A007B00802AEA75F00AA4FAA9F075F03F
:100A23000AEBA429FBEA28F8E43BF9E824D0FAE925
:100A330034FFFB851082851183E02401F812122B09
:100A43001211A5F874D028C3940A40CA7408120678
:100A53000DE06007740E12060DE4F01211A5642E6A
:100A63006003020AF28510828511831211758510C5
:100A730082851183E8F0A3E912125B642A702E7455
:100A83005F12060D1211B9F98882F58312116F7482
:100A93000412060DECF0A3EDF0E82402F85001096E
:100AA300745F12060D121202121262804B7404124A
:100AB300060DE4F0A312125BFC74D02CC3940A500D
:100AC30038740412060D12116875F00AA4F8ADF01B
:100AD30075F00AE9A42DF9E82CF8E439F9E824D0F3
:100AE300F8E934FFF9740412060D12126280C67419
:100AF3000412060D74FFF0A3F07C001211F6FDA39F
:100B0300E0F5838D82E024B4600824E4600624FCCD
:100B130070057C011212301211A5C0E07406120692
:100B23000DD0E0121266F0740612060DE070030297
:100B33000FF324BB7003020FBE24FE7003020FBE2B
:100B430024EF7003020D1424F57003020BF31470E9
:100B530003020DB5147003020FBE147003020FBE1F
:100B6300147003020FBE24FE7003020DB524FB6054
:100B730024147003020CEA147003020D1424FD7094
:100B830003020C3324FE7003020D1424FD700302D0
:100B93000D08020FFF745F12060D12120FE8FEE933
:100BA300FFE5082402F50850020509ECA2E0740BE6
:100BB300502712060D1211623395E0FA8E828F834D
:100BC300121236A3EAF0A3F0745F12060D12119805
:100BD300E508F0A3E5090208E512060D1211628E7D
:100BE300828F83121236745F12060D12117F80E01A
:100BF300745F12060D1211B9F5838882E0C0E074A8
:100C03001B12060DD0E0F0745F12060D1211AB2417
:100C130002F8A3E03400F9745F12060D12120212F7
:100C23001236741C12060DA882A9837409020CE003
:100C3300745F12060D12120FE5082402FCE4350955
:100C4300FD745F12060D1211CB740212060D1212FF
:100C530036E849700C740212060D749CF0A37401FB
:100C6300F0740412060D1211C0500C740412060D18
:100C73007410F0A37427F07E007F0080050EEE70E1
:100C8300010F740212060D1211628882F583A3AC60
:100C930082AD83740212060DECF0A3EDF088828915
:100CA30083E06014740412060D121162C3EE98EF10
:100CB30099A2D265D03340C5740212060D1211D920
:100CC300740912060D121236C3E49EF8E49FF974F8
:100CD3000912060DE028F8A3E039F9740212060D93
:100CE300E8F0A3E9021016740D12060DE060167405
:100CF3000412060D12116849700B740412060D7468
:100D030001F0A3E4F0741912060D74ABF0A374019F
:100D1300F0745F12060D1211E7740612060DE064FB
:100D230070703885088285098312116F7411120659
:100D33000DECF0A3ED121254E50812115812060D32
:100D4300121202121236741512060D741012125476
:100D5300A3F0740712060DE4020E2AECA2E0E508E4
:100D6300501612113D12060D12123C1204CE7411CC
:100D730012060D1204DA801912115812060D1212FE
:100D83004FF8A3E0F9741112060DE8F0A3E912126B
:100D930054740612060DE0646F7009741512060D83
:100DA300740880A9E06475709D741512060D740AA9
:100DB300809B745F12060D1211E7ECA2E0E5085068
:100DC3001012113D12060D12123C78081204A48071
:100DD3001612115812060D12124FF508A3E0F50969
:100DE3003395E0F50AF50B741112060D7808120419
:100DF300B390018778081202D54021740712060DBB
:100E0300742DF0741112060D78081204A4780812D8
:100E130003FA741112060D78081204B3741512063E
:100E23000D740A121254A3F0744C12060DA882A971
:100E330083740212060D121236740912060D121271
:100E430036741112060D1204CEEC4D4E4F6004D2CF
:100E5300008010C200740412060D12116849700359
:100E6300020F2D740212060D1211D9740212060D0F
:100E7300121236741112060D780C1204A474151292
:100E8300060D78081204A4780C790812038B7419E0
:100E930012060DE02508F8A3E035098882F583E002
:100EA300C0E0740212060D121198D0E0F074111212
:100EB300060D780C1204A4741512060D780812049A
:100EC300A4780C790812038B741112060D780C1296
:100ED30004B3741112060D1204CEEC4D4E4F708301
:100EE300740412060D1211C05040740E12060DE068
:100EF3006038740712060DE06004D2F08002C2F07D
:100F0300A2F0E433F8EA98F8EB9400F974041206BB
:100F13000DE8F0A3E98012740212060D1212367462
:100F23000212060D1211987430F0740212060D129B
:100F330011D9744C12060DC082C083740212060DBF
:100F430012116FD083D082E582C39CFEE5839DFF9F
:100F5300740412060D12116FC3EE9CEF9DA2D265AD
:100F6300D03340B3740D12060DE07003021017A2C4
:100F7300004003021017740612060DE06478600542
:100F8300E064587010E088828983F0E824FF18E950
:100F930034FFF98012E0646F707A740212060D1246
:100FA3001202E06430606D740212060D1212367480
:100FB3000212060D12119874308058740212060D35
:100FC30074BCF0A37401F0740912060D74BCF0A391
:100FD3007401F0740912060D1211AB603774091213
:100FE300060D121175740912060DE8F0A3E980E2EB
:100FF3008510828511831211DE12122F74021206DC
:101003000D74DFF0A37401F0740912060D74E2F09D
:10101300A37401F0740912060DC082C08374021216
:10102300060D121162D083D082E0C398F8A3E09931
:10103300F9740412060D121236740412060DE0F848
:10104300C3EA98EB99A2D265D03350067E007F00A5
:101053008021740712060DE06004D2F08002C2F012
:10106300EAC398F8EB99F9A2F0E433FAE89AFEE9B7
:101073009400FF740812060DE070208019745D124D
:10108300060D12118E12060D12119812062F740BF3
:1010930012060D12121D12114750E2740712060DAB
:1010A300E06051745D12060D121188740712060D6B
:1010B300E0F9740F12060D12119812062F802D7489
:1010C3005D12060D121188740212060D1211ABF98E
:1010D300740F12060D12119812062F740212060DC8
:1010E300E012127B740212060D121236740B1206F2
:1010F3000D12121D740412060DE024FFF0A3E03458
:10110300FFF0740412060D1211C050B374081206D6
:101113000DE070030208E612114750030208E6745B
:101123005D12060D12118E12060D12119812062F62
:10113300740B12060D12121D80DD2404F8E4350928
:10114300F9745F22EE24FF1EEF34FFFFC39400A265
:10115300D265D033222402F8E43509F9745F22E022
:10116300F8A3E0F922E0F8A3E0F9E822E0FCA3E029
:10117300FD22E0240108A3E03400F922E0FAA3E011
:10118300F5838A8222E0FAA3E0FB22E0FAA3E0FBE4
:101193007920740F2212119C22E0F8A3E0F58388D2
:1011A30082228510828511831211AF22E0F8A3E019
:1011B300F5838882E0221211AFF8A3E022C3A3E0F3
:1011C3009400A2D265D03322E0FEA3E0F5838E82A1
:1011D300ECF0A3EDF0221211DEF922E024FFF8A3D4
:1011E300E034FF221211EB2212119CE0F508A3E078
:1011F300F50922851082851183E0121271E0221213
:10120300120622E0FCA3E0F5838C82221211EB8507
:101213000882F583E0F8A3E0F922121222F022E01B
:101223002401F0A3E0340022A3E03400F985108206
:10123300851183E8F0A3E9F022121240221212066C
:10124300E8F0A3E9F085088285098322121240E0C1
:1012530022F0A3E4F0A3F0221212841211B022E8C8
:10126300F0A3E9121284121271E8F0A3E922121218
:101273007B851082851183222401F8A3E03400F9D1
:1012830022F0851082851183E02274F412063174F2
:10129300EF1205C178007900EA28F582EB39F5836E
:1012A300E0C0E0851082851183E58228F582E5831D
:1012B30039F583D0E0F008E8700109C394061213EE
:1012C3008B40D5740612060DECF0A3EDF0741D12DD
:1012D300060D78081204A4740812060DE508F074CC
:1012E3000912060D7401121880740D12060D1218DE
:1012F30082A3F090010AE02401F0A3E03400F0900F
:10130300010AE0FCA3E0FDEC75F011A4FCA8F07564
:10131300F011EDA428FD900108E0FAA3E0FB12020E
:10132300AE900108EAF0A3EBF0851082851183C02B
:1013330082C08390010A12162CE875F011A4F8AA52
:10134300F075F011E9A42AF9900108E028F8A3E068
:1013530039F9E824EFFCE934FFFDD083D08274111E
:101363001204F374111205D77F0402069DEA98F85C
:1013730095E0F9E824FF18E934FFF9E508240DFEA8
:10138300E43509FFC3E89401E99400A2D265D033A0
:101393002274F712063178007900800508E870019D
:1013A3000990010AE0FCA3E0FDC3E89CE99DA2D2F9
:1013B30065D0335036E8FCE9FDEC75F011A4FCAEC2
:1013C300F075F011EDA42EFD900108E02CFCA3E0D4
:1013D3003DFD8C82F583A3A3A3A3A3A3E06A7003BB
:1013E300A3E06B70B7ECFAEDFB80047A007B007F1F
:1013F3000102069D74F6120631EAFCEBFD780079D2
:1014030000800508E870010990010AE0FAA3E0FBF7
:10141300C3E89AE99BA2D265D03350577508017E81
:10142300007F00E8FAE9FBEA75F011A4FA85F009F8
:1014330075F011EBA42509FB900108E02AFAA3E05B
:101443003BFBEA2EF582EB3FF583E0F509EC2EF545
:1014530082ED3FF583E0650960037508000EEE70C9
:10146300010FC39406EF12138C40D7E508A2E05096
:101473009280047A007B007F0202069DC082C083B3
:101483009061C8E0C3941B4052E5D9E5D9E5D9780A
:10149300007900E5D9C0E0EA28F582EB39F583D07D
:1014A300E0F008E8700109C3940612138B40E4E5E9
:1014B300D9E5D9E5D9E5D9E5D978007900E5D9C0E9
:1014C300E0EC28F582ED39F583D0E0F008E870010F
:1014D30009C3941A12138B500980E27A147B011208
:1014E30002C6D083D0820200EF74F012063174F486
:1014F3001205C18A088B098C0A8D0B7405780812B2
:101503000424E970030215D7740812062774021223
:10151300061F12028A7404120627AA10AB111202C4
:1015230084740812060D780C1204A4740412060DB8
:10153300780C120490851082851183C082C0837455
:101543000212060D12162CD083D082C3E098A3E0BA
:10155300998510828511835033E02400F0A3E03491
:101563007DF0740212060D12162C851082851183EC
:10157300C3E098F0A3E099F090016B780C1204A4F7
:10158300740412060D780C1204698008C3E098F005
:10159300A3E099F085108285118312162C7AD17BF2
:1015A30003120555880C890DE4F50EF50F780879BB
:1015B3000C12047C740412060D780C1204A4740536
:1015C300780C1204247808790C12047C90016F784B
:1015D3000812045690017378081202D5400790014F
:1015E30001E4F0803A90017778081202D590010166
:1015F3004004740180027402F0AA08AB09AC0AAD7E
:101603000B120272790112029612027812022490CE
:101613000101E0F912026C12027E79011202907448
:101623000C1205D77F0802069DE0F8A3E0F9227AA1
:101633002F7B011202C674022274F012063174DE8B
:101643001205C190607FE0600302181B90010CE05B
:10165300A2E0400302180874081206277402120657
:101663001F1201F4740812060DE0F8740912060D36
:10167300E0C0E0740112060DD0E0F0740A12060D0A
:10168300E0F9740B12060DE0851082851183F0904A
:10169300010AE02401FEA3E03400FFE8600302171F
:1016A30036740212061F1201EE8A088B09EA4B7088
:1016B30008740112060D02175812188974011206D4
:1016C3000D1218A07001EF605112137040311218FF
:1016D3005B1204698E828F83780C1204698C828D6D
:1016E300831207AF8E828F831207AF1218AD1207D2
:1016F3009E7A237B011202C6740A1205D7802CC37B
:1017030012138B502612186E0412060D1218B612FD
:10171300079E1216321205D7801190017B780C12A6
:1017230004A48C828D83780C120469740112060D53
:101733000217F674016860087402686003021814E3
:10174300E9FA7B001201E88A088B09EA4B702985C4
:101753001082851183E0F508E4F509F50AF50B78A5
:101763000812079AEEFCEFFD740612061F1201E23F
:1017730074041205D7021814121889851082851172
:10178300831218A07001EF605312137040311218C6
:101793005B1204698E828F83780C1204698C828DAC
:1017A300831207AF8E828F831207AF1218AD120711
:1017B3009E7A237B011202C6740A1205D7802EC3B8
:1017C30012138B502812186E8510828511831218FC
:1017D300B612079E1216321205D7801190017B783C
:1017E3000C1204A48C828D83780C120469851082F8
:1017F300851183E0850882850983A3A3A3A3A3A3FB
:10180300A3A3F0800CE0A2E240077A397B01120225
:10181300C67981121852802DE0640170097A3B7BEE
:10182300011202C6801F7A447B011202C690607FB8
:10183300E0F508750900780812079E7A477B0112C4
:1018430016361205D7798112025A7422021624120F
:10185300025A90010CE4F022E93395E0880C890DDB
:10186300F50EF50F8C828D83780C228E828F831276
:101873001882A3F08C828D830412188022F0A3E4D3
:10188300F0A3F0A3F0228A828B83A3A3A3A3A3A331
:10189300A3A3E0F8EA2409FCE43509FD22E0FAE811
:1018A3002401FEE43400FFEE6A228508828B831252
:1018B30018CE22E08508828B83A3A3A3A3A3A3A3AB
:1018C300A3F08508828B831218CE22E0F50A750BEC
:1018D30000780A22E953F4FB6007D29243FE0480A6
:1018E30003121A130200EF74F41205C190010CE401
:1018F300F053F4FB121A1312021E53F4FB53FEFBB4
:1019030043F6047A597B011202C67901120254127A
:10191300023C791712024212024E7A007B007508CC
:1019230001750900EA78081205AEE508F4F852F3E8
:1019330052FD528F43F72052F452FE52F643F740C2
:101943000AEA70010BC39408EB12138C40D07A009F
:101953007B00750801750900EA78081205AEE508F1
:10196300F452F552FF52F743F7800AEA70010BC3B2
:101973009405EB12138C40DA790090017F1204C2B4
:101983001201FA790112020679009001831204C24E
:101993001201FA7900120206794012026690015F81
:1019A300740612062774061204F3900165AC10AD99
:1019B3001174061204F39001871207AF7C017D00B6
:1019C300740A12061F1201E274041205D7900187EC
:1019D3001207AF7C027D00740412061F1201E27429
:1019E300041205D790010CE4F012026090010CE0A0
:1019F300A2E64006900105E060F212020090010C9D
:101A0300E4F012023090607F740FF012023680D43B
:101A130053FEFB53F6FB43F7402274F01206317476
:101A2300FE1205C1EAFEEBFFECFAEDFB85108285A1
:101A3300118374EFF0A37401F0EE4F70051202A846
:101A4300800FEC4B7026EEFAEFFB12029C7A007BC0
:101A53000074021205D77F0802069D121BE3121CB5
:101A630055851082851183E8F0A3E9F085108285FE
:101A73001183C082C083900112121C56D083D0827E
:101A8300C3E098A3E09950C5851082851183E024B3
:101A930003F8A3E03400F9EE687002EF6985108261
:101AA300851183181818A370B2121BE3E0609E859A
:101AB3001082851183121BE2121C06504C900112F6
:101AC300E0FCA3E0FDE86C7002E96D607DEE2AFCAA
:101AD300EF3BFD88828983E06003021BAB851082A4
:101AE300851183E0FAA3E0F5838A82A3ECF0A3EDEA
:101AF300F08C828D83E4F088828983121C558C825A
:101B03008D83A3E8F0A3E9805FC3EC9AED9B4003C8
:101B1300021BDB900112E0FCA3E0FDE86C7002E91C
:101B23006D705F8E088F09E4F50AF50B8A0C8B0D37
:101B3300F50EF50F7808790C120443750CEE750D4C
:101B4300027808790C1202FB4021EE2AFCEF3BFDE0
:101B5300851082851183E0F8121BE2A3ECF0A3ED5C
:101B6300F0900112ECF0A3EDF0806D121BE970030D
:101B7300021A50121C308003121C13121BF370F84C
:101B8300804B88828983E0702F121C06502A8510AF
:101B930082851183E0FCA3E0F5838C82A3E8F0A3A4
:101BA300E9F0EE2AFCEF3BFD851082851183E0FA14
:101BB300A3E0FB1202A28020121BE97003021A5059
:101BC300121C308003121C13121BF370F8EEFAEF91
:101BD300FB12029CAE08AF09EEFAEFFB021A54A304
:101BE300E0F5838882221202A88A088B09EA4B2235
:101BF3008A0A8B0BE50A24FF1AE50B34FFFBE50A7F
:101C0300450B22121C4EFCE99FFDC3EA9CEB9D226F
:101C130088828983E08C828D83F088828983A3A85C
:101C230082A9838C828D83A3AC82AD8322851082AB
:101C3300851183E0F8A3E0F5838882121C4EFAE94C
:101C43009FFBAC08AD09EEF8EFF922121C55E8C36F
:101C53009E22A3E0F8A3E0F922C082C08390618AA8
:101C6300E0640170F880037401F0D083D082020035
:101C7300EFC082C08390618A80ED74F612063175DD
:101C83000880750900780812079E7C007D007A00A1
:101C93007B601202BA74021205D7120248759C7750
:101CA30090618AE0640170F8906001E054FC121DB9
:101CB30078906003E0C2E0F0E0C2E1F0E0C2E2F05D
:101CC30090618A7401F090618BE0640170F8906018
:101CD30002E0543FF0E0C2E0F0E0C2E1121D789070
:101CE3006018E0C2E2F0E0D2E0F0E0C2E4F0A374F6
:101CF30027F09060047403F0906008E4F0A3745537
:101D0300F0A3F0A3F090618B7401F0906187746984
:101D1300F090618674F3F09061BC7407F090626593
:101D23007413F09061A27410F09061807440F0908D
:101D330061907404F0A37448F0A3E4F0A374A3F0D7
:101D43009061A57401F0906194E4F0A374D6F0A3BC
:101D530074BEF0A37489F0A3748EF09061E0E4F094
:101D6300A3745BF0A37406F0A3E4F09061E904F0BC
:101D73007F0202069DF0E0C2E2F0E0C2E3F0E0542D
:101D8300CFF022C082C083E9FA90618AE0640170D7
:101D9300F890618DE05403600479048053E924E9E9
:101DA300600A24E8601024CA601C802A906000E066
:101DB30054804417802B906000E05480442FF090AF
:101DC300600C74268021906000E054804465F0909C
:101DD300600C74278011747F5AF8906000E054807F
:101DE30048F090600C7425F090618A7401F07900DA
:101DF300021C6D74F7120631ECF8EDF98A828B83BD
:101E0300A3AE82AF83E0FAA3E0FBEAC398FCEB99AD
:101E1300FDC3EC9404ED940040158E828F83E8F0AB
:101E2300A3E9F088828983E4F0A3EAF0A3EBF07FCF
:101E33000102069D74F5120631900112E0F8A3E049
:101E4300F9E849700A90011274EFF0A37401F0905D
:101E53000112E0FEA3E0FF74EEC39EFC74029FFD3B
:101E6300EA2403F8E43BF9C3EC98ED994040E08E93
:101E730082F5837401F0900112E02AFCA3E03B8C0D
:101E830082F583A3A3A3AC82AD83900112ECF0A3EC
:101E9300EDF08E828F83A3ECF0A3EDF0C3E49AF808
:101EA300E49BF9900112E028FAA3E039806278EF0D
:101EB30079018004ECF8EDF988088909C3E5089EE7
:101EC300E5099F504E88828983A3E0FCA3E0FD8847
:101ED300828983E070DEECC39508F508ED9509F57A
:101EE30009E50824FDF508E50934FFF509C3E5080C
:101EF3009AE5099B40BEE82403FEE439FF7401F030
:101F0300EE2AFCEF3BFDE8FAE9FB1202A2EEFAEF40
:101F1300FB80047A007B007F0302069D74F41206A3
:101F230031EAFEEBFF7AEF7B0178EF7901EE4F7038
:101F33000C022007E8FAE9FBE0F8A3E0F9900112AC
:101F4300E0F50AA3E0F50BC3E8950AE9950B400316
:101F530002200788828983A3AC82AD83E82403F53A
:101F630008E439F509EE65087003EF650970C58863
:101F7300828983E070030220078C828D83E0F50859
:101F8300A3E0F509C3E508950AE509950B5006AEEC
:101F930008AF098004E8FEE9FF8E828F83E0F50A2B
:101FA3008A828B83E07022E50A700C8E828F83A372
:101FB300E0F508A3E0F5098A828B83A3E508F0A383
:101FC300E509F0EAF8EBF9801DE50A70138E828FBC
:101FD30083A3E0FAA3E0FB8C828D83EAF0A3EBF00A
:101FE30088828983E4F088828983A3E0FAA3E0FBF3
:101FF300900112E06A7003A3E06B7008900112E88D
:10200300F0A3E9F07F0402069D74F6120631750809
:1020130080750900780812079E7C007D007A007B9A
:10202300601202BA74021205D7798112025A7991A9
:1020330012025A90618674E102203EF07F0202068A
:102043009DC082C0839061B1E0D2E0803AC082C07B
:1020530083E9F8906188E0F99061B1E06015E9A245
:10206300E24010E8601FE5E170FC75E10BE591A229
:10207300E650FAE0C2E0F0759100759B0090607F36
:10208300740FF079008001F0D083D0820200EFE575
:10209300E170FC89E10200EFE5E170FC75E1080203
:1020A30000EFC082C083906182E049F0439A01024D
:1020B300208BC082C08375C300EA4B600BE5A28A04
:1020C300828B83F0E5A3A3F0EC4D60031220F8D0DC
:1020D30083D0820200EFC082C08375C311EA4B60D4
:1020E3000BE5A28A828B83F0E5A3A3F0EC4D60039A
:1020F3001220F880DAE5A48C828D83F0E5A5A3F0A5
:10210300E5A68C828D83A3A3F08C828D83A3A3A3E6
:10211300E4F022A2AFE433F8C2AFE96003439402D0
:10212300439401E594A2E250FAE8A2E092AF0200E0
:10213300EFA2AFE433F8C2AFE960034394025394D0
:10214300FEE594A2E240FA80E074F7120631E9FE5C
:10215300E5BE54FC4EF5BEE9C3940240099061B15B
:10216300E0C2E0F08005790412021212089CEEC36B
:10217300940240079061B1E0D2E0F0790012020CC2
:102183007F0102069D74F41206318A088B098C0ABA
:102193008D0BE59DA2E050FAE59590010DF0E596D3
:1021A300A3F0E597A3F0A3E4F090010D78081204DF
:1021B3006990010FE0F59790010EE0F596E5ADA269
:1021C300E050FA90010DE0F5957F0402069DC2C729
:1021D300D2AD0200EFC2C7C2AD0200EF7401697055
:1021E3000575C6C98006E9700353C680A8C6E59E77
:1021F3006870FB0200EFC0088908E59E5308075387
:10220300C6F8E50833333354F8450842C6A8C6E593
:102213009E6870FB7900D0080200EFE9FAE59EA200
:10222300E6400479018019E9700553C67F8008747C
:10223300016A700343C680A8C6E59E6870FB7900F7
:102243000200EFEEC0E0E9FA7B001202D2D0E0FE1A
:102253000200EF74F612063174FE1205C1740C12FB
:102263000617851082851183E8F0A3E9F0A810A969
:102273001188088909780812079EE4F508F509789A
:102283000812079E7CC07D021202B474041205D7A3
:1022930074021205D77F0202069D74F01206319074
:1022A30001E378081204A49001E7780C1204A478DF
:1022B30008790C12030B9001EB7808120456900175
:1022C300E378081204B39001E378081204A47410AD
:1022D300780812040BAA08E509547FFB7F0802065D
:1022E3009DC082C083851082851183E0F8A3E0F945
:1022F300E84960128A828B83ECF0A3E824FF18E993
:1023030034FFF94870F2D083D0820200EFC082C05C
:102313008375BE80790112020C79001202187900CC
:1023230012020CD083D0820200EFC082C08312025B
:102333002A120224D083D0820200EFD2AF0200EF30
:04000005000000D720
:00000001FF
