:020000040000FA
:030000000200D724
:03002B0002089E2A
:03004B0002080C9C
:030053000208A1FF
:1000830002088000000080FBE4900101781A7901E6
:100093008002F0A3D8FCD9FA7A1A7B019001077881
:1000A300F179018015E493A3AD82AE838A828B83B9
:1000B300F0A3AA82AB838D828E83D8E9D9E77582B8
:1000C3005C75831774001200E9758286758300746A
:1000D300001200E975D0007581BF7510017511011B
:1000E300759F0002008BC09FF59FE473D09F22D0C1
:1000F30083D082C09FE493C0E0740193C0E0740294
:1001030093F59F22454D505459205041434B41474D
:10011300450A00454E4443415553453A2025640A58
:10012300005478204E4F6B0A004D79206E756D6236
:1001330065722063616D65206261636B3A2025758A
:100143000A002A0054696D656F75740A002D20003A
:100153005052462E454E4443415553453A2025645B
:100163000A00496E69740A00FFFFFFFFE0FFFFFF0B
:100173002000000064000000ABAB0000E8030000B7
:10018300C8000000AAAA000001000000000000004F
:1001930030313233343536373839414243444546BA
:1001A30000286E756C6C20706F696E74657229001F
:1001B30030313233343536373839616263646566DA
:1001C30000464C4F4154533F2077726F6E67206651
:1001D3006F726D617474657220696E7374616C6C97
:1001E300656421003F3F3F00010000006D4EC641A2
:1001F300393000001200F2BD12001200F233130076
:100203001200F27914001200F2C115001200F23547
:1002130017001200F24817001200F2EC1E00120041
:10022300F2061F001200F22B1F001200F2522000F0
:100233001200F26320001200F21D20001200F2F0FF
:1002430018001200F20819001200F211190012002E
:10025300F21A1A001200F28A1A001200F2191D0093
:100263001200F2511D001200F25D1D001200F29FF8
:100273001D001200F2A81D001200F2B21D001200B0
:10028300F2591E001200F2951E001200F2DE1E004B
:100293001200F2E51E001200F2C21D001200F2E687
:1002A3001D001200F2231E001200F2411E00120074
:1002B300F22C1C001200F2031B001200F2441B007C
:1002C3001200F2D108001200F2F11F001200F253E3
:1002D3001F001200F2631F001200F2AA1F00120097
:1002E300F23A2000000022E066701008A3E0667076
:1002F3000A08A3E066700408A3E06622C008C3E00E
:1003030096F50808A3E096420808A3E09642080879
:10031300A3E0964208A2D265D033E5087001D3D09A
:100323000822080808EAC0E0EBC0E086F0E7A4FA78
:10033300180986F0E7A42AFA180986F0E7A42AFA2E
:10034300180986F0E7A42AFA1986F0E7A4FBE5F07A
:100353002AFA190886F0E7A42BFBE5F03AFA190804
:1003630086F0E7A42BFBE5F03AFA18180986F0E7C4
:10037300A4C5F02BFBE43AFA1908E7C5F0C6A42696
:10038300F6E5F03BFBE43AFA1886F0E7A4F6E5F06D
:100393000826F6E43B08F6E43A08F6D0E0FBD0E0A2
:1003A300FA22E4CFC0E0E4CEC0E0E4CDC0E0E4CC88
:1003B300C0E075F020E626F608E633F608E633F6E5
:1003C30008E633F6181818EC33FCED33FDEE33FE74
:1003D300EF33FFC3EC9709ED9709EE9709EF9719F0
:1003E3001919400FFFEC97FC09ED97FD09EE97FEF5
:1003F300191906D5F0BFECF709EDF709EEF709EF88
:10040300F7191919D0E0FCD0E0FDD0E0FED0E0FFF1
:1004130022E4C396F608E496F608E496F608E49612
:10042300F6226016080808C6C313C618C613C618F2
:10043300C613C618C613C6D5E0EA22700908080811
:10044300226016181818C6C333C608C633C608C6B2
:1004530033C608C633C6D5E0EA22E026F608A3E091
:1004630036F608A3E036F608A3E036F622E026F0D7
:1004730008A3E036F008A3E036F008A3E036F02244
:10048300C3E697F60809E697F60809E697F608091A
:10049300E697F622C3E096F008A3E096F008A3E0FF
:1004A30096F008A3E096F022E647F60809E647F639
:1004B3000809E647F60809E647F622E0F608A3E04E
:1004C300F608A3E0F608A3E0F622E6F008A3E6F0B8
:1004D30008A3E6F008A3E6F022E0FAA3E0FBA3E01A
:1004E300FCA3E0FD22E0FCA3E0FDA3E0FEA3E0FF0C
:1004F30022ECF0A3EDF0A3EEF0A3EFF022E0F8A3DB
:10050300E0F9A3E0FAA3E0FB22E8F0A3E9F0A3EA11
:10051300F0A3EBF022CAC0E0E6F0A308DAFAD0E0D9
:10052300FA22CAC0E0E0A3C582CCC582C583CDC58B
:1005330083F0A3C582CCC582C583CDC583DAE6D05B
:10054300E0CA22C3E498F8E499F91205878026C328
:10055300E49AFAE49BFBE920E7E9120587E498F8BB
:10056300E499F922C3E498F8E499F9120587E49829
:10057300F8E499F9C3E49AFAE49BFB22EB20E7CF72
:10058300E920E7E0B90010BB0008E88AF084F8AA84
:10059300F022E4FBC8FA22EB70227B10C833C8C9EF
:1005A30033C9335007C39AC3DBF280069A50012A3A
:1005B300DBEAC833F4C8C933F4C9FA2275F008E496
:1005C300C833C8C933C933C99AC99B5004C92AC996
:1005D3003BD5F0ECFBC833F4C8E4C9FA227004221B
:1005E300600D18C6C333C608C633C6D5E0F4182257
:1005F300251010AF08F510400C15118008F51040B8
:10060300021511D2AF2200C0D0251010AF08F5108B
:10061300500C05118008F51050020511D2AFD0D04F
:10062300222510F58210AF08F510400C1511800833
:10063300F51040021511D2AF851183222510F582E2
:10064300E43511F583222510F8E43511F92225103C
:10065300FAE43511FB222510FCE43511FD22E47385
:100663002510C582C0E0E51134FFC583C0E0E51065
:10067300C3958224F810AF08858311858210800802
:10068300858311858210D2AFCEF0A3E520F0A37845
:1006930008E608F0A3DEFAEFF0A3E58124FAF8E612
:1006A30008F0A3E608F0A3E608F0A30808E608F0BC
:1006B300A3E608F0A315811581D0E0FED0E0F8157C
:1006C3008115811581E8C0E0EEC0E02285118385A4
:1006D3001082E0A3FEE0A3F5207808E0A3F608DF8C
:1006E300FAE0A3FFE0A3C0E0E0A3C0E0E0A3C0E022
:1006F300E0A3C0E0E0A3C0E010AF088582108583CB
:10070300118008858210858311D2AFD083D08202F5
:1007130000EFC0D02510C582C0E0E51134FFC583CA
:10072300C0E0E510C3958224F310AF0885831185DB
:1007330082108008858311858210D2AFC8F0A3E9A7
:10074300F0A3EAF0A3EBF0A37908E709F0A3D8FA42
:10075300ECF0A3EDF0A3EEF0A3EFF0A3D0E0F0A351
:10076300D0E0F0A3D0E0F0A3E520F0A3E5F0F0A300
:1007730022851183851082E0C0E0A3E0F9A3E0FAAB
:10078300A3E0FBA37808E0F608A3DFFAE0FCA3E00C
:10079300FDA3E0FEA3E0FFA3E0C0E0A3E0C0E0A36D
:1007A300E0F5D0A3E0F520A3E0A3F5F010AF0885B2
:1007B30083118582108008858311858210D2AFD082
:1007C30082D083D0E0F8D0E03274028000C0E0F43D
:1007D30004120624D0E01205182274048000CCC051
:1007E300E0EDC0E0E510C39CCCAD1150011D10AF8E
:1007F300068C108D1180068C108D11D2AF12052539
:07080300D0E0FDD0E0FC2273
:10080C00C0E074F2120715900102E0F8A3E0F99031
:10081C000108E0687003A3E069700790010574019A
:10082C00803E900102C3E094B9A3E0940B40329057
:10083C000104E0700474018001E4F0E0F912020F8D
:10084C001202DBEAF8EBF97AB87B0B12057F900108
:10085C0008EAF0A3EBF0900102E4F0A3F09001059C
:10086C00F0C2C1900102E02401F0A3E03400F07F5B
:10087C0001020774C0E0C0D0C082C083E591900132
:10088C0012F0759B00E0F4F591D083D082D0D0D0DB
:10089C00E032C2C732C0E0C0D0E8C0E0C082C08342
:1008AC00A8A1E8A2E450069001177401F0E8F4F551
:1008BC00A1C2C2D083D082D0E0F8D0D0D0E0320038
:1008CC00758701002274F012066374B31205F38568
:1008DC001082851183EAF0A3EBF0740F12063FEC43
:1008EC00F0A3EDF0740B12063FE4F0A3801B745DD3
:1008FC0012063F1211B8740F12063F1211C81206DD
:10090C0061740B12063F121252F01211D5F98510B8
:10091C0082851183E02401FAA3E03400FB85108268
:10092C00851183EAF0A3EBF07425696015E970BEBC
:10093C00740B12063F1211B8744D1206097F08028F
:10094C0006CF1211D564257019851082851183E0AC
:10095C0024010812125B745D12063F1211B879253E
:10096C008094740E12063FE4F0740D12063FE4F00E
:10097C00740812063FE4F0740712063FE4F0741B8F
:10098C00120649740212063F121266741912063FBF
:10099C0074A6F0A374018019740712063FE0700767
:1009AC00740712063FEAF0851082851183E8F0A3E4
:1009BC00E9F0121226FAA3E0F5838A82E0FA24E029
:1009CC0060D624FD601724F860D624FE600624FD52
:1009DC00600F8011740812063FE00480C9740D800A
:1009EC00F5740E80F18510828511831211AFE064CD
:1009FC002A7044745F12063F1211AF1211B8EAFC50
:100A0C00EBFD8A82F5831211B8EC2402FC50010D27
:100A1C00745F12063F1211FBC3EB1211805013C30B
:100A2C00E49AFCE49BFDECFAEDFB740812063FE043
:100A3C0004F0121260803C7A007B00802AEA75F088
:100A4C000AA4FAA9F075F00AEBA429FBEA28F8E449
:100A5C003BF9E824D0FAE934FFFB85108285118339
:100A6C00E02401F812125B1211D5F874D028C3944B
:100A7C000A40CA740812063FE06007740E12063F63
:100A8C00E4F01211D5642E6003020B2285108285CE
:100A9C0011831211A5851082851183E8F0A3E91248
:100AAC00128B642A702E745F12063F1211E9F988BA
:100ABC0082F58312119F740412063FECF0A3EDF043
:100ACC00E82402F8500109745F12063F1212321228
:100ADC001292804B740412063FE4F0A312128BFCAA
:100AEC0074D02CC3940A5038740412063F12119817
:100AFC0075F00AA4F8ADF075F00AE9A42DF9E82C0C
:100B0C00F8E439F9E824D0F8E934FFF97404120652
:100B1C003F12129280C6740412063F74FFF0A3F0C9
:100B2C007C00121226FDA3E0F5838D82E024B460D4
:100B3C000824E4600624FC70057C0112126012117A
:100B4C00D5C0E0740612063FD0E0121296F074067F
:100B5C0012063FE0700302102324BB7003020FEE59
:100B6C0024FE7003020FEE24EF7003020D4424F5F3
:100B7C007003020C23147003020DE5147003020FB2
:100B8C00EE147003020FEE147003020FEE24FE70CD
:100B9C0003020DE524FB6024147003020D1A14707B
:100BAC0003020D4424FD7003020C6324FE70030247
:100BBC000D4424FD7003020D3802102F745F1206D1
:100BCC003F12123FE8FEE9FFE5082402F508500247
:100BDC000509ECA2E0740B502712063F1211923358
:100BEC0095E0FA8E828F83121266A3EAF0A3F0745A
:100BFC005F12063F1211C8E508F0A3E509020915BA
:100C0C0012063F1211928E828F83121266745F123B
:100C1C00063F1211AF80E0745F12063F1211E9F526
:100C2C00838882E0C0E0741B12063FD0E0F0745F52
:100C3C0012063F1211DB2402F8A3E03400F9745FB2
:100C4C0012063F121232121266741C12063FA88250
:100C5C00A9837409020D10745F12063F12123FE54E
:100C6C00082402FCE43509FD745F12063F1211FBE7
:100C7C00740212063F121266E849700C74021206D6
:100C8C003F74B7F0A37401F0740412063F1211F014
:100C9C00500C740412063F7410F0A37427F07E00FD
:100CAC007F0080050EEE70010F740212063F1211C8
:100CBC00928882F583A3AC82AD83740212063FEC5A
:100CCC00F0A3EDF088828983E06014740412063F6F
:100CDC00121192C3EE98EF99A2D265D03340C5742D
:100CEC000212063F121209740912063F121266C351
:100CFC00E49EF8E49FF9740912063FE028F8A3E09B
:100D0C0039F9740212063FE8F0A3E9021046740D9B
:100D1C0012063FE06016740412063F1211984970D7
:100D2C000B740412063F7401F0A3E4F0741912065C
:100D3C003F74C6F0A37401F0745F12063F121217D1
:100D4C00740612063FE0647070388508828509834A
:100D5C0012119F741112063FECF0A3ED121284E5F0
:100D6C000812118812063F121232121266741512F2
:100D7C00063F7410121284A3F0740712063FE402AB
:100D8C000E5AECA2E0E508501612116D12063F1235
:100D9C00126C1204E8741112063F1204F48019123A
:100DAC00118812063F12127FF8A3E0F97411120693
:100DBC003FE8F0A3E9121284740612063FE0646F58
:100DCC007009741512063F740880A9E06475709D53
:100DDC00741512063F740A809B745F12063F121240
:100DEC0017ECA2E0E508501012116D12063F12121A
:100DFC006C78081204BE801612118812063F12126B
:100E0C007FF508A3E0F5093395E0F50AF50B7411AD
:100E1C0012063F78081204CD9001A278081202FF46
:100E2C004021740712063F742DF0741112063F789E
:100E3C00081204BE7808120414741112063F7808C4
:100E4C001204CD741512063F740A121284A3F074A6
:100E5C004C12063FA882A983740212063F12126636
:100E6C00740912063F121266741112063F1204E83E
:100E7C00EC4D4E4F6004D2008010C2007404120678
:100E8C003F121198497003020F5D740212063F1253
:100E9C001209740212063F121266741112063F7880
:100EAC000C1204BE741512063F78081204BE780C9E
:100EBC0079081203A5741912063FE02508F8A3E07F
:100ECC0035098882F583E0C0E0740212063F1211E6
:100EDC00C8D0E0F0741112063F780C1204BE7415E1
:100EEC0012063F78081204BE780C79081203A57418
:100EFC001112063F780C1204CD741112063F120425
:100F0C00E8EC4D4E4F7083740412063F1211F050F2
:100F1C0040740E12063FE06038740712063FE06022
:100F2C0004D2F08002C2F0A2F0E433F8EA98F8EBB5
:100F3C009400F9740412063FE8F0A3E980127402DD
:100F4C0012063F121266740212063F1211C8743058
:100F5C00F0740212063F121209744C12063FC08242
:100F6C00C083740212063F12119FD083D082E58297
:100F7C00C39CFEE5839DFF740412063F12119FC3B0
:100F8C00EE9CEF9DA2D265D03340B3740D12063F98
:100F9C00E07003021047A2004003021047740612CF
:100FAC00063FE064786005E064587010E088828940
:100FBC0083F0E824FF18E934FFF98012E0646F70C5
:100FCC007A740212063F121232E06430606D7402C1
:100FDC0012063F121266740212063F1211C87430C8
:100FEC008058740212063F74D7F0A37401F0740990
:100FFC0012063F74D7F0A37401F0740912063F1265
:10100C0011DB6037740912063F1211A57409120620
:10101C003FE8F0A3E980E285108285118312120E5D
:10102C0012125F740212063F74FAF0A37401F0748A
:10103C000912063F74FDF0A37401F0740912063F07
:10104C00C082C083740212063F121192D083D082E8
:10105C00E0C398F8A3E099F9740412063F121266E3
:10106C00740412063FE0F8C3EA98EB99A2D265D05B
:10107C003350067E007F008021740712063FE0602B
:10108C0004D2F08002C2F0EAC398F8EB99F9A2F00E
:10109C00E433FAE89AFEE99400FF740812063FE084
:1010AC0070208019745D12063F1211BE12063F1299
:1010BC0011C8120661740B12063F12124D121177F1
:1010CC0050E2740712063FE06051745D12063F1245
:1010DC0011B8740712063FE0F9740F12063F121193
:1010EC00C8120661802D745D12063F1211B874028D
:1010FC0012063F1211DBF9740F12063F1211C812BF
:10110C000661740212063FE01212AB740212063F23
:10111C00121266740B12063F12124D740412063F23
:10112C00E024FFF0A3E034FFF0740412063F121128
:10113C00F050B3740812063FE07003020916121146
:10114C00775003020916745D12063F1211BE120687
:10115C003F1211C8120661740B12063F12124D8019
:10116C00DD2404F8E43509F9745F22EE24FF1EEF48
:10117C0034FFFFC39400A2D265D033222402F8E4DA
:10118C003509F9745F22E0F8A3E0F922E0F8A3E056
:10119C00F9E822E0FCA3E0FD22E0240108A3E034FE
:1011AC0000F922E0FAA3E0F5838A8222E0FAA3E0B8
:1011BC00FB22E0FAA3E0FB7920740F221211CC225F
:1011CC00E0F8A3E0F58388822285108285118312D2
:1011DC0011DF22E0F8A3E0F5838882E0221211DF10
:1011EC00F8A3E022C3A3E09400A2D265D03322E09E
:1011FC00FEA3E0F5838E82ECF0A3EDF02212120E2A
:10120C00F922E024FFF8A3E034FF2212121B221271
:10121C0011CCE0F508A3E0F5092285108285118335
:10122C00E01212A1E02212123622E0FCA3E0F583B8
:10123C008C822212121B850882F583E0F8A3E0F958
:10124C0022121252F022E02401F0A3E0340022A377
:10125C00E03400F9851082851183E8F0A3E9F022CF
:10126C0012127022121236E8F0A3E9F0850882857A
:10127C00098322121270E022F0A3E4F0A3F02212F0
:10128C0012B41211E022E8F0A3E91212B41212A166
:10129C00E8F0A3E9221212AB851082851183222477
:1012AC0001F8A3E03400F922F0851082851183E067
:1012BC0022C082C0839061C8E0C394064052E5D935
:1012CC00E5D9E5D978007900E5D9C0E0EA28F582BE
:1012DC00EB39F583D0E0F008E8700109C3940612ED
:1012EC00132A40E4E5D9E5D9E5D9E5D9E5D9780063
:1012FC007900E5D9C0E0EC28F582ED39F583D0E032
:10130C00F008E8700109C3940512132A500980E211
:10131C007A1A7B011202D5D083D0820200EFE994B5
:10132C0000A2D265D0332274F012066374F4120555
:10133C00F38A088B098C0A8D0B7405780812043E0D
:10134C00E97003021424740812065974021206512F
:10135C0012029F7404120659AA10AB11120299744E
:10136C000812063F780C1204BE740412063F780C67
:10137C00120497851082851183C082C08374021277
:10138C00063FE0F8A3E0F9D083D082C3E098A3E055
:10139C00998510828511835035E02400F0A3E03448
:1013AC007DF0740212063FE0F8A3E0F98510828507
:1013BC001183C3E098F0A3E099F090017E780C12B1
:1013CC0004BE740412063F780C1204708008C3E04B
:1013DC0098F0A3E099F0851082851183E0F8A3E0E2
:1013EC00F97AD17B03120587880C890DE4F50EF58B
:1013FC000F7808790C120483740412063F780C12CF
:10140C0004BE7405780C12043E7808790C1204831F
:10141C00900182780812045D90018678081202FF10
:10142C004007900101E4F0803A90018A780812029A
:10143C00FF9001014004740180027402F0AA08AB11
:10144C0009AC0AAD0B12028779011202AB12028DA4
:10145C00120233900101E0F9120281120293790118
:10146C001202A5740C1206097F080206CF74F01242
:10147C00066374F61205F3740612063FEAF0A3EB4A
:10148C00F0A3ECF0A3EDF07A057B001202BD8A0804
:10149C008B09AE08AF09E48A828B837805F0A3D858
:1014AC00FC741A12063F78081204BE8A828B83A33E
:1014BC00A3A3A3E508F08A828B83A3A3A3E509F079
:1014CC0085080CF50D850A0E850B0F7410780C121F
:1014DC0004258A828B83A3A3E50CF0741878081278
:1014EC0004258A828B83A3E508F0790112026F90A0
:1014FC000112E0A2E650F8E4F0740612063F7808F8
:10150C001204BE851082851183E508F0740612065C
:10151C003F78081204BEE509F508740112063FE590
:10152C0008F0740612063F78081204BE741078088E
:10153C00120425740212063FE508F0740612063FE9
:10154C0078081204BE741878081204257403120665
:10155C003FE508F0740412063FE4F0740512063FF0
:10156C00E4F0AC10AD117905EEFAEFFB120257E581
:10157C00E170FC75E109900112E0A2E650F8906070
:10158C007FE0601BE0F50878081207CC7A297B0114
:10159C001202D574021206097A377B011202D57930
:1015AC009112026FEEFAEFFB1202B1900112E4F00D
:1015BC00740A02147174F012066374F11205F3903C
:1015CC00607FE060030216DB900112E0A2E04003B2
:1015DC000216C3AC10AD1174051206511201F7744A
:1015EC000412063F12172A740312063FE0F50CE4AE
:1015FC00F50DF50EF50F7408780C12043E78087989
:10160C000C1204AB740212063F12171F12043E7820
:10161C0008790C1204AB740112063F121714120451
:10162C003E7808790C1204AB740B12063F78081242
:10163C0004CD740512063F12172A740612063FE0F9
:10164C00F50CE4F50F7408780C12043E7808790C4C
:10165C001204AB740712063F12171F12043E7808CF
:10166C00790C1204AB740812063F12171412043EC4
:10167C007808790C1204AB75830175828E78081288
:10168C0002EA701D740B12063F78081204BE78082B
:10169C001207CC7A3F7B011202D574021206098024
:1016AC0022740B12063F12050090010E12050C90CD
:1016BC0001067401F0800CE0A2E240077A587B012D
:1016CC001202D5798112026F900112E4F0802FE0A2
:1016DC00640170097A5A7B011202D580217A637BEE
:1016EC00011202D590607FE0F508750900780812A8
:1016FC0007CC7A667B011202D57402120609798135
:10170C0012026F740F021471E0F50CE4F50E7418EC
:10171C00780C22E0F50CE4F50D7410780C22E0F551
:10172C0008E4F509F50AF50B22E953F4FB6007D23E
:10173C009243FE0480031218E60200EF53C6C775ED
:10174C00E40275E54475DA0075DB7DD2B90200EF71
:10175C0074FA1205F3900112E4F053F4FB1218E63C
:10176C0012022D53F4FB53FEFB43F6047A787B01F3
:10177C001202D5790112026912024B791712025129
:10178C001202637A007B00750801750900EA78087B
:10179C001205E0E508F4F852F352FD528F43F7209E
:1017AC0052F452FE52F643F7400AEA70010BC3940E
:1017BC0008EB12132B40D07A007B007508017509D9
:1017CC0000EA78081205E0E508F452F552FF52F7EA
:1017DC0043F7800AEA70010BC39405EB12132B40FC
:1017EC00DA79009001921204DC1201FD79011202E7
:1017FC000F79009001961204DC1201FD790012029F
:10180C000F794012027B1202157402120659AA10AB
:10181C00AB11120299740212063F78081204BEAA88
:10182C0008AB091202E11202DBEAF8EBF97AB87B99
:10183C000B12057F900108EAF0A3EBF08014120262
:10184C0009900112E4F012023F90607F740FF012C5
:10185C000245900112E4F0120275900112E0A2E62A
:10186C004006900105E060F2900105E060D0E4F0E4
:10187C00900107E070297401F090010A1207DD90C5
:10188C00019A1204DC120203740412060990019EE0
:10189C0078081204BE90010A780812047080A2E441
:1018AC00F0900106E0601C90010E1207DD90018E95
:1018BC001204DC1202037404120609900106E4F00F
:1018CC0002184D90010A1207DD90019A1204DC12E5
:1018DC000203740412060902184D53FEFB53F6FB67
:1018EC0043F74022C082C08390618AE0640170F8A3
:1018FC0080037401F0D083D0820200EFC082C083D9
:10190C0090618A80ED74F612066375088075090083
:10191C0078081207CC7C007D007A007B601202C92B
:10192C00740212060912025D759C7790618AE0645C
:10193C000170F8906001E054FC121A0C906003E006
:10194C00C2E0F0E0C2E1F0E0C2E2F090618A740122
:10195C00F090618BE0640170F8906002E0543FF00D
:10196C00E0C2E0F0E0C2E1121A0C906018E0C2E2B2
:10197C00F0E0D2E0F0E0C2E4F0A37412F090600466
:10198C007403F0906008E4F0A37455F0A3F0A3F096
:10199C0090618B7401F09061877469F0906186742A
:1019AC00F3F09061BC7407F09062657413F0906171
:1019BC00A27410F09061807440F09061907404F007
:1019CC00A37448F0A3E4F0A374A3F09061A5740190
:1019DC00F0906194E4F0A374D6F0A374BEF0A374F9
:1019EC0089F0A3748EF09061E0E4F0A3745BF0A333
:1019FC007406F0A3E4F09061E904F07F020206CFD4
:101A0C00F0E0C2E2F0E0C2E3F0E054CFF022C0829A
:101A1C00C083E9FA90618AE0640170F890618DE00E
:101A2C005403600479048053E924E9600A24E860D3
:101A3C001024CA601C802A906000E05480441780F7
:101A4C002B906000E05480442FF090600C74268042
:101A5C0021906000E054804465F090600C74278005
:101A6C0011747F5AF8906000E0548048F090600C3C
:101A7C007425F090618A7401F0790002190174F7F1
:101A8C00120663E9FE7800C3941B40047903804E70
:101A9C00740D29F5D975D902740B29F5D98C828D61
:101AAC0083E0F5D9A3121AEF121AEFA3121AFD1242
:101ABC001AFDA3E0F5D975D90275D90175D904744D
:101ACC000129F5D975D9FF800EE8FCEA2CF582E4E2
:101ADC003BF583E0F5D908E8C39E40ED79007F0122
:101AEC000206CF121AF322E0F5D98C828D83A3A3C0
:101AFC0022121AF3A3A32274F7120663ECF8EDF981
:101B0C008A828B83A3AE82AF83E0FAA3E0FBEAC3A5
:101B1C0098FCEB99FDC3EC9404ED940040158E8277
:101B2C008F83E8F0A3E9F088828983E4F0A3EAF0DC
:101B3C00A3EBF07F010206CF74F512066390011837
:101B4C00E0F8A3E0F9E849700A900118740AF0A3D0
:101B5C007402F0900118E0FEA3E0FF7409C39EFC30
:101B6C0074039FFDEA2403F8E43BF9C3EC98ED9968
:101B7C004040E08E82F5837401F0900118E02AFC5D
:101B8C00A3E03B8C82F583A3A3A3AC82AD8390012D
:101B9C0018ECF0A3EDF08E828F83A3ECF0A3EDF0A4
:101BAC00C3E49AF8E49BF9900118E028FAA3E03911
:101BBC008062780A79028004ECF8EDF988088909CA
:101BCC00C3E5089EE5099F504E88828983A3E0FCFB
:101BDC00A3E0FD88828983E070DEECC39508F508EC
:101BEC00ED9509F509E50824FDF508E50934FFF53F
:101BFC0009C3E5089AE5099B40BEE82403FEE439D5
:101C0C00FF7401F0EE2AFCEF3BFDE8FAE9FB12024F
:101C1C00B7EEFAEFFB80047A007B007F030206CF5D
:101C2C0074F4120663EAFEEBFF7A0A7B02780A79F7
:101C3C0002EE4F700C021D14E8FAE9FBE0F8A3E089
:101C4C00F9900118E0F50AA3E0F50BC3E8950AE951
:101C5C00950B4003021D1488828983A3AC82AD834B
:101C6C00E82403F508E439F509EE65087003EF651F
:101C7C000970C588828983E07003021D148C828DE3
:101C8C0083E0F508A3E0F509C3E508950AE5099595
:101C9C000B5006AE08AF098004E8FEE9FF8E828F78
:101CAC0083E0F50A8A828B83E07022E50A700C8E41
:101CBC00828F83A3E0F508A3E0F5098A828B83A3C6
:101CCC00E508F0A3E509F0EAF8EBF9801DE50A70E8
:101CDC00138E828F83A3E0FAA3E0FB8C828D83EAC0
:101CEC00F0A3EBF088828983E4F088828983A3E0F7
:101CFC00FAA3E0FB900118E06A7003A3E06B700894
:101D0C00900118E8F0A3E9F07F040206CF74F612F4
:101D1C00066375088075090078081207CC7C007D75
:101D2C00007A007B601202C97402120609798112D2
:101D3C00026F799112026F90618674E1021D4BF073
:101D4C007F020206CFC082C0839061B1E0D2E080F6
:101D5C003AC082C083E9F8906188E0F99061B1E003
:101D6C006015E9A2E24010E8601FE5E170FC75E146
:101D7C000BE591A2E650FAE0C2E0F0759100759B7C
:101D8C000090607F740FF079008001F0D083D082D6
:101D9C000200EFE5E170FC89E10200EFE5E170FC87
:101DAC0075E1080200EFC082C083906182E049F0C7
:101DBC00439A01021D98C082C08375C300EA4B6030
:101DCC000BE5A28A828B83F0E5A3A3F0EC4D6003B4
:101DDC00121E05D083D0820200EFC082C08375C36F
:101DEC0011EA4B600BE5A28A828B83F0E5A3A3F08A
:101DFC00EC4D6003121E0580DAE5A48C828D83F015
:101E0C00E5A5A3F0E5A68C828D83A3A3F08C828D2F
:101E1C0083A3A3A3E4F022A2AFE433F8C2AFE9603A
:101E2C0003439402439401E594A2E250FAE8A2E041
:101E3C0092AF0200EFA2AFE433F8C2AFE960034304
:101E4C0094025394FEE594A2E240FA80E074F712F7
:101E5C000663E9FEE5BE54FC4EF5BEE9C3940240B0
:101E6C00099061B1E0C2E0F0800579041202211200
:101E7C0008CCEEC3940240079061B1E0D2E0F07957
:101E8C000012021B7F010206CF74F41206638A084B
:101E9C008B098C0A8D0BE59DA2E050FAE59590011B
:101EAC0013F0E596A3F0E597A3F0A3E4F0900113EB
:101EBC007808120470900115E0F597900114E0F584
:101ECC0096E5ADA2E050FA900113E0F5957F04027F
:101EDC0006CFC2C7D2AD0200EFC2C7C2AD0200EF3F
:101EEC00740169700575C6C98006E9700353C68014
:101EFC00A8C6E59E6870FB0200EFC0088908E59E45
:101F0C0053080753C6F8E50833333354F8450842F1
:101F1C00C6A8C6E59E6870FB7900D0080200EFE900
:101F2C00FAE59EA2E6400479018019E9700553C6D2
:101F3C007F800874016A700343C680A8C6E59E685A
:101F4C0070FB79000200EFEEC0E0E9FA7B001202B0
:101F5C00E7D0E0FE0200EF74F612066374FE120581
:101F6C00F3740C120649851082851183E8F0A3E9FD
:101F7C00F0A810A9118808890978081207CCE4F593
:101F8C0008F50978081207CC7CCF7D021202C374C5
:101F9C000412060974021206097F020206CF74F0BD
:101FAC001206639001FE78081204BE900202780CAF
:101FBC001204BE7808790C120325900206780812D8
:101FCC00045D9001FE78081204CD9001FE78081291
:101FDC0004BE74107808120425AA08E509547FFB86
:101FEC007F080206CFC082C083851082851183E0F2
:101FFC00F8A3E0F9E84960128A828B83ECF0A3E83D
:10200C0024FF18E934FFF94870F2D083D082020023
:10201C00EFC082C08375BE80790112021B79001259
:10202C000227790012021BD083D0820200EFC082FB
:10203C00C0839001FEEAF0A3EBF0A3E4F0A3F0D090
:10204C0083D0820200EFC082C083120239120233A5
:0C205C00D083D0820200EFD2AF0200EF70
:04000005000000D720
:00000001FF
