:020000040000FA
:030000000200D724
:03002B00020FF8C9
:03004B00020F7829
:03005300020FFB9E
:10008300020FDA00000080FBE4900101781A790284
:100093008002F0A3D8FCD9FA7A1A7B029001077880
:1000A300F879018015E493A3AD82AE838A828B83B2
:1000B300F0A3AA82AB838D828E83D8E9D9E77582B8
:1000C3002475834E74001200E9758286758300746B
:1000D300001200E975D0007581BF7510017511011B
:1000E300759F0002008BC09FF59FE473D09F22D0C1
:1000F30083D082C09FE493C0E0740193C0E0740294
:1001030093F59F22496E69740A00526573756C7486
:10011300733A0A004E6F64652025643A2000256413
:10012300207472616E736D697373696F6E732C20C3
:10013300002564207061636B61676573206C6F7366
:10014300742C200073657175656E6365206E756D23
:10015300626572203D2025640A0004E8030000C89C
:100163000000000100000101010101FFFFFFFFE0AA
:10017300FFFFFF20000000640000000000000000FB
:1001830000003F010000000000803F000000340039
:100193000000403031323334353637383941424349
:1001A30044454600286E756C6C20706F696E7465EB
:1001B300722900303132333435363738396162636E
:1001C30064656600464C4F4154533F2077726F6E0F
:1001D3006720666F726D617474657220696E7374E3
:1001E300616C6C656421003F3F3F00C503423F1AC9
:1001F30051123FF304B53F0000803E1200F2134E4C
:10020300001200F27A58001200F29458001200F221
:10021300B958001200F2464A001200F25F4A001277
:1002230000F2784B001200F29F4B001200F2FB4BDE
:10023300001200F2384C001200F2D24C001200F20D
:10024300FA41001200F26B42001200F22F43001237
:1002530000F25C43001200F2EE45001200F2154674
:10026300001200F25E46001200F2B946001200F2DC
:10027300244A001200F22E4A001200F2285A0012F9
:1002830000F2395A001200F20B5A001200F209511F
:10029300001200F21252001200F28252001200F217
:1002A3009D56001200F2D556001200F2E1560012DC
:1002B30000F22357001200F22C57001200F23657B7
:1002C300001200F24057001200F2E757001200F24A
:1002D3002358001200F26C58001200F273580012F7
:1002E30000F25057001200F27457001200F2B15797
:1002F300001200F2CF57001200F24910001200F270
:100303000711001200F2D222001200F29E330012F3
:1003130000F2D035001200F2B055001200F28754FB
:10032300001200F2C854001200F2E158001200F269
:100333000E38001200F29959001200F2DF59001230
:1003430000F24259001200F25259001200F2FB521D
:1003530000000022A2E792D65002F40430F70663AD
:10036300F0FF05F0B3400384800384F40430D60522
:1003730063F0FF05F022C008C3E096F50808A3E088
:1003830096420808A3E096420808A3E0964208A212
:10039300D265D033E5087001D3D00822080808E6F7
:1003A30030E711120BD91203B7080808C64480C6F8
:1003B30018181822181818E9799EC608CAC608CB57
:1003C300C608CCC6C370207996CACBCC7019798E77
:1003D300CBCC70137986CC700EF9802ACA33CACB82
:1003E30033CBCC33CC331930E7F2CCCBCA335014F4
:1003F3007004EA30E00DE4CA3ACACB3BCBCC3CCC28
:10040300500209C3E913C6CC182313C6CB18C6CAB6
:1004130018C6F92212045720F01430E72B74FFFC9E
:10042300FBFA747F8022E4FCFBFA7480801AB480A8
:1004330008BC00F2BB00EF800F50EBF9E4C39AFA5B
:10044300E49BFBE49CFCE499C6CC18C6CB18C6CA53
:1004530018C6F922E4C9C608CAC608CBC6D33303F3
:1004630008CCC63392F0C3947F402E94184019C928
:10047300B90704CACBCC225025C309CA33CACB332C
:10048300CBCC33CC33D9F422F4600DC9CCC313CB1A
:1004930013CBCA13CAD9F6CC22E4FCFBFA2214FC10
:1004A300FBFA22E62618461846184622E72719477C
:1004B3001947194722181818E60846087009E6264E
:1004C300087005E633F4220822191919E7094709C8
:1004D3007009E727097005E733F4220922E6084685
:1004E30008C3134608336002E633F422E7094709D9
:1004F300C3134709336002E733F4221204E0602593
:100503001204EF60201204A670030204AF08080867
:10051300E76670101819E766700A1819E766700421
:100523001819E76622F4221204E0601C1204EF603B
:10053300171204A670071204AF7001D322C0D012A1
:1005430004AF7006D0D0B322C32233D0D0501430BE
:10055300E0F6C3E7960809E7960809E7960809E76E
:1005630096B32220E0D5E6970809E6970809E697AF
:100573000809E697B3221204E0601B1204EF601629
:100583001204A670071204AF600CB322C0D0120489
:10059300AF7005D0D022C32233D0D0501330E0EB5C
:1005A300C3E7960809E7960809E7960809E796223C
:1005B30020E0E4E6970809E6970809E6970809E6C4
:1005C3009722001204E0604F1204EF6012E7548098
:1005D30066F61204B870111204AF703B090909F4EE
:1005E300F618F618F618F6221204CC70151204A6A3
:1005F30008080860EAE6447FF618768018E4F618DF
:10060300F6221204A660161204AF7012E4F608F67E
:1006130008F608E65480F609090918181822EAC0F2
:10062300E0EBC0E0ECC0E0EDC0E0E687F0A4FBAC9B
:10063300F008E687F0A42CFCE435F0FA1809E68705
:10064300F0A42C4B60027401CA35F0FCE433FB09BF
:10065300E687F0D2F7A42CCB35F0FC1908E687F037
:10066300A42BCC35F0FBE433FD0819E687F0D2E781
:10067300A42C4ACB35F0CD3400FC09E687F0D2E751
:10068300A42DCC35F0FDE433FA0918E687F0D2F750
:10069300A42CCD35F0CA3400FC08E687F0D2E7D2AB
:1006A300F7A42ACC35F07A7E20E70B0ACB33CBCDE7
:1006B30033CDCC33CC33CB3350147004ED30E00E58
:1006C300D2F1E4CD3DCDCC3CCC3B5005DA05C2F1B3
:1006D300EB547FC63308E63392F0FBE73309E73385
:1006E300C39A502D2B70190C0D4C4D70151806E63E
:1006F30008C333700D20F10AA2F013F6E418800B3F
:100703004024E4F630F002768018F618F618F680E6
:1007130024D33B14501074FFA2F013F6187680E430
:1007230018F618F6800FA2F013F618E63303F6183E
:10073300ECF618EDF6D0E0FDD0E0FCD0E0FBD0E025
:10074300FA221204EF60461204E0603DE968700883
:10075300F618F618F618F622748067F71207790967
:100763000909748067F7221204E0601D1204EF7018
:1007730005191919801A1204B8701F1204CCC3701A
:1007830003E66733191919400718181822080808CF
:1007930074FFF618F618F618F6221204CC60171236
:1007A30004AF702192F01204A67019501720F014B0
:1007B300080808090909E7F61819E7F61819E7F60A
:1007C3001819E7F6221204A660E6E869701F080804
:1007D300E62480F608E436F618547FB47F0CE6541A
:1007E300806007F6E418F618F622181822E9C6CC3A
:1007F30008C6CD08C6CE08C6CFC0E0E8C0E0EAC050
:10080300E0EBC0E009E9F809E7FA09E7FBE6F918C4
:10081300E6F8C3EC98ED99EE9AEBC2E7F5F0EFC278
:10082300E795F0500E600CEBCFFBEACEFAE9CDF979
:10083300E8CCF8EAA2E7D2E7FAEB33FB13F5F0EEE4
:10084300A2E7D2E7FEEF33FFC5F013A2E730E601DC
:10085300B313C5F0C3C0E0C0F07F00C39BFB605E71
:100863009418600F401D14601AD0E023F9D0E0F80B
:1008730002094B8AF0E9486003D2F0E4AFF0FAF9D9
:10088300F8803BEB30E40D89F0EA6003D2F0E4AF8B
:10089300F0F9CAF8EB30E30D88F0EF6002D2F0AF65
:1008A300F0E4CAC9F8EB54076014FBC3EA13FAE98E
:1008B30013F9E813F8EF135002D2E0FFDBEDD0E0B9
:1008C300C0E030E739C3E49FFFF5F0EC98FC42F059
:1008D300ED99FD42F0EE9AFE42F0D0E0F9D0E0F857
:1008E300E5F0607AE923F9EE20E742D8028067C396
:1008F300EF33FFEC33FCED33FDEE33FE80EAEC28FF
:10090300FCED39FDEE3AFED0E023F9D0E0F84002E9
:10091300801BC3EE13FEED13FDEC13FCEF1350022B
:10092300D2E0FF08B800067F7F74FF802EEF3350BC
:10093300178CF020F00260100CBC000C0DBD0008F9
:100943000EBE000408E860DFE933E813FFEE23136B
:10095300FE4F4D4C8008E95480FFE4FEFDFCEE336E
:10096300EF33F47004FCFD7E80D0E0FBD0E0FAD0DE
:10097300E0F8D0E0CFC618CEC618CDC618CCC6F95D
:10098300221204E07004181818221204EF700D7478
:10099300FFF61819F61819F61819F622E7548066A7
:1009A300F61204A6700F1204AF70F014F608F608DE
:1009B300F608F680D11204AF700CF608F6087680BC
:1009C30008E6447F80EC1204CF700C1204BB60BFB6
:1009D300E65480F6E480BB1204BB70051919198034
:1009E300A5E869700C763F18768018F618F6E8F9D2
:1009F30022E6CDC0E018ECC0E0E633CD33CDD3130F
:100A0300F6E719FCE7191933CC33C3947F400ECDB5
:100A13009D502408E65480F6E418F6800FF4043D54
:100A230014501408E6447FF6187680E418F618F696
:100A3300D0E0FCD0E0FD22CCD313CCFD18E4C6CB30
:100A4300C0E018E4C6CAC0E00808ED08C633E613E0
:100A5300F618E433C675F003C3CA97CA09CB97CB1C
:100A6300199C40047D08802EBD0003020B2D16B691
:100A7300FF050606081618C3CA33CACB33CB33CADD
:100A830027CA09CB37CB193CC37D08803E187D08A4
:100A930020E75CC633C6CA33CACB33CB33DDF1D5CB
:100AA300F0EB30E77BCA97CA09CB974ACB199C4036
:100AB3006F4B7025E620E0218066187D08C3CA9736
:100AC300CA09CB97CB199CD3C633C6CA33CACB3317
:100AD300CB3350C9DDE7D5F0E1D3E4C636C608C64B
:100AE30036C608C636C608C636C61818188031C3B7
:100AF300CA97CA09CB97CB199CB34097C633C6CACA
:100B030033CACB33CB33DD34D5F02EC6A2E0C64097
:100B1300C8CA27CA09CB37194A70BECB3CB480B9BF
:100B23000808E63308E633601F181818D0E0FAD037
:100B3300E0FBD0E0FCD0E0FD22187D08CA27CA09FB
:100B4300CB37CB193CD3808013F618E4B67F11F66C
:100B530018B6FF0EF618C60470D20808768080CA4D
:100B6300F618F618F680C5E4CFC0E0E4CEC0E0E4A2
:100B7300CDC0E0E4CCC0E075F020E626F608E6330D
:100B8300F608E633F608E633F6181818EC33FCEDEE
:100B930033FDEE33FEEF33FFC3EC9709ED9709EE18
:100BA3009709EF97191919400FFFEC97FC09ED9777
:100BB300FD09EE97FE191906D5F0BFECF709EDF71D
:100BC30009EEF709EFF7191919D0E0FCD0E0FDD0D1
:100BD300E0FED0E0FF22181818E4C396F608E49666
:100BE300F608E496F608E496F62270090808082247
:100BF3006016181818C6C333C608C633C608C633EA
:100C0300C608C633C6D5E0EA22E026F608A3E036D6
:100C1300F608A3E036F608A3E036F622E026F0084D
:100C2300A3E036F008A3E036F008A3E036F022C3D1
:100C3300E697F60809E697F60809E697F60809E63F
:100C430097F622C3E096F008A3E096F008A3E09697
:100C5300F008A3E096F022E0F608A3E0F608A3E08C
:100C6300F608A3E0F622E6F008A3E6F008A3E6F010
:100C730008A3E6F022E0FAA3E0FBA3E0FCA3E0FD77
:100C830022EAF0A3EBF0A3ECF0A3EDF022E0FCA347
:100C9300E0FDA3E0FEA3E0FF22ECF0A3EDF0A3EE62
:100CA300F0A3EFF022E0F8A3E0F9A3E0FAA3E0FB5E
:100CB30022E8F0A3E9F0A3EAF0A3EBF022CAC0E034
:100CC300E6F0A308DAFAD0E0FA22CAC0E0E0A3C54E
:100CD30082CCC582C583CDC583F0A3C582CCC58232
:100CE300C583CDC583DAE6D0E0CA22B90010BB00C4
:100CF30008E88AF084F8AAF022E4FBC8FA22EB7031
:100D0300227B10C833C8C933C9335007C39AC3DB26
:100D1300F280069A50012ADBEAC833F4C8C933F4D7
:100D2300C9FA2275F008E4C833C8C933C933C99A6C
:100D3300C99B5004C92AC93BD5F0ECFBC833F4C89E
:100D4300E4C9FA22700422600D18C6C333C608C66C
:100D530033C6D5E0F41822251010AF08F510400C67
:100D630015118008F51040021511D2AF2200C0D032
:100D7300251010AF08F510500C05118008F5105020
:100D8300020511D2AFD0D0222510F58210AF08F59D
:100D930010400C15118008F51040021511D2AF85D3
:100DA3001183222510F582E43511F583222510F8ED
:100DB300E43511F9222510FAE43511FB222510FC44
:100DC300E43511FD22E4732510C582C0E0E511343A
:100DD300FFC583C0E0E510C3958224F810AF0885F2
:100DE30083118582108008858311858210D2AFCE4E
:100DF300F0A3E520F0A37808E608F0A3DEFAEFF00D
:100E0300A3E58124FAF8E608F0A3E608F0A3E608D0
:100E1300F0A30808E608F0A3E608F0A315811581FE
:100E2300D0E0FED0E0F8158115811581E8C0E0EE31
:100E3300C0E022851183851082E0A3FEE0A3F520A4
:100E43007808E0A3F608DFFAE0A3FFE0A3C0E0E040
:100E5300A3C0E0E0A3C0E0E0A3C0E0E0A3C0E010D3
:100E6300AF088582108583118008858210858311E0
:100E7300D2AFD083D0820200EFC0D02510C582C08C
:100E8300E0E51134FFC583C0E0E510C3958224F388
:100E930010AF0885831185821080088583118582B0
:100EA30010D2AFC8F0A3E9F0A3EAF0A3EBF0A37963
:100EB30008E709F0A3D8FAECF0A3EDF0A3EEF0A352
:100EC300EFF0A3D0E0F0A3D0E0F0A3D0E0F0A3E5EF
:100ED30020F0A3E5F0F0A322851183851082E0C002
:100EE300E0A3E0F9A3E0FAA3E0FBA37808E0F608A7
:100EF300A3DFFAE0FCA3E0FDA3E0FEA3E0FFA3E091
:100F0300C0E0A3E0C0E0A3E0F5D0A3E0F520A3E0B8
:100F1300A3F5F010AF0885831185821080088583BF
:100F230011858210D2AFD082D083D0E0F8D0E032E6
:100F330074028000C0E0F404120D8BD0E0120CC0E8
:100F4300227404800474028000CCC0E0EDC0E0E5AC
:100F530010C39CCCAD1150011D10AF068C108D1128
:100F630080068C108D11D2AF120CCDD0E0FDD0E0F5
:020F7300FC225E
:100F7800C0E074F2120E7C900102E02401F0A3E0BC
:100F88003400F0900102C3E09478A3E09400403B61
:100F9800900104E0700474018001E4F0E0F91202A9
:100FA80016900102E4F0A3F0900106F0900107E02A
:100FB80004F0900270E0F8900107E0C3984007E45D
:100FC800F090010504F079011202B2C2C17F01025A
:100FD8000EDBC0E0C0D0C082C083E591900101F073
:100FE800759B00E0F4F591D083D082D0D0D0E03268
:100FF800C2C732C0E0C0D0E8C0E0C082C083A8A1A8
:10100800E8A2E450069002157401F0E8F4F5A1C2D4
:10101800C2D083D082D0E0F8D0D0D0E03200000037
:1010280075870100221232158882F5832212103941
:1010380022E0F508A3E0F50922F0851082851183E6
:101048002274F0120DCA8C088D097410120DA6E0D6
:10105800FEA3E0FF7416120DA6E0F50AA3E0F50B57
:101068007418120DA6E0F50EA3E0F50F850E0CF529
:101078000D780C120F337416120DA6120F48780A49
:10108800120F337418120DA6120F488E0C8F0D789C
:101098000C120F33120300740A120D70780E120F1F
:1010A800337416120DA6120F48780A120F337418EB
:1010B800120DA6120F48EEFCEFFDAA08AB091203A9
:1010C800067408120D70C3EB12220750067AFF7BD4
:1010D800FF8029780A120F337414120DA6120F48D4
:1010E8007418120DA6120F48EEFCEFFDAA08AB0902
:1010F80012030C7406120D707A007B000232107411
:10110800F0120DCA74C8120D5A7414120DA61233B7
:101118001E7414120DA6E0F50A7448120DA61210DA
:1011280035E50A8508F0A4C50AA8F08509F0A428C1
:10113800F88508F0EDA428F50B7402780A120D471B
:10114800780A120F33EAFCEBFD744C120DA612223A
:10115800211203367402120D70744E120DA612334A
:101168002C741A120DA6122278120DA612332F749F
:1011780006120DA6E4F0A3F0744A120DA61237E485
:10118800120DA6123808120DA67401F0A3E4F0742B
:1011980048120DA61232A9742C120DA6122284121E
:1011A8000DA6123303120D47740C120DA612331735
:1011B80080698A088B0974027808120D4774041232
:1011C8000DA61221B3120DA612336E120DA612220D
:1011D8005A120C5A7420120DA67808120C5A780C60
:1011E80079081205C5740A120DA612225A120C6942
:1011F8000AEA70010B7448120DA612226040B374FB
:1012080010120DA61237E4120DA61237F9120DA608
:101218001237F07408120DA6123342F07406120D3C
:10122800A6C082C0837448120DA612322CD083D077
:10123800821232534003021A487406120DA6123362
:1012480003120D477412120DA61233967420120D54
:10125800A67808120C5A741A120DA6780C120C5A99
:101268007808790C1205C57412120DA61221BF1246
:101278000DA6122215120C697406120DA612322739
:101288001222A1120DA61237EA120DA612335274B9
:1012980020120DA6123324804B120DA67808120CCA
:1012A8005A7406120DA61232D2120D477402120D8C
:1012B800A61232DE120C5AE50FC2E7F50F7808794C
:1012C8000C12076A7420120DA67808120C691222F3
:1012D800C6120DA61237EA120DA6122227120DA663
:1012E800E8F0A3E9121041C082C0837414120DA65D
:1012F80012322CD083D0821221DC409D120DA678A8
:1013080008120C5A900299780C120C5A7808790C29
:1013180012052A40030215F77406120DA612322789
:101328001222A1120DA61237EA120DA61233527418
:1013380026120DA6123324806D120DA61237EA125A
:101348000DA612222D120C5A7420120DA67808121E
:101358000C5A780C79081209848A828B83780C12CB
:101368000C69850C08850D09850E0A850F0B780C0C
:1013780079081205C57426120DA67808120C5A7839
:101388000C790812076A7426120DA6780C120C69DB
:101398001222C6120DA61237EA120DA61222271221
:1013A8000DA6E8F0A3E9121041C082C0837414129C
:1013B8000DA612322CD083D08212325374125003ED
:1013C800021341120DA61237E4120DA61232C612EC
:1013D8000DA612336E120DA6123311120C5A90027A
:1013E80091780C120C5A7808790C120579742650E9
:1013F80013120DA6120C7812034E741A120DA612AF
:101408000C848011120DA6120C781221A2120DA6BE
:101418007808120C69740A120DA61232EA120CA886
:101428007430120DA6120CB47430120DA67808127E
:101438000C5A741A120DA6780C120C5A7808790CEA
:101448001205C57426120DA6780C120C5A78087964
:101458000C1207457434120DA67808120C69743002
:10146800120DA67808120C5A741A120DA6780C12CE
:101478000C5A7808790C120745740A120DA6123313
:1014880011120C697408120DA6122252807A741E69
:10149800120DA61237EA120DA61232C6120DA612A6
:1014A800227E120DA67808120C5A7412120DA6127A
:1014B80037EA120DA6122241120C5A7808790C123A
:1014C80005C5740A120DA612225A120C5A78087908
:1014D8000C12076A740A120DA6123311120C690A4B
:1014E800EA70010B740C120DA61237EA120DA6123F
:1014F8003283F97402120DA61233527414120DA617
:10150800122260408912333C121041C082C0837499
:1015180048120DA612322CD083D0821232534003C7
:101528000215F77406120DA61222217416120DA6C2
:1015380012332F7404120DA61237EA120DA61222C6
:10154800AE120D47741E120DA6123317805E741268
:10155800120DA61237EA120DA61221D6120C5A74D1
:101568001E120DA61237EA120DA6122241120C5AAB
:101578007808790C1205C57416120DA6780C120C91
:101588005A7808790C12076A7416120DA678081290
:101598000C690AEA70010B740C120DA61237EA12D4
:1015A8000DA6122227120DA6E8F0A3E9F074141272
:1015B8000DA612226040977416120DA67808120C18
:1015C8005A7434120DA6780C120C5A7808790C1239
:1015D80009847416120DA67808120C697406120D87
:1015E800A61222217404120DA61232270214FA74CC
:1015F80006120DA61232271222A1120DA6123227A8
:10160800803A7412120DA61237EA120DA612222D74
:10161800120C5A7420120DA67808120C5A780C79FC
:10162800081205C58A828B83780C120C691222C6AF
:10163800120DA61237EA120DA6123283F97402129D
:101648000DA612228AC082C0837414120DA612320B
:101658002CD083D08212325340A8741A120DA67867
:1016680008120C5A7420120DA6780C120C5A78081D
:10167800790C1205C57412120DA612322C744E1272
:101688000DA6122215120C69741A120DA6122278D0
:10169800120DA6122272120DA61237E4120DA6120E
:1016A800220F120DA61237F9120DA6C082C083743C
:1016B80014120DA612322CD083D08212325340035A
:1016C8000212077406120DA612322C742C120DA6E3
:1016D800E0687003A3E06970030212077408120D32
:1016E800A61222528033120DA67808120C5A123212
:1016F800CC120D477404120DA61232DE120C5AE5F4
:101708000FC2E7F50F7808790C12076A7420120DDA
:10171800A67808120C6912333C121041C082C083AB
:101728007448120DA612322CD083D0821221DC40CC
:10173800B5120DA67808120C5A900299780C120C62
:101748005A7808790C12052A400302120774081205
:101758000DA612334F7426120DA61233248066127A
:1017680032FD120D477404120DA61237BAE8FAE9D1
:10177800FB8882F583780C120C5A7420120DA67817
:1017880008120C5A780C79081209848A828B83789B
:101798000C120C69850C08850D09850E0A850F0B3E
:1017A800780C79081205C57426120DA67808120C53
:1017B8005A780C790812076A7426120DA6780C124A
:1017C8000C6912333C121041C082C0837448120D58
:1017D800A612322CD083D08212325340827408125F
:1017E8000DA6123303120D477404120DA61221B36D
:1017F800120DA612336E120DA6123311120C5A9046
:101808000291780C120C5A7808790C120579742612
:101818005013120DA6120C7812034E741A120DA64C
:10182800120C848011120DA6120C781221A2120D2E
:10183800A67808120C69740A120DA61232EA120C64
:10184800A87430120DA6120CB47430120DA67808C4
:10185800120C5A741A120DA6780C120C5A780879C0
:101868000C1205C57426120DA6780C120C5A7808AD
:10187800790C1207457434120DA67808120C697495
:1018880030120DA67808120C5A741A120DA6780C8C
:10189800120C5A7808790C120745740A120DA61210
:1018A8003311120C697408120DA612222180428A83
:1018B800088B0974027808120D477404120DA612D9
:1018C800221B120C5A7434120DA67808120C5A787E
:1018D8000C79081209848A088B0974027808120D99
:1018E800477450120DA612221B120C690AEA7001E5
:1018F8000B7448120DA612226040B47406120DA68D
:10190800C082C0837414120DA61232A9D083D0826B
:101918001232534003021A3D7408120DA612334FB7
:101928007410120DA612322780788A088B09740267
:101938007808120D47AC08AD097402120DA6E02C08
:10194800F8A3E03DF9740A120DA612227E120DA624
:10195800780C120C5A7450120DA61221C5120C5A8A
:10196800780C79081205C5740A120DA612331112E3
:101978000C5A780C790812076A740A120DA61222FA
:101988005A120C690AEA70010B7448120DA6122249
:101998006040971222C6120DA61237EA120DA6123F
:1019A8003283F97402120DA612228AC082C083748F
:1019B80014120DA612322CD083D0821232535075D5
:1019C8007408120DA61222217416120DA612332FB6
:1019D800804E8A088B0974027808120D47AC08AD4E
:1019E800097404120DA61221CB780C120C5A740239
:1019F800120DA61221C5120C5A780C79081205C5C9
:101A08007416120DA67808120C5A780C7908120769
:101A18006A7416120DA6780C120C690AEA70010B8A
:101A28007448120DA612226040A87408120DA6125E
:101A380022210219917408120DA61222210211FD09
:101A48007448120DA6E024FEF508A3E034FFF5095A
:101A58007448120DA6E0F50A8508F0A4C50AA8F096
:101A68008509F0A428F88508F0E9A428F50B740284
:101A7800780A120D47744A120DA6E0250AF8A3E069
:101A8800350BF97404120DA6122284120DA6E0F586
:101A98000CA3E0F50D742C120DA6E0F50AA3E0F5F1
:101AA8000BE50C850AF0A4C50CA8F0850BF0A4285A
:101AB800F8850AF0E50DA428F50D7402780C120DCE
:101AC80047742E120DA6E50CF0A3E50DF0742E1246
:101AD8000DA612322C744C120DA612220F120DA64E
:101AE800123352740C120DA61221FA120DA61221ED
:101AF800EE122294740C120DA61221BF120DA6121A
:101B080021EEF583120CA8741A120DA6120CB474E7
:101B18000C120DA612322CC3E498F8E499F9742A31
:101B2800120DA6123352742A120DA6E0F874101280
:101B38000DA612220F120DA61237F9120DA6123396
:101B480096742C120DA61221B9120DA6E8F0A3E97D
:101B5800021BFF1232FD120D477410120DA6123728
:101B6800CF12332F7424120DA612223B120DA61287
:101B780022C0120DA612223B120DA61221E8120D48
:101B8800A612228AC082C0837448120DA612322C73
:101B9800D083D08212325340BA7424120DA6122177
:101BA800FA120DA61232BD1222947424120DA61236
:101BB80021BF120DA61232B3120CA8741A120DA668
:101BC800120CB47406120DA612226B120DA612374F
:101BD800E4120DA61221E2120DA6123352742A1233
:101BE8000DA61221FA120DA612220F120DA61238F6
:101BF80008120DA6123267F07406120DA612220002
:101C08005003021E42740C120DA61221FA120DA6E0
:101C180012328E741E120DA61237F9120DA6123347
:101C280003120D477424120DA6123396741A120D5E
:101C3800A67808120C5A900291780C120C5A78085F
:101C4800790C1204FE7003021E2B741E120DA612CC
:101C5800223B120DA6123808120DA61237BF806259
:101C68001232FD120D477404120DA61232F7120C2F
:101C78005A7408120DA61232D2120D477404120DAE
:101C8800A61232DE120C5A7808790C120984741ADA
:101C9800120DA6780C120C5A7808790C1209847463
:101CA80024120DA612223B120DA6122215120C693F
:101CB8001222C6120DA612223B120DA61221E812FC
:101CC8000DA612228AC082C0837448120DA6123251
:101CD8002CD083D08212325340867408120DA6127B
:101CE800225280787412120DA612223B120DA612EF
:101CF80032C6120DA612227E120DA67808120C5AB0
:101D08007424120DA612223B120DA6122241120CA7
:101D18005A7808790C1205C5740A120DA612225AAF
:101D2800120C5A7808790C12076A740A120DA61256
:101D38003311120C690AEA70010B740C120DA61209
:101D4800223B120DA6123283F9740E120DA612222E
:101D580084120DA6122260408B12333C121041C02F
:101D680082C0837448120DA612322CD083D08212FE
:101D780032534003021E2B7416120DA612332F7411
:101D880008120DA6122221741E120DA612223B1251
:101D98000DA61222AE120D477412120DA612331799
:101DA80080638A088B0974027808120D477404123C
:101DB8000DA61232F7120C5A7412120DA612223BFB
:101DC800120DA6122241120C5A7808790C1205C578
:101DD8007416120DA6780C120C5A7808790C120792
:101DE8006A7416120DA67808120C690AEA70010BBB
:101DF800740C120DA612223B120DA61221E8120D28
:101E0800A6E8F0A3E9F07448120DA61222604092E9
:101E18007408120DA6122221741E120DA612322762
:101E2800021D50741E120DA612223B120DA6123866
:101E380008120DA61237BF021B89742E120DA612A6
:101E4800322C744A120DA61221E2120DA612335238
:101E5800742C120DA612322C7406120DA6122284AE
:101E6800120DA61221B9807D7410120DA61237EA40
:101E7800120DA61222C0120DA61237EA120DA612D2
:101E88003283F97402120DA612228AC082C08374AA
:101E980014120DA612322CD083D08212325340C8AD
:101EA8007412120DA6123311120C5A90029D780C5E
:101EB800120C5A7808790C12076A7412120DA612BD
:101EC8003311120C697406120DA61221B9120DA64F
:101ED8001237F9120DA612226B120DA61237E41250
:101EE8000DA61221E2120DA61237F9120DA6122222
:101EF80000500302219D7406120DA6123303120D21
:101F0800477410120DA61233967410120DA61232D1
:101F18002C744E120DA61232B3120CA8741A120D9C
:101F2800A6120CB47408120DA6122252801712328F
:101F3800FD120D477404120DA61237CF1233241266
:101F48001041123342121041C082C0837448120DEE
:101F5800A612322CD083D08212325340D174101280
:101F68000DA61237E4120DA612328E7412120DA6A7
:101F7800123352741A120DA67808120C5A90029154
:101F8800780C120C5A7808790C1204FE700302219E
:101F9800897408120DA6122252807A740E120DA6A8
:101FA8001237EA120DA61232C6120DA612227E129E
:101FB8000DA67808120C5A7410120DA61237EA12E0
:101FC8000DA6122241120C5A7808790C1205C57414
:101FD8000A120DA612225A120C5A7808790C120706
:101FE8006A740A120DA6123311120C690AEA7001FA
:101FF8000B740C120DA61237EA120DA6123283F9D1
:102008007402120DA61233527414120DA612226015
:10201800408912333C121041C082C0837448120DAB
:10202800A612322CD083D082123253400302211BD5
:102038007416120DA6122272120DA61237E4120D92
:10204800A6122227120DA6123808120DA612222156
:102058001232FD120D47740E120DA6123317805E50
:102068007410120DA61237EA120DA61221D6120C00
:102078005A740E120DA61237EA120DA61222411238
:102088000C5A7808790C1205C57416120DA6780C2E
:10209800120C5A7808790C12076A7416120DA67871
:1020A80008120C690AEA70010B740C120DA612379B
:1020B800EA120DA6122227120DA6E8F0A3E9F07481
:1020C80014120DA612226040977416120DA67808F5
:1020D800120C5A7412120DA612225A120C5A7808AF
:1020E800790C120984741A120DA6780C120C5A78FD
:1020F80008790C1209847416120DA67808120C6956
:102108007406120DA61222217404120DA61232278B
:102118000220077406120DA61232271222A1120DF0
:10212800A6123227F97402120DA612228AC082C0A2
:10213800837414120DA612322CD083D0821232531B
:102148004003021EA87410120DA61237EA120DA63B
:1021580012222D120C5A741A120DA67808120C5A53
:10216800780C79081209848A828B83780C120C699E
:102178001222C6120DA61237EA120DA61232838059
:10218800A37406120DA61232271222A1120DA6124E
:102198003227021E8A743802320D12034E8A088BC7
:1021A800098C0AEDB2E7F50B741A221237BA740AD1
:1021B800221232307408221232307450221221CB8B
:1021C800780822E02CF8A3E03D8882F583221222C9
:1021D800477808221232577420221232927404224D
:1021E800123292740E22123292E824FCF582E934FB
:1021F800FF22123230741022C3A3E0122207229465
:1022080000A2D265D033221232927410221232B751
:102218007808221237D3780C22E0FAA3E0FB2212C6
:102228003292740222123292E8FAE9FB8882F5832C
:10223800780C22123230740E22122247780C22E0D7
:1022480028FCA3E0398C82F583221237C3E8F0A377
:10225800E9221232EE780C22123230C3EA98EB12DD
:1022680032602212326BF0742A22123333740C2239
:1022780012333374202212335674162212335674D2
:10228800482212335685108285118322F583123332
:102298007BF0221237C3123287F9851082851183A9
:1022A800123356740422E8F0A3E9123387F508A321
:1022B800E0F50974027808221232B7123333851018
:1022C800828511831237F4740C2274F0120DCA74CB
:1022D800BC120D5A743E120DA6EAF0A3EBF0742E50
:1022E800120DA612331E7402120DA6E4F0A3F074A8
:1022F8002A120DA6123324807E7402120DA6123300
:1023080003120D477458120DA61232F7120C5AE533
:102318000BC2E7F50B7402120DA61232D2120D474A
:10232800745A120DA61232DE120C5AE50FC2E7F5E6
:102338000F7808790C12076A7414120DA67808121F
:102348000C69742A120DA67808120C5A7414120D0E
:10235800A6780C120C5A7808790C1205795010746A
:1023680014120DA6120CA8742A120DA6120CB4741D
:1023780002120DA6123342F07402120DA6C082C0DA
:1023880083742E120DA612322CD083D082123253AF
:102398005003022301742A120DA67808120C5A90D1
:1023A80002A1780C120C5A7808790C1205C57440F1
:1023B800120DA67808120C69742E120DA61232A9F5
:1023C8007428120DA6123352742E120DA61233035E
:1023D800120D477432120DA6123317806674361226
:1023E8000DA61232A3120DA612328EE8FAE98882DF
:1023F800F5837808120C5AE50BB2E7F50B8A828947
:10240800837808120C697408120DA6123390120D05
:10241800A61232A3120DA6123283F97426120DA643
:10242800123808120DA6C082C083742E120DA6128F
:10243800322CD083D08212325340A27428120DA6B7
:10244800123267F07428120DA612220050030232CD
:1024580007743C120DA6E4F0A3F07428120DA6121E
:102468003303120D477436120DA6123396743612C2
:102478000DA612329D120DA612328E7434120DA6BC
:102488001233527436120DA6123297120DA612325A
:102498008E7430120DA61233528037743A120DA67C
:1024A80012329D120DA61232B312332F7410120D70
:1024B800A6120CA87434120DA612321E120CB47493
:1024C8002A120DA6120CA87430120DA612321E1272
:1024D8000CB47428120DA612334F7440120DA6784E
:1024E80008120C5A1232CC120D47745A120DA61249
:1024F80032DE120C5AE50FC2E7F50F7808790C1294
:10250800052A500302284C7440120DA67808120CB4
:102518005A1232CC120D477458120DA6123215F900
:10252800E824FCF582E934FFF583780C120C5AE5AF
:102538000FC2E7F50F7808790C12052A40108510AC
:1025480082851183123267F0C3122207508C7420DF
:10255800120DA612332F741C120DA6123374F8A391
:10256800E0F97402120DA6E8F0A3E90226B01232CF
:10257800FD120D47EC2508F8ED3509F9E824FCF8BB
:10258800E934FFF97438120DA61233527438120D5B
:10259800A61232EA120CA87414120DA6120CB47406
:1025A8000A120DA612323639F97424120DA6123306
:1025B800527424120DA61232EA120CA87404120DD9
:1025C800A6120CB47414120DA67808120C5A7420B2
:1025D800120DA6780C120C5A7808790C1205C5C091
:1025E80008C009C00AC00B7404120DA6780C120C9E
:1025F8005A741C120DA67808120C5A780C79081215
:1026080005C5D00BD00AD009D0087808790C120774
:102618006A7438120DA6123311120C697404120D63
:10262800A67808120C5A7420120DA6780C120C5AAF
:102638007808790C1205C5C008C009C00AC00B7417
:1026480014120DA6780C120C5A741C120DA67808D8
:10265800120C5A780C79081205C5D00BD00AD0098B
:10266800D0087808790C1207457424120DA6123385
:1026780011120C697408120DA6123390120DA612CD
:10268800323EFD7408120DA6C082C083743E120D3E
:10269800A612322CD083D0821232535003022576F0
:1026A8007402120DA6123342F07428120DA6C082CD
:1026B800C0837402120DA612322CD083D08212323B
:1026C80053500302284C7402120DA6123303120D44
:1026D80047740A120DA6123396740A120DA6123206
:1026E8009D120DA6E028FAA3E039FB8A82F58378CB
:1026F8000C120C5A741C120DA67808120C5A780881
:10270800790C1205C57410120DA67808120C69749C
:1027180020120DA67808120C5A780C79081205C5F3
:102728008A828B83780C120C697440120DA6780883
:10273800120C5A7410120DA6780C120C5AE50FC21E
:10274800E7F50F7808790C12052A500302284C7413
:102758000A120DA6123297120DA6123247120CA8B1
:10276800740C120DA6120CB47410120DA67808126F
:102778000C5A7410120DA6780C120C5A7808790CA1
:102788001205C5C008C009C00AC00B740C120DA6FA
:10279800780C120C5A740C120DA67808120C5A7880
:1027A8000C79081205C5D00BD00AD009D0087808D2
:1027B800790C12076AAA08AB09AC0AAD0B12034ED2
:1027C800EAF8EBF9ECFAEDFB7418120DA6120CB44A
:1027D8007418120DA6120CA88E828F83120CB47472
:1027E8000C120DA67808120C5A7418120DA6780C43
:1027F800120C5A7808790C1209847420120DA678E4
:1028080008120C697410120DA67808120C5A741864
:10281800120DA6780C120C5A7808790C120984E566
:102828000BB2E7F50B741C120DA67808120C69742C
:1028380008120DA6E4F0A3F07454120DA6E0FCA350
:10284800E002268A7430120DA61232EA120CA8741D
:1028580004120DA6120CB485108285118312322C35
:102868007428120DA6E0687003A3E069704D740423
:10287800120DA67808120C5A900291780C120C5A74
:102888007808790C12057940030224437404120D68
:10289800A67808120C5AE50BB2E7F50B7430120D46
:1028A800A6123311120C697408120DA6E4F0A3F0F5
:1028B8007456120DA6123227022422743C120DA659
:1028C800C3E0941E12220140077AFF7BFF02320BFD
:1028D800743C120DA61233421222B2120D47743AFA
:1028E800120DA6123396743A120DA6123297120DD3
:1028F800A61232B3120CA8742A120DA6120CB474C4
:1029080030120DA6123274120CA87414120DA612ED
:102918000CB47434120DA6123274120CA8740C1272
:102928000DA6120CB47434120DA61232EA120CA8B9
:102938007418120DA6120CB47414120DA67808128D
:102948000C5A7404120DA6780C120C5A7808790CDB
:10295800120745C008C009C00AC00B7414120DA69E
:10296800780C120C5A7404120DA67808120C5A78B6
:102978000C790812076AD00BD00AD009D008780859
:10298800790C1205C5C008C009C00AC00B740C1226
:102998000DA67808120C5A7418120DA6780C120C91
:1029A8005A7808790C120745C008C009C00AC00B3C
:1029B800740C120DA6780C120C5A7418120DA67805
:1029C80008120C5A780C790812076AD00BD00AD072
:1029D80009D0087808790C1205C5D00FD00ED00D93
:1029E800D00C780C790812076AC00CC00DC00EC054
:1029F8000F7418120DA67808120C5A9002A5780CBC
:102A0800120C5A7808790C1205C57414120DA678A0
:102A18000C120C5A7808790C1205C5D00FD00ED0BC
:102A28000DD00C780C79081209847410120DA67850
:102A38000C120C697410120DA67808120C5A741036
:102A4800120DA6780C120C5A7808790C1205C5904C
:102A5800029D780C120C5A7808790C12076AAA0899
:102A6800AB09AC0AAD0B12034E740C120DA6120C76
:102A7800847410120DA67808120C5A900291780CE2
:102A8800120C5A7808790C120579501A740C120D28
:102A9800A67808120C5AE50BB2E7F50B740C120D68
:102AA800A67808120C69742A120DA67808120C5A16
:102AB8007404120DA6780C120C5A7808790C1207B7
:102AC80045C008C009C00AC00B742A120DA6780CAC
:102AD800120C5A7404120DA67808120C5A780C7944
:102AE8000812076AD00BD00AD009D0087808790CE8
:102AF8001205C5C008C009C00AC00B7414120DA67F
:102B08007808120C5AC008C009C00AC00B74101209
:102B18000DA6780C120C5A740C120DA67808120C1B
:102B28005A780C790812076AD00BD00AD009D00855
:102B38007808790C1209847418120DA6780C120CF6
:102B48005A7808790C1207457418120DA6780C12D9
:102B58000C5A7808790C1205C5D00FD00ED00DD0BC
:102B68000C780C790812076A742A120DA6780812D4
:102B78000C5A780C79081209847410120DA6780C76
:102B8800120C697420120DA6122296741C120DA63E
:102B98001233742401F8A3E03400F97402120DA66C
:102BA800E8F0A3E9022CC67424120DA612323612DC
:102BB800335CF8A3E034FFF9740A120DA612336EE1
:102BC800120DA61232EA120CA87414120DA6120CD9
:102BD800B41232E4120CA87404120DA6120CB474C8
:102BE80020120DA67808120C5A7414120DA6780C2F
:102BF800120C5A7808790C1205C5C008C009C00A19
:102C0800C00B741C120DA6780C120C5A7404120D09
:102C1800A67808120C5A780C79081205C5D00BD082
:102C28000AD009D0087808790C12076A740A120DBC
:102C3800A6123311120C697420120DA67808120C12
:102C48005A7404120DA6780C120C5A7808790C12D2
:102C580005C5C008C009C00AC00B741C120DA678AF
:102C68000C120C5A7414120DA67808120C5A780C0F
:102C780079081205C5D00BD00AD009D00878087990
:102C88000C12074512330B120C697408120DA612A8
:102C98003390120DA612323EFD7408120DA6C082A2
:102CA800C083743E120DA612322CD083D082123209
:102CB800535003022BAF7402120DA6123342F07464
:102CC80028120DA6C082C0837402120DA612322CDF
:102CD800D083D08212325350030224A37402120DFF
:102CE800A6123303120D477424120DA612339674DC
:102CF80024120DA612329D120DA6123247120CA8EC
:102D0800740C120DA6120CB47424120DA61232976C
:102D1800120DA61232C6120DA612336E120DA6128D
:102D280032EA120CA87414120DA6120CB4741C12F8
:102D38000DA6780C120C5A740C120DA67808120CF9
:102D48005A780C79081205C57418120DA6780C1259
:102D58000C69740C120DA6780C120C5A7420120D02
:102D6800A67808120C5A780C79081205C5740C124A
:102D78000DA6780C120C697410120DA67808120CA6
:102D88005A7410120DA6780C120C5A7808790C1285
:102D980005C5C008C009C00AC00B7418120DA67872
:102DA8000C120C5A7418120DA67808120C5A780CCA
:102DB80079081205C5D00BD00AD009D0087808794F
:102DC8000C12076AAA08AB09AC0AAD0B12034E74C1
:102DD80004120DA6120C847404120DA6120CA8EE8F
:102DE80024FCF582EF34FFF583120CB47410120D35
:102DF800A67808120C5A7404120DA6780C120C5AF4
:102E08007808790C1209847420120DA67808120C1F
:102E1800697418120DA67808120C5A7404120DA6BB
:102E2800780C120C5A7808790C120984741C120D4B
:102E3800A67808120C69742A120DA67808120C5A82
:102E48007420120DA6780C120C5A7808790C120509
:102E5800C5C008C009C00AC00B740C120DA6780CB6
:102E6800120C5A741C120DA67808120C5A780C7998
:102E7800081205C5D00BD00AD009D0087808790CFB
:102E880012076A7410120DA67808120C69740C12D5
:102E98000DA67808120C5A7420120DA6780C120C84
:102EA8005A7808790C1205C5C008C009C00AC00BB9
:102EB800742A120DA6780C120C5A741C120DA678DE
:102EC80008120C5A780C79081205C5D00BD00AD014
:102ED80009D0087808790C120745740C120DA678E9
:102EE80008120C697414120DA67808120C5A741C76
:102EF800120DA6780C120C5A7808790C1205C574B4
:102F080018120DA67808120C697414120DA6780808
:102F1800120C5A7420120DA6780C120C5A780879E3
:102F28000C1205C57414120DA67808120C697408E1
:102F3800120DA6E4F0A3F07456120DA61232270261
:102F4800303D7424120DA61232A3120DA6E028F803
:102F5800A3E012335CFCA3E034FFFD8C82F58312FE
:102F68000CA8742A120DA6120CB41232E4120CA882
:102F78007404120DA6120CB4742A120DA678081245
:102F88000C5A7420120DA6780C120C5A7808790C79
:102F98001205C5C008C009C00AC00B7404120DA6EA
:102FA800780C120C5A741C120DA67808120C5A7858
:102FB8000C79081205C5D00BD00AD009D0087808BA
:102FC800790C12076A8C828D837808120C69740454
:102FD800120DA67808120C5A7420120DA6780C123D
:102FE8000C5A7808790C1205C5C008C009C00AC077
:102FF8000B742A120DA6780C120C5A741C120DA60A
:103008007808120C5A780C79081205C5D00BD00A2A
:10301800D009D0087808790C12074512330B120C26
:10302800697408120DA6123390120DA61232A3125B
:103038000DA6123283F97426120DA6123808120D45
:10304800A6C082C083742E120DA612322CD083D053
:10305800821232535003022F4A7410120DA67808B8
:10306800120C5A7410120DA6780C120C5A780879A2
:103078000C1205C5C008C009C00AC00B7418120D8F
:10308800A6780C120C5A7418120DA67808120C5A4D
:10309800780C79081205C5D00BD00AD009D0087869
:1030A80008790C12076AAA08AB09AC0AAD0B12031F
:1030B8004E7404120DA6120C847404120DA6120C80
:1030C800A8740A120DA6E0FCA3E0CC24FCF582EC5F
:1030D80034FFF583120CB47404120DA67808120C90
:1030E8005A900291780C120C5A7808790C1204FE46
:1030F800604A7410120DA67808120C5A7404120D46
:10310800A6780C120C5A7808790C120984742012CB
:103118000DA67808120C697418120DA67808120CFE
:103128005A7404120DA6780C120C5A7808790C12ED
:103138000984741C120DA67808120C697420120DEB
:10314800A67808120C5A740C120DA6780C120C5A98
:103158007808790C1205C5C008C009C00AC00B74EC
:103168001C120DA6780C120C5A7414120DA67808AD
:10317800120C5A780C79081205C5D00BD00AD00960
:10318800D0087808790C12076A7410120DA678080E
:10319800120C697420120DA67808120C5A741412B5
:1031A8000DA6780C120C5A7808790C1205C5C008BF
:1031B800C009C00AC00B741C120DA6780C120C5A58
:1031C800740C120DA67808120C5A780C790812059E
:1031D800C5D00BD00AD009D0087808790C12074559
:1031E800742A120DA67808120C697408120DA6E448
:1031F800F0A3F07454120DA6E0FCA3E0022CA07A10
:10320800007B007444120D707F08020E36E0250C16
:10321800F8A3E0350D22E0FCA3E0F5838C8222E0E0
:10322800F8A3E02212323022E0F8A3E0F9221232A9
:1032380030EC28F8ED22123230EC28FCED3922E08F
:1032480028FEA3E039FF8E82F5832212325722C36B
:10325800E098A3E01232602299A2D265D0332212FC
:10326800326B22E024FFF0A3E034FF22E0F8A3E071
:10327800C824FCF582E834FFF5832212328722E065
:1032880028F8A3E0392212329222123287F9221248
:103298003230745822123230745A22123230742664
:1032A80022E024FFF8A3E034FFF9221232B72212F9
:1032B80032BDF58322E028FAA3E0398A822212324D
:1032C80092740A22851082851183E0F50CA3E0F53B
:1032D8000D7402780C2212102D780C22851082852C
:1032E80011831232EE22E0F8A3E0F58388822212DD
:1032F80037D3780822851082851183121039740219
:103308007808228510828511831232EE780822E52A
:1033180008F0A3E50922ECF0A3EDF022E4F0A3F015
:10332800A3F0A3221232EE12333322E4F0A3F0A367
:10333800F0A3F02285108285118312334622E024FF
:1033480001F0A3E03400221237C312335622E8F00A
:10335800A3E9F02239F9851082851183E8F0A3E901
:1033680012338724FC22123356740A2212337B123A
:10337800338722E4F0A3F0A37480F0A3743F22F013
:10338800851082851183E0221237F4743222E50811
:10339800F0A3E509F02274F0120DCA74F4120D5A64
:1033A800740A120DA6EAF0A3EBF07406120DA61229
:1033B800331E7402120DA6E4F0A3F07406120DA6D3
:1033C800123303120D477404120DA61233178050DE
:1033D80012330B120C5A850C82850D83120CA885AA
:1033E8001082851183E0FEA3E0F5838E82120CB46F
:1033F800850C82850D837808120C690CEC70010D20
:103408007404120DA612229B120DA61235B774066B
:10341800120DA61235C540B87402120DA612334219
:10342800F07402120DA6C082C0837406120DA61293
:1034380032A9D083D08212325340030235A47402D9
:10344800120DA6E0FEA3E0FF7402120DA6E024010F
:10345800FCA3E03400FD8033850C82850D83780C55
:10346800120C5A8C088D0974027808120D47741CC6
:10347800120DA61232F7120C5A780C790812057937
:103488005004ECFEEDFF0CEC70010D8E088F0974F2
:10349800027808120D47741C120DA6E02508F50CD9
:1034A800A3E03509F50D7406120DA61235C540A81E
:1034B8007402120DA6E06E7003A3E06F700302346D
:1034C800207402120DA6123303120D477408120D50
:1034D800A61233967408120DA612322C741C120D03
:1034E800A6E028FCA3E039FD8C82F5837808120C4D
:1034F8005A850C82850D83120CA88C828D83120C40
:10350800B4850C82850D837808120C698E088F09A2
:1035180074027808120D47741E120DA61237FF1296
:103528000DA612322C741E120DA61235A9803F1258
:10353800330B120C5A850C82850D83120CA885104A
:1035480082851183E0C0E0A3E0F583D082120CB439
:10355800850C82850D837808120C690CEC70010DBE
:103568007404120DA612229B120DA61235B7740A06
:10357800120DA61235C540B78E088F097402780857
:10358800120D477420120DA61237FF120DA6123223
:103598002C7420120DA61235A9023416740C0232AE
:1035A8000DE028F50CA3E039F50D7C007D00221212
:1035B8003230E50C28F50CE50D39F50D22123230C4
:1035C800C3EC98ED1232602274F0120DCA74EE1238
:1035D8000D5A740C120DA6EAF0A3EBF0740A120D42
:1035E800A612331E742A120DA6E0FEA3E0FF740A89
:1035F800120DA6123311120C5A9002A1780C120C5B
:103608005A7808790C1205C58E0CEFF50D3395E044
:10361800F50EF50F780C12039F7808790C1205C582
:103628007424120DA6780C120C5A780C790812051D
:1036380079500A7424120DA67808120C69740812BD
:103648000DA6E4F0A3F07422120DA61237E4120DB1
:10365800A6123352742C120DA61237BF801E74089E
:10366800120DA61237F08E088F0974027808120D11
:10367800477404120DA61237B4120DA61238081298
:103688000DA6C3E09EA3E09FA2D265D033400302FB
:1036980037A57406120DA6E4F0A3F0740C120DA65B
:1036A8001237EA120DA602377B8C088D097402784E
:1036B80008120D47740A120DA61237CF120CA874FF
:1036C8000E120DA6120CB47424120DA6780C120C4E
:1036D8005A740E120DA67808120C5A780C79081232
:1036E800057950528C088D0974027808120D4774B8
:1036F80004120DA61232F7120C5A7402120DA612F9
:10370800225A120C5A7808790C1205C5740E120D3B
:10371800A6780C120C5A7808790C12098485108244
:1037280085118312225A120C5A7808790C12076AEA
:1037380012330B120C690CEC70010D7402120DA6F9
:103748001237AA7402120DA6E8F0A3E9F0C3EC9EA2
:10375800ED9FA2D265D03350030236B17406120D24
:10376800A61237F08510828511831237AA85108238
:103778008511831237F9120DA6C082C083742812EE
:103788000DA612322CD083D0821232534003023657
:10379800667C007D001232E412332480AF7412027A
:1037A800320DE02404F8A3E03400F9221237BA7489
:1037B80004221237DBF9221237C322E0F8A3E0F91A
:1037C800851082851183221237D3221237DB888233
:1037D800F58322E02508F8A3E03509221232307477
:1037E80004221232307402221237F422123346F0C5
:1037F800221233567406221237BA85108285118335
:1038080012335674082274F0120DCA74B3120D5A8A
:10381800851082851183EAF0A3EBF0740F120DA6D0
:10382800ECF0A3EDF0740B120DA6E4F0A3801B746A
:103838005D120DA61240F5740F120DA61241051265
:103848000DC8740B120DA612418FF0124112F985A2
:103858001082851183E02401FAA3E03400FB85106F
:1038680082851183EAF0A3EBF07425696015E9708D
:10387800BE740B120DA61240F5744D120D707F0820
:10388800020E361241126425701985108285118343
:10389800E0240108124198745D120DA61240F579D2
:1038A800258094740E120DA6E4F0740D120DA6E492
:1038B800F07408120DA6E4F07407120DA6E4F07473
:1038C8001B120DB07402120DA61241A37419120D29
:1038D800A674A9F0A3740280197407120DA6E070EB
:1038E800077407120DA6EAF0851082851183E8F0A7
:1038F800A3E9F0124163FAA3E0F5838A82E0FA248F
:10390800E060D624FD601724F860D624FE60062403
:10391800FD600F80117408120DA6E00480C9740DB3
:1039280080F5740E80F18510828511831240ECE0D9
:10393800642A7044745F120DA61240EC1240F5EA36
:10394800FCEBFD8A82F5831240F5EC2402FC500161
:103958000D745F120DA6124138C3EB1240BD50130F
:10396800C3E49AFCE49BFDECFAEDFB7408120DA687
:10397800E004F012419D803C7A007B00802AEA75C1
:10398800F00AA4FAA9F075F00AEBA429FBEA28F8D2
:10399800E43BF9E824D0FAE934FFFB85108285116D
:1039A80083E02401F8124198124112F874D028C318
:1039B800940A40CA7408120DA6E06007740E120D2E
:1039C800A6E4F0124112642E6003023A5F85108269
:1039D8008511831240E2851082851183E8F0A3E9FE
:1039E8001241C8642A702E745F120DA6124126F97E
:1039F8008882F5831240DC7404120DA6ECF0A3ED66
:103A0800F0E82402F8500109745F120DA612416F04
:103A18001241CF804B7404120DA6E4F0A31241C8E2
:103A2800FC74D02CC3940A50387404120DA61240AA
:103A3800D575F00AA4F8ADF075F00AE9A42DF9E8F7
:103A48002CF8E439F9E824D0F8E934FFF9740412C1
:103A58000DA61241CF80C67404120DA674FFF0A300
:103A6800F07C00124163FDA3E0F5838D82E024B46D
:103A7800600824E4600624FC70057C0112419D1254
:103A88004112C0E07406120DA6D0E01241D3F074C2
:103A980006120DA6E07003023F6024BB7003023FCC
:103AA8002B24FE7003023F2B24EF7003023C812479
:103AB800F57003023B60147003023D221470030288
:103AC8003F2B147003023F2B147003023F2B24FE7C
:103AD8007003023D2224FB6024147003023C571437
:103AE8007003023C8124FD7003023BA024FE700396
:103AF800023C8124FD7003023C75023F6C745F1226
:103B08000DA612417CE8FEE9FFE5082402F50850FD
:103B1800020509ECA2E0740B5027120DA61240CF43
:103B28003395E0FA8E828F831241A3A3EAF0A3F0C3
:103B3800745F120DA6124105E508F0A3E5090238E5
:103B480052120DA61240CF8E828F831241A3745F4A
:103B5800120DA61240EC80E0745F120DA6124126E9
:103B6800F5838882E0C0E0741B120DA6D0E0F074E3
:103B78005F120DA61241182402F8A3E03400F9746C
:103B88005F120DA612416F1241A3741C120DA6A854
:103B980082A9837409023C4D745F120DA612417C00
:103BA800E5082402FCE43509FD745F120DA61241F4
:103BB800387402120DA61241A3E849700C7402125F
:103BC8000DA674BAF0A37402F07404120DA6124183
:103BD8002D500C7404120DA67410F0A37427F07EF7
:103BE800007F0080050EEE70010F7402120DA61200
:103BF80040CF8882F583A3AC82AD837402120DA6F0
:103C0800ECF0A3EDF088828983E060147404120D4F
:103C1800A61240CFC3EE98EF99A2D265D03340C523
:103C28007402120DA61241467409120DA61241A380
:103C3800C3E49EF8E49FF97409120DA6E028F8A3DE
:103C4800E039F97402120DA6E8F0A3E9023F837483
:103C58000D120DA6E060167404120DA61240D54987
:103C6800700B7404120DA67401F0A3E4F074191219
:103C78000DA674C9F0A37402F0745F120DA6124168
:103C8800547406120DA6E0647070388508828509A0
:103C9800831240DC7411120DA6ECF0A3ED1241C1A1
:103CA800E5081240C5120DA612416F1241A3741502
:103CB800120DA674101241C1A3F07407120DA6E4E8
:103CC800023D97ECA2E0E50850161240AA120DA694
:103CD8001241A9120C907411120DA6120C9C801995
:103CE8001240C5120DA61241BCF8A3E0F9741112D6
:103CF8000DA6E8F0A3E91241C17406120DA6E0640E
:103D08006F70097415120DA6740880A9E0647570A7
:103D18009D7415120DA6740A809B745F120DA6126D
:103D28004154ECA2E0E50850101240AA120DA61268
:103D380041A97808120C5A80161240C5120DA61215
:103D480041BCF508A3E0F5093395E0F50AF50B74D5
:103D580011120DA67808120C6990029178081203C6
:103D68007940217407120DA6742DF07411120DA656
:103D78007808120C5A7808120BDC7411120DA67808
:103D880008120C697415120DA6740A1241C1A3F029
:103D9800744C120DA6A882A9837402120DA61241B2
:103DA800A37409120DA61241A37411120DA6120CC8
:103DB80090EC4D4E4F6004D2008010C20074041283
:103DC8000DA61240D5497003023E9A7402120DA640
:103DD8001241467402120DA61241A37411120DA6C7
:103DE800780C120C5A7415120DA67808120C5A7811
:103DF8000C7908120B6A7419120DA6E02508F8A3AD
:103E0800E035098882F583E0C0E07402120DA6123D
:103E18004105D0E0F07411120DA6780C120C5A74FA
:103E280015120DA67808120C5A780C7908120B6A2C
:103E38007411120DA6780C120C697411120DA612C9
:103E48000C90EC4D4E4F70837404120DA612412D48
:103E58005040740E120DA6E060387407120DA6E0EB
:103E68006004D2F08002C2F0A2F0E433F8EA98F8D5
:103E7800EB9400F97404120DA6E8F0A3E98012741B
:103E880002120DA61241A37402120DA61241057466
:103E980030F07402120DA6124146744C120DA6C0E1
:103EA80082C0837402120DA61240DCD083D082E552
:103EB80082C39CFEE5839DFF7404120DA61240DCAC
:103EC800C3EE9CEF9DA2D265D03340B3740D120DA2
:103ED800A6E07003023F84A2004003023F847406F8
:103EE800120DA6E064786005E064587010E08882DE
:103EF8008983F0E824FF18E934FFF98012E0646F41
:103F0800707A7402120DA612416FE06430606D740D
:103F180002120DA61241A37402120DA612410574D5
:103F28003080587402120DA674DAF0A37402F0748B
:103F380009120DA674DAF0A37402F07409120DA622
:103F480012411860377409120DA61240E274091262
:103F58000DA6E8F0A3E980E285108285118312415D
:103F68004B12419C7402120DA674FDF0A37402F06A
:103F78007409120DA67400F0A37403F07409120DED
:103F8800A6C082C0837402120DA61240CFD083D07F
:103F980082E0C398F8A3E099F97404120DA61241BF
:103FA800A37404120DA6E0F8C3EA98EB99A2D265AF
:103FB800D03350067E007F0080217407120DA6E0E2
:103FC8006004D2F08002C2F0EAC398F8EB99F9A233
:103FD800F0E433FAE89AFEE99400FF7408120DA69B
:103FE800E070208019745D120DA61240FB120DA618
:103FF800124105120DC8740B120DA612418A124007
:10400800B450E27407120DA6E06051745D120DA65B
:104018001240F57407120DA6E0F9740F120DA612DE
:104028004105120DC8802D745D120DA61240F5745D
:1040380002120DA6124118F9740F120DA6124105AD
:10404800120DC87402120DA6E01241E87402120D96
:10405800A61241A3740B120DA612418A7404120D04
:10406800A6E024FFF0A3E034FFF07404120DA612BA
:10407800412D50B37408120DA6E070030238531294
:1040880040B45003023853745D120DA61240FB125F
:104098000DA6124105120DC8740B120DA612418A05
:1040A80080DD2404F8E43509F9745F22EE24FF1E4C
:1040B800EF34FFFFC39400A2D265D033222402F864
:1040C800E43509F9745F22E0F8A3E0F922E0F8A3E7
:1040D800E0F9E822E0FCA3E0FD22E0240108A3E0E7
:1040E8003400F922E0FAA3E0F5838A8222E0FAA3F9
:1040F800E0FB22E0FAA3E0FB7920740F22124109C9
:1041080022E0F8A3E0F58388822285108285118356
:1041180012411C22E0F8A3E0F5838882E0221241D4
:104128001CF8A3E022C3A3E09400A2D265D03322F6
:10413800E0FEA3E0F5838E82ECF0A3EDF0221241BD
:104148004BF922E024FFF8A3E034FF221241582261
:10415800124109E0F508A3E0F509228510828511CE
:1041680083E01241DEE02212417322E0FCA3E0F575
:10417800838C8222124158850882F583E0F8A3E0F7
:10418800F92212418FF022E02401F0A3E03400224A
:10419800A3E03400F9851082851183E8F0A3E9F0E3
:1041A800221241AD22124173E8F0A3E9F08508829A
:1041B800850983221241ADE022F0A3E4F0A3F022A6
:1041C8001241F112411D22E8F0A3E91241F1124116
:1041D800DEE8F0A3E9221241E885108285118322E6
:1041E8002401F8A3E03400F922F0851082851183B8
:1041F800E02274F6120DCAEAFCEBFD78007900752E
:1042080008017E007F00EC2EF582ED3FF583E0F596
:1042180009E8FAE9FBEA2AFAEB33FB74602AF5822B
:1042280074013BF583E02EFAA3E03F8A82F583E030
:10423800650960037508000EEE70010FC39406123D
:104248004A1B40C2E508A2E050047901801008E842
:10425800700109C39403E9124A1C40A379007F0244
:10426800020E3674F2120DCA74C8120D5AEAFEEB29
:10427800FF8C0A8D0B7A087B001203248A088B09AD
:10428800EA4B700A7A007B00120086024325780800
:10429800120F33740A120DB0880C890D780C120FA6
:1042A800337404120DB0880C890D780C120F337416
:1042B8001E120DB0880C890D780C120F33750C0284
:1042C800750D00780C120F337C047D00EEFAEFFBBD
:1042D8001202FA740A120D70AA08AB0912031878B0
:1042E8000A120F337508027509007808120F337522
:1042F80008047808120F33900291120F44741212B6
:104308000DB0880889097808120F33740C120DC093
:104318007424120DB8120312740C120D7074381232
:104328000D707F06020E3674F7120DCA79017E00F1
:104338007F008012EA2EF582EB3FF583E060027978
:10434800000EEE70010FC3EE9CEF12465740E57F5A
:1043580001020E3674F0120DCA74F6120D5A740862
:10436800120DA6EAF0A3EBF0741A120DA6E06C7019
:1043780003A3E06D60030244FF7402120DA6E4F08B
:10438800A380087402120DA61245D3F07402120D10
:10439800A6C082C0837408120DA61245E8D083D047
:1043A800821245DC40030244FF851082851183E4B4
:1043B800F0A30244CEEAF8EBF9E875F018A4F8ACDB
:1043C800F075F018E9A42CF9851082851183E02492
:1043D800B0FCA3E03401FDEC28F582ED39F583E06B
:1043E800F50CE4F50DF50EF50F780C1203BA8A08F2
:1043F8008B0974027808120D477402120DA6E0F5B5
:104408000AA3E0F50B7404780A120D477490250A84
:10441800F87401350BF9E82508F582E93509F583C3
:104428007808120C5A780C79081205C57404120D14
:10443800A67808120C5A780C790812076A740412C4
:104448000DA6780C120C690AEA70010B741A120D89
:10445800A61245E8C3EA98EB99A2D265D033500377
:104468000243BD7404120DA67808120C5A900295E6
:10447800780C120C5A7808790C12076A780812041A
:1044880017C008851082851183C082C08374021208
:104498000DA61245E8E875F018A4F8AAF075F0180A
:1044A800E9A42AF9740E28F8740139F9D083D08266
:1044B800E028F8A3E0398882F583D0E0F0851082FF
:1044C8008511831245D3F0851082851183C082C07F
:1044D80083741C120DA61245E8D083D0821245DCE5
:1044E800400302438B7404120DA6E4F0A3F0A3F07A
:1044F800A3F0FAFB0244547E007F00EEF8EFF9E8DF
:1045080075F018A4F8AAF075F018E9A42AF9740E41
:1045180028F508740139F5097C187D00AA08FB12F2
:10452800024CE960030245B9850882850983E0FCED
:10453800EEF8EFF9E828F8E933F9746028F874011F
:1045480039F9E8FAE9FB8882F583E02408F8A3E062
:1045580034008882F583E0F86013ECC398F895E09E
:10456800F9E824FFF508E934FFF509800675080025
:10457800750900ECF08A828B831245E8E8FAE9FBBA
:10458800E5093395E0F50AF50BE8240DF582E43BDF
:10459800F5837808120C1F9002997808120C5A8A31
:1045A800828983A3A3A3A3A3A3A3A3A37808120C1C
:1045B8001F0EEE70010FC39403124A1B50030245ED
:1045C80003740A120D707F08020E36E02401F0A36E
:1045D800E0340022C3E098A3E099A2D265D0332248
:1045E800E0F8A3E0F922C082C083C3EC9401ED1285
:1045F8004A1C40128A828B83E4F0A3EC24FF1CED52
:1046080034FFFD4C70F2D083D0820200EF74F612B2
:104618000DCAEAFEEBFF7A007B00802790015FE07D
:10462800C0E0750801750900EA7808120D47D0E066
:104638005508700AEE2AF582EF3BF583E4F00AEAA2
:1046480070010BC3EA9CEB12465740D00242669DAC
:10465800A2D265D0332274F5120DCA78007900749D
:104668000B120DA6E0F508A3E0F5098036EA28F557
:1046780082EB39F583E0C0E0E50875F018A4FE8503
:10468800F00A75F018E509A4250AFF74B02EFE7427
:10469800013FFFEE28F582EF39F583D0E0F008E816
:1046A800700109C3E89CE912465740C17F03020E16
:1046B8003674F6120DCA74C8120D5A900101E4F04E
:1046C8001202B8900101E0A2E650F890607FE06025
:1046D800030249EF900101E0A2E040030249EF74B0
:1046E8001E120DC07418120DB81202287418120D7B
:1046F800B8120240E970030249EF741E120DA6E0D9
:10470800FC741F120DA6E090015FF0780279007426
:104718001E120DA6E58228F582E58339F583E0C0EF
:10472800E0851082851183E58228FAE58339FBEA62
:1047380024FEF582EB34FFF583D0E0F008E8700141
:1047480009C3941AE9124A1C40C5EC6050146077FA
:104758001470030247FB1470030248271470030205
:10476800484514700302486424FB70030248871408
:1047780070030248B724F770030248DD147003027F
:10478800490A14700302493A14700302496A147002
:10479800030249961470030249C20249EFE4F5087E
:1047A800F5097808120F337C187D007402120DB8D1
:1047B800124A15120D709001567401F0900102749E
:1047C8003C124A01024883750801750900780812ED
:1047D8000F337C187D007402120DB8124A15120DA1
:1047E800709001577401F09001027428124A010474
:1047F8000248837508027509007808120F337C187F
:104808007D007402120DB8124A15120D70900158ED
:104818007401F09001027414124A017402805CE47D
:10482800F508F5097808120F337C187D0074021218
:104838000DB8124A15120D70900156803C7508018A
:104848007509007808120F337C187D007402120D68
:10485800B8124A15120D70900157801D750802751F
:1048680009007808120F337C187D007402120DB805
:10487800124A15120D709001587401F00249EF7533
:1048880008027509007808120F337C187D0074023D
:10489800120DB8124A15120D70900158124A0C7078
:1048A800030249EF7C027D007A6C7B010249EC75BA
:1048B80008037509007808120F337C187D0074020C
:1048C800120DB8124A15120D70124A0970030249E6
:1048D800EF7C0280247508037509007808120F33ED
:1048E8007C187D007402120DB8124A15120D701250
:1048F8004A0970030249EF7C037D007A6E7B01024E
:1049080049EC7508047509007808120F337C187D86
:10491800007402120DB8124A15120D7090015A1245
:104928004A0C70030249EF7C037D007A707B010218
:1049380049EC7508057509007808120F337C187D55
:10494800007402120DB8124A15120D7090015B1214
:104958004A0C70030249EF7C037D007A727B0102E6
:1049680049EC7508067509007808120F337C187D24
:10497800007402120DB8124A15120D7090015C12E3
:104988004A0C60637C037D007A747B01805675084D
:10499800077509007808120F337C187D007402121D
:1049A8000DB8124A15120D7090015D124A0C60374D
:1049B8007C037D007A767B01802A750808750900DA
:1049C8007808120F337C187D007402120DB8124A51
:1049D80015120D7090015E124A0C600B7C037D006D
:1049E8007A787B0112025E79811202B2900101E4A9
:1049F800F07438120D70024266F0A3E4F0900107DB
:104A0800229001597401F090015FE0F422120264CF
:104A1800740222EF9400A2D265D03322C082C083F0
:104A280012022E02460EC082C08390015F74FFF00E
:104A380012026A02460E120D707F08020E36E95302
:104A4800F4FB6007D29243FE04800953FEFB53F641
:104A5800FB43F7400200EF74F4120DCA7A117B0091
:104A68001203248A088B097A117B001203248A0A0C
:104A78008B0BAE0AAF0B7A117B001203248A0A8BC8
:104A88000BA80AA90B74AA8508828509837A06F0FF
:104A9800A3DAFC850882850983A3A3A3A3A3A3E4BF
:104AA800F0A3F0850882850983A3A3A3A3A3A3A3E6
:104AB800A3F0850882850983124B67E508240DF564
:104AC80082E43509F583E4124B7074BB8E828F83C0
:104AD8007A06F0A3DAFC8E828F83A3A3A3A3A3A3F1
:104AE8007401F0A3E4F08E828F83A3A3A3A3A3A3EE
:104AF800A3A3F08E828F83124B67EE240DF582E418
:104B08003FF583E4124B7074CC88828B837A06F06D
:104B1800A3DAFC88828B83A3A3A3A3A3A37402F0C4
:104B2800A3E4F088828B83A3A3A3A3A3A3A3A3F0E6
:104B380088828B83124B67E8240DF582E439F5836C
:104B4800E4124B70900160E508F0A3E509F0A3EECC
:104B5800F0A3EFF0A3E8F0A3EBF07F04020E36A376
:104B6800A3A3A3A3A3A3A3A3F0A3F0A3F0A3F0225A
:104B7800C082C083E490010E7848F0A3D8FC90016D
:104B8800B07860F0A3D8FC9001567809F0A3D8FC5F
:104B9800D083D0820200EFC082C0839061C8E0C396
:104BA800941B404DE5D9E5D9E5D978007900E5D9D8
:104BB800C0E0EA28F582EB39F583D0E0F008E87028
:104BC8000109C39406124CB840E4E5D9E5D9E5D902
:104BD800E5D9E5D978007900E5D9C0E0EC28F58277
:104BE800ED39F583D0E0F008E8700109124CB540C2
:104BF800E7809DC082C08374F8120D5A900279AC88
:104C080010AD117408120CCDF8F9124CC1E0C0E0D7
:104C1800746828F582740139F583D0E0F008E870EB
:104C280001097408684970E27408120D70024B9803
:104C380074F7120DCA74E6120D5A900101E4F0855A
:104C48001082851183781AF0A3D8FCE98510828533
:104C58001183F07401120DA6EAF078027900EC28AD
:104C6800FAED39FBEA24FEF582EB34FFF583E0C068
:104C7800E0124CC1D0E0F008E8700109124CB540D0
:104C8800DD7C087D01791AAA10AB1112029A120272
:104C9800BE900101E0A2E650F879911202B29001AB
:104CA80001E4F0741A120D707F01020E36C3941AD3
:104CB800E99400A2D265D03322851082851183E55C
:104CC8008228F582E58339F5832274F0120DCA74BF
:104CD800F4120D5A8A088B098C0A8D0B7405780812
:104CE800120BEDE97003024DC37408120DC0740273
:104CF800120DB81202E87404120DC0AA10AB1112FA
:104D080002E27408120DA6780C120C5A7404120DE3
:104D1800A6780C120C46851082851183C082C08348
:104D28007402120DA6E0F8A3E0F9D083D082C3E0A4
:104D380098A3E0998510828511835035E02400F00E
:104D4800A3E0347DF07402120DA6E0F8A3E0F98523
:104D58001082851183C3E098F0A3E099F090028156
:104D6800780C120C5A7404120DA6780C120C1F80C1
:104D780008C3E098F0A3E099F0851082851183E0DC
:104D8800F8A3E0F97AD17B03120CEE880C890DE4C4
:104D9800F50EF50F7808790C120C327404120DA672
:104DA800780C120C5A7405780C120BED7808790CF3
:104DB800120C329002857808120C0C90028978083F
:104DC8001203794007900210E4F0803A90028D783F
:104DD800081203799002104004740180027402F0F2
:104DE800AA08AB09AC0AAD0B1202D079011202F481
:104DF8001202D6120282900210E0F91202CA1202BE
:104E0800DC79011202EE740C024A3E75E40275E583
:104E18004475DA0075DB7DD2B90200EF900101E438
:104E2800F053F4FB53FEFB53F6FB43F74012027CAE
:104E380053F4FB53FEFB43F6047A1A7B0212034831
:104E480079011202AC12028E79171202941202A68C
:104E58007A007B00750801750900EA7808120D4789
:104E6800E508F4F852F352FD528F43F72052F452FA
:104E7800FE52F643F7400AEA70010BC39408125039
:104E8800F940D17A007B00750801750900EA7808B5
:104E9800120D47E508F452F552FF52F743F7800A1E
:104EA800EA70010BC394051250F940DB79009002B7
:104EB80071120C7812023A790112021679009002E6
:104EC80075120C7812023A79001202167940120211
:104ED800C412021C7A1A7B001203248A088B09EA7E
:104EE800FCEBFD7AFF79FF120234AA08AB09120322
:104EF800181201FE1202708003120276900105E07A
:104F080060F7900166E02401F0A3E03400F07E0031
:104F18007F00EEF8EFF9E828F8E933F9746828F526
:104F28000C740139F50D74562EF58274013FF58322
:104F3800E0700B7C027D00AA0CAB0D1202588E08A3
:104F48008F0974037808120D4774702508F50E74DC
:104F5800013509F50F850C82850D831250DC12038B
:104F6800BA850E82850F831250E9850C82850D83E0
:104F7800A31250DC1203BA850E82850F83A3A3A364
:104F8800A31250E90EEE70010FC39404EF1250FA09
:104F980040807C907D017A707B011202467508186A
:104FA8007509007808120F337508047808120F3352
:104FB8007C047D007A027B001202527404120D7088
:104FC800120222900105E4F0900166C3E09464A304
:104FD800E094005003024EFC7A207B021203487EC4
:104FE800007F00EEF8EFF9E828F8E933F974602853
:104FF800F50C740139F50D850C82F583E0F8A3E012
:10500800F98882F583A3A3A3A3A3A3A3A3E0FA74B7
:1050180063C39AF50895E0F50995E0F50AF50BE8FC
:10502800240DF582E439F5837808120C1F8E088F59
:10503800097808120F337A2A7B021250D6120D70A3
:10504800850C82850D83E0F8A3E0C82409F582E485
:1050580038F5837808120C5A7808120F337A347BA3
:10506800021250D6120D70850C82850D83E0F8A3CC
:10507800E0C8240DF582E438F5837808120C5A78D4
:1050880008120F337A477B021250D6120D70850C26
:1050980082850D83E0F8A3E0C82408F582E438F59A
:1050A80083E0F5087509007808120F337A5A7B02F5
:1050B8001250D6120D700EEE70010FC39403EF124A
:1050C80050FA5003024FEB7A007B000200EF120304
:1050D80048740222E0F508E4F509F50AF50B7808AA
:1050E80022E508F0A3E509F0A3E50AF0A3E50BF033
:1050F80022EB9400A2D265D03322D083D082020062
:10510800EF74F6120DCA7508807509007808120F39
:10511800337C007D007A007B6012033C7402120D20
:10512800701202A0759C7790618AE0640170F89013
:105138006001E054FC125204906003E0C2E0F0E029
:10514800C2E1F0E0C2E2F090618A7401F090618BF4
:10515800E0640170F8906002E0543FF0E0C2E0F0D3
:10516800E0C2E1125204906018E0C2E2F0E0D2E03E
:10517800F0E0C2E4F0A37427F09060047403F090A8
:105188006008E4F0A37455F0A3F0A3F090618B7469
:1051980001F09061877469F090618674F3F0906112
:1051A800BC7407F09062657413F09061A27410F0FB
:1051B8009061807440F09061907404F0A37448F09A
:1051C800A3E4F0A374A3F09061A57401F090619436
:1051D800E4F0A374D6F0A374BEF0A37489F0A374AA
:1051E8008EF09061E0E4F0A3745BF0A37406F0A382
:1051F800E4F09061E904F07F02020E36F0E0C2E2CA
:10520800F0E0C2E3F0E054CFF022C082C083E9FAB4
:1052180090618AE0640170F890618DE05403600445
:1052280079048053E924E9600A24E8601024CA60FC
:105238001C802A906000E054804417802B90600006
:10524800E05480442FF090600C7426802190600018
:10525800E054804465F090600C74278011747F5A84
:10526800F8906000E0548048F090600C7425F0904D
:10527800618A7401F0790002510274F7120DCAE9CB
:10528800FE7800C3941B40047903804E740D29F501
:10529800D975D902740B29F5D98C828D83E0F5D99B
:1052A800A31252E71252E7A31252F51252F5A3E0E5
:1052B800F5D975D90275D90175D904740129F5D9BB
:1052C80075D9FF800EE8FCEA2CF582E43BF583E013
:1052D800F5D908E8C39E40ED79007F01020E361229
:1052E80052EB22E0F5D98C828D83A3A3221252EBD4
:1052F800A3A32274F0120DCA74F6120D5A74061282
:105308000DA6EAF0A3EBF0A3ECF0A3EDF0740612FF
:105318000DA67808120C5A900299780C120C5A783B
:1053280008790C120579503A7406120DA6780812FD
:105338000C5A900291780C120C5A7808790C1204C5
:10534800FE700B7A007B007C007D0002547D900289
:10535800167421F0A3E4F07AFF7BFF7C7F7D7F0247
:10536800547DA810A911880889097808120F337488
:1053780008120DA6120C7812032A7402120D70740A
:1053880002120DA6120C847402120DA67808120CD3
:105398005A900301780C120C5A7808790C12076A93
:1053A800900305780C120C5A7808790C1205C5740C
:1053B80002120DA6780C120C5A780C79081209847E
:1053C800780C790812076A850C08850D09850E0A7C
:1053D800850F0B851082851183E0A2E05025147596
:1053E800F002120357FA900309780C120C5A780845
:1053F800790C1205C5EAA2E713FAE413250AF50A9F
:10540800EA801175F002120357A2E713F8E4132596
:105418000AF50AE8350BF50B7402120DA678081286
:105428000C697402120DA67808120C5A90030D78B4
:105438000C120C5A7808790C1205C5C008C009C0AE
:105448000AC00B7406120DA6780C120C5A740212BC
:105458000DA67808120C5A780C7908120984D00B1A
:10546800D00AD009D0087808790C12076AAA08ABC4
:1054780009AC0AAD0B740A120D707F08020E36745F
:10548800F7120DCAECF8EDF98A828B83A3AE82AFCE
:1054980083E0FAA3E0FBEAC398FCEB99FDC3EC9424
:1054A80004ED940040158E828F83E8F0A3E9F0881C
:1054B800828983E4F0A3EAF0A3EBF07F01020E36C1
:1054C80074F5120DCA900218E0F8A3E0F9E84970E3
:1054D8000A9002187411F0A37403F0900218E0FE09
:1054E800A3E0FF7410C39EFC74049FFDEA2403F834
:1054F800E43BF9C3EC98ED994040E08E82F5837463
:1055080001F0900218E02AFCA3E03B8C82F583A30B
:10551800A3A3AC82AD83900218ECF0A3EDF08E82C9
:105528008F83A3ECF0A3EDF0C3E49AF8E49BF99021
:105538000218E028FAA3E039806278117903800420
:10554800ECF8EDF988088909C3E5089EE5099F503C
:105558004E88828983A3E0FCA3E0FD88828983E0EA
:1055680070DEECC39508F508ED9509F509E5082402
:10557800FDF508E50934FFF509C3E5089AE5099B37
:1055880040BEE82403FEE439FF7401F0EE2AFCEF84
:105598003BFDE8FAE9FB12031EEEFAEFFB80047A02
:1055A800007B007F03020E3674F4120DCAEAFEEB8C
:1055B800FF7A117B0378117903EE4F700C0256982D
:1055C800E8FAE9FBE0F8A3E0F9900218E0F50AA38D
:1055D800E0F50BC3E8950AE9950B40030256988855
:1055E800828983A3AC82AD83E82403F508E439F506
:1055F80009EE65087003EF650970C588828983E044
:1056080070030256988C828D83E0F508A3E0F509B3
:10561800C3E508950AE509950B5006AE08AF098061
:1056280004E8FEE9FF8E828F83E0F50A8A828B8385
:10563800E07022E50A700C8E828F83A3E0F508A340
:10564800E0F5098A828B83A3E508F0A3E509F0EA6F
:10565800F8EBF9801DE50A70138E828F83A3E0FAB8
:10566800A3E0FB8C828D83EAF0A3EBF08882898328
:10567800E4F088828983A3E0FAA3E0FB900218E0B3
:105688006A7003A3E06B7008900218E8F0A3E9F0D1
:105698007F04020E3674F6120DCA7508807509006B
:1056A8007808120F337C007D007A007B6012033C7F
:1056B8007402120D7079811202B279911202B290BD
:1056C800618674E10256CFF07F02020E36C082C0B6
:1056D800839061B1E0D2E0803AC082C083E9F8905B
:1056E8006188E0F99061B1E06015E9A2E24010E854
:1056F800601FE5E170FC75E10BE591A2E650FAE068
:10570800C2E0F0759100759B0090607F740FF0798E
:10571800008001F0D083D0820200EFE5E170FC89BF
:10572800E10200EFE5E170FC75E1080200EFE5E158
:1057380070FC75E1090200EFC082C083906182E0CD
:1057480049F0439A0102571CC082C08375C300EA1E
:105758004B600BE5A28A828B83F0E5A3A3F0EC4DA6
:105768006003125793D083D0820200EFC082C083B7
:1057780075C311EA4B600BE5A28A828B83F0E5A31F
:10578800A3F0EC4D600312579380DAE5A48C828D68
:1057980083F0E5A5A3F0E5A68C828D83A3A3F08C06
:1057A800828D83A3A3A3E4F022A2AFE433F8C2AFAF
:1057B800E96003439402439401E594A2E250FAE8B5
:1057C800A2E092AF0200EFA2AFE433F8C2AFE96003
:1057D800034394025394FEE594A2E240FA80E074F5
:1057E800F7120DCAE9FEE5BE54FC4EF5BEE9C394B6
:1057F8000240099061B1E0C2E0F08005790412022C
:105808000A121028EEC3940240079061B1E0D2E07A
:10581800F079001202047F01020E3674F4120DCAE8
:105828008A088B098C0A8D0BE59DA2E050FAE59554
:10583800900211F0E596A3F0E597A3F0A3E4F090A9
:1058480002117808120C1F900213E0F597900212CB
:10585800E0F596E5ADA2E050FA900211E0F5957FEB
:1058680004020E36C2C7D2AD0200EFC2C7C2AD02F3
:1058780000EF740169700575C6C98006E9700353A5
:10588800C680A8C6E59E6870FB0200EFC0088908BC
:10589800E59E53080753C6F8E50833333354F845F3
:1058A8000842C6A8C6E59E6870FB7900D0080200C9
:1058B800EFE9FAE59EA2E6400479018019E970054E
:1058C80053C67F800874016A700343C680A8C6E582
:1058D8009E6870FB79000200EF74F0120DCA8A0806
:1058E8008B098C0A8D0B7410120DA6E0F8A3E0F951
:1058F800E8FAE9FB900291780C120C5A7808790CB6
:105908001204FE700E8A828B83E4F0A3F0FAFBFC8B
:10591800FD8022EC33ED332482F83395E0F98A8256
:105928008B83E8F0A3E9F0AA08AB09ED5480443F63
:10593800FDECC2E7FC7F08020E36EEC0E0E9FA7B18
:1059480000120354D0E0FE0200EF74F6120DCA7480
:10595800FE120D5A740C120DB0851082851183E861
:10596800F0A3E9F0A810A911880889097808120F8E
:1059780033E4F508F5097808120F337C427D0312E9
:1059880003307404120D707402120D707F02020E3F
:105998003674F6120DCAEAF8EBF9740A120DA6E08D
:1059A800FEA3E0FF80188C828D83E088828983F0D3
:1059B800A3A882A9838C828D83A3AC82AD838E0831
:1059C8008F09E50824FF1EE50934FFFFE5084509AE
:1059D80070D47F02020E36C082C083851082851182
:1059E80083E0F8A3E0F9E84960128A828B83ECF03F
:1059F800A3E824FF18E934FFF94870F2D083D08275
:105A08000200EFC082C08375BE807901120204795A
:105A1800001202107900120204D083D0820200EF33
:105A2800C082C083120288120282D083D082020010
:065A3800EFD2AF0200EF07
:04000005000000D720
:00000001FF
