:020000040000FA
:030000000200D724
:03002B00020F9B26
:03004B00020F1B86
:03005300020F9EFB
:10008300020F7D00000080FBE4900501783B7906B8
:100093008002F0A3D8FCD9FA7A3B7B0A9001077857
:1000A300F379018015E493A3AD82AE838A828B83B7
:1000B300F0A3AA82AB838D828E83D8E9D9E77582B8
:1000C300AD75834974001200E975828675830074E7
:1000D300001200E975D0007581BF75100175110517
:1000E300759F0002008BC09FF59FE473D09F22D0C1
:1000F30083D082C09FE493C0E0740193C0E0740294
:1001030093F59F22496E69740A00526573756C7486
:10011300733A0A004E6F64652025643A2000256413
:10012300207472616E736D697373696F6E732C20C3
:10013300002564207061636B61676573206C6F7366
:10014300742C200073657175656E6365206E756D23
:10015300626572203D2025640A0009010000000148
:1001630000000001010105010204020301030D0166
:10017300040B0F07050E000000000000003F010004
:1001830000000000803F00000034000000403031D8
:1001930032333435363738394142434445460028F3
:1001A3006E756C6C20706F696E74657229003031E6
:1001B30032333435363738396162636465660046F5
:1001C3004C4F4154533F2077726F6E6720666F72B6
:1001D3006D617474657220696E7374616C6C6564AF
:1001E30021003F3F3F00C503423F1A51123FF30432
:1001F300B53F0000803E1200F29C49001200F2322B
:1002030056001200F24C56001200F2614C0012002C
:10021300F27A4C001200F2114D001200F2834D00ED
:100223001200F2E34D001200F22D4E001200F2957F
:1002330041001200F20842001200F2CC4200120008
:10024300F2FD42001200F2A445001200F2D3450071
:100253001200F21E46001200F29D46001200F282C6
:1002630049001200F28C49001200F2BD5600120040
:10027300F2CE56001200F2A056001200F2ED4E002C
:100283001200F2F64F001200F26650001200F281E3
:1002930054001200F2B954001200F2C554001200C7
:1002A300F20755001200F21055001200F21A550021
:1002B3001200F22455001200F2E40F001200F2A221
:1002C30010001200F26D22001200F2393300120006
:1002D300F26B35001200F29453001200F26B5200DD
:1002E3001200F2AC52001200F23455001200F2A9CF
:1002F30037001200F2EC55001200F274560012009F
:10030300F29555001200F2A555001200F2DF5000DD
:10031300000022A2E792D65002F40430F70663F0FD
:10032300FF05F0B3400384800384F40430D60563EF
:10033300F0FF05F022C008C3E096F50808A3E09695
:10034300420808A3E096420808A3E0964208A2D216
:1003530065D033E5087001D3D00822080808E630D9
:10036300E711120B98120376080808C64480C618D2
:10037300181822181818E9799EC608CAC608CBC6E9
:1003830008CCC6C370207996CACBCC7019798ECBB2
:10039300CC70137986CC700EF9802ACA33CACB335A
:1003A300CBCC33CC331930E7F2CCCBCA33501470F7
:1003B30004EA30E00DE4CA3ACACB3BCBCC3CCC5088
:1003C3000209C3E913C6CC182313C6CB18C6CA182F
:1003D300C6F92212041620F01430E72B74FFFCFB3D
:1003E300FA747F8022E4FCFBFA7480801AB48008DC
:1003F300BC00F2BB00EF800F50EBF9E4C39AFAE4C0
:100403009BFBE49CFCE499C6CC18C6CB18C6CA185F
:10041300C6F922E4C9C608CAC608CBC6D333030843
:10042300CCC63392F0C3947F402E94184019C9B9B7
:100433000704CACBCC225025C309CA33CACB33CB5A
:10044300CC33CC33D9F422F4600DC9CCC313CB1312
:10045300CBCA13CAD9F6CC22E4FCFBFA2214FCFB68
:10046300FA22E62618461846184622E7271947199E
:1004730047194722181818E60846087009E626089F
:100483007005E633F4220822191919E709470970A0
:1004930009E727097005E733F4220922E60846082D
:1004A300C3134608336002E633F422E7094709C35E
:1004B300134709336002E733F42212049F602512C5
:1004C30004AE6020120465700302046E080808E796
:1004D3006670101819E766700A1819E76670041831
:1004E30019E76622F42212049F601C1204AE6017FF
:1004F300120465700712046E7001D322C0D0120477
:100503006E7006D0D0B322C32233D0D0501430E063
:10051300F6C3E7960809E7960809E7960809E796F8
:10052300B32220E0D5E6970809E6970809E697087D
:1005330009E697B32212049F601B1204AE601612E1
:100543000465700712046E600CB322C0D012046EEF
:100553007005D0D022C32233D0D0501330E0EBC388
:10056300E7960809E7960809E7960809E79622201F
:10057300E0E4E6970809E6970809E6970809E6978D
:10058300220012049F604F1204AE6012E75480668B
:10059300F6120477701112046E703B090909F4F620
:1005A30018F618F618F62212048B70151204650853
:1005B300080860EAE6447FF618768018E4F618F631
:1005C30022120465601612046E7012E4F608F6082F
:1005D300F608E65480F609090918181822EAC0E05B
:1005E300EBC0E0ECC0E0EDC0E0E687F0A4FBACF0CC
:1005F30008E687F0A42CFCE435F0FA1809E687F046
:10060300A42C4B60027401CA35F0FCE433FB09E609
:1006130087F0D2F7A42CCB35F0FC1908E687F0A4B9
:100623002BCC35F0FBE433FD0819E687F0D2E7A4C1
:100633002C4ACB35F0CD3400FC09E687F0D2E7A491
:100643002DCC35F0FDE433FA0918E687F0D2F7A490
:100653002CCD35F0CA3400FC08E687F0D2E7D2F798
:10066300A42ACC35F07A7E20E70B0ACB33CBCD33EB
:10067300CDCC33CC33CB3350147004ED30E00ED2F9
:10068300F1E4CD3DCDCC3CCC3B5005DA05C2F1EBDA
:10069300547FC63308E63392F0FBE73309E733C3ED
:1006A3009A502D2B70190C0D4C4D70151806E60839
:1006B300C333700D20F10AA2F013F6E418800B4047
:1006C30024E4F630F002768018F618F618F6802443
:1006D300D33B14501074FFA2F013F6187680E4187D
:1006E300F618F6800FA2F013F618E63303F618ECAB
:1006F300F618EDF6D0E0FDD0E0FCD0E0FBD0E0FA58
:10070300221204AE604612049F603DE9687008F649
:1007130018F618F618F622748067F71207380909D5
:1007230009748067F72212049F601D1204AE7005DE
:10073300191919801A120477701F12048BC37003DE
:10074300E66733191919400718181822080808749E
:10075300FFF618F618F618F62212048B6017120427
:100763006E702192F01204657019501720F014086E
:100773000808090909E7F61819E7F61819E7F6183A
:1007830019E7F62212046560E6E869701F0808E6B7
:100793002480F608E436F618547FB47F0CE65480C0
:1007A3006007F6E418F618F622181822E9C6CC08F2
:1007B300C6CD08C6CE08C6CFC0E0E8C0E0EAC0E0B8
:1007C300EBC0E009E9F809E7FA09E7FBE6F918E6FF
:1007D300F8C3EC98ED99EE9AEBC2E7F5F0EFC2E7B8
:1007E30095F0500E600CEBCFFBEACEFAE9CDF9E8B9
:1007F300CCF8EAA2E7D2E7FAEB33FB13F5F0EEA26B
:10080300E7D2E7FEEF33FFC5F013A2E730E601B30B
:1008130013C5F0C3C0E0C0F07F00C39BFB605E94D0
:1008230018600F401D14601AD0E023F9D0E0F802DD
:10083300090A8AF0E9486003D2F0E4AFF0FAF9F864
:10084300803BEB30E40D89F0EA6003D2F0E4AFF0D3
:10085300F9CAF8EB30E30D88F0EF6002D2F0AFF0A5
:10086300E4CAC9F8EB54076014FBC3EA13FAE913AB
:10087300F9E813F8EF135002D2E0FFDBEDD0E0C04C
:10088300E030E739C3E49FFFF5F0EC98FC42F0ED6C
:1008930099FD42F0EE9AFE42F0D0E0F9D0E0F8E59F
:1008A300F0607AE923F9EE20E742D8028067C3EFCC
:1008B30033FFEC33FCED33FDEE33FE80EAEC28FC32
:1008C300ED39FDEE3AFED0E023F9D0E0F8400280A6
:1008D3001BC3EE13FEED13FDEC13FCEF135002D21A
:1008E300E0FF08B800067F7F74FF802EEF335017B8
:1008F3008CF020F00260100CBC000C0DBD00080E43
:10090300BE000408E860DFE933E813FFEE2313FEBB
:100913004F4D4C8008E95480FFE4FEFDFCEE33EFBD
:1009230033F47004FCFD7E80D0E0FBD0E0FAD0E02D
:10093300F8D0E0CFC618CEC618CDC618CCC6F9225B
:1009430012049F7004181818221204AE700D74FF5D
:10095300F61819F61819F61819F622E7548066F6F0
:10096300120465700F12046E70F014F608F608F6A0
:1009730008F680D112046E700CF608F6087680082B
:10098300E6447F80EC12048E700C12047A60BFE69A
:100993005480F6E480BB12047A700519191980A5F6
:1009A300E869700C763F18768018F618F6E8F92295
:1009B300E6CDC0E018ECC0E0E633CD33CDD313F67B
:1009C300E719FCE7191933CC33C3947F400ECD9D4F
:1009D300502408E65480F6E418F6800FF4043D141E
:1009E300501408E6447FF6187680E418F618F6D01B
:1009F300E0FCD0E0FD22CCD313CCFD18E4C6CBC081
:100A0300E018E4C6CAC0E00808ED08C633E613F6EA
:100A130018E433C675F003C3CA97CA09CB97CB1939
:100A23009C40047D08802EBD0003020AEC16B6FF2D
:100A3300050606081618C3CA33CACB33CB33CA27F5
:100A4300CA09CB37CB193CC37D08803E187D0820EB
:100A5300E75CC633C6CA33CACB33CB33DDF1D5F03B
:100A6300EB30E77BCA97CA09CB974ACB199C406FF7
:100A73004B7025E620E0218066187D08C3CA97CA1B
:100A830009CB97CB199CD3C633C6CA33CACB33CB56
:100A93003350C9DDE7D5F0E1D3E4C636C608C63620
:100AA300C608C636C608C636C61818188031C3CA63
:100AB30097CA09CB97CB199CB34097C633C6CA33A1
:100AC300CACB33CB33DD34D5F02EC6A2E0C640C843
:100AD300CA27CA09CB37194A70BECB3CB480B908C0
:100AE30008E63308E633601F181818D0E0FAD0E0A0
:100AF300FBD0E0FCD0E0FD22187D08CA27CA09CB51
:100B030037CB193CD3808013F618E4B67F11F6185F
:100B1300B6FF0EF618C60470D20808768080CAF6AF
:100B230018F618F680C5E4CFC0E0E4CEC0E0E4CD0B
:100B3300C0E0E4CCC0E075F020E626F608E633F624
:100B430008E633F608E633F6181818EC33FCED33F1
:100B5300FDEE33FEEF33FFC3EC9709ED9709EE97F4
:100B630009EF97191919400FFFEC97FC09ED97FD51
:100B730009EE97FE191906D5F0BFECF709EDF70951
:100B8300EEF709EFF7191919D0E0FCD0E0FDD0E03A
:100B9300FED0E0FF22181818E4C396F608E496F690
:100BA30008E496F608E496F622E026F008A3E03679
:100BB300F008A3E036F008A3E036F022E0F608A33D
:100BC300E0F608A3E0F608A3E0F622E6F008A3E6C1
:100BD300F008A3E6F008A3E6F022E0FAA3E0FBA303
:100BE300E0FCA3E0FD22EAF0A3EBF0A3ECF0A3ED1D
:100BF300F022E0FCA3E0FDA3E0FEA3E0FF22ECF083
:100C0300A3EDF0A3EEF0A3EFF022E0F8A3E0F9A345
:100C1300E0FAA3E0FB22E8F0A3E9F0A3EAF0A3EBF8
:100C2300F022CAC0E0E6F0A308DAFAD0E0FA22CA5A
:100C3300C0E0E0A3C582CCC582C583CDC583F0A344
:100C4300C582CCC582C583CDC583DAE6D0E0CA228E
:100C5300C3E498F8E499F9120C948026C3E49AFA51
:100C6300E49BFBE920E7E9120C94E498F8E499F992
:100C730022C3E498F8E499F9120C94E498F8E499FF
:100C8300F9C3E49AFAE49BFB22EB20E7CFE920E7E0
:100C9300E0B90010BB0008E88AF084F8AAF022E467
:100CA300FBC8FA22EB70227B10C833C8C933C9339F
:100CB3005007C39AC3DBF280069A50012ADBEAC8C5
:100CC30033F4C8C933F4C9FA2275F008E4C833C849
:100CD300C933C933C99AC99B5004C92AC93BD5F042
:100CE300ECFBC833F4C8E4C9FA22700422600D187F
:100CF300C6C333C608C633C6D5E0F4182225101080
:100D0300AF08F510400C15118008F51040021511BD
:100D1300D2AF2200C0D0251010AF08F510500C053B
:100D2300118008F51050020511D2AFD0D022251042
:100D3300F58210AF08F510400C15118008F510402E
:100D4300021511D2AF851183222510F582E43511E6
:100D5300F583222510F8E43511F9222510FAE4353C
:100D630011FB222510FCE43511FD22E4732510C587
:100D730082C0E0E51134FFC583C0E0E510C395826E
:100D830024F810AF088583118582108008858311AC
:100D9300858210D2AFCEF0A3E520F0A37808E60851
:100DA300F0A3DEFAEFF0A3E58124FAF8E608F0A356
:100DB300E608F0A3E608F0A30808E608F0A3E608AF
:100DC300F0A315811581D0E0FED0E0F815811581DF
:100DD3001581E8C0E0EEC0E022851183851082E032
:100DE300A3FEE0A3F5207808E0A3F608DFFAE0A36A
:100DF300FFE0A3C0E0E0A3C0E0E0A3C0E0E0A3C045
:100E0300E0E0A3C0E010AF0885821085831180085D
:100E1300858210858311D2AFD083D0820200EFC0C8
:100E2300D02510C582C0E0E51134FFC583C0E0E5DD
:100E330010C3958224F310AF088583118582108037
:100E430008858311858210D2AFC8F0A3E9F0A3EA25
:100E5300F0A3EBF0A37908E709F0A3D8FAECF0A329
:100E6300EDF0A3EEF0A3EFF0A3D0E0F0A3D0E0F019
:100E7300A3D0E0F0A3E520F0A3E5F0F0A3228511D1
:100E830083851082E0C0E0A3E0F9A3E0FAA3E0FBCE
:100E9300A37808E0F608A3DFFAE0FCA3E0FDA3E0F3
:100EA300FEA3E0FFA3E0C0E0A3E0C0E0A3E0F5D031
:100EB300A3E0F520A3E0A3F5F010AF088583118527
:100EC30082108008858311858210D2AFD082D083AF
:100ED300D0E0F8D0E03274028000C0E0F404120DD8
:100EE30031D0E0120C25227404800474028000CCFB
:100EF300C0E0EDC0E0E510C39CCCAD1150011D1066
:100F0300AF068C108D1180068C108D11D2AF120C90
:100F130032D0E0FDD0E0FC22C0E074F2120E229049
:100F23000502E02401F0A3E03400F0900502C3E0E1
:100F330094F0A3E09400403B900504E07004740136
:100F43008001E4F0E0F912020B900502E4F0A3F053
:100F5300900506F0900507E004F0900A91E0F89000
:100F63000507E0C3984007E4F090050504F0790114
:100F73001202A1C2C17F01020E81C0E0C0D0C082B3
:100F8300C083E591900501F0759B00E0F4F591D0E5
:100F930083D082D0D0D0E032C2C732C0E0C0D0E824
:100FA300C0E0C082C083A8A1E8A2E45006900A363C
:100FB3007401F0E8F4F5A1C2C2D083D082D0E0F886
:100FC300D0D0D0E0321231B08882F58322120FD410
:100FD30022E0F508A3E0F50922F08510828511834C
:100FE3002274F0120D708C088D097410120D4CE0F0
:100FF300FEA3E0FF7416120D4CE0F50AA3E0F50B17
:101003007418120D4CE0F50EA3E0F50F850E0CF5E8
:101013000D780C120ED97416120D4C120EEE780ABE
:10102300120ED97418120D4C120EEE8E0C8F0D7811
:101033000C120ED91202BF740A120D16780E120E7C
:10104300D97416120D4C120EEE780A120ED97418BA
:10105300120D4C120EEEEEFCEFFDAA08AB091202C4
:10106300C57408120D16C3EB1221A250067AFF7B3A
:10107300FF8029780A120ED97414120D4C120EEE49
:101083007418120D4C120EEEEEFCEFFDAA08AB091C
:101093001202CB7406120D167A007B000231AB7478
:1010A300F0120D7074C8120D007414120D4C12322C
:1010B300B97414120D4CE0F50A7448120D4C120F5A
:1010C300D0E50A8508F0A4C50AA8F08509F0A4288C
:1010D300F88508F0EDA428F50B7402780A120CEDDC
:1010E300780A120ED9EAFCEBFD744C120D4C122156
:1010F300BC1202F57402120D16744E120D4C12320C
:10110300C7741A120D4C122213120D4C1232CA74E8
:1011130006120D4CE4F0A3F0744A120D4C12377F03
:10112300120D4C1237A3120D4C7401F0A3E4F074AA
:1011330048120D4C123244742C120D4C12221F1201
:101143000D4C12329E120CED740C120D4C1232B275
:1011530080698A088B0974027808120CED740412F2
:101163000D4C12214E120D4C123309120D4C12214B
:10117300F5120BBF7420120D4C7808120BBF780CBC
:101183007908120584740A120D4C1221F5120BCE44
:101193000AEA70010B7448120D4C1221FB40B37420
:1011A30010120D4C12377F120D4C123794120D4C46
:1011B30012378B7408120D4C1232DDF07406120DC7
:1011C3004CC082C0837448120D4C1231C7D083D0F7
:1011D300821231EE40030219E37406120D4C1232EF
:1011E3009E120CED7412120D4C1233317420120D39
:1011F3004C7808120BBF741A120D4C780C120BBFEB
:101203007808790C1205847412120D4C12215A12AB
:101213000D4C1221B0120BCE7406120D4C1231C2BA
:1012230012223C120D4C123785120D4C1232ED7402
:1012330020120D4C1232BF804B120D4C7808120B4A
:10124300BF7406120D4C12326D120CED7402120DA6
:101253004C123279120BBFE50FC2E7F50F7808790C
:101263000C1207297420120D4C7808120BCE12228F
:1012730061120D4C123785120D4C1221C2120D4C06
:10128300E8F0A3E9120FDCC082C0837414120D4C82
:101293001231C7D083D082122177409D120D4C7832
:1012A30008120BBF900AB5780C120BBF7808790CA3
:1012B3001204E940030215927406120D4C1231C256
:1012C30012223C120D4C123785120D4C1232ED7462
:1012D30026120D4C1232BF806D120D4C123785123F
:1012E3000D4C1221C8120BBF7420120D4C7808123A
:1012F3000BBF780C79081209438A828B83780C120E
:101303000BCE850C08850D09850E0A850F0B780C0D
:1013130079081205847426120D4C7808120BBF78D5
:101323000C79081207297426120D4C780C120BCE77
:10133300122261120D4C123785120D4C1221C2126A
:101343000D4CE8F0A3E9120FDCC082C083741412C1
:101353000D4C1231C7D083D0821231EE7412500378
:101363000212DC120D4C12377F120D4C1232611235
:101373000D4C123309120D4C1232AC120BBF900AF2
:10138300AD780C120BBF7808790C1205387426500F
:1013930013120D4C120BDD12030D741A120D4C12A5
:1013A3000BE98011120D4C120BDD12213D120D4C75
:1013B3007808120BCE740A120D4C123285120C0DE2
:1013C3007430120D4C120C197430120D4C78081233
:1013D3000BBF741A120D4C780C120BBF7808790CE2
:1013E3001205847426120D4C780C120BBF78087901
:1013F3000C1207047434120D4C7808120BCE74309F
:10140300120D4C7808120BBF741A120D4C780C1283
:101413000BBF7808790C120704740A120D4C1232B0
:10142300AC120BCE7408120D4C1221ED807A741E8F
:10143300120D4C123785120D4C123261120D4C12E3
:101443002219120D4C7808120BBF7412120D4C1294
:101453003785120D4C1221DC120BBF7808790C1260
:101463000584740A120D4C1221F5120BBF7808790A
:101473000C120729740A120D4C1232AC120BCE0A4D
:10148300EA70010B740C120D4C123785120D4C12BD
:10149300321EF97402120D4C1232ED7414120D4CFB
:1014A3001221FB40891232D7120FDCC082C0837431
:1014B30048120D4C1231C7D083D0821231EE400353
:1014C3000215927406120D4C1221BC7416120D4CA7
:1014D3001232CA7404120D4C123785120D4C1222AB
:1014E30049120CED741E120D4C1232B2805E74124E
:1014F300120D4C123785120D4C122171120BBF7451
:101503001E120D4C123785120D4C1221DC120BBF2B
:101513007808790C1205847416120D4C780C120B92
:10152300BF7808790C1207297416120D4C7808122B
:101533000BCE0AEA70010B740C120D4C1237851294
:101543000D4C1221C2120D4CE8F0A3E9F0741412F1
:101553000D4C1221FB40977416120D4C7808120B98
:10156300BF7434120D4C780C120BBF7808790C122F
:1015730009437416120D4C7808120BCE7406120D23
:101583004C1221BC7404120D4C1231C20214957416
:1015930006120D4C1231C212223C120D4C1231C2F2
:1015A300803A7412120D4C123785120D4C1221C859
:1015B300120BBF7420120D4C7808120BBF780C79F4
:1015C300081205848A828B83780C120BCE12226157
:1015D300120D4C123785120D4C12321EF974021281
:1015E3000D4C122225C082C0837414120D4C12318B
:1015F300C7D083D0821231EE40A8741A120D4C78F2
:1016030008120BBF7420120D4C780C120BBF780814
:10161300790C1205847412120D4C1231C7744E12D8
:101623000D4C1221B0120BCE741A120D4C12221350
:10163300120D4C12220D120D4C12377F120D4C124B
:1016430021AA120D4C123794120D4CC082C0837420
:1016530014120D4C1231C7D083D0821231EE4003E5
:101663000211A27406120D4C1231C7742C120D4CC8
:10167300E0687003A3E06970030211A27408120DFD
:101683004C1221ED8033120D4C7808120BBF12322D
:1016930067120CED7404120D4C123279120BBFE574
:1016A3000FC2E7F50F7808790C1207297420120D81
:1016B3004C7808120BCE1232D7120FDCC082C083D3
:1016C3007448120D4C1231C7D083D0821221774057
:1016D300B5120D4C7808120BBF900AB5780C120B9B
:1016E300BF7808790C1204E940030211A2740812AE
:1016F3000D4C1232EA7426120D4C1232BF80661260
:101703003298120CED7404120D4C123755E8FAE9B5
:10171300FB8882F583780C120BBF7420120D4C7872
:1017230008120BBF780C79081209438A828B8378DD
:101733000C120BCE850C08850D09850E0A850F0B3F
:10174300780C79081205847426120D4C7808120B54
:10175300BF780C79081207297426120D4C780C12E5
:101763000BCE1232D7120FDCC082C0837448120D25
:101773004C1231C7D083D0821231EE4082740812EA
:101783000D4C12329E120CED7404120D4C12214EAC
:10179300120D4C123309120D4C1232AC120BBF90C6
:1017A3000AAD780C120BBF7808790C120538742631
:1017B3005013120D4C120BDD12030D741A120D4C43
:1017C300120BE98011120D4C120BDD12213D120D8B
:1017D3004C7808120BCE740A120D4C123285120C7F
:1017E3000D7430120D4C120C197430120D4C780814
:1017F300120BBF741A120D4C780C120BBF780879B8
:101803000C1205847426120D4C780C120BBF780849
:10181300790C1207047434120D4C7808120BCE7431
:1018230030120D4C7808120BBF741A120D4C780C41
:10183300120BBF7808790C120704740A120D4C12AC
:1018430032AC120BCE7408120D4C1221BC80428AAA
:10185300088B0974027808120CED7404120D4C12F3
:1018630021B6120BBF7434120D4C7808120BBF78DB
:101873000C79081209438A088B0974027808120C40
:10188300ED7450120D4C1221B6120BCE0AEA700100
:101893000B7448120D4C1221FB40B47406120D4C0C
:1018A300C082C0837414120D4C123244D083D08290
:1018B3001231EE40030219D87408120D4C1232EAA9
:1018C3007410120D4C1231C280788A088B0974028D
:1018D3007808120CEDAC08AD097402120D4CE02C23
:1018E300F8A3E03DF9740A120D4C122219120D4CA3
:1018F300780C120BBF7450120D4C122160120BBFE7
:10190300780C7908120584740A120D4C1232AC1249
:101913000BBF780C7908120729740A120D4C122197
:10192300F5120BCE0AEA70010B7448120D4C12210A
:10193300FB4097122261120D4C123785120D4C1287
:10194300321EF97402120D4C122225C082C0837418
:1019530014120D4C1231C7D083D0821231EE507560
:101963007408120D4C1221BC7416120D4C1232CA9B
:10197300804E8A088B0974027808120CEDAC08AD0E
:10198300097404120D4C122166780C120BBF7402F9
:10199300120D4C122160120BBF780C7908120584CA
:1019A3007416120D4C7808120BBF780C79081207C5
:1019B300297416120D4C780C120BCE0AEA70010B27
:1019C3007448120D4C1221FB40A87408120D4C12DE
:1019D30021BC02192C7408120D4C1221BC0211985F
:1019E3007448120D4CE024FEF508A3E034FFF5091A
:1019F3007448120D4CE0F50A8508F0A4C50AA8F056
:101A03008509F0A428F88508F0E9A428F50B7402E9
:101A1300780A120CED744A120D4CE0250AF8A3E083
:101A2300350BF97404120D4C12221F120D4CE0F504
:101A33000CA3E0F50D742C120D4CE0F50AA3E0F5B0
:101A43000BE50C850AF0A4C50CA8F0850BF0A428BF
:101A5300F8850AF0E50DA428F50D7402780C120C34
:101A6300ED742E120D4CE50CF0A3E50DF0742E125F
:101A73000D4C1231C7744C120D4C1221AA120D4C8D
:101A83001232ED740C120D4C122195120D4C1221D1
:101A93008912222F740C120D4C12215A120D4C1262
:101AA3002189F583120C0D741A120D4C120C197442
:101AB3000C120D4C1231C7C3E498F8E499F9742A57
:101AC300120D4C1232ED742A120D4CE0F874101200
:101AD3000D4C1221AA120D4C123794120D4C1233D5
:101AE30031742C120D4C122154120D4CE8F0A3E961
:101AF300021B9A123298120CED7410120D4C12370D
:101B03006A1232CA7424120D4C1221D6120D4C12D1
:101B1300225B120D4C1221D6120D4C122183120D91
:101B23004C122225C082C0837448120D4C1231C757
:101B3300D083D0821231EE40BA7424120D4C12219C
:101B430095120D4C12325812222F7424120D4C127E
:101B5300215A120D4C12324E120C0D741A120D4CE6
:101B6300120C197406120D4C122206120D4C123768
:101B73007F120D4C12217D120D4C1232ED742A127C
:101B83000D4C122195120D4C1221AA120D4C123735
:101B9300A3120D4C123202F07406120D4C12219B4B
:101BA3005003021DDD740C120D4C122195120D4CC5
:101BB300123229741E120D4C123794120D4C12322C
:101BC3009E120CED7424120D4C123331741A120D43
:101BD3004C7808120BBF900AAD780C120BBF780833
:101BE300790C1204BD7003021DC6741E120D4C1233
:101BF30021D6120D4C1237A3120D4C12375A8062A4
:101C0300123298120CED7404120D4C123292120B14
:101C1300BF7408120D4C12326D120CED7404120DC8
:101C23004C123279120BBF7808790C120943741ADB
:101C3300120D4C780C120BBF7808790C12094374FF
:101C430024120D4C1221D6120D4C1221B0120BCEC0
:101C5300122261120D4C1221D6120D4C1221831245
:101C63000D4C122225C082C0837448120D4C1231D0
:101C7300C7D083D0821231EE40867408120D4C1205
:101C830021ED80787412120D4C1221D6120D4C12D4
:101C93003261120D4C122219120D4C7808120BBF2F
:101CA3007424120D4C1221D6120D4C1221DC120B8E
:101CB300BF7808790C120584740A120D4C1221F5B1
:101CC300120BBF7808790C120729740A120D4C12F3
:101CD30032AC120BCE0AEA70010B740C120D4C12CB
:101CE30021D6120D4C12321EF9740E120D4C122213
:101CF3001F120D4C1221FB408B1232D7120FDCC086
:101D030082C0837448120D4C1231C7D083D0821223
:101D130031EE4003021DC67416120D4C1232CA7402
:101D230008120D4C1221BC741E120D4C1221D61236
:101D33000D4C122249120CED7412120D4C1232B2D8
:101D430080638A088B0974027808120CED740412FC
:101D53000D4C123292120BBF7412120D4C1221D67B
:101D6300120D4C1221DC120BBF7808790C1205847A
:101D73007416120D4C780C120BBF7808790C1207ED
:101D8300297416120D4C7808120BCE0AEA70010B57
:101D9300740C120D4C1221D6120D4C122183120D0C
:101DA3004CE8F0A3E9F07448120D4C1221FB409269
:101DB3007408120D4C1221BC741E120D4C1231C248
:101DC300021CEB741E120D4C1221D6120D4C12374D
:101DD300A3120D4C12375A021B24742E120D4C12EF
:101DE30031C7744A120D4C12217D120D4C1232ED83
:101DF300742C120D4C1231C77406120D4C12221F93
:101E0300120D4C122154807D7410120D4C12378523
:101E1300120D4C12225B120D4C123785120D4C120F
:101E2300321EF97402120D4C122225C082C0837433
:101E330014120D4C1231C7D083D0821231EE40C838
:101E43007412120D4C1232AC120BBF900AB9780CFB
:101E5300120BBF7808790C1207297412120D4C1259
:101E630032AC120BCE7406120D4C122154120D4CCF
:101E7300123794120D4C122206120D4C12377F1298
:101E83000D4C12217D120D4C123794120D4C122160
:101E93009B50030221387406120D4C12329E120C11
:101EA300ED7410120D4C1233317410120D4C1231AB
:101EB300C7744E120D4C12324E120C0D741A120DC1
:101EC3004C120C197408120D4C1221ED80171232AA
:101ED30098120CED7404120D4C12376A1232BF12B1
:101EE3000FDC1232DD120FDCC082C0837448120D86
:101EF3004C1231C7D083D0821231EE40D17410120C
:101F03000D4C12377F120D4C1232297412120D4CE4
:101F13001232ED741A120D4C7808120BBF900AADF1
:101F2300780C120BBF7808790C1204BD70030221E0
:101F3300247408120D4C1221ED807A740E120D4C8C
:101F4300123785120D4C123261120D4C12221912E6
:101F53000D4C7808120BBF7410120D4C12378512FA
:101F63000D4C1221DC120BBF7808790C1205847416
:101F73000A120D4C1221F5120BBF7808790C1207C7
:101F830029740A120D4C1232AC120BCE0AEA7001FC
:101F93000B740C120D4C123785120D4C12321EF9B4
:101FA3007402120D4C1232ED7414120D4C1221FBFB
:101FB30040891232D7120FDCC082C0837448120DDD
:101FC3004C1231C7D083D0821231EE40030220B6C7
:101FD3007416120D4C12220D120D4C12377F120D76
:101FE3004C1221C2120D4C1237A3120D4C1221BCFC
:101FF300123298120CED740E120D4C1232B2805E36
:102003007410120D4C123785120D4C122171120BE4
:10201300BF740E120D4C123785120D4C1221DC12B7
:102023000BBF7808790C1205847416120D4C780CCA
:10203300120BBF7808790C1207297416120D4C780D
:1020430008120BCE0AEA70010B740C120D4C1237F6
:1020530085120D4C1221C2120D4CE8F0A3E9F07465
:1020630014120D4C1221FB40977416120D4C780874
:10207300120BBF7412120D4C1221F5120BBF78080C
:10208300790C120943741A120D4C780C120BBF7899
:1020930008790C1209437416120D4C7808120BCEF2
:1020A3007406120D4C1221BC7404120D4C1231C271
:1020B300021FA27406120D4C1231C212223C120DE1
:1020C3004C1231C2F97402120D4C122225C082C087
:1020D300837414120D4C1231C7D083D0821231EEA7
:1020E3004003021E437410120D4C123785120D4C1F
:1020F3001221C8120BBF741A120D4C7808120BBFB1
:10210300780C79081209438A828B83780C120BCEE0
:10211300122261120D4C123785120D4C12321E80A1
:10212300A37406120D4C1231C212223C120D4C1232
:1021330031C2021E2574380231A812030D8A088B9E
:10214300098C0AEDB2E7F50B741A22123755740A9B
:10215300221231CB7408221231CB74502212216621
:10216300780822E02CF8A3E03D8882F5832212212F
:10217300E27808221231F274202212322D740422E2
:1021830012322D740E2212322DE824FCF582E9342A
:10219300FF221231CB741022C3A3E01221A2229496
:1021A30000A2D265D0332212322D74102212325281
:1021B30078082212376E780C22E0FAA3E0FB221291
:1021C300322D74022212322DE8FAE9FB8882F5835C
:1021D300780C221231CB740E221221E2780C22E009
:1021E30028FCA3E0398C82F5832212375EE8F0A342
:1021F300E922123289780C221231CBC3EA98EB120E
:1022030031FB22123206F0742A221232CE740C22CF
:102213001232CE7420221232F17416221232F17469
:1022230048221232F185108285118322F5831233FD
:1022330016F02212375E123222F98510828511833D
:102243001232F1740422E8F0A3E9123322F508A351
:10225300E0F50974027808221232521232CE851048
:102263008285118312378F740C2274F0120D7074EF
:10227300BC120D00743E120D4CEAF0A3EBF0742E69
:10228300120D4C1232B97402120D4CE4F0A3F07427
:102293002A120D4C1232BF807E7402120D4C123280
:1022A3009E120CED7458120D4C123292120BBFE5B4
:1022B3000BC2E7F50B7402120D4C12326D120CEDCA
:1022C300745A120D4C123279120BBFE50FC2E7F5A7
:1022D3000F7808790C1207297414120D4C78081220
:1022E3000BCE742A120D4C7808120BBF7414120D06
:1022F3004C780C120BBF7808790C12053850107407
:1023030014120D4C120C0D742A120D4C120C19746C
:1023130002120D4C1232DDF07402120D4CC082C059
:1023230083742E120D4C1231C7D083D0821231EE3A
:10233300500302229C742A120D4C7808120BBF9092
:102343000ABD780C120BBF7808790C12058474400F
:10235300120D4C7808120BCE742E120D4C1232440F
:102363007428120D4C1232ED742E120D4C12329E43
:10237300120CED7432120D4C1232B28066743612A6
:102383000D4C12323E120D4C123229E8FAE98882C2
:10239300F5837808120BBFE50BB2E7F50B8A828948
:1023A300837808120BCE7408120D4C12332B120DC6
:1023B3004C12323E120D4C12321EF97426120D4C81
:1023C3001237A3120D4CC082C083742E120D4C120F
:1023D30031C7D083D0821231EE40A27428120D4C43
:1023E300123202F07428120D4C12219B5003023159
:1023F300A2743C120D4CE4F0A3F07428120D4C129D
:10240300329E120CED7436120D4C123331743612A7
:102413000D4C123238120D4C1232297434120D4CF9
:102423001232ED7436120D4C123232120D4C12323E
:10243300297430120D4C1232ED8037743A120D4C60
:10244300123238120D4C12324E1232CA7410120D5F
:102453004C120C0D7434120D4C1231B9120C197448
:102463002A120D4C120C0D7430120D4C1231B9128C
:102473000C197428120D4C1232EA7440120D4C7868
:1024830008120BBF123267120CED745A120D4C1264
:102493003279120BBFE50FC2E7F50F7808790C12FA
:1024A30004E950030227E77440120D4C7808120B1D
:1024B300BF123267120CED7458120D4C1231B0F981
:1024C300E824FCF582E934FFF583780C120BBFE5B1
:1024D3000FC2E7F50F7808790C1204E94010851054
:1024E30082851183123202F0C31221A2508C742010
:1024F300120D4C1232CA741C120D4C12330FF8A376
:10250300E0F97402120D4CE8F0A3E902264B1232F3
:1025130098120CEDEC2508F8ED3509F9E824FCF8E0
:10252300E934FFF97438120D4C1232ED7438120D80
:102533004C123285120C0D7414120D4C120C1974BA
:102543000A120D4C1231D139F97424120D4C123286
:10255300ED7424120D4C123285120C0D7404120DFD
:102563004C120C197414120D4C7808120BBF742002
:10257300120D4C780C120BBF7808790C120584C02D
:1025830008C009C00AC00B7404120D4C780C120B5E
:10259300BF741C120D4C7808120BBF780C7908120B
:1025A3000584D00BD00AD009D0087808790C12071B
:1025B300297438120D4C1232AC120BCE7404120D66
:1025C3004C7808120BBF7420120D4C780C120BBF01
:1025D3007808790C120584C008C009C00AC00B74BE
:1025E30014120D4C780C120BBF741C120D4C78088E
:1025F300120BBF780C7908120584D00BD00AD009CE
:10260300D0087808790C1207047424120D4C123286
:10261300AC120BCE7408120D4C12332B120D4C124C
:1026230031D9FD7408120D4CC082C083743E120D63
:102633004C1231C7D083D0821231EE5003022511E0
:102643007402120D4C1232DDF07428120D4CC0824C
:10265300C0837402120D4C1231C7D083D082123161
:10266300EE50030227E77402120D4C12329E120C35
:10267300ED740A120D4C123331740A120D4C1232DE
:1026830038120D4CE028FAA3E039FB8A82F58378EF
:102693000C120BBF741C120D4C7808120BBF780878
:1026A300790C1205847410120D4C7808120BCE7439
:1026B30020120D4C7808120BBF780C790812058490
:1026C3008A828B83780C120BCE7440120D4C7808DF
:1026D300120BBF7410120D4C780C120BBFE50FC216
:1026E300E7F50F7808790C1204E950030227E77421
:1026F3000A120D4C123232120D4C1231E2120C0D31
:10270300740C120D4C120C197410120D4C78081223
:102713000BBF7410120D4C780C120BBF7808790C98
:10272300120584C008C009C00AC00B740C120D4CFA
:10273300780C120BBF740C120D4C7808120BBF7877
:102743000C7908120584D00BD00AD009D008780878
:10275300790C120729AA08AB09AC0AAD0B12030DB9
:10276300EAF8EBF9ECFAEDFB7418120D4C120C19A4
:102773007418120D4C120C0D8E828F83120C197467
:102783000C120D4C7808120BBF7418120D4C780CF8
:10279300120BBF7808790C1209437420120D4C7880
:1027A30008120BCE7410120D4C7808120BBF74185C
:1027B300120D4C780C120BBF7808790C120943E503
:1027C3000BB2E7F50B741C120D4C7808120BCE7488
:1027D30008120D4CE4F0A3F07454120D4CE0FCA36A
:1027E300E00226257430120D4C123285120C0D7442
:1027F30004120D4C120C198510828511831231C7F6
:102803007428120D4CE0687003A3E069704D7404E2
:10281300120D4C7808120BBF900AAD780C120BBF47
:102823007808790C12053840030223DE7404120D74
:102833004C7808120BBFE50BB2E7F50B7430120DA1
:102843004C1232AC120BCE7408120D4CE4F0A3F010
:102853007456120D4C1231C20223BD743C120D4C3E
:10286300C3E0941E12219C40077AFF7BFF0231A62E
:10287300743C120D4C1232DD12224D120CED743ADF
:10288300120D4C123331743A120D4C123232120DB6
:102893004C12324E120C0D742A120D4C120C197478
:1028A30030120D4C12320F120C0D7414120D4C1207
:1028B3000C197434120D4C12320F120C0D740C12CD
:1028C3000D4C120C197434120D4C123285120C0D6E
:1028D3007418120D4C120C197414120D4C78081242
:1028E3000BBF7404120D4C780C120BBF7808790CD3
:1028F300120704C008C009C00AC00B7414120D4C9F
:10290300780C120BBF7404120D4C7808120BBF78AD
:102913000C7908120729D00BD00AD009D0087808FF
:10292300790C120584C008C009C00AC00B740C12CC
:102933000D4C7808120BBF7418120D4C780C120B47
:10294300BF7808790C120704C008C009C00AC00B7D
:10295300740C120D4C780C120BBF7418120D4C78BA
:1029630008120BBF780C7908120729D00BD00AD0B4
:1029730009D0087808790C120584D00FD00ED00D39
:10298300D00C780C7908120729C00CC00DC00EC0FA
:102993000F7418120D4C7808120BBF900AC1780CF3
:1029A300120BBF7808790C1205847414120D4C783D
:1029B3000C120BBF7808790C120584D00FD00ED0FF
:1029C3000DD00C780C79081209437410120D4C7851
:1029D3000C120BCE7410120D4C7808120BBF74102E
:1029E300120D4C780C120BBF7808790C12058490E9
:1029F3000AB9780C120BBF7808790C120729AA08B8
:102A0300AB09AC0AAD0B12030D740C120D4C120B77
:102A1300E97410120D4C7808120BBF900AAD780CB4
:102A2300120BBF7808790C120538501A740C120D6A
:102A33004C7808120BBFE50BB2E7F50B740C120DC3
:102A43004C7808120BCE742A120D4C7808120BBF67
:102A53007404120D4C780C120BBF7808790C120712
:102A630004C008C009C00AC00B742A120D4C780CAC
:102A7300120BBF7404120D4C7808120BBF780C793B
:102A830008120729D00BD00AD009D0087808790C8E
:102A9300120584C008C009C00AC00B7414120D4C7F
:102AA3007808120BBFC008C009C00AC00B7410120B
:102AB3000D4C780C120BBF740C120D4C7808120BD2
:102AC300BF780C7908120729D00BD00AD009D00897
:102AD3007808790C1209437418120D4C780C120BF8
:102AE300BF7808790C1207047418120D4C780C1275
:102AF3000BBF7808790C120584D00FD00ED00DD0FF
:102B03000C780C7908120729742A120D4C780812D4
:102B13000BBF780C79081209437410120D4C780C12
:102B2300120BCE7420120D4C122231741C120D4C58
:102B330012330F2401F8A3E03400F97402120D4C90
:102B4300E8F0A3E9022C617424120D4C1231D11266
:102B530032F7F8A3E034FFF9740A120D4C1233096B
:102B6300120D4C123285120C0D7414120D4C120CF2
:102B73001912327F120C0D7404120D4C120C1974BD
:102B830020120D4C7808120BBF7414120D4C780CE4
:102B9300120BBF7808790C120584C008C009C00A5B
:102BA300C00B741C120D4C780C120BBF7404120D65
:102BB3004C7808120BBF780C7908120584D00BD01F
:102BC3000AD009D0087808790C120729740A120D63
:102BD3004C1232AC120BCE7420120D4C7808120B2F
:102BE300BF7404120D4C780C120BBF7808790C12C9
:102BF3000584C008C009C00AC00B741C120D4C78B0
:102C03000C120BBF7414120D4C7808120BBF780C06
:102C13007908120584D00BD00AD009D00878087936
:102C23000C1207041232A6120BCE7408120D4C12AA
:102C3300332B120D4C1231D9FD7408120D4CC08286
:102C4300C083743E120D4C1231C7D083D08212312F
:102C5300EE5003022B4A7402120D4C1232DDF07453
:102C630028120D4CC082C0837402120D4C1231C75E
:102C7300D083D0821231EE500302243E7402120D2F
:102C83004C12329E120CED7424120D4C123331741B
:102C930024120D4C123238120D4C1231E2120C0D6B
:102CA300740C120D4C120C197424120D4C12323286
:102CB300120D4C123261120D4C123309120D4C12CB
:102CC3003285120C0D7414120D4C120C19741C1253
:102CD3000D4C780C120BBF740C120D4C7808120BB0
:102CE300BF780C79081205847418120D4C780C12F5
:102CF3000BCE740C120D4C780C120BBF7420120DFA
:102D03004C7808120BBF780C7908120584740C12E6
:102D13000D4C780C120BCE7410120D4C7808120B5C
:102D2300BF7410120D4C780C120BBF7808790C127B
:102D33000584C008C009C00AC00B7418120D4C7872
:102D43000C120BBF7418120D4C7808120BBF780CC1
:102D53007908120584D00BD00AD009D008780879F5
:102D63000C120729AA08AB09AC0AAD0B12030D74A8
:102D730004120D4C120BE97404120D4C120C0DEEDF
:102D830024FCF582EF34FFF583120C197410120D35
:102D93004C7808120BBF7404120D4C780C120BBF45
:102DA3007808790C1209437420120D4C7808120B21
:102DB300CE7418120D4C7808120BBF7404120D4C0C
:102DC300780C120BBF7808790C120943741C120D8E
:102DD3004C7808120BCE742A120D4C7808120BBFD4
:102DE3007420120D4C780C120BBF7808790C120565
:102DF30084C008C009C00AC00B740C120D4C780CB7
:102E0300120BBF741C120D4C7808120BBF780C798F
:102E130008120584D00BD00AD009D0087808790CA1
:102E23001207297410120D4C7808120BCE740C1271
:102E33000D4C7808120BBF7420120D4C780C120B3A
:102E4300BF7808790C120584C008C009C00AC00BFA
:102E5300742A120D4C780C120BBF741C120D4C7893
:102E630008120BBF780C7908120584D00BD00AD056
:102E730009D0087808790C120704740C120D4C78E9
:102E830008120BCE7414120D4C7808120BBF741C6D
:102E9300120D4C780C120BBF7808790C1205847450
:102EA30018120D4C7808120BCE7414120D4C7808BE
:102EB300120BBF7420120D4C780C120BBF780879DB
:102EC3000C1205847414120D4C7808120BCE74087E
:102ED300120D4CE4F0A3F07456120D4C1231C202E1
:102EE3002FD87424120D4C12323E120D4CE028F8E8
:102EF300A3E01232F7FCA3E034FFFD8C82F58312CA
:102F03000C0D742A120D4C120C1912327F120C0D77
:102F13007404120D4C120C19742A120D4C780812F9
:102F23000BBF7420120D4C780C120BBF7808790C70
:102F3300120584C008C009C00AC00B7404120D4CEA
:102F4300780C120BBF741C120D4C7808120BBF784F
:102F53000C7908120584D00BD00AD009D008780860
:102F6300790C1207298C828D837808120BCE740496
:102F7300120D4C7808120BBF7420120D4C780C12F2
:102F83000BBF7808790C120584C008C009C00AC0B9
:102F93000B742A120D4C780C120BBF741C120D4CBF
:102FA3007808120BBF780C7908120584D00BD00A6D
:102FB300D009D0087808790C1207041232A6120B34
:102FC300CE7408120D4C12332B120D4C12323E12DA
:102FD3000D4C12321EF97426120D4C1237A3120D2A
:102FE3004CC082C083742E120D4C1231C7D083D0D3
:102FF300821231EE5003022EE57410120D4C780844
:10300300120BBF7410120D4C780C120BBF78087999
:103013000C120584C008C009C00AC00B7418120D35
:103023004C780C120BBF7418120D4C7808120BBF9E
:10303300780C7908120584D00BD00AD009D008780F
:1030430008790C120729AA08AB09AC0AAD0B1203C5
:103053000D7404120D4C120BE97404120D4C120C76
:103063000D740A120D4CE0FCA3E0CC24FCF582ECB9
:1030730034FFF583120C197404120D4C7808120BEB
:10308300BF900AAD780C120BBF7808790C1204BDFF
:10309300604A7410120D4C7808120BBF7404120DA1
:1030A3004C780C120BBF7808790C12094374201268
:1030B3000D4C7808120BCE7418120D4C7808120BB5
:1030C300BF7404120D4C780C120BBF7808790C12E4
:1030D3000943741C120D4C7808120BCE7420120D88
:1030E3004C7808120BBF740C120D4C780C120BBFEA
:1030F3007808790C120584C008C009C00AC00B7493
:103103001C120D4C780C120BBF7414120D4C780862
:10311300120BBF780C7908120584D00BD00AD009A2
:10312300D0087808790C1207297410120D4C78080E
:10313300120BCE7420120D4C7808120BBF741412AC
:103143000D4C780C120BBF7808790C120584C0085B
:10315300C009C00AC00B741C120D4C780C120BBFB3
:10316300740C120D4C7808120BBF780C79081205F9
:1031730084D00BD00AD009D0087808790C12070440
:10318300742A120D4C7808120BCE7408120D4CE4FD
:10319300F0A3F07454120D4CE0FCA3E0022C3B7A34
:1031A300007B007444120D167F08020DDCE0250C31
:1031B300F8A3E0350D22E0FCA3E0F5838C8222E046
:1031C300F8A3E0221231CB22E0F8A3E0F922123176
:1031D300CBEC28F8ED221231CBEC28FCED3922E0C0
:1031E30028FEA3E039FF8E82F583221231F222C337
:1031F300E098A3E01231FB2299A2D265D0332212C8
:10320300320622E024FFF0A3E034FF22E0F8A3E03B
:10321300C824FCF582E834FFF5832212322222E02F
:1032230028F8A3E0392212322D22123222F9221277
:1032330031CB7458221231CB745A221231CB7426FB
:1032430022E024FFF8A3E034FFF9221232522212C3
:103253003258F58322E028FAA3E0398A8222123217
:103263002D740A22851082851183E0F50CA3E0F505
:103273000D7402780C22120FC8780C2285108285F7
:10328300118312328922E0F8A3E0F58388822212A7
:10329300376E780822851082851183120FD4740249
:1032A300780822851082851183123289780822E5F5
:1032B30008F0A3E50922ECF0A3EDF022E4F0A3F07B
:1032C300A3F0A3221232891232CE22E4F0A3F0A398
:1032D300F0A3F0228510828511831232E122E024CB
:1032E30001F0A3E034002212375E1232F122E8F03B
:1032F300A3E9F02239F9851082851183E8F0A3E967
:1033030012332224FC221232F1740A2212331612CF
:10331300332222E4F0A3F0A37480F0A3743F22F0DD
:10332300851082851183E02212378F743222E508DB
:10333300F0A3E509F02274F0120D7074F4120D007D
:10334300740A120D4CEAF0A3EBF07406120D4C1242
:1033530032B97402120D4CE4F0A3F07406120D4C52
:1033630012329E120CED7404120D4C1232B28050C4
:103373001232A6120BBF850C82850D83120C0D85AC
:103383001082851183E0FEA3E0F5838E82120C196F
:10339300850C82850D837808120BCE0CEC70010D21
:1033A3007404120D4C122236120D4C12355274064F
:1033B300120D4C12356040B87402120D4C1232DDFE
:1033C300F07402120D4CC082C0837406120D4C12AD
:1033D3003244D083D0821231EE400302353F74026F
:1033E300120D4CE0FEA3E0FF7402120D4CE0240129
:1033F300FCA3E03400FD8033850C82850D83780CBB
:10340300120BBF8C088D0974027808120CED741C22
:10341300120D4C123292120BBF780C790812053838
:103423005004ECFEEDFF0CEC70010D8E088F097457
:10343300027808120CED741C120D4CE02508F50CF3
:10344300A3E03509F50D7406120D4C12356040A842
:103453007402120D4CE06E7003A3E06F700302332D
:10346300BB7402120D4C12329E120CED7408120D35
:103473004C1233317408120D4C1231C7741C120DE7
:103483004CE028FCA3E039FD8C82F5837808120B0D
:10349300BF850C82850D83120C0D8C828D83120CDB
:1034A30019850C82850D837808120BCE8E088F093F
:1034B30074027808120CED741E120D4C12379A1216
:1034C3000D4C1231C7741E120D4C123544803F123D
:1034D30032A6120BBF850C82850D83120C0D85104D
:1034E30082851183E0C0E0A3E0F583D082120C193A
:1034F300850C82850D837808120BCE0CEC70010DC0
:103503007404120D4C122236120D4C123552740AE9
:10351300120D4C12356040B78E088F09740278087B
:10352300120CED7420120D4C12379A120D4C1231FD
:10353300C77420120D4C1235440233B1740C02319E
:10354300A8E028F50CA3E039F50D7C007D002212DC
:1035530031CBE50C28F50CE50D39F50D221231CBF5
:10356300C3EC98ED1231FB2274F0120D7074EE125D
:103573000D00740C120D4CEAF0A3EBF0740A120D5B
:103583004C1232B9742A120D4CE0FEA3E0FF740A08
:10359300120D4C1232AC120BBF900ABD780C120BF9
:1035A300BF7808790C1205848E0CEFF50D3395E086
:1035B300F50EF50F780C12035E7808790C1205846A
:1035C3007424120D4C780C120BBF780C7908120579
:1035D30038500A7424120D4C7808120BCE7408125A
:1035E3000D4CE4F0A3F07422120D4C12377F120D30
:1035F3004C1232ED742C120D4C12375A801E740883
:10360300120D4C12378B8E088F0974027808120C36
:10361300ED7404120D4C12374F120D4C1237A312D6
:103623000D4CC3E09EA3E09FA2D265D033400302BA
:1036330037407406120D4CE4F0A3F0740C120D4CD9
:10364300123785120D4C0237168C088D09740278D7
:1036530008120CED740A120D4C12376A120C0D7419
:103663000E120D4C120C197424120D4C780C120B03
:10367300BF740E120D4C7808120BBF780C79081228
:10368300053850528C088D0974027808120CED74B9
:1036930004120D4C123292120BBF7402120D4C1213
:1036A30021F5120BBF7808790C120584740E120DE4
:1036B3004C780C120BBF7808790C120943851082E1
:1036C3008511831221F5120BBF7808790C12072993
:1036D3001232A6120BCE0CEC70010D7402120D4CBB
:1036E3001237457402120D4CE8F0A3E9F0C3EC9EC7
:1036F300ED9FA2D265D033500302364C7406120DEF
:103703004C12378B851082851183123745851082C1
:10371300851183123794120D4CC082C08374281212
:103723000D4C1231C7D083D0821231EE40030236E2
:10373300017C007D0012327F1232BF80AF7412020F
:1037430031A8E02404F8A3E03400F92212375574B9
:103753000422123776F92212375E22E0F8A3E0F949
:103763008510828511832212376E22123776888262
:10377300F58322E02508F8A3E03509221231CB7442
:1037830004221231CB74022212378F221232E1F05B
:10379300221232F174062212375585108285118365
:1037A3001232F174082274F0120D7074B3120D000A
:1037B300851082851183EAF0A3EBF0740F120D4C90
:1037C300ECF0A3EDF0740B120D4CE4F0A3801B742A
:1037D3005D120D4C124090740F120D4C1240A0124A
:1037E3000D6E740B120D4C12412AF01240ADF98587
:1037F3001082851183E02401FAA3E03400FB8510D5
:1038030082851183EAF0A3EBF07425696015E970F2
:10381300BE740B120D4C124090744D120D167F089E
:10382300020DDC1240AD6425701985108285118369
:10383300E0240108124133745D120D4C124090795B
:10384300258094740E120D4CE4F0740D120D4CE4AB
:10385300F07408120D4CE4F07407120D4CE4F0748C
:103863001B120D567402120D4C12413E7419120DA7
:103873004C74C5F0A3740A80197407120D4CE070E0
:10388300077407120D4CEAF0851082851183E8F066
:10389300A3E9F01240FEFAA3E0F5838A82E0FA245A
:1038A300E060D624FD601724F860D624FE60062469
:1038B300FD600F80117408120D4CE00480C9740D73
:1038C30080F5740E80F1851082851183124087E0A4
:1038D300642A7044745F120D4C124087124090EAC0
:1038E300FCEBFD8A82F583124090EC2402FC50012C
:1038F3000D745F120D4C1240D3C3EB12405850139A
:10390300C3E49AFCE49BFDECFAEDFB7408120D4C46
:10391300E004F0124138803C7A007B00802AEA758B
:10392300F00AA4FAA9F075F00AEBA429FBEA28F837
:10393300E43BF9E824D0FAE934FFFB8510828511D2
:1039430083E02401F81241331240ADF874D028C348
:10395300940A40CA7408120D4CE06007740E120DED
:103963004CE4F01240AD642E60030239FA851082F4
:1039730085118312407D851082851183E8F0A3E9C8
:10398300124163642A702E745F120D4C1240C1F908
:103993008882F5831240777404120D4CECF0A3ED8A
:1039A300F0E82402F8500109745F120D4C12410A29
:1039B30012416A804B7404120D4CE4F0A31241636C
:1039C300FC74D02CC3940A50387404120D4C12406A
:1039D3007075F00AA4F8ADF075F00AE9A42DF9E8C2
:1039E3002CF8E439F9E824D0F8E934FFF974041227
:1039F3000D4C12416A80C67404120D4C74FFF0A37F
:103A0300F07C001240FEFDA3E0F5838D82E024B438
:103A1300600824E4600624FC70057C01124138121E
:103A230040ADC0E07406120D4CD0E012416EF0744C
:103A330006120D4CE07003023EFB24BB7003023EF2
:103A4300C624FE7003023EC624EF7003023C1C240E
:103A5300F57003023AFB147003023CBD14700302B9
:103A63003EC6147003023EC6147003023EC624FE13
:103A73007003023CBD24FB6024147003023BF21468
:103A83007003023C1C24FD7003023B3B24FE7003C5
:103A9300023C1C24FD7003023C10023F07745F12BA
:103AA3000D4C124117E8FEE9FFE5082402F5085022
:103AB300020509ECA2E0740B5027120D4C12406A68
:103AC3003395E0FA8E828F8312413EA3EAF0A3F08E
:103AD300745F120D4C1240A0E508F0A3E50902370C
:103AE300ED120D4C12406A8E828F8312413E745F39
:103AF300120D4C12408780E0745F120D4C1240C1CE
:103B0300F5838882E0C0E0741B120D4CD0E0F074A2
:103B13005F120D4C1240B32402F8A3E03400F97491
:103B23005F120D4C12410A12413E741C120D4CA837
:103B330082A9837409023BE8745F120D4C1241178A
:103B4300E5082402FCE43509FD745F120D4C1240B4
:103B5300D37402120D4C12413EE849700C740212E8
:103B63000D4C74D6F0A3740AF07404120D4C124079
:103B7300C8500C7404120D4C7410F0A37427F07E1B
:103B8300007F0080050EEE70010F7402120D4C12BF
:103B9300406A8882F583A3AC82AD837402120D4C14
:103BA300ECF0A3EDF088828983E060147404120DB5
:103BB3004C12406AC3EE98EF99A2D265D03340C548
:103BC3007402120D4C1240E17409120D4C12413E65
:103BD300C3E49EF8E49FF97409120D4CE028F8A39E
:103BE300E039F97402120D4CE8F0A3E9023F1E74A8
:103BF3000D120D4CE060167404120D4C1240704906
:103C0300700B7404120D4C7401F0A3E4F0741912D8
:103C13000D4C74E5F0A3740AF0745F120D4C12405E
:103C2300EF7406120D4CE0647070388508828509C4
:103C3300831240777411120D4CECF0A3ED12415C2A
:103C4300E508124060120D4C12410A12413E7415F0
:103C5300120D4C741012415CA3F07407120D4CE466
:103C6300023D32ECA2E0E5085016124045120D4C1D
:103C7300124144120BF57411120D4C120C018019F0
:103C8300124060120D4C124157F8A3E0F97411125F
:103C93000D4CE8F0A3E912415C7406120D4CE0648C
:103CA3006F70097415120D4C740880A9E064757067
:103CB3009D7415120D4C740A809B745F120D4C1287
:103CC30040EFECA2E0E5085010124045120D4C12F3
:103CD30041447808120BBF8016124060120D4C123B
:103CE3004157F508A3E0F5093395E0F50AF50B74A0
:103CF30011120D4C7808120BCE900AAD78081203FE
:103D03003840217407120D4C742DF07411120D4CB0
:103D13007808120BBF7808120B9B7411120D4C78A4
:103D230008120BCE7415120D4C740A12415CA3F0E9
:103D3300744C120D4CA882A9837402120D4C1241CB
:103D43003E7409120D4C12413E7411120D4C120BAC
:103D5300F5EC4D4E4F6004D2008010C20074041283
:103D63000D4C124070497003023E357402120D4C23
:103D73001240E17402120D4C12413E7411120D4CAB
:103D8300780C120BBF7415120D4C7808120BBF7808
:103D93000C7908120B297419120D4CE02508F8A3AD
:103DA300E035098882F583E0C0E07402120D4C12FD
:103DB30040A0D0E0F07411120D4C780C120BBF74BC
:103DC30015120D4C7808120BBF780C7908120B29C9
:103DD3007411120D4C780C120BCE7411120D4C127F
:103DE3000BF5EC4D4E4F70837404120D4C1240C80A
:103DF3005040740E120D4CE060387407120D4CE005
:103E03006004D2F08002C2F0A2F0E433F8EA98F83A
:103E1300EB9400F97404120D4CE8F0A3E9801274DA
:103E230002120D4C12413E7402120D4C1240A0744A
:103E330030F07402120D4C1240E1744C120D4CC060
:103E430082C0837402120D4C124077D083D082E576
:103E530082C39CFEE5839DFF7404120D4C124077D0
:103E6300C3EE9CEF9DA2D265D03340B3740D120D07
:103E73004CE07003023F1FA2004003023F1F740681
:103E8300120D4CE064786005E064587010E088829D
:103E93008983F0E824FF18E934FFF98012E0646FA6
:103EA300707A7402120D4C12410AE06430606D7432
:103EB30002120D4C12413E7402120D4C1240A074BA
:103EC3003080587402120D4C74F6F0A3740AF07427
:103ED30009120D4C74F6F0A3740AF07409120D4C18
:103EE3001240B360377409120D4C12407D740912ED
:103EF3000D4CE8F0A3E980E285108285118312401E
:103F0300E61241377402120D4C7419F0A3740BF0CE
:103F13007409120D4C741CF0A3740BF07409120D88
:103F23004CC082C0837402120D4C12406AD083D0FD
:103F330082E0C398F8A3E099F97404120D4C12417E
:103F43003E7404120D4CE0F8C3EA98EB99A2D265D3
:103F5300D03350067E007F0080217407120D4CE0A1
:103F63006004D2F08002C2F0EAC398F8EB99F9A298
:103F7300F0E433FAE89AFEE99400FF7408120D4C5A
:103F8300E070208019745D120D4C124096120D4C96
:103F93001240A0120D6E740B120D4C1241251240EB
:103FA3004F50E27407120D4CE06051745D120D4CDA
:103FB3001240907407120D4CE0F9740F120D4C125D
:103FC30040A0120D6E802D745D120D4C1240907442
:103FD30002120D4C1240B3F9740F120D4C1240A093
:103FE300120D6E7402120D4CE01241837402120D15
:103FF3004C12413E740B120D4C1241257404120DE8
:104003004CE024FFF0A3E034FFF07404120D4C12D3
:1040130040C850B37408120D4CE070030237EE121F
:10402300404F50030237EE745D120D4C124096124E
:104033000D4C1240A0120D6E740B120D4C12412543
:1040430080DD2404F8E43509F9745F22EE24FF1EB1
:10405300EF34FFFFC39400A2D265D033222402F8C9
:10406300E43509F9745F22E0F8A3E0F922E0F8A34C
:10407300E0F9E822E0FCA3E0FD22E0240108A3E04C
:104083003400F922E0FAA3E0F5838A8222E0FAA35E
:10409300E0FB22E0FAA3E0FB7920740F221240A494
:1040A30022E0F8A3E0F583888222851082851183BC
:1040B3001240B722E0F8A3E0F5838882E0221240A1
:1040C300B7F8A3E022C3A3E09400A2D265D03322C1
:1040D300E0FEA3E0F5838E82ECF0A3EDF022124024
:1040E300E6F922E024FFF8A3E034FF221240F32292
:1040F3001240A4E0F508A3E0F5092285108285119A
:1041030083E0124179E02212410E22E0FCA3E0F5A4
:10411300838C82221240F3850882F583E0F8A3E0C2
:10412300F92212412AF022E02401F0A3E034002214
:10413300A3E03400F9851082851183E8F0A3E9F048
:10414300221241482212410EE8F0A3E9F0850882C9
:1041530085098322124148E022F0A3E4F0A3F02270
:1041630012418C1240B822E8F0A3E912418C1241AB
:1041730079E8F0A3E9221241838510828511832215
:104183002401F8A3E03400F922F08510828511831D
:10419300E02274F5120D70780079007508017E0035
:1041A3007F001242F3F50AE8FCE9FDEC75F00FA479
:1041B300CC85F0092509F50975F00FEDA42509FD56
:1041C300743C2CFC74053DFDEC2EF582ED3FF5832C
:1041D300E0650A60037508000EEE70010FC39406D4
:1041E300EF1245CB40BCE508A2E0500479018010F2
:1041F30008E8700109C39403E91245CB409D790097
:104203007F03020DDC74F2120D707464120D00EA68
:10421300FEEBFF8C0A8D0B7A0C7B001202E38A08FB
:104223008B09EA4B700A7A007B001200860242C2B5
:104233007808120ED9740E120D56880C890D780C5D
:10424300120ED97404120D56880C890D780C120EB7
:10425300D97436120D56880C890D780C120ED97547
:104263000C03750D00780C120ED97C097D00EEFA53
:10427300EFFB1202B9740A120D16AA08AB09120257
:10428300D7780A120ED97508037509007808120E3B
:10429300D97508097808120ED9900AAD120EEA747E
:1042A30016120D56880889097808120ED9740C1253
:1042B3000D66743C120D5E1202D1740C120D16744D
:1042C3009C120D167F06020DDC74F7120D70790136
:1042D3007E007F00800C1242F3600279000EEE70C4
:1042E300010FC3EE9CEF12461740EB7F01020DDC7A
:1042F300EA2EF582EB3FF583E02274F0120D707421
:10430300F6120D007408120D4CEAF0A3EBF0741AC8
:10431300120D4CE06C7003A3E06D60030244A074C3
:1043230002120D4CE4F0A380087402120D4C1245E6
:104333007EF07402120D4CC082C0837408120D4CBF
:1043430012459ED083D08212459240030244A08539
:104353001082851183E4F0A302446FEAF8EBF9E8D5
:1043630075F018A4F8ACF075F018E9A42CF98510D1
:1043730082851183E0FCA3E0FDEC2CFCED33FD749E
:104383005E2CFC74093DFDEC28F582ED124692E4A7
:10439300F50EF50F780C1203798A088B09740278ED
:1043A30008120CED7402120D4C12459EE875F024B0
:1043B300A4F8ACF075F024E9A42CF974F228F8748D
:1043C3000839F9E82508F582E93509F583780812F3
:1043D3000BBF780C79081205847404120D4C78080D
:1043E300120BBF780C79081207297404120D4C784C
:1043F3000C120BCE0AEA70010B741A120D4C124503
:104403009EC3EA98EB99A2D265D033500302435E70
:104413007404120D4C7808120BBF900AB1780C1279
:104423000BBF7808790C12072978081203D6C00845
:10443300851082851183C082C0837402120D4C12D1
:10444300459EE875F00CA4F8AAF075F00CE9A42ACF
:10445300F9740E28F8740539F9D083D08212458790
:10446300D0E0F085108285118312457EF08510829D
:10447300851183C082C083741C120D4C12459ED0DB
:1044830083D082124592400302432C7404120D4CD4
:10449300E4F0A3F0A3F0A3F0FAFB0243FC750C00D5
:1044A300750D00AE0CEE75F00FA4CEA8F028F875CC
:1044B300F00FE50DA428FF743C2EF50E74053FF5AF
:1044C3000FE50C75F00CA4F8AAF075F00CE50DA43B
:1044D3002AF9740E28F508740539F5097C0C7D005A
:1044E300AA08FB12023BE9705B850882850983E019
:1044F300F9FA850E82850F83A3A3A3A3A3A3A3A382
:10450300F0A3E4F0900AB57808120BBFE50E240C73
:10451300F582E4350FF5837808120BAC90086974C3
:10452300502EF874053FF9124587EAF0850E82850F
:104533000F83A3A3A3A3A3A3A3A3A3A3E06A7002CC
:10454300A3E06018900AB57808120BBFE50E24109B
:10455300F582E4350FF5837808120BAC050CE50CF6
:104563007002050DC39403E50D1245CB50030244BD
:10457300A6740A120D167F08020DDCE02401F0A3D5
:10458300E0340022E028F8A3E0398882F58322C3CF
:10459300E098A3E099A2D265D03322E0F8A3E0F932
:1045A30022C082C083C3EC94011245CA40128A829E
:1045B3008B83E4F0A3EC24FF1CED34FFFD4C70F27D
:1045C300D083D0820200EFED9400A2D265D03322D3
:1045D30074F6120D70EAFEEBFF7A007B00802790E1
:1045E300053BE0C0E0750801750900EA7808120C84
:1045F300EDD0E05508700AEE2AF582EF3BF583E42F
:10460300F00AEA70010B12461340D47F02020DDC5C
:10461300C3EA9CEB9DA2D265D0332274F1120D70D4
:10462300EAFEEBFF7A007B00740F120D4CE0F50AF3
:10463300A3E0F50B804FEAF8EBF9E828F8E933F942
:10464300EE28F582EF124692850A08850B09E508E4
:1046530075F018A4F50885F00E75F018E509A42582
:104663000EF509745E2508F50874093509F509E5A1
:104673000828F582E50939F583E50CF0A3E50DF08B
:104683000AEA70010B12461340AC7F07020DDC39B6
:10469300F583E0F50CA3E0F50D2274F6120D7074AA
:1046A300C8120D00900501E4F01202A7900501E085
:1046B300A2E650F890607FE0600302495E90050136
:1046C300E0A2E0400302495E741E120D66741812E4
:1046D3000D5E12021D7418120D5E12022FE9700393
:1046E30002495E741E120D4CE0FE741F120D4CE065
:1046F30090053BF07C027D00741E120D4CE5822C6C
:10470300F582E5833DF583E0F9A3E0F508E9F509D2
:10471300EC24FEF8ED34FFF97A027B00120C8CE8EE
:1047230028F8E933F9851082851183E58228F5821B
:10473300E58339F583E508F0A3E509F0EC2402FCF1
:10474300E43DFDC3EC941A1245CA40ACEE60441438
:10475300605F14607B14603B14605614607224FB2A
:1047630070030247F614700302482624F77003020D
:10477300484C1470030248791470030248A914705A
:10478300030248D914700302490514700302493126
:1047930002495EE4F508F5097808120ED97C0C7D10
:1047A300007402120D5E124970120D1690053280CC
:1047B3003C7508017509007808120ED97C0C7D0040
:1047C3007402120D5E124970120D16900533801D8E
:1047D3007508027509007808120ED97C0C7D0074E7
:1047E30002120D5E124970120D169005347401F019
:1047F30002495E7508027509007808120ED97C0C0F
:104803007D007402120D5E124970120D169005346C
:10481300124979700302495E7C027D007A717B083C
:1048230002495B7508037509007808120ED97C0CE0
:104833007D007402120D5E124970120D1612497634
:10484300700302495E7C02802475080375090078B1
:1048530008120ED97C0C7D007402120D5E12497091
:10486300120D16124976700302495E7C037D007AAD
:10487300747B0802495B7508047509007808120EF9
:10488300D97C0C7D007402120D5E124970120D1654
:10489300900536124979700302495E7C037D007AE4
:1048A300777B0802495B7508057509007808120EC5
:1048B300D97C0C7D007402120D5E124970120D1624
:1048C300900537124979700302495E7C037D007AB3
:1048D3007A7B0802495B7508067509007808120E91
:1048E300D97C0C7D007402120D5E124970120D16F4
:1048F30090053812497960637C037D007A7D7B08DB
:1049030080567508077509007808120ED97C0C7D4E
:10491300007402120D5E124970120D1690053912C1
:10492300497960377C037D007A807B08802A75088B
:10493300087509007808120ED97C0C7D00740212E8
:104943000D5E124970120D1690053A124979600BEB
:104953007C037D007A837B0812024D79811202A1C8
:10496300900501E4F07438120D1602460E1202533C
:104973007402229005357401F090053BE0F422C0E7
:1049830082C0831202230245C3C082C08390053BC9
:1049930074FFF01202590245C375E40275E54475CC
:1049A300DA0075DB7DD2B90200EF900501E4F05324
:1049B300F4FB53FEFB53F6FB43F74012026B53F435
:1049C300FB53FEFB43F6047A3B7B0A120307790190
:1049D30012029B12027D79171202831202957A004A
:1049E3007B00750801750900EA7808120CEDE508EB
:1049F300F4F852F352FD528F43F72052F452FE5211
:104A0300F643F7400AEA70010BC39408124C58406E
:104A1300D17A007B00750801750900EA7808120C49
:104A2300EDE508F452F552FF52F743F7800AEA70B6
:104A3300010BC39405124C5840DB790012020B7929
:104A4300401202B31202117A347B001202E38A0885
:104A53008B09EAFCEBFD7AFF79FF120229AA08AB66
:104A6300091202D71201F912025F80031202659044
:104A73000505E060F7900869124C487E007F00EE60
:104A8300F8EFF9E875F003A4F8AAF075F003E9A4C8
:104A93002AF9746B28F50E740839F50F74322EF564
:104AA3008274053FF583E0700B7C037D00AA0EAB97
:104AB3000F1202477A007B00E50E2AF582E50F3BD1
:104AC300F583E0F508E4F509F50AF50B7808120318
:104AD300798A0C8B0D7402780C120CEDEEF8EFF959
:104AE300E875F00CA4F8ACF075F00CE9A42CF9749B
:104AF3008628F8740839F9E8250CF582E9124C4147
:104B0300120BCE0AEA70010BC39403124C5840A84F
:104B13000EEE70010FC39409EF124C595003024A71
:104B2300827CF27D087A867B0812023575080C7543
:104B330009007808120ED97508097808120ED97C75
:104B4300097D007A037B001202417404120D1612D0
:104B53000217900505E4F0F8F9E8FAE9FBEA75F0C5
:104B63000FA4CAACF02CFC75F00FEBA42CFB74461D
:104B73002AF58274053BF583124C4808E870010955
:104B8300C39403E9124C5940D0900869C3E094FAE6
:104B9300A3E094005003024A6A7A417B0A12030796
:104BA3007E007F008E088F097808120ED97A4B7B1E
:104BB3000A124C52120D16EEF8EFF9E875F00FA435
:104BC300C8AAF02AFA75F00FE9A42AF9743C28F56B
:104BD3000C740539F50DE50C240C124C3E120BBF79
:104BE3007808120ED97A557B0A124C52120D16E52B
:104BF3000C2410124C3E120BBF7808120ED97A689F
:104C03007B0A124C52120D16850C82850D83A3A3C9
:104C1300A3A3A3A3A3A3120EEE7A7B7B0A124C5287
:104C2300120D160EEE70010FC39403EF124C595080
:104C330003024BA77A007B000200EFF582E4350DF7
:104C4300F583780822E02401F0A3E03400F0221277
:104C53000307740222EB9400A2D265D03322E953F6
:104C6300F4FB6007D29243FE04800953FEFB53F624
:104C7300FB43F7400200EFC082C08374AA90053C57
:104C83007806F0A3D8FC900542124CFBA3F074BB4A
:104C930090064B7806F0A3D8FC9006517401124C91
:104CA300F974CC90075A7806F0A3D8FC9007607487
:104CB30002124CF9FAFB743C2AF874053BF9E82418
:104CC30014F582E439F583E4F0E82423F582E9342A
:104CD30001F583E4F0E82432F582E93402F583E454
:104CE300F00AEA70010BC394FAEB124EDE40C7D010
:104CF30083D0820200EFF0A3E4124D04124D04F0BE
:104D030022F0A3F0A3F0A3F0A3F0A3F0A32274F77F
:104D1300120D70E490050E7824F0A3D8FCFAFB780A
:104D2300007900E8FCE9FDEC2CFCED33FDEAFEEB39
:104D3300FFEE75F018A4FE85F00875F018EFA425B2
:104D430008FF745E2EFE74093FFFEE2CF582EF3DE3
:104D5300F583E4F0A3F008E8700109C3940C124E44
:104D6300DD40C00AEA70010BC39409EB124EDE402A
:104D7300AEE49005327809F0A3D8FC7F01020DDC84
:104D8300C082C0839061C8E0C3941B4050E5D9E55D
:104D9300D9E5D978007900E5D9C0E0EA28F582EBB6
:104DA30039F583D0E0F008E8700109C39406124E88
:104DB300DD40E4E5D9E5D9E5D9E5D9E5D978007948
:104DC30000E5D9C0E0EC28F582ED39F583D0E0F0B9
:104DD30008E8700109C3941A124EDD40E4024CF254
:104DE300C082C08374E5120D00900A92AC10AD111D
:104DF300741B120C32F8F9851082851183E5822821
:104E0300F582E58339F583E0C0E0746B28F582749D
:104E13000839F583D0E0F008E8700109741B68498C
:104E230070D5741B120D16024CF274F6120D7074C9
:104E3300E6120D00900501E4F08510828511837858
:104E43001AF0A3D8FCE9851082851183F07401124E
:104E53000D4CEAF0750802750900E50824FEF8E533
:104E63000934FFF97A027B00120C8CE828F8E93345
:104E7300F9EC28F582ED39F583E0F8A3E0F9E8FAD7
:104E8300851082851183E5822508F582E58335093E
:104E9300F583E9F0E8A3F0E5082402F508E4350911
:104EA300F509C3E508941AE509124EDE40AC7C0807
:104EB3007D05791AAA10AB111202891202AD900571
:104EC30001E0A2E650F879911202A1900501E4F005
:104ED300741A120D167F02020DDCE99400A2D2654A
:104EE300D03322D083D0820200EF74F6120D707596
:104EF30008807509007808120ED97C007D007A00BD
:104F03007B601202FB7402120D1612028F759C77DE
:104F130090618AE0640170F8906001E054FC124FE4
:104F2300E8906003E0C2E0F0E0C2E1F0E0C2E2F04A
:104F330090618A7401F090618BE0640170F8906075
:104F430002E0543FF0E0C2E0F0E0C2E1124FE8902B
:104F53006018E0C2E2F0E0D2E0F0E0C2E4F0A37453
:104F630027F09060047403F0906008E4F0A3745594
:104F7300F0A3F0A3F090618B7401F09061877469E2
:104F8300F090618674F3F09061BC7407F0906265F1
:104F93007413F09061A27410F09061807440F090EB
:104FA30061907404F0A37448F0A3E4F0A374A3F035
:104FB3009061A57401F0906194E4F0A374D6F0A31A
:104FC30074BEF0A37489F0A3748EF09061E0E4F0F2
:104FD300A3745BF0A37406F0A3E4F09061E904F01A
:104FE3007F02020DDCF0E0C2E2F0E0C2E3F0E05445
:104FF300CFF022C082C083E9FA90618AE064017035
:10500300F890618DE05403600479048053E924E946
:10501300600A24E8601024CA601C802A906000E0C3
:1050230054804417802B906000E05480442FF0900C
:10503300600C74268021906000E054804465F090F9
:10504300600C74278011747F5AF8906000E05480DC
:1050530048F090600C7425F090618A7401F0790037
:10506300024EE674F7120D70E9FE7800C3941B40FC
:10507300047903804E740D29F5D975D902740B296F
:10508300F5D98C828D83E0F5D9A31250CB1250CB86
:10509300A31250D91250D9A3E0F5D975D90275D905
:1050A3000175D904740129F5D975D9FF800EE8FC7F
:1050B300EA2CF582E43BF583E0F5D908E8C39E408A
:1050C300ED79007F01020DDC1250CF22E0F5D98C7F
:1050D300828D83A3A3221250CFA3A32274F0120DB7
:1050E3007074F6120D007406120D4CEAF0A3EBF087
:1050F300A3ECF0A3EDF07406120D4C7808120BBF6D
:10510300900AB5780C120BBF7808790C1205385049
:105113003A7406120D4C7808120BBF900AAD780C46
:10512300120BBF7808790C1204BD700B7A007B0058
:105133007C007D00025261900A377421F0A3E4F0F1
:105143007AFF7BFF7C7F7D7F025261A810A91188C3
:105153000889097808120ED97408120D4C120BDD58
:105163001202E97402120D167402120D4C120BE9AD
:105173007402120D4C7808120BBF900B1D780C12A1
:105183000BBF7808790C120729900B21780C120BAE
:10519300BF7808790C1205847402120D4C780C1236
:1051A3000BBF780C7908120943780C790812072988
:1051B300850C08850D09850E0A850F0B85108285E0
:1051C3001183E0A2E050251475F002120316FA9041
:1051D3000B25780C120BBF7808790C120584EAA210
:1051E300E713FAE413250AF50AEA801175F00212AF
:1051F3000316A2E713F8E413250AF50AE8350BF5BD
:105203000B7402120D4C7808120BCE7402120D4C63
:105213007808120BBF900B29780C120BBF78087912
:105223000C120584C008C009C00AC00B7406120D15
:105233004C780C120BBF7402120D4C7808120BBF82
:10524300780C7908120943D00BD00AD009D008781A
:1052530008790C120729AA08AB09AC0AAD0B740A2A
:10526300120D167F08020DDC74F7120D70ECF8EDC9
:10527300F98A828B83A3AE82AF83E0FAA3E0FBEAD1
:10528300C398FCEB99FDC3EC9404ED940040158E98
:10529300828F83E8F0A3E9F088828983E4F0A3EAAC
:1052A300F0A3EBF07F01020DDC74F5120D70900A90
:1052B30039E0F8A3E0F9E849700A900A39742DF04F
:1052C300A3740BF0900A39E0FEA3E0FF742CC39E95
:1052D300FC740C9FFDEA2403F8E43BF9C3EC98ED5E
:1052E300994040E08E82F5837401F0900A39E02AF8
:1052F300FCA3E03B8C82F583A3A3A3AC82AD839094
:105303000A39ECF0A3EDF08E828F83A3ECF0A3EDCA
:10531300F0C3E49AF8E49BF9900A39E028FAA3E091
:10532300398062782D790B8004ECF8EDF9880889CF
:1053330009C3E5089EE5099F504E88828983A3E04F
:10534300FCA3E0FD88828983E070DEECC39508F559
:1053530008ED9509F509E50824FDF508E50934FF8D
:10536300F509C3E5089AE5099B40BEE82403FEE47A
:1053730039FF7401F0EE2AFCEF3BFDE8FAE9FB127A
:1053830002DDEEFAEFFB80047A007B007F03020D5F
:10539300DC74F4120D70EAFEEBFF7A2D7B0B782D93
:1053A300790BEE4F700C02547CE8FAE9FBE0F8A3AA
:1053B300E0F9900A39E0F50AA3E0F50BC3E8950A92
:1053C300E9950B400302547C88828983A3AC82ADA8
:1053D30083E82403F508E439F509EE65087003EF63
:1053E300650970C588828983E0700302547C8C82CE
:1053F3008D83E0F508A3E0F509C3E508950AE509FF
:10540300950B5006AE08AF098004E8FEE9FF8E82D3
:105413008F83E0F50A8A828B83E07022E50A700CA1
:105423008E828F83A3E0F508A3E0F5098A828B833C
:10543300A3E508F0A3E509F0EAF8EBF9801DE50A16
:1054430070138E828F83A3E0FAA3E0FB8C828D839B
:10545300EAF0A3EBF088828983E4F088828983A34E
:10546300E0FAA3E0FB900A39E06A7003A3E06B70F3
:1054730008900A39E8F0A3E9F07F04020DDC74F622
:10548300120D707508807509007808120ED97C001A
:105493007D007A007B601202FB7402120D16798183
:1054A3001202A179911202A190618674E10254B3B0
:1054B300F07F02020DDCC082C0839061B1E0D2E0D4
:1054C300803AC082C083E9F8906188E0F99061B1C5
:1054D300E06015E9A2E24010E8601FE5E170FC75A9
:1054E300E10BE591A2E650FAE0C2E0F07591007598
:1054F3009B0090607F740FF079008001F0D083D01F
:10550300820200EFE5E170FC89E10200EFE5E17062
:10551300FC75E1080200EFE5E170FC75E1090200AA
:10552300EFC082C083906182E049F0439A01025543
:105533000074F0120D708A088B098C0A8D0B74109D
:10554300120D4CE0F8A3E0F9E8FAE9FB900AAD7814
:105553000C120BBF7808790C1204BD700E8A828B73
:1055630083E4F0A3F0FAFBFCFD8022EC33ED33245B
:1055730082F83395E0F98A828B83E8F0A3E9F0AAF5
:1055830008AB09ED5480443FFDECC2E7FC7F080201
:105593000DDCEEC0E0E9FA7B00120313D0E0FE025B
:1055A30000EF74F6120D7074FE120D00740C120DE0
:1055B30056851082851183E8F0A3E9F0A810A9119C
:1055C300880889097808120ED9E4F508F5097808DE
:1055D300120ED97C017D031202EF7404120D1674AE
:1055E30002120D167F02020DDC74F6120D70EAF83A
:1055F300EBF9740A120D4CE0FEA3E0FF80188C82D5
:105603008D83E088828983F0A3A882A9838C828D0D
:1056130083A3AC82AD838E088F09E50824FF1EE5C2
:105623000934FFFFE508450970D47F02020DDC74DD
:105633000169700575C6C98006E9700353C680A861
:10564300C6E59E6870FB0200EFE9FAE59EA2E6401C
:105653000479018019E9700553C67F800874016AD3
:10566300700343C680A8C6E59E6870FB79000200FC
:10567300EFC082C083851082851183E0F8A3E0F92F
:10568300E84960128A828B83ECF0A3E824FF18E9CF
:1056930034FFF94870F2D083D0820200EFC082C099
:1056A3008375BE8079011201FF790012020579002A
:1056B3001201FFD083D0820200EFC082C0831202A6
:1056C30077120271D083D0820200EFD2AF0200EFD3
:04000005000000D720
:00000001FF
