:020000040000FA
:030000000200D724
:03002B000204329A
:030053000204356F
:1000830002041400000080FBE49001017808790168
:100093008002F0A3D8FCD9FA7A087B019001077893
:1000A3002179018015E493A3AD82AE838A828B8389
:1000B300F0A3AA82AB838D828E83D8E9D9E77582B8
:1000C3006275830674001200E97582867583007475
:1000D300001200E975D0007581BF7510017511011B
:1000E300759F0002008BC09FF59FE473D09F22D0C1
:1000F30083D082C09FE493C0E0740193C0E0740294
:1001030093F59F22FFFFFFFFE0FFFFFF20000000AA
:100113006400000032000000B80B0000C8000000BB
:1001230060EA00001200F26C04001200F2B2050053
:100133001200F20C0B001200F2260B001200F24B1D
:100143000B001200F2BC0B001200F2CD0B001200E8
:10015300F29F0B001200F24507001200F25D070048
:100163001200F26607001200F26F08001200F2DAC2
:1001730008001200F27D0A001200F2B50A00120014
:10018300F2C10A001200F2030B001200F2EA0900A6
:100193001200F2260A001200F26F0A001200F27631
:1001A3000A001200F25309001200F277090012004C
:1001B300F2B409001200F2D209001200F2730B002C
:1001C300C008C3E096F50808A3E096420808A3E038
:1001D30096420808A3E0964208A2D265D033E50808
:1001E3007001D3D008227009080808226016181875
:1001F30018C6C333C608C633C608C633C608C633D3
:10020300C6D5E0EA22E026F608A3E036F608A3E026
:1002130036F608A3E036F622E026F008A3E036F02F
:1002230008A3E036F008A3E036F022C3E697F60809
:1002330009E697F60809E697F60809E697F622C352
:10024300E096F008A3E096F008A3E096F008A3E098
:1002530096F022E0F608A3E0F608A3E0F608A3E090
:10026300F622E0FAA3E0FBA3E0FCA3E0FD22CAC070
:10027300E0E6F0A308DAFAD0E0FA22B90010BB00F6
:1002830008E88AF084F8AAF022E4FBC8FA22EB70AB
:10029300227B10C833C8C933C9335007C39AC3DBA1
:1002A300F280069A50012ADBEAC833F4C8C933F452
:1002B300C9FA2275F008E4C833C8C933C933C99AE7
:1002C300C99B5004C92AC93BD5F0ECFBC833F4C819
:1002D300E4C9FA22700422600D18C6C333C608C6E7
:1002E30033C6D5E0F41822251010AF08F510400CE2
:1002F30015118008F51040021511D2AF2200C0D0AD
:10030300251010AF08F510500C05118008F510509A
:10031300020511D2AFD0D0222510F58210AF08F517
:1003230010400C15118008F51040021511D2AF854D
:100333001183222510F582E43511F583222510FA65
:10034300E43511FB222510FCE43511FD222510C5EF
:1003530082C0E0E51134FFC583C0E0E510C3958298
:1003630024F810AF088583118582108008858311D6
:10037300858210D2AFCEF0A3E520F0A37808E6087B
:10038300F0A3DEFAEFF0A3E58124FAF8E608F0A380
:10039300E608F0A3E608F0A30808E608F0A3E608D9
:1003A300F0A315811581D0E0FED0E0F81581158109
:1003B3001581E8C0E0EEC0E022851183851082E05C
:1003C300A3FEE0A3F5207808E0A3F608DFFAE0A394
:1003D300FFE0A3C0E0E0A3C0E0E0A3C0E0E0A3C06F
:1003E300E0E0A3C0E010AF08858210858311800888
:1003F300858210858311D2AFD083D0820200EF743F
:10040300028000C0E0F40412031BD0E01202712248
:10041400C0E0C0D0C082C083E591900102F0759B1A
:1004240000E0F4F591D083D082D0D0D0E032C2C7BE
:1004340032C0E0C0D0E8C0E0C082C083A8A1E8A276
:10044400E450069001077401F0E8F4F5A1C2C2D0AB
:1004540083D082D0E0F8D0D0D0E03200758701009C
:1004640022D083D0820200EF74F012035074F4128D
:1004740002EA8A088B098C0A8D0B7405780812012C
:10048400E9E9700302055D7408120348740212035B
:10049400401201AB7404120348AA10AB111201A557
:1004A4007408120336780C12025674041203367858
:1004B4000C120242851082851183C082C0837402AB
:1004C400120336E0F8A3E0F9D083D082C3E098A306
:1004D400E0998510828511835035E02400F0A3E073
:1004E400347DF07402120336E0F8A3E0F98510823B
:1004F400851183C3E098F0A3E099F0900108780C8B
:100504001202567404120336780C12021B8008C3BC
:10051400E098F0A3E099F0851082851183E0F8A3B8
:10052400E0F97AD17B0312027E880C890DE4F50E82
:10053400F50F7808790C12022E7404120336780C25
:100544001202567405780C1201E97808790C12022B
:100554002E90010C780812020890011078081201FC
:10056400C34007900101E4F0803A90011478081226
:1005740001C39001014004740180027402F0AA08CE
:10058400AB09AC0AAD0B12019379011201B7120148
:100594009912014B900101E0F912018D12019F792A
:1005A400011201B1740C1203007F080203BCC08263
:1005B400C08374F71202EA7403120336E4F074047D
:1005C4001203367401F074051203367402F07406D3
:1005D4001203367403F074071203367404F07408BB
:1005E4001203367405F08510828511837411F0743A
:1005F400011203367422F074021203367433F07459
:10060400031203487903AA10AB1112016F9061D051
:10061400E000E5E170FC75E109E591A2E650FA908D
:10062400607FE0700F001207299001181202651212
:10063400065580040012072F9061D0E00012015784
:1006440090607F740FF012015D74091203000204BC
:100654006512012753F4FB53FEFB43F60422900179
:1006640002E4F0120738120145120658007901120B
:100674000181120163791712016912017B7A007BEF
:1006840000750801750900EA78081202D7E508F434
:10069400F852F352FD528F43F72052F452FE52F6B1
:1006A40043F7400AEA70010BC39408EB9400A2D20A
:1006B40065D03340CC7A007B00750801750900EAE7
:1006C40078081202D7E508F452F552FF52F743F7BF
:1006D400800AEA70010BC39405EB9400A2D265D0A2
:1006E4003340D6790090011C1202651201271207CB
:1006F400299001201202651201271207387901128C
:100704000181790090012412026512065512017BC1
:1007140012012D7991120187900102E4F090607F1B
:10072400740FF080D812072F79002253F4FBD29271
:1007340043FE042253F4FB53FEFB53F6FB43F74002
:1007440022C082C08390618AE0640170F8800374DF
:1007540001F0D083D0820200EFC082C08390618A0E
:1007640080ED74F61203507508807509007808123C
:1007740004027C007D007A007B601201BD740212C9
:100784000300120175759C7790618AE0640170F82A
:10079400906001E054FC120861906003E0C2E0F054
:1007A400E0C2E1F0E0C2E2F090618A7401F090618D
:1007B4008BE0640170F8906002E0543FF0E0C2E026
:1007C400F0E0C2E1120861906018E0C2E2F0E0D209
:1007D400E0F0E0C2E4F0A37410F09060047403F05D
:1007E400906008E4F0A37455F0A3F0A3F090618B3B
:1007F4007401F09061877469F090618674E5F090FB
:1008040061BC7407F09062657413F09061A2741077
:10081400F09061807440F09061907404F0A3744887
:10082400F0A3E4F0A374A3F09061A57401F09061C7
:1008340094E4F0A374D6F0A374BEF0A37489F0A377
:10084400748EF09061E0E4F0A3745BF0A37406F09E
:10085400A3E4F09061E904F07F020203BCF0E0C27B
:10086400E2F0E0C2E3F0E054CFF022C082C0839013
:10087400618AE0640170F890618DE054036004794A
:10088400048026E924E9600A24E8602024CA602C54
:10089400803A906000E054804417F090600C742516
:1008A400F090618A7401F07900020756906000E0CC
:1008B4005480442FF090600C742680E4906000E033
:1008C40054804465F090600C742780D490618A74DD
:1008D40001F0790280D374F7120350E9FE7800C363
:1008E400941B40047903804E740D29F5D975D902FF
:1008F400740B29F5D98C828D83E0F5D9A312093FB5
:1009040012093FA312094D12094DA3E0F5D975D977
:100914000275D90175D904740129F5D975D9FF80F7
:100924000EE8FCEA2CF582E43BF583E0F5D908E80F
:10093400C39E40ED79007F010203BC12094322E00B
:10094400F5D98C828D83A3A322120943A3A322C0C9
:1009540082C08375C300EA4B600BE5A28A828B8355
:10096400F0E5A3A3F0EC4D6003120996D083D08286
:100974000200EFC082C08375C311EA4B600BE5A28D
:100984008A828B83F0E5A3A3F0EC4D6003120996F1
:1009940080DAE5A48C828D83F0E5A5A3F0E5A68C2E
:1009A400828D83A3A3F08C828D83A3A3A3E4F0227E
:1009B400A2AFE433F8C2AFE9600343940243940165
:1009C400E594A2E250FAE8A2E092AF0200EFA2AFEF
:1009D400E433F8C2AFE960034394025394FEE59410
:1009E400A2E240FA80E074F7120350E9FEE5BE5437
:1009F400FC4EF5BEE9C3940240099061B1E0C2E047
:100A0400F080057904120139120460EEC3940240A7
:100A1400079061B1E0D2E0F079001201337F010266
:100A240003BC74F41203508A088B098C0A8D0BE5FD
:100A34009DA2E050FAE595900103F0E596A3F0E558
:100A440097A3F0A3E4F0900103780812021B90012D
:100A540005E0F597900104E0F596E5ADA2E050FAC3
:100A6400900103E0F5957F040203BCC2C7D2AD0236
:100A740000EFC2C7C2AD0200EF74F612035075084E
:100A84008075090078081204027C007D007A007BDE
:100A9400601201BD740212030079811201877991F9
:100AA40012018790618674E1020AAFF07F020203AB
:100AB400BCC082C0839061B1E0D2E0803AC082C001
:100AC40083E9F8906188E0F99061B1E06015E9A2EA
:100AD400E24010E8601FE5E170FC75E10BE591A2CE
:100AE400E650FAE0C2E0F0759100759B0090607FDB
:100AF400740FF079008001F0D083D0820200EFE51A
:100B0400E170FC89E10200EF740169700575C6C9E2
:100B14008006E9700353C680A8C6E59E6870FB0290
:100B240000EFC0088908E59E53080753C6F8E50896
:100B340033333354F8450842C6A8C6E59E6870FBB3
:100B44007900D0080200EFE9FAE59EA2E6400479B4
:100B5400018019E9700553C67F800874016A700327
:100B640043C680A8C6E59E6870FB79000200EFC00A
:100B740082C083851082851183E0F8A3E0F9E849F7
:100B840060128A828B83ECF0A3E824FF18E934FF17
:100B9400F94870F2D083D0820200EFC082C083751E
:100BA400BE807901120133790012013F79001201EC
:100BB40033D083D0820200EFC082C083120151126D
:0E0BC400014BD083D0820200EFD2AF0200EFCF
:04000005000000D720
:00000001FF
