:020000040000FA
:030000000200D724
:03002B000205BA11
:030053000205BDE6
:1000830002059C00000080FBE490010178D0790117
:100093008002F0A3D8FCD9FA7AD07B0190010778CB
:1000A300D279018015E493A3AD82AE838A828B83D8
:1000B300F0A3AA82AB838D828E83D8E9D9E77582B8
:1000C300B275831274001200E97582867583007419
:1000D300001200E975D0007581BF7510017511011B
:1000E300759F0002008BC09FF59FE473D09F22D0C1
:1000F30083D082C09FE493C0E0740193C0E0740294
:1001030093F59F2225643A2000256420000A004CC1
:10011300613A2025640A005478204F6B0A00547812
:10012300204E4F6B0A004C623A2025640A00496E48
:1001330069740A004F6B20004E4F6B20002A005455
:10014300696D656F75740A002D20005052462E4567
:100153004E4443415553453A2025640A00FFFFFFAF
:10016300FFE0FFFFFF2000000064000000320000FA
:1001730000E8030000C80000000000000030313236
:100183003334353637383941424344454600286EC7
:10019300756C6C20706F696E746572290030313232
:1001A3003334353637383961626364656600464CEB
:1001B3004F4154533F2077726F6E6720666F726DA5
:1001C300617474657220696E7374616C6C6564210B
:1001D300003F3F3F001200F2D90F001200F244101B
:1001E300001200F28A11001200F27F12001200F2D4
:1001F300DB17001200F2F517001200F21A180012B2
:1002030000F2E218001200F2F318001200F2C5180F
:10021300001200F20514001200F21D14001200F285
:100223002614001200F22F15001200F29F1500127F
:1002330000F21816001200F25016001200F25C16BB
:10024300001200F29E16001200F2A716001200F22E
:100253004817001200F28417001200F2CD170012A3
:1002630000F2D417001200F2B116001200F2D516F4
:10027300001200F21217001200F23017001200F2FF
:10028300ED05001200F29918001200F24218001254
:1002930000F2521800000022C008C3E096F50808D7
:1002A300A3E096420808A3E096420808A3E096421A
:1002B30008A2D265D033E5087001D3D00822E4CF79
:1002C300C0E0E4CEC0E0E4CDC0E0E4CCC0E075F033
:1002D30020E626F608E633F608E633F608E633F6B4
:1002E300181818EC33FCED33FDEE33FEEF33FFC388
:1002F300EC9709ED9709EE9709EF97191919400F34
:10030300FFEC97FC09ED97FD09EE97FE191906D549
:10031300F0BFECF709EDF709EEF709EFF719191933
:10032300D0E0FCD0E0FDD0E0FED0E0FF22E4C396B5
:10033300F608E496F608E496F608E496F6227009C1
:10034300080808226016181818C6C333C608C6332F
:10035300C608C633C608C633C6D5E0EA22E026F689
:1003630008A3E036F608A3E036F608A3E036F62243
:10037300E026F008A3E036F008A3E036F008A3E097
:1003830036F022C3E697F60809E697F60809E697DA
:10039300F60809E697F622C3E096F008A3E096F084
:1003A30008A3E096F008A3E096F022E0F608A3E0A5
:1003B300F608A3E0F608A3E0F622E6F008A3E6F0C9
:1003C30008A3E6F008A3E6F022E0FAA3E0FBA3E02B
:1003D300FCA3E0FD22E0FCA3E0FDA3E0FEA3E0FF1D
:1003E30022ECF0A3EDF0A3EEF0A3EFF022CAC0E0FD
:1003F300E6F0A308DAFAD0E0FA22B90010BB00084D
:10040300E88AF084F8AAF022E4FBC8FA22EB70220F
:100413007B10C833C8C933C9335007C39AC3DBF24F
:1004230080069A50012ADBEAC833F4C8C933F4C9F9
:10043300FA2275F008E4C833C8C933C933C99AC965
:100443009B5004C92AC93BD5F0ECFBC833F4C8E47C
:10045300C9FA22700422600D18C6C333C608C63316
:10046300C6D5E0F41822251010AF08F510400C157E
:10047300118008F51040021511D2AF2200C0D0251B
:100483001010AF08F510500C05118008F51050023C
:100493000511D2AFD0D0222510F58210AF08F51088
:1004A300400C15118008F51040021511D2AF8511CB
:1004B30083222510F582E43511F583222510F8E413
:1004C3003511F9222510FAE43511FB222510FCE43D
:1004D3003511FD22E4732510C582C0E0E51134FF18
:1004E300C583C0E0E510C3958224F810AF08858367
:1004F300118582108008858311858210D2AFCEF0DA
:10050300A3E520F0A37808E608F0A3DEFAEFF0A352
:10051300E58124FAF8E608F0A3E608F0A3E608F07C
:10052300A30808E608F0A3E608F0A315811581D017
:10053300E0FED0E0F8158115811581E8C0E0EEC03A
:10054300E022851183851082E0A3FEE0A3F52078E5
:1005530008E0A3F608DFFAE0A3FFE0A3C0E0E0A30E
:10056300C0E0E0A3C0E0E0A3C0E0E0A3C0E010AFC0
:10057300088582108583118008858210858311D2B6
:10058300AFD083D0820200EF74028000C0E0F40495
:1005930012049AD0E01203F022C0E0C0D0C082C09F
:1005A30083E5919001CAF0759B00E0F4F591D08347
:1005B300D082D0D0D0E032C2C732C0E0C0D0E8C0D1
:1005C300E0C082C083A8A1E8A2E450069001CF74E2
:1005D30001F0E8F4F5A1C2C2D083D082D0E0F8D014
:1005E300D0D0E03200758701002274F01204D97470
:1005F300B3120469851082851183EAF0A3EBF074CA
:100603000F1204B5ECF0A3EDF0740B1204B5E4F093
:10061300A3801B745D1204B5120ED4740F1204B5BB
:10062300120EE41204D7740B1204B5120F6EF012FB
:100633000EF1F9851082851183E02401FAA3E034D9
:1006430000FB851082851183EAF0A3EBF074256922
:100653006015E970BE740B1204B5120ED4744D12FA
:10066300047F7F08020545120EF164257019851079
:1006730082851183E0240108120F77745D1204B59B
:10068300120ED479258094740E1204B5E4F0740D1F
:100693001204B5E4F074081204B5E4F0740712040C
:1006A300B5E4F0741B1204BF74021204B5120F8276
:1006B30074191204B57449F0A374028019740712F3
:1006C30004B5E0700774071204B5EAF0851082855B
:1006D3001183E8F0A3E9F0120F42FAA3E0F5838A4D
:1006E30082E0FA24E060D624FD601724F860D62463
:1006F300FE600624FD600F801174081204B5E00447
:1007030080C9740D80F5740E80F185108285118384
:10071300120ECBE0642A7044745F1204B5120ECB40
:10072300120ED4EAFCEBFD8A82F583120ED4EC247C
:1007330002FC50010D745F1204B5120F17C3EB12C4
:100743000E9C5013C3E49AFCE49BFDECFAEDFB749E
:10075300081204B5E004F0120F7C803C7A007B00A1
:10076300802AEA75F00AA4FAA9F075F00AEBA42925
:10077300FBEA28F8E43BF9E824D0FAE934FFFB85E7
:100783001082851183E02401F8120F77120EF1F81D
:1007930074D028C3940A40CA74081204B5E06007F1
:1007A300740E1204B5E4F0120EF1642E6003020815
:1007B3003E851082851183120EC1851082851183B7
:1007C300E8F0A3E9120FA7642A702E745F1204B530
:1007D300120F05F98882F583120EBB74041204B557
:1007E300ECF0A3EDF0E82402F8500109745F120461
:1007F300B5120F4E120FAE804B74041204B5E4F021
:10080300A3120FA7FC74D02CC3940A50387404129B
:1008130004B5120EB475F00AA4F8ADF075F00AE948
:10082300A42DF9E82CF8E439F9E824D0F8E934FFE9
:10083300F974041204B5120FAE80C674041204B521
:1008430074FFF0A3F07C00120F42FDA3E0F5838D4B
:1008530082E024B4600824E4600624FC70057C0173
:10086300120F7C120EF1C0E074061204B5D0E01230
:100873000FB2F074061204B5E07003020D3F24BBFF
:100883007003020D0A24FE7003020D0A24EF7003A5
:10089300020A6024F5700302093F147003020B017E
:1008A300147003020D0A147003020D0A147003027C
:1008B3000D0A24FE7003020B0124FB602414700351
:1008C300020A36147003020A6024FD700302097FD2
:1008D30024FE7003020A6024FD7003020A54020D11
:1008E3004B745F1204B5120F5BE8FEE9FFE50824C1
:1008F30002F50850020509ECA2E0740B502712041C
:10090300B5120EAE3395E0FA8E828F83120F82A357
:10091300EAF0A3F0745F1204B5120EE4E508F0A345
:10092300E5090206311204B5120EAE8E828F8312D0
:100933000F82745F1204B5120ECB80E0745F120451
:10094300B5120F05F5838882E0C0E0741B1204B56D
:10095300D0E0F0745F1204B5120EF72402F8A3E09E
:100963003400F9745F1204B5120F4E120F82741C17
:100973001204B5A882A9837409020A2C745F1204B5
:10098300B5120F5BE5082402FCE43509FD745F1220
:1009930004B5120F1774021204B5120F82E84970DE
:1009A3000C74021204B5745AF0A37402F0740412A6
:1009B30004B5120F0C500C74041204B57410F0A398
:1009C3007427F07E007F0080050EEE70010F740225
:1009D3001204B5120EAE8882F583A3AC82AD837484
:1009E300021204B5ECF0A3EDF088828983E0601471
:1009F30074041204B5120EAEC3EE98EF99A2D26539
:100A0300D03340C574021204B5120F2574091204C1
:100A1300B5120F82C3E49EF8E49FF974091204B57A
:100A2300E028F8A3E039F974021204B5E8F0A3E969
:100A3300020D62740D1204B5E0601674041204B55D
:100A4300120EB449700B74041204B57401F0A3E4DC
:100A5300F074191204B57469F0A37402F0745F1290
:100A630004B5120F3374061204B5E0647070388550
:100A73000882850983120EBB74111204B5ECF0A32E
:100A8300ED120FA0E508120EA41204B5120F4E12B8
:100A93000F8274151204B57410120FA0A3F074071B
:100AA3001204B5E4020B76ECA2E0E5085016120E30
:100AB300891204B5120F881203D874111204B512E7
:100AC30003E48019120EA41204B5120F9BF8A3E0DD
:100AD300F974111204B5E8F0A3E9120FA074061219
:100AE30004B5E0646F700974151204B5740880A925
:100AF300E06475709D74151204B5740A809B745F6D
:100B03001204B5120F33ECA2E0E5085010120E895F
:100B13001204B5120F8878081203AE8016120EA4C1
:100B23001204B5120F9BF508A3E0F5093395E0F520
:100B33000AF50B74111204B578081203BD9002452F
:100B4300780812029B402174071204B5742DF074C7
:100B5300111204B578081203AE7808120330741129
:100B63001204B578081203BD74151204B5740A1281
:100B73000FA0A3F0744C1204B5A882A983740212C7
:100B830004B5120F8274091204B5120F8274111284
:100B930004B51203D8EC4D4E4F6004D2008010C24E
:100BA3000074041204B5120EB4497003020C797474
:100BB300021204B5120F2574021204B5120F8274C7
:100BC300111204B5780C1203AE74151204B578082B
:100BD3001203AE780C79081202C174191204B5E03D
:100BE3002508F8A3E035098882F583E0C0E07402A4
:100BF3001204B5120EE4D0E0F074111204B5780CAF
:100C03001203AE74151204B578081203AE780C798A
:100C1300081202C174111204B5780C1203BD7411C9
:100C23001204B51203D8EC4D4E4F708374041204B2
:100C3300B5120F0C5040740E1204B5E060387407FF
:100C43001204B5E06004D2F08002C2F0A2F0E433F3
:100C5300F8EA98F8EB9400F974041204B5E8F0A3E9
:100C6300E9801274021204B5120F8274021204B5E1
:100C7300120EE47430F074021204B5120F25744C92
:100C83001204B5C082C08374021204B5120EBBD025
:100C930083D082E582C39CFEE5839DFF7404120426
:100CA300B5120EBBC3EE9CEF9DA2D265D03340B309
:100CB300740D1204B5E07003020D63A20040030239
:100CC3000D6374061204B5E064786005E06458703F
:100CD30010E088828983F0E824FF18E934FFF98063
:100CE30012E0646F707A74021204B5120F4EE0645E
:100CF30030606D74021204B5120F8274021204B5CF
:100D0300120EE47430805874021204B5747AF0A39E
:100D13007402F074091204B5747AF0A37402F074C7
:100D2300091204B5120EF7603774091204B5120ED6
:100D3300C174091204B5E8F0A3E980E28510828545
:100D43001183120F2A120F7B74021204B5749DF0E3
:100D5300A37402F074091204B574A0F0A37402F032
:100D630074091204B5C082C08374021204B5120E52
:100D7300AED083D082E0C398F8A3E099F97404124B
:100D830004B5120F8274041204B5E0F8C3EA98EBB9
:100D930099A2D265D03350067E007F00802174076C
:100DA3001204B5E06004D2F08002C2F0EAC398F8FE
:100DB300EB99F9A2F0E433FAE89AFEE99400FF74A0
:100DC300081204B5E070208019745D1204B5120E88
:100DD300DA1204B5120EE41204D7740B1204B5121E
:100DE3000F69120E9350E274071204B5E060517458
:100DF3005D1204B5120ED474071204B5E0F9740F32
:100E03001204B5120EE41204D7802D745D1204B5DA
:100E1300120ED474021204B5120EF7F9740F1204F1
:100E2300B5120EE41204D774021204B5E0120FC710
:100E330074021204B5120F82740B1204B5120F69F7
:100E430074041204B5E024FFF0A3E034FFF074044B
:100E53001204B5120F0C50B374081204B5E07003FA
:100E6300020632120E935003020632745D1204B569
:100E7300120EDA1204B5120EE41204D7740B120424
:100E8300B5120F6980DD2404F8E43509F9745F2293
:100E9300EE24FF1EEF34FFFFC39400A2D265D033CC
:100EA300222402F8E43509F9745F22E0F8A3E0F99B
:100EB30022E0F8A3E0F9E822E0FCA3E0FD22E0242D
:100EC3000108A3E03400F922E0FAA3E0F5838A8263
:100ED30022E0FAA3E0FB22E0FAA3E0FB7920740FFF
:100EE30022120EE822E0F8A3E0F58388822285101F
:100EF30082851183120EFB22E0F8A3E0F58388823A
:100F0300E022120EFBF8A3E022C3A3E09400A2D2D6
:100F130065D03322E0FEA3E0F5838E82ECF0A3EDEF
:100F2300F022120F2AF922E024FFF8A3E034FF2273
:100F3300120F3722120EE8E0F508A3E0F509228527
:100F43001082851183E0120FBDE022120F5222E0BE
:100F5300FCA3E0F5838C8222120F37850882F58388
:100F6300E0F8A3E0F922120F6EF022E02401F0A3CF
:100F7300E0340022A3E03400F9851082851183E870
:100F8300F0A3E9F022120F8C22120F52E8F0A3E92A
:100F9300F085088285098322120F8CE022F0A3E4F6
:100FA300F0A3F022120FD0120EFC22E8F0A3E912F4
:100FB3000FD0120FBDE8F0A3E922120FC7851082EC
:100FC300851183222401F8A3E03400F922F085106F
:100FD30082851183E02274F51204D9890A9061C8CD
:100FE300E0FFE96015EFF508750900780812058B35
:100FF3007AD07B0112127912047F7E008032E5D908
:10100300F508750900EE25E0F8E433F9740228F5D4
:1010130082740139F583E508F0A3E4F0E50A600F73
:10102300780812058B7AD57B0112127912047F0E90
:10103300EEC39F40C97AD97B011202927F03020556
:101043004574F01204D974F41204698A088B098C6C
:101053000A8D0B74057808120341E97003021135F8
:1010630074081204CF74021204C712026E740412BD
:1010730004CFAA10AB1112026874081204B5780CDD
:101083001203AE74041204B5780C12039A8510820D
:10109300851183C082C08374021204B5E0F8A3E013
:1010A300F9D083D082C3E098A3E09985108285119B
:1010B300835035E02400F0A3E0347DF07402120481
:1010C300B5E0F8A3E0F9851082851183C3E098F0B9
:1010D300A3E099F0900229780C1203AE7404120471
:1010E300B5780C1203738008C3E098F0A3E099F07D
:1010F300851082851183E0F8A3E0F97AD17B03128E
:1011030003FD880C890DE4F50EF50F7808790C12B0
:10111300038674041204B5780C1203AE7405780CBC
:101123001203417808790C12038690022D78081275
:101133000360900231780812029B4007900101E49A
:10114300F0803A900235780812029B900101400426
:10115300740180027402F0AA08AB09AC0AAD0B1249
:101163000256790112027A12025C120208900101FE
:10117300E0F91202501202627901120274740C1225
:10118300047F7F0802054574F61204D974F512042E
:101193006974051204B5E4F074061204B57401F021
:1011A30074071204B57402F074081204B57403F0E2
:1011B30074091204B57404F0740A1204B57405F0CA
:1011C300851082851183740BF074011204B57416B3
:1011D300F074021204B57421F074031204B5742C74
:1011E300F074041204B57437F074051204CF790552
:1011F300AA10AB1112022C9061D01213EF12058BBF
:101203007ADB7B0112127912047FE5E170FC75E150
:1012130009E591A2E650FA90607FE070177AE37BCC
:101223000112126979009002391203CC1201DE1205
:1012330012A880077AEA7B011212699061D0E0F567
:1012430008780812058B7AF27B0112127912047F57
:1012530012021490607F740FF012021A740B1204BE
:101263007F7F020205451202921212702253F4FB91
:10127300D29243FE0422120292740222C082C083DD
:10128300790112023E1212A81202381201E4799176
:101293001202449001CAE4F090607F740FF0D0838F
:1012A300D0820200EF53F4FB53FEFB43F60422907B
:1012B30001CAE4F01213F81202021212A87AFA7B9E
:1012C30001120292790112023E12022079171202D0
:1012D300261202387A007B00750801750900EA7846
:1012E30008120456E508F4F852F352FD528F43F7FF
:1012F3002052F452FE52F643F7400AEA70010BC340
:101303009408EB9400A2D265D03340CC7A007B00E2
:10131300750801750900EA7808120456E508F452C5
:10132300F552FF52F743F7800AEA70010BC39405A5
:10133300EB9400A2D265D03340D6790090023D12DF
:1013430003CC1201DE12127079009002411203CC19
:101353001201DE1213F880397A147B021202929082
:10136300607F1213EF12058B7A177B021212791228
:10137300047F1213E0790090023D1203CC1201DEC8
:101383001201EA790090023D1203CC1201DE12131E
:10139300E012024AE591A2E650FA90607FE07029DC
:1013A300E591A2E050067A007B02800AE591A2E271
:1013B300500E7A047B0212029279011201D880B294
:1013C3007A097B0212029280A9E06401708A7A0B87
:1013D3007B0212029290607F740FF08095798112E4
:1013E300024475910090607F740FF022E0F5087558
:1013F300090078082253F4FB53FEFB53F6FB43F733
:101403004022C082C08390618AE0640170F8800347
:101413007401F0D083D0820200EFC082C083906158
:101423008A80ED74F61204D975088075090078086E
:1014330012058B7C007D007A007B601202867402A9
:1014430012047F120232759C7790618AE064017006
:10145300F8906001E054FC121521906003E0C2E0B3
:10146300F0E0C2E1F0E0C2E2F090618A7401F09032
:10147300618BE0640170F8906002E0543FF0E0C2D9
:10148300E0F0E0C2E1121521906018E0C2E2F0E062
:10149300D2E0F0E0C2E4F0A37412F09060047403AD
:1014A300F0906008E4F0A37455F0A3F0A3F090610A
:1014B3008B7401F09061877469F090618674F3F026
:1014C3009061BC7407F09062657413F09061A2742C
:1014D30010F09061807440F09061907404F0A374F4
:1014E30048F0A3E4F0A374A3F09061A57401F09015
:1014F3006194E4F0A374D6F0A374BEF0A37489F0EE
:10150300A3748EF09061E0E4F0A3745BF0A374061F
:10151300F0A3E4F09061E904F07F02020545F0E0F6
:10152300C2E2F0E0C2E3F0E054CFF022C082C08315
:10153300E9FA90618AE0640170F890618DE05403E8
:10154300600479048053E924E9600A24E8601024E4
:10155300CA601C802A906000E054804417802B905E
:101563006000E05480442FF090600C74268021903A
:101573006000E054804465F090600C74278011741F
:101583007F5AF8906000E0548048F090600C742516
:10159300F090618A7401F0790002141674F7120452
:1015A300D9E9FE7800C3941B40047903804E740D7F
:1015B30029F5D975D902740B29F5D98C828D83E06D
:1015C300F5D9A3121604121604A312161212161238
:1015D300A3E0F5D975D90275D90175D90474012928
:1015E300F5D975D9FF800EE8FCEA2CF582E43BF5CA
:1015F30083E0F5D908E8C39E40ED79007F01020539
:101603004512160822E0F5D98C828D83A3A32212FA
:101613001608A3A32274F61204D97508807509006D
:10162300780812058B7C007D007A007B60120286AD
:10163300740212047F798112024479911202449058
:10164300618674E102164AF07F02020545C082C03A
:10165300839061B1E0D2E0803AC082C083E9F89020
:101663006188E0F99061B1E06015E9A2E24010E819
:10167300601FE5E170FC75E10BE591A2E650FAE02D
:10168300C2E0F0759100759B0090607F740FF07954
:10169300008001F0D083D0820200EFE5E170FC8985
:1016A300E10200EFE5E170FC75E1080200EFC082A2
:1016B300C08375C300EA4B600BE5A28A828B83F07B
:1016C300E5A3A3F0EC4D60031216F4D083D082029D
:1016D30000EFC082C08375C311EA4B600BE5A28A99
:1016E300828B83F0E5A3A3F0EC4D60031216F48024
:1016F300DAE5A48C828D83F0E5A5A3F0E5A68C82C0
:101703008D83A3A3F08C828D83A3A3A3E4F022A2F1
:10171300AFE433F8C2AFE96003439402439401E5B5
:1017230094A2E250FAE8A2E092AF0200EFA2AFE483
:1017330033F8C2AFE960034394025394FEE594A2E5
:10174300E240FA80E074F71204D9E9FEE5BE54FCE6
:101753004EF5BEE9C3940240099061B1E0C2E0F0E6
:10176300800579041201F61205E8EEC394024007DE
:101773009061B1E0D2E0F079001201F07F0102053F
:101783004574F41204D98A088B098C0A8D0BE59DE4
:10179300A2E050FAE5959001CBF0E596A3F0E5972A
:1017A300A3F0A3E4F09001CB78081203739001CD6A
:1017B300E0F5979001CCE0F596E5ADA2E050FA9004
:1017C30001CBE0F5957F04020545C2C7D2AD020007
:1017D300EFC2C7C2AD0200EF740169700575C6C9D7
:1017E3008006E9700353C680A8C6E59E6870FB02B5
:1017F30000EFC0088908E59E53080753C6F8E508BB
:1018030033333354F8450842C6A8C6E59E6870FBD7
:101813007900D0080200EFE9FAE59EA2E6400479D8
:10182300018019E9700553C67F800874016A70034B
:1018330043C680A8C6E59E6870FB79000200EFEE00
:10184300C0E0E9FA7B00120298D0E0FE0200EF74D8
:10185300F61204D974FE120469740C1204BF8510C5
:1018630082851183E8F0A3E9F0A810A911880889FB
:1018730009780812058BE4F508F509780812058B39
:101883007C8C7D02120280740412047F74021204A1
:101893007F7F02020545C082C08385108285118344
:1018A300E0F8A3E0F9E84960128A828B83ECF0A3A5
:1018B300E824FF18E934FFF94870F2D083D082029C
:1018C30000EFC082C08375BE8079011201F07900F8
:1018D3001201FC79001201F0D083D0820200EFC024
:1018E30082C08312020E120208D083D0820200EF5C
:0518F300D2AF0200EF7E
:04000005000000D720
:00000001FF
