:020000040000FA
:030000000200D724
:03002B00020F9A27
:03004B00020F0C95
:03005300020F9DFC
:10008300020F7C00000080FBE4900101784D7902AF
:100093008002F0A3D8FCD9FA7A4D7B02900107784D
:1000A300A779018015E493A3AD82AE838A828B8303
:1000B300F0A3AA82AB838D828E83D8E9D9E77582B8
:1000C300D375834574001200E975828675830074C5
:1000D300001200E975D0007581BF7510017511011B
:1000E300759F0002008BC09FF59FE473D09F22D0C1
:1000F30083D082C09FE493C0E0740193C0E0740294
:1001030093F59F22496E69740A00FFFFFFFFE0FF2A
:10011300FFFF20000000640000000000003FE80330
:100123000000C80000000000000001000001000101
:100133000100010000000000803F000000340000C7
:100143000040303132333435363738394142434455
:10015300454600286E756C6C20706F696E7465720D
:1001630029003031323334353637383961626364CC
:10017300656600464C4F4154533F2077726F6E675C
:1001830020666F726D617474657220696E73746139
:100193006C6C656421003F3F3F00C503423F1A5129
:1001A300123FF304B53F0000803E1200F29A410073
:1001B3001200F25642001200F28242001200F2C212
:1001C30043001200F2D543001200F2E9430012008B
:1001D300F20C44001200F2DA54001200F2F454005C
:1001E3001200F21955001200F2A74D001200F20896
:1001F3004E001200F2974E001200F2A647001200C2
:10020300F20448001200F2524B001200F29F4B001E
:100213001200F28856001200F29956001200F26B97
:1002230056001200F2B54B001200F2BE4C00120051
:10023300F22E4D001200F2FD52001200F23553006F
:100243001200F24153001200F28353001200F28CA9
:1002530053001200F29653001200F2A05300120052
:10026300F24754001200F28354001200F2CC5400FF
:100273001200F2D354001200F2B053001200F2D471
:1002830053001200F21154001200F22F5400120016
:10029300F2E90F001200F2A710001200F27222001E
:1002A3001200F23E33001200F27035001200F21019
:1002B30052001200F2E750001200F228510012001F
:1002C300F24155001200F2AE37001200F2F9550068
:1002D3001200F23F56001200F2A255001200F2B2D1
:1002E30055001200F25B4F00000022A2E792D650A5
:1002F30002F40430F70663F0FF05F0B34003848093
:100303000384F40430D60563F0FF05F022C008C36C
:10031300E096F50808A3E096420808A3E096420891
:1003230008A3E0964208A2D265D033E5087001D352
:10033300D00822080808E630E711120B7012034EAA
:10034300080808C64480C618181822181818E9792E
:100353009EC608CAC608CBC608CCC6C37020799609
:10036300CACBCC7019798ECBCC70137986CC700E36
:10037300F9802ACA33CACB33CBCC33CC331930E719
:10038300F2CCCBCA3350147004EA30E00DE4CA3A1D
:10039300CACB3BCBCC3CCC500209C3E913C6CC1827
:1003A3002313C6CB18C6CA18C6F9221203EE20F0CF
:1003B3001430E72B74FFFCFBFA747F8022E4FCFB10
:1003C300FA7480801AB48008BC00F2BB00EF800F7F
:1003D30050EBF9E4C39AFAE49BFBE49CFCE499C672
:1003E300CC18C6CB18C6CA18C6F922E4C9C608CAAF
:1003F300C608CBC6D3330308CCC63392F0C3947F6D
:10040300402E94184019C9B90704CACBCC225025F1
:10041300C309CA33CACB33CBCC33CC33D9F422F49C
:10042300600DC9CCC313CB13CBCA13CAD9F6CC22E4
:10043300E4FCFBFA2214FCFBFA22E62618461846D3
:10044300184622E72719471947194722181818E6AB
:100453000846087009E626087005E633F4220822E8
:10046300191919E70947097009E727097005E733DF
:10047300F4220922E6084608C3134608336002E65D
:1004830033F422E7094709C3134709336002E7330B
:10049300F4221204776025120486602012043D7052
:1004A30003020446080808E76670101819E7667027
:1004B3000A1819E76670041819E76622F422120471
:1004C30077601C120486601712043D7007120446FD
:1004D3007001D322C0D01204467006D0D0B322C319
:1004E3002233D0D0501430E0F6C3E7960809E796DC
:1004F3000809E7960809E796B32220E0D5E69708AE
:1005030009E6970809E6970809E697B322120477E4
:10051300601B120486601612043D700712044660C5
:100523000CB322C0D01204467005D0D022C32233AC
:10053300D0D0501330E0EBC3E7960809E7960809DB
:10054300E7960809E7962220E0E4E6970809E6978C
:100553000809E6970809E6972200120477604F120C
:1005630004866012E7548066F612044F7011120479
:1005730046703B090909F4F618F618F618F6221224
:100583000463701512043D08080860EAE6447FF628
:1005930018768018E4F618F62212043D6016120449
:1005A300467012E4F608F608F608E65480F60909E0
:1005B3000918181822EAC0E0EBC0E0ECC0E0EDC077
:1005C300E0E687F0A4FBACF008E687F0A42CFCE49B
:1005D30035F0FA1809E687F0A42C4B60027401CABF
:1005E30035F0FCE433FB09E687F0D2F7A42CCB35D6
:1005F300F0FC1908E687F0A42BCC35F0FBE433FDBF
:100603000819E687F0D2E7A42C4ACB35F0CD3400A5
:10061300FC09E687F0D2E7A42DCC35F0FDE433FAEC
:100623000918E687F0D2F7A42CCD35F0CA3400FCC4
:1006330008E687F0D2E7D2F7A42ACC35F07A7E20F9
:10064300E70B0ACB33CBCD33CDCC33CC33CB3350C9
:10065300147004ED30E00ED2F1E4CD3DCDCC3CCCB2
:100663003B5005DA05C2F1EB547FC63308E63392FB
:10067300F0FBE73309E733C39A502D2B70190C0DA8
:100683004C4D70151806E608C333700D20F10AA20D
:10069300F013F6E418800B4024E4F630F002768081
:1006A30018F618F618F68024D33B14501074FFA2E2
:1006B300F013F6187680E418F618F6800FA2F013FC
:1006C300F618E63303F618ECF618EDF6D0E0FDD095
:1006D300E0FCD0E0FBD0E0FA22120486604612046C
:1006E30077603DE9687008F618F618F618F6227474
:1006F3008067F7120710090909748067F72212044B
:1007030077601D1204867005191919801A12044F97
:10071300701F120463C37003E66733191919400786
:100723001818182208080874FFF618F618F618F6B1
:10073300221204636017120446702192F012043DE2
:100743007019501720F014080808090909E7F6186A
:1007530019E7F61819E7F61819E7F62212043D60AF
:10076300E6E869701F0808E62480F608E436F61800
:10077300547FB47F0CE654806007F6E418F618F64D
:1007830022181822E9C6CC08C6CD08C6CE08C6CFA3
:10079300C0E0E8C0E0EAC0E0EBC0E009E9F809E73F
:1007A300FA09E7FBE6F918E6F8C3EC98ED99EE9A37
:1007B300EBC2E7F5F0EFC2E795F0500E600CEBCF1C
:1007C300FBEACEFAE9CDF9E8CCF8EAA2E7D2E7FAF8
:1007D300EB33FB13F5F0EEA2E7D2E7FEEF33FFC5F1
:1007E300F013A2E730E601B313C5F0C3C0E0C0F0D5
:1007F3007F00C39BFB605E9418600F401D14601A5A
:10080300D0E023F9D0E0F80208E28AF0E948600377
:10081300D2F0E4AFF0FAF9F8803BEB30E40D89F065
:10082300EA6003D2F0E4AFF0F9CAF8EB30E30D88E5
:10083300F0EF6002D2F0AFF0E4CAC9F8EB540760FE
:1008430014FBC3EA13FAE913F9E813F8EF135002A0
:10085300D2E0FFDBEDD0E0C0E030E739C3E49FFF37
:10086300F5F0EC98FC42F0ED99FD42F0EE9AFE4271
:10087300F0D0E0F9D0E0F8E5F0607AE923F9EE2072
:10088300E742D8028067C3EF33FFEC33FCED33FD5F
:10089300EE33FE80EAEC28FCED39FDEE3AFED0E0C3
:1008A30023F9D0E0F84002801BC3EE13FEED13FDE5
:1008B300EC13FCEF135002D2E0FF08B800067F7F71
:1008C30074FF802EEF3350178CF020F00260100C71
:1008D300BC000C0DBD00080EBE000408E860DFE993
:1008E30033E813FFEE2313FE4F4D4C8008E9548089
:1008F300FFE4FEFDFCEE33EF33F47004FCFD7E8079
:10090300D0E0FBD0E0FAD0E0F8D0E0CFC618CEC6F6
:1009130018CDC618CCC6F92212047770041818181B
:1009230022120486700D74FFF61819F61819F618BA
:1009330019F622E7548066F612043D700F1204463E
:1009430070F014F608F608F608F680D11204467023
:100953000CF608F608768008E6447F80EC120466FD
:10096300700C12045260BFE65480F6E480BB12049C
:1009730052700519191980A5E869700C763F18762D
:100983008018F618F6E8F922E6CDC0E018ECC0E0CE
:10099300E633CD33CDD313F6E719FCE7191933CC7E
:1009A30033C3947F400ECD9D502408E65480F6E473
:1009B30018F6800FF4043D14501408E6447FF6182B
:1009C3007680E418F618F6D0E0FCD0E0FD22CCD314
:1009D30013CCFD18E4C6CBC0E018E4C6CAC0E008D7
:1009E30008ED08C633E613F618E433C675F003C3FF
:1009F300CA97CA09CB97CB199C40047D08802EBDAA
:100A03000003020AC416B6FF050606081618C3CA71
:100A130033CACB33CB33CA27CA09CB37CB193CC331
:100A23007D08803E187D0820E75CC633C6CA33CAFA
:100A3300CB33CB33DDF1D5F0EB30E77BCA97CA0973
:100A4300CB974ACB199C406F4B7025E620E0218061
:100A530066187D08C3CA97CA09CB97CB199CD3C61E
:100A630033C6CA33CACB33CB3350C9DDE7D5F0E144
:100A7300D3E4C636C608C636C608C636C608C63662
:100A8300C61818188031C3CA97CA09CB97CB199CCB
:100A9300B34097C633C6CA33CACB33CB33DD34D561
:100AA300F02EC6A2E0C640C8CA27CA09CB37194AE6
:100AB30070BECB3CB480B90808E63308E633601F48
:100AC300181818D0E0FAD0E0FBD0E0FCD0E0FD220B
:100AD300187D08CA27CA09CB37CB193CD3808013AA
:100AE300F618E4B67F11F618B6FF0EF618C60470B2
:100AF300D20808768080CAF618F618F680C5E4CFC7
:100B0300C0E0E4CEC0E0E4CDC0E0E4CCC0E075F0EA
:100B130020E626F608E633F608E633F608E633F66B
:100B2300181818EC33FCED33FDEE33FEEF33FFC33F
:100B3300EC9709ED9709EE9709EF97191919400FEB
:100B4300FFEC97FC09ED97FD09EE97FE191906D501
:100B5300F0BFECF709EDF709EEF709EFF7191919EB
:100B6300D0E0FCD0E0FDD0E0FED0E0FF2218181862
:100B7300E4C396F608E496F608E496F608E496F6D7
:100B8300227009080808226016181818C6C333C64D
:100B930008C633C608C633C608C633C6D5E0EA223C
:100BA300E026F608A3E036F608A3E036F608A3E04D
:100BB30036F622E026F008A3E036F008A3E036F08C
:100BC30008A3E036F022C3E697F60809E697F6088D
:100BD30009E697F60809E697F622C3E096F008A31C
:100BE300E096F008A3E096F008A3E096F022E0F682
:100BF30008A3E0F608A3E0F608A3E0F622E6F0086F
:100C0300A3E6F008A3E6F008A3E6F022E0FAA3E0E7
:100C1300FBA3E0FCA3E0FD22EAF0A3EBF0A3ECF0DE
:100C2300A3EDF022E0FCA3E0FDA3E0FEA3E0FF229E
:100C3300ECF0A3EDF0A3EEF0A3EFF022E0F8A3E0D5
:100C4300F9A3E0FAA3E0FB22E8F0A3E9F0A3EAF0BA
:100C5300A3EBF022CAC0E0E6F0A308DAFAD0E0FA88
:100C630022CAC0E0E0A3C582CCC582C583CDC583BB
:100C7300F0A3C582CCC582C583CDC583DAE6D0E0B7
:100C8300CA22B90010BB0008E88AF084F8AAF0224F
:100C9300E4FBC8FA22EB70227B10C833C8C933C9FE
:100CA300335007C39AC3DBF280069A50012ADBEA6A
:100CB300C833F4C8C933F4C9FA2275F008E4C83359
:100CC300C8C933C933C99AC99B5004C92AC93BD57A
:100CD300F0ECFBC833F4C8E4C9FA22700422600DB7
:100CE30018C6C333C608C633C6D5E0F41822251088
:100CF30010AF08F510400C15118008F510400215CF
:100D030011D2AF2200C0D0251010AF08F510500C3F
:100D130005118008F51050020511D2AFD0D022255D
:100D230010F58210AF08F510400C15118008F5106E
:100D330040021511D2AF851183222510F582E435C7
:100D430011F583222510F8E43511F9222510FAE470
:100D53003511FB222510FCE43511FD22E473251027
:100D6300C582C0E0E51134FFC583C0E0E510C3953B
:100D73008224F810AF08858311858210800885834B
:100D830011858210D2AFCEF0A3E520F0A37808E658
:100D930008F0A3DEFAEFF0A3E58124FAF8E608F001
:100DA300A3E608F0A3E608F0A30808E608F0A3E624
:100DB30008F0A315811581D0E0FED0E0F815811568
:100DC300811581E8C0E0EEC0E022851183851082A1
:100DD300E0A3FEE0A3F5207808E0A3F608DFFAE03D
:100DE300A3FFE0A3C0E0E0A3C0E0E0A3C0E0E0A372
:100DF300C0E0E0A3C0E010AF0885821085831180B6
:100E030008858210858311D2AFD083D0820200EF90
:100E1300C0D02510C582C0E0E51134FFC583C0E012
:100E2300E510C3958224F310AF08858311858210E2
:100E33008008858311858210D2AFC8F0A3E9F0A39F
:100E4300EAF0A3EBF0A37908E709F0A3D8FAECF0F2
:100E5300A3EDF0A3EEF0A3EFF0A3D0E0F0A3D0E076
:100E6300F0A3D0E0F0A3E520F0A3E5F0F0A3228502
:100E73001183851082E0C0E0A3E0F9A3E0FAA3E0C8
:100E8300FBA37808E0F608A3DFFAE0FCA3E0FDA3E8
:100E9300E0FEA3E0FFA3E0C0E0A3E0C0E0A3E0F531
:100EA300D0A3E0F520A3E0A3F5F010AF08858311EC
:100EB3008582108008858311858210D2AFD082D0BD
:100EC30083D0E0F8D0E03274028000C0E0F4041272
:100ED3000D22D0E0120C57227404800474028000A7
:100EE300CCC0E0EDC0E0E510C39CCCAD1150011DBA
:100EF30010AF068C108D1180068C108D11D2AF129D
:100F03000C64D0E0FDD0E0FC22C0E074F2120E13BA
:100F1300900103E02401F0A3E03400F0900103C347
:100F2300E094E8A3E094034049900105E070047461
:100F3300018001E4F0E0F91201BF900103E4F0A3A2
:100F4300F0900107F0900108E004F0900243E0F80C
:100F5300900108E0C3984007E4F090010604F0E52F
:100F6300E1600F7901120249900101E0A2E650F815
:100F7300E4F0C2C17F01020E72C0E0C0D0C082C0E3
:100F830083E591900101F0759B00E0F4F591D08326
:100F9300D082D0D0D0E032C2C732C0E0C0D0E8C0E7
:100FA300E0C082C083A8A1E8A2E45006900248747E
:100FB30001F0E8F4F5A1C2C2D083D082D0E0F8D02A
:100FC300D0D0E0320075870100221231B58882F556
:100FD3008322120FD922E0F508A3E0F50922F08558
:100FE30010828511832274F0120D618C088D0974AF
:100FF30010120D3DE0FEA3E0FF7416120D3DE0F567
:101003000AA3E0F50B7418120D3DE0F50EA3E0F50D
:101013000F850E0CF50D780C120ECA7416120D3DC9
:10102300120EDF780A120ECA7418120D3D120EDF6B
:101033008E0C8F0D780C120ECA120297740A120DC1
:1010430007780E120ECA7416120D3D120EDF780ABF
:10105300120ECA7418120D3D120EDFEEFCEFFDAA3C
:1010630008AB0912029D7408120D07C3EB1221A7E6
:1010730050067AFF7BFF8029780A120ECA74141275
:101083000D3D120EDF7418120D3D120EDFEEFCEF54
:10109300FDAA08AB091202A37406120D077A007B9E
:1010A300000231B074F0120D6174C8120CF17414A3
:1010B300120D3D1232BE7414120D3DE0F50A744850
:1010C300120D3D120FD5E50A8508F0A4C50AA8F054
:1010D3008509F0A428F88508F0EDA428F50B74021F
:1010E300780A120CDE780A120ECAEAFCEBFD744C85
:1010F300120D3D1221C11202CD7402120D07744E5E
:10110300120D3D1232CC741A120D3D122218120D1B
:101113003D1232CF7406120D3DE4F0A3F0744A126F
:101123000D3D123784120D3D1237A8120D3D740187
:10113300F0A3E4F07448120D3D123249742C120DE1
:101143003D122224120D3D1232A3120CDE740C1236
:101153000D3D1232B780698A088B09740278081230
:101163000CDE7404120D3D122153120D3D12330E89
:10117300120D3D1221FA120BF17420120D3D780865
:10118300120BF1780C790812055C740A120D3D12EA
:1011930021FA120C000AEA70010B7448120D3D1279
:1011A300220040B37410120D3D123784120D3D120C
:1011B3003799120D3D1237907408120D3D1232E229
:1011C300F07406120D3DC082C0837448120D3D12A7
:1011D30031CCD083D0821231F340030219E8740674
:1011E300120D3D1232A3120CDE7412120D3D123396
:1011F300367420120D3D7808120BF1741A120D3D4E
:10120300780C120BF17808790C12055C7412120D2C
:101213003D12215F120D3D1221B5120C007406120E
:101223000D3D1231C7122241120D3D12378A120DA4
:101233003D1232F27420120D3D1232C4804B120D56
:101243003D7808120BF17406120D3D123272120C26
:10125300DE7402120D3D12327E120BF1E50FC2E76E
:10126300F50F7808790C1207017420120D3D7808E8
:10127300120C00122266120D3D12378A120D3D1216
:1012830021C7120D3DE8F0A3E9120FE1C082C0832C
:101293007414120D3D1231CCD083D08212217C40C4
:1012A3009D120D3D7808120BF190027B780C120B06
:1012B300F17808790C1204C14003021597740612E1
:1012C3000D3D1231C7122241120D3D12378A120D04
:1012D3003D1232F27426120D3D1232C4806D120D8E
:1012E3003D12378A120D3D1221CD120BF1742012DB
:1012F3000D3D7808120BF1780C790812091B8A82CC
:101303008B83780C120C00850C08850D09850E0A59
:10131300850F0B780C790812055C7426120D3D7845
:1013230008120BF1780C79081207017426120D3D8F
:10133300780C120C00122266120D3D12378A120D20
:101343003D1221C7120D3DE8F0A3E9120FE1C0825F
:10135300C0837414120D3D1231CCD083D08212316C
:10136300F3741250030212E1120D3D123784120D71
:101373003D123266120D3D12330E120D3D1232B183
:10138300120BF190026F780C120BF17808790C12A2
:10139300051074265013120D3D120C0F1202E57442
:1013A3001A120D3D120C1B8011120D3D120C0F125F
:1013B3002142120D3D7808120C00740A120D3D12E1
:1013C300328A120C3F7430120D3D120C4B743012E2
:1013D3000D3D7808120BF1741A120D3D780C120BA7
:1013E300F17808790C12055C7426120D3D780C1205
:1013F3000BF17808790C1206DC7434120D3D780871
:10140300120C007430120D3D7808120BF1741A128D
:101413000D3D780C120BF17808790C1206DC740A76
:10142300120D3D1232B1120C007408120D3D12213F
:10143300F2807A741E120D3D12378A120D3D12325C
:1014430066120D3D12221E120D3D7808120BF17427
:1014530012120D3D12378A120D3D1221E1120BF1CA
:101463007808790C12055C740A120D3D1221FA12E8
:101473000BF17808790C120701740A120D3D123230
:10148300B1120C000AEA70010B740C120D3D1237F5
:101493008A120D3D123223F97402120D3D1232F2FB
:1014A3007414120D3D12220040891232DC120FE136
:1014B300C082C0837448120D3D1231CCD083D082D8
:1014C3001231F340030215977406120D3D1221C128
:1014D3007416120D3D1232CF7404120D3D12378A69
:1014E300120D3D12224E120CDE741E120D3D1232ED
:1014F300B7805E7412120D3D12378A120D3D122110
:1015030076120BF1741E120D3D12378A120D3D1225
:1015130021E1120BF17808790C12055C7416120D97
:101523003D780C120BF17808790C1207017416122E
:101533000D3D7808120C000AEA70010B740C120DB1
:101543003D12378A120D3D1221C7120D3DE8F0A35B
:10155300E9F07414120D3D12220040977416120D17
:101563003D7808120BF17434120D3D780C120BF117
:101573007808790C12091B7416120D3D7808120CA9
:10158300007406120D3D1221C17404120D3D123177
:10159300C702149A7406120D3D1231C7122241126A
:1015A3000D3D1231C7803A7412120D3D12378A1263
:1015B3000D3D1221CD120BF17420120D3D7808124E
:1015C3000BF1780C790812055C8A828B83780C12F4
:1015D3000C00122266120D3D12378A120D3D123293
:1015E30023F97402120D3D12222AC082C08374149F
:1015F300120D3D1231CCD083D0821231F340A87446
:101603001A120D3D7808120BF17420120D3D780C5F
:10161300120BF17808790C12055C7412120D3D124D
:1016230031CC744E120D3D1221B5120C00741A12F6
:101633000D3D122218120D3D122212120D3D1237CA
:1016430084120D3D1221AF120D3D123799120D3D3B
:10165300C082C0837414120D3D1231CCD083D0826A
:101663001231F340030211A77406120D3D1231CC5F
:10167300742C120D3DE0687003A3E069700302113E
:10168300A77408120D3D1221F28033120D3D780824
:10169300120BF112326C120CDE7404120D3D123275
:1016A3007E120BF1E50FC2E7F50F7808790C1207EC
:1016B300017420120D3D7808120C001232DC120F57
:1016C300E1C082C0837448120D3D1231CCD083D067
:1016D3008212217C40B5120D3D7808120BF1900265
:1016E3007B780C120BF17808790C1204C1400302C9
:1016F30011A77408120D3D1232EF7426120D3D121C
:1017030032C4806612329D120CDE7404120D3D1237
:10171300375AE8FAE9FB8882F583780C120BF174E7
:1017230020120D3D7808120BF1780C790812091B71
:101733008A828B83780C120C00850C08850D098531
:101743000E0A850F0B780C790812055C7426120DAE
:101753003D7808120BF1780C7908120701742612F0
:101763000D3D780C120C001232DC120FE1C082C066
:10177300837448120D3D1231CCD083D0821231F3E1
:1017830040827408120D3D1232A3120CDE7404124F
:101793000D3D122153120D3D12330E120D3D123227
:1017A300B1120BF190026F780C120BF17808790CDF
:1017B30012051074265013120D3D120C0F1202E580
:1017C300741A120D3D120C1B8011120D3D120C0FD9
:1017D300122142120D3D7808120C00740A120D3DBD
:1017E30012328A120C3F7430120D3D120C4B7430BE
:1017F300120D3D7808120BF1741A120D3D780C127C
:101803000BF17808790C12055C7426120D3D780CE7
:10181300120BF17808790C1206DC7434120D3D7842
:1018230008120C007430120D3D7808120BF1741A73
:10183300120D3D780C120BF17808790C1206DC744A
:101843000A120D3D1232B1120C007408120D3D1232
:1018530021C180428A088B0974027808120CDE7455
:1018630004120D3D1221BB120BF17434120D3D789D
:1018730008120BF1780C790812091B8A088B09747A
:10188300027808120CDE7450120D3D1221BB120CAB
:10189300000AEA70010B7448120D3D12220040B495
:1018A3007406120D3DC082C0837414120D3D1232B2
:1018B30049D083D0821231F340030219DD74081238
:1018C3000D3D1232EF7410120D3D1231C780788A2C
:1018D300088B0974027808120CDEAC08AD09740297
:1018E300120D3DE02CF8A3E03DF9740A120D3D12F0
:1018F300221E120D3D780C120BF17450120D3D1285
:101903002165120BF1780C790812055C740A120D2B
:101913003D1232B1120BF1780C7908120701740AE7
:10192300120D3D1221FA120C000AEA70010B7448E1
:10193300120D3D1222004097122266120D3D1237FE
:101943008A120D3D123223F97402120D3D12222A1E
:10195300C082C0837414120D3D1231CCD083D08267
:101963001231F350757408120D3D1221C174161211
:101973000D3D1232CF804E8A088B0974027808120B
:101983000CDEAC08AD097404120D3D12216B780C0A
:10199300120BF17402120D3D122165120BF1780C3A
:1019A300790812055C7416120D3D7808120BF17854
:1019B3000C79081207017416120D3D780C120C00F5
:1019C3000AEA70010B7448120D3D12220040A874FC
:1019D30008120D3D1221C10219317408120D3D1276
:1019E30021C102119D7448120D3DE024FEF508A3A8
:1019F300E034FFF5097448120D3DE0F50A8508F05F
:101A0300A4C50AA8F08509F0A428F88508F0E9A47C
:101A130028F50B7402780A120CDE744A120D3DE0AD
:101A2300250AF8A3E0350BF97404120D3D122224A4
:101A3300120D3DE0F50CA3E0F50D742C120D3DE005
:101A4300F50AA3E0F50BE50C850AF0A4C50CA8F094
:101A5300850BF0A428F8850AF0E50DA428F50D748C
:101A630002780C120CDE742E120D3DE50CF0A3E58A
:101A73000DF0742E120D3D1231CC744C120D3D122B
:101A830021AF120D3D1232F2740C120D3D12219A48
:101A9300120D3D12218E122234740C120D3D1221AF
:101AA3005F120D3D12218EF583120C3F741A120D35
:101AB3003D120C4B740C120D3D1231CCC3E498F85B
:101AC300E499F9742A120D3D1232F2742A120D3D73
:101AD300E0F87410120D3D1221AF120D3D1237992B
:101AE300120D3D123336742C120D3D122159120D75
:101AF3003DE8F0A3E9021B9F12329D120CDE741025
:101B0300120D3D12376F1232CF7424120D3D122184
:101B1300DB120D3D122260120D3D1221DB120D3D31
:101B2300122188120D3D12222AC082C083744812EA
:101B33000D3D1231CCD083D0821231F340BA7424DC
:101B4300120D3D12219A120D3D12325D1222347490
:101B530024120D3D12215F120D3D123253120C3F20
:101B6300741A120D3D120C4B7406120D3D12220B0A
:101B7300120D3D123784120D3D122182120D3D12BA
:101B830032F2742A120D3D12219A120D3D1221AF29
:101B9300120D3D1237A8120D3D123207F0740612D2
:101BA3000D3D1221A05003021DE2740C120D3D12D3
:101BB300219A120D3D12322E741E120D3D123799C9
:101BC300120D3D1232A3120CDE7424120D3D12339A
:101BD30036741A120D3D7808120BF190026F780CCF
:101BE300120BF17808790C1204957003021DCB7463
:101BF3001E120D3D1221DB120D3D1237A8120D3DB1
:101C030012375F806212329D120CDE7404120D3D96
:101C1300123297120BF17408120D3D123272120C2C
:101C2300DE7404120D3D12327E120BF17808790C2A
:101C330012091B741A120D3D780C120BF1780879F6
:101C43000C12091B7424120D3D1221DB120D3D12DF
:101C530021B5120C00122266120D3D1221DB120D6A
:101C63003D122188120D3D12222AC082C08374487E
:101C7300120D3D1231CCD083D0821231F3408674E1
:101C830008120D3D1221F280787412120D3D1221BB
:101C9300DB120D3D123266120D3D12221E120D3D56
:101CA3007808120BF17424120D3D1221DB120D3D45
:101CB3001221E1120BF17808790C12055C740A12F7
:101CC3000D3D1221FA120BF17808790C12070174F9
:101CD3000A120D3D1232B1120C000AEA70010B74A4
:101CE3000C120D3D1221DB120D3D123223F9740E3D
:101CF300120D3D122224120D3D122200408B12328E
:101D0300DC120FE1C082C0837448120D3D1231CC46
:101D1300D083D0821231F34003021DCB7416120D0F
:101D23003D1232CF7408120D3D1221C1741E120DE3
:101D33003D1221DB120D3D12224E120CDE741212E3
:101D43000D3D1232B780638A088B0974027808123A
:101D53000CDE7404120D3D123297120BF174121241
:101D63000D3D1221DB120D3D1221E1120BF178081A
:101D7300790C12055C7416120D3D780C120BF17878
:101D830008790C1207017416120D3D7808120C0025
:101D93000AEA70010B740C120D3D1221DB120D3D8A
:101DA300122188120D3DE8F0A3E9F07448120D3DAD
:101DB30012220040927408120D3D1221C1741E12AA
:101DC3000D3D1231C7021CF0741E120D3D1221DBB2
:101DD300120D3D1237A8120D3D12375F021B2974F5
:101DE3002E120D3D1231CC744A120D3D1221821276
:101DF3000D3D1232F2742C120D3D1231CC740612C9
:101E03000D3D122224120D3D122159807D741012B2
:101E13000D3D12378A120D3D122260120D3D12370D
:101E23008A120D3D123223F97402120D3D12222A39
:101E3300C082C0837414120D3D1231CCD083D08282
:101E43001231F340C87412120D3D1232B1120BF16C
:101E530090027F780C120BF17808790C1207017449
:101E630012120D3D1232B1120C007406120D3D1206
:101E73002159120D3D123799120D3D12220B120DED
:101E83003D123784120D3D122182120D3D123799F6
:101E9300120D3D1221A0500302213D7406120D3D87
:101EA3001232A3120CDE7410120D3D12333674106D
:101EB300120D3D1231CC744E120D3D123253120CE1
:101EC3003F741A120D3D120C4B7408120D3D122172
:101ED300F2801712329D120CDE7404120D3D12377C
:101EE3006F1232C4120FE11232E2120FE1C082C04C
:101EF300837448120D3D1231CCD083D0821231F35A
:101F030040D17410120D3D123784120D3D12322E42
:101F13007412120D3D1232F2741A120D3D7808122A
:101F23000BF190026F780C120BF17808790C120404
:101F33009570030221297408120D3D1221F2807A53
:101F4300740E120D3D12378A120D3D123266120DB8
:101F53003D12221E120D3D7808120BF17410120D62
:101F63003D12378A120D3D1221E1120BF1780879E7
:101F73000C12055C740A120D3D1221FA120BF17852
:101F830008790C120701740A120D3D1232B1120CBA
:101F9300000AEA70010B740C120D3D12378A120D00
:101FA3003D123223F97402120D3D1232F2741412EF
:101FB3000D3D12220040891232DC120FE1C082C0B3
:101FC300837448120D3D1231CCD083D0821231F389
:101FD30040030220BB7416120D3D122212120D3D56
:101FE300123784120D3D1221C7120D3D1237A8126C
:101FF3000D3D1221C112329D120CDE740E120D3DE5
:102003001232B7805E7410120D3D12378A120D3DE5
:10201300122176120BF1740E120D3D12378A120D36
:102023003D1221E1120BF17808790C12055C74164C
:10203300120D3D780C120BF17808790C120701741C
:1020430016120D3D7808120C000AEA70010B740C8D
:10205300120D3D12378A120D3D1221C7120D3DE8B4
:10206300F0A3E9F07414120D3D1222004097741688
:10207300120D3D7808120BF17412120D3D1221FA64
:10208300120BF17808790C12091B741A120D3D78A2
:102093000C120BF17808790C12091B7416120D3D02
:1020A3007808120C007406120D3D1221C17404123B
:1020B3000D3D1231C7021FA77406120D3D1231C721
:1020C300122241120D3D1231C7F97402120D3D1255
:1020D300222AC082C0837414120D3D1231CCD083E6
:1020E300D0821231F34003021E487410120D3D12C8
:1020F300378A120D3D1221CD120BF1741A120D3DC8
:102103007808120BF1780C790812091B8A828B83E9
:10211300780C120C00122266120D3D12378A120D32
:102123003D12322380A37406120D3D1231C71222D1
:1021330041120D3D1231C7021E2A74380231AD120D
:1021430002E58A088B098C0AEDB2E7F50B741A22B3
:1021530012375A740A221231D07408221231D07401
:10216300502212216B780822E02CF8A3E03D8882EC
:10217300F583221221E77808221231F77420221204
:102183003232740422123232740E22123232E824B2
:10219300FCF582E934FF221231D0741022C3A3E08C
:1021A3001221A7229400A2D265D0332212323274B4
:1021B3001022123257780822123773780C22E0FA71
:1021C300A3E0FB22123232740222123232E8FAE91D
:1021D300FB8882F583780C221231D0740E221221EF
:1021E300E7780C22E028FCA3E0398C82F5832212E5
:1021F3003763E8F0A3E92212328E780C221231D031
:10220300C3EA98EB1232002212320BF0742A221224
:1022130032D3740C221232D37420221232F6741683
:10222300221232F67448221232F685108285118307
:1022330022F58312331BF022123763123227F985FA
:1022430010828511831232F6740422E8F0A3E91296
:102253003327F508A3E0F5097402780822123257F0
:102263001232D3851082851183123794740C227431
:10227300F0120D6174BC120CF1743E120D3DEAF0C4
:10228300A3EBF0742E120D3D1232BE7402120D3DFB
:10229300E4F0A3F0742A120D3D1232C4807E74025E
:1022A300120D3D1232A3120CDE7458120D3D123280
:1022B30097120BF1E50BC2E7F50B7402120D3D12F9
:1022C3003272120CDE745A120D3D12327E120BF171
:1022D300E50FC2E7F50F7808790C120701741412A1
:1022E3000D3D7808120C00742A120D3D7808120B6C
:1022F300F17414120D3D780C120BF17808790C125D
:10230300051050107414120D3D120C3F742A120D57
:102313003D120C4B7402120D3D1232E2F0740212A4
:102323000D3DC082C083742E120D3D1231CCD0837B
:10233300D0821231F350030222A1742A120D3D7888
:1023430008120BF1900283780C120BF17808790CC8
:1023530012055C7440120D3D7808120C00742E12A5
:102363000D3D1232497428120D3D1232F2742E12B1
:102373000D3D1232A3120CDE7432120D3D1232B730
:1023830080667436120D3D123243120D3D12322E09
:10239300E8FAE98882F5837808120BF1E50BB2E7D6
:1023A300F50B8A8289837808120C007408120D3D9C
:1023B300123330120D3D123243120D3D123223F906
:1023C3007426120D3D1237A8120D3DC082C08374CE
:1023D3002E120D3D1231CCD083D0821231F340A2A4
:1023E3007428120D3D123207F07428120D3D12218C
:1023F300A050030231A7743C120D3DE4F0A3F07426
:1024030028120D3D1232A3120CDE7436120D3D124A
:1024130033367436120D3D12323D120D3D12322EFB
:102423007434120D3D1232F27436120D3D123237EE
:10243300120D3D12322E7430120D3D1232F28037DE
:10244300743A120D3D12323D120D3D1232531232C7
:10245300CF7410120D3D120C3F7434120D3D123126
:10246300BE120C4B742A120D3D120C3F7430120D28
:102473003D1231BE120C4B7428120D3D1232EF7413
:1024830040120D3D7808120BF112326C120CDE74FF
:102493005A120D3D12327E120BF1E50FC2E7F50F12
:1024A3007808790C1204C150030227EC7440120D12
:1024B3003D7808120BF112326C120CDE7458120DB7
:1024C3003D1231B5F9E824FCF582E934FFF5837850
:1024D3000C120BF1E50FC2E7F50F7808790C120423
:1024E300C14010851082851183123207F0C3122177
:1024F300A7508C7420120D3D1232CF741C120D3D67
:10250300123314F8A3E0F97402120D3DE8F0A3E9C5
:1025130002265012329D120CDEEC2508F8ED350927
:10252300F9E824FCF8E934FFF97438120D3D12324E
:10253300F27438120D3D12328A120C3F7414120DCC
:102543003D120C4B740A120D3D1231D639F9742425
:10255300120D3D1232F27424120D3D12328A120C06
:102563003F7404120D3D120C4B7414120D3D780888
:10257300120BF17420120D3D780C120BF1780879CF
:102583000C12055CC008C009C00AC00B7404120D0C
:102593003D780C120BF1741C120D3D7808120BF1EF
:1025A300780C790812055CD00BD00AD009D00878D2
:1025B30008790C1207017438120D3D1232B1120C56
:1025C300007404120D3D7808120BF17420120D3DB6
:1025D300780C120BF17808790C12055CC008C0095D
:1025E300C00AC00B7414120D3D780C120BF1741C4D
:1025F300120D3D7808120BF1780C790812055CD0A6
:102603000BD00AD009D0087808790C1206DC7424A0
:10261300120D3D1232B1120C007408120D3D12332B
:1026230030120D3D1231DEFD7408120D3DC082C023
:1026330083743E120D3D1231CCD083D0821231F31C
:1026430050030225167402120D3D1232E2F0742873
:10265300120D3DC082C0837402120D3D1231CCD0E5
:1026630083D0821231F350030227EC7402120D3D22
:102673001232A3120CDE740A120D3D123336740AA1
:10268300120D3D12323D120D3DE028FAA3E039FB55
:102693008A82F583780C120BF1741C120D3D7808B5
:1026A300120BF17808790C12055C7410120D3D7849
:1026B30008120C007420120D3D7808120BF1780CEF
:1026C300790812055C8A828B83780C120C007440A3
:1026D300120D3D7808120BF17410120D3D780C1297
:1026E3000BF1E50FC2E7F50F7808790C1204C1501E
:1026F300030227EC740A120D3D123237120D3D12FC
:1027030031E7120C3F740C120D3D120C4B74101276
:102713000D3D7808120BF17410120D3D780C120B5D
:10272300F17808790C12055CC008C009C00AC00B17
:10273300740C120D3D780C120BF1740C120D3D78D4
:1027430008120BF1780C790812055CD00BD00AD073
:1027530009D0087808790C120701AA08AB09AC0A5A
:10276300AD0B1202E5EAF8EBF9ECFAEDFB74181283
:102773000D3D120C4B7418120D3D120C3F8E828FBF
:1027830083120C4B740C120D3D7808120BF1741864
:10279300120D3D780C120BF17808790C12091B7499
:1027A30020120D3D7808120C007410120D3D7808AC
:1027B300120BF17418120D3D780C120BF178087995
:1027C3000C12091BE50BB2E7F50B741C120D3D78D7
:1027D30008120C007408120D3DE4F0A3F0745412B7
:1027E3000D3DE0FCA3E002262A7430120D3D1232A7
:1027F3008A120C3F7404120D3D120C4B8510828516
:1028030011831231CC7428120D3DE0687003A3E0EC
:1028130069704D7404120D3D7808120BF190026F2C
:10282300780C120BF17808790C120510400302237F
:10283300E37404120D3D7808120BF1E50BB2E7F5D2
:102843000B7430120D3D1232B1120C007408120DCC
:102853003DE4F0A3F07456120D3D1231C70223C2BA
:10286300743C120D3DC3E0941E1221A140077AFF70
:102873007BFF0231AB743C120D3D1232E212225245
:10288300120CDE743A120D3D123336743A120D3DBA
:10289300123237120D3D123253120C3F742A120DAD
:1028A3003D120C4B7430120D3D123214120C3F7456
:1028B30014120D3D120C4B7434120D3D12321412CE
:1028C3000C3F740C120D3D120C4B7434120D3D125F
:1028D300328A120C3F7418120D3D120C4B741412F1
:1028E3000D3D7808120BF17404120D3D780C120B98
:1028F300F17808790C1206DCC008C009C00AC00BC5
:102903007414120D3D780C120BF17404120D3D7802
:1029130008120BF1780C7908120701D00BD00AD0FA
:1029230009D0087808790C12055CC008C009C00AF0
:10293300C00B740C120D3D7808120BF17418120DB4
:102943003D780C120BF17808790C1206DCC008C034
:1029530009C00AC00B740C120D3D780C120BF174F4
:1029630018120D3D7808120BF1780C790812070143
:10297300D00BD00AD009D0087808790C12055CD0A6
:102983000FD00ED00DD00C780C7908120701C00CB3
:10299300C00DC00EC00F7418120D3D7808120BF154
:1029A300900287780C120BF17808790C12055C748D
:1029B30014120D3D780C120BF17808790C12055C9A
:1029C300D00FD00ED00DD00C780C790812091B74DF
:1029D30010120D3D780C120C007410120D3D780886
:1029E300120BF17410120D3D780C120BF17808796B
:1029F3000C12055C90027F780C120BF17808790CAD
:102A0300120701AA08AB09AC0AAD0B1202E5740C5C
:102A1300120D3D120C1B7410120D3D7808120BF1B0
:102A230090026F780C120BF17808790C1205105094
:102A33001A740C120D3D7808120BF1E50BB2E7F591
:102A43000B740C120D3D7808120C00742A120D3D04
:102A53007808120BF17404120D3D780C120BF17807
:102A630008790C1206DCC008C009C00AC00B742A1E
:102A7300120D3D780C120BF17404120D3D780812FF
:102A83000BF1780C7908120701D00BD00AD009D0CA
:102A9300087808790C12055CC008C009C00AC00B8D
:102AA3007414120D3D7808120BF1C008C009C00A56
:102AB300C00B7410120D3D780C120BF1740C120D37
:102AC3003D7808120BF1780C7908120701D00BD06E
:102AD3000AD009D0087808790C12091B7418120D52
:102AE3003D780C120BF17808790C1206DC7418127D
:102AF3000D3D780C120BF17808790C12055CD00FA0
:102B0300D00ED00DD00C780C7908120701742A125C
:102B13000D3D7808120BF1780C790812091B74101B
:102B2300120D3D780C120C007420120D3D1222364A
:102B3300741C120D3D1233142401F8A3E03400F980
:102B43007402120D3DE8F0A3E9022C667424120D01
:102B53003D1231D61232FCF8A3E034FFF9740A12A5
:102B63000D3D12330E120D3D12328A120C3F7414B6
:102B7300120D3D120C4B123284120C3F7404120DD1
:102B83003D120C4B7420120D3D7808120BF1741496
:102B9300120D3D780C120BF17808790C12055CC00C
:102BA30008C009C00AC00B741C120D3D780C120B2F
:102BB300F17404120D3D7808120BF1780C790812A8
:102BC300055CD00BD00AD009D0087808790C12071D
:102BD30001740A120D3D1232B1120C007420120D51
:102BE3003D7808120BF17404120D3D780C120BF1B1
:102BF3007808790C12055CC008C009C00AC00B74C0
:102C03001C120D3D780C120BF17414120D3D780853
:102C1300120BF1780C790812055CD00BD00AD0099D
:102C2300D0087808790C1206DC1232AB120C00744F
:102C330008120D3D123330120D3D1231DEFD7408C2
:102C4300120D3DC082C083743E120D3D1231CCD0B3
:102C530083D0821231F35003022B4F7402120D3DC5
:102C63001232E2F07428120D3DC082C08374021246
:102C73000D3D1231CCD083D0821231F350030224A4
:102C8300437402120D3D1232A3120CDE7424120D92
:102C93003D1233367424120D3D12323D120D3D1296
:102CA30031E7120C3F740C120D3D120C4B742412BD
:102CB3000D3D123237120D3D123266120D3D1233A5
:102CC3000E120D3D12328A120C3F7414120D3D1276
:102CD3000C4B741C120D3D780C120BF1740C120D7D
:102CE3003D7808120BF1780C790812055C74181200
:102CF3000D3D780C120C00740C120D3D780C120B68
:102D0300F17420120D3D7808120BF1780C7908123A
:102D1300055C740C120D3D780C120C007410120D2E
:102D23003D7808120BF17410120D3D780C120BF163
:102D33007808790C12055CC008C009C00AC00B747E
:102D430018120D3D780C120BF17418120D3D780812
:102D5300120BF1780C790812055CD00BD00AD0095C
:102D6300D0087808790C120701AA08AB09AC0AADA0
:102D73000B1202E57404120D3D120C1B7404120DA8
:102D83003D120C3FEE24FCF582EF34FFF583120C69
:102D93004B7410120D3D7808120BF17404120D3DA3
:102DA300780C120BF17808790C12091B7420120DA0
:102DB3003D7808120C007418120D3D7808120BF1BF
:102DC3007404120D3D780C120BF17808790C12097A
:102DD3001B741C120D3D7808120C00742A120D3D51
:102DE3007808120BF17420120D3D780C120BF17858
:102DF30008790C12055CC008C009C00AC00B740C2A
:102E0300120D3D780C120BF1741C120D3D78081253
:102E13000BF1780C790812055CD00BD00AD009D0DD
:102E2300087808790C1207017410120D3D78081206
:102E33000C00740C120D3D7808120BF17420120D66
:102E43003D780C120BF17808790C12055CC008C0B0
:102E530009C00AC00B742A120D3D780C120BF174D1
:102E63001C120D3D7808120BF1780C790812055CE1
:102E7300D00BD00AD009D0087808790C1206DC747C
:102E83000C120D3D7808120C007414120D3D7808D5
:102E9300120BF1741C120D3D780C120BF1780879AA
:102EA3000C12055C7418120D3D7808120C00741492
:102EB300120D3D7808120BF17420120D3D780C129F
:102EC3000BF17808790C12055C7414120D3D780827
:102ED300120C007408120D3DE4F0A3F07456120DA9
:102EE3003D1231C7022FDD7424120D3D12324312FD
:102EF3000D3DE028F8A3E01232FCFCA3E034FFFD13
:102F03008C82F583120C3F742A120D3D120C4B1266
:102F13003284120C3F7404120D3D120C4B742A12AE
:102F23000D3D7808120BF17420120D3D780C120B35
:102F3300F17808790C12055CC008C009C00AC00BFF
:102F43007404120D3D780C120BF1741C120D3D78B4
:102F530008120BF1780C790812055CD00BD00AD05B
:102F630009D0087808790C1207018C828D837808C0
:102F7300120C007404120D3D7808120BF174201228
:102F83000D3D780C120BF17808790C12055CC00822
:102F9300C009C00AC00B742A120D3D780C120BF144
:102FA300741C120D3D7808120BF1780C7908120588
:102FB3005CD00BD00AD009D0087808790C1206DC53
:102FC3001232AB120C007408120D3D123330120D85
:102FD3003D123243120D3D123223F97426120D3D78
:102FE3001237A8120D3DC082C083742E120D3D12FC
:102FF30031CCD083D0821231F35003022EEA741005
:10300300120D3D7808120BF17410120D3D780C125D
:103013000BF17808790C12055CC008C009C00AC01E
:103023000B7418120D3D780C120BF17418120D3D30
:103033007808120BF1780C790812055CD00BD00AD2
:10304300D009D0087808790C120701AA08AB09AC9B
:103053000AAD0B1202E57404120D3D120C1B74042D
:10306300120D3D120C3F740A120D3DE0FCA3E0CC9F
:1030730024FCF582EC34FFF583120C4B7404120D1F
:103083003D7808120BF190026F780C120BF178085F
:10309300790C120495604A7410120D3D7808120BD6
:1030A300F17404120D3D780C120BF17808790C12AF
:1030B300091B7420120D3D7808120C007418120DB0
:1030C3003D7808120BF17404120D3D780C120BF1CC
:1030D3007808790C12091B741C120D3D7808120C28
:1030E300007420120D3D7808120BF1740C120D3D83
:1030F300780C120BF17808790C12055CC008C00932
:10310300C00AC00B741C120D3D780C120BF1741421
:10311300120D3D7808120BF1780C790812055CD07A
:103123000BD00AD009D0087808790C120701741063
:10313300120D3D7808120C007420120D3D78081210
:103143000BF17414120D3D780C120BF17808790C05
:1031530012055CC008C009C00AC00B741C120D3DE7
:10316300780C120BF1740C120D3D7808120BF178E8
:103173000C790812055CD00BD00AD009D008780866
:10318300790C1206DC742A120D3D7808120C0074B7
:1031930008120D3DE4F0A3F07454120D3DE0FCA3BE
:1031A300E0022C407A007B007444120D077F080272
:1031B3000DCDE0250CF8A3E0350D22E0FCA3E0F5EE
:1031C300838C8222E0F8A3E0221231D022E0F8A31C
:1031D300E0F9221231D0EC28F8ED221231D0EC289C
:1031E300FCED3922E028FEA3E039FF8E82F583222D
:1031F3001231F722C3E098A3E01232002299A2D23F
:1032030065D0332212320B22E024FFF0A3E034FF17
:1032130022E0F8A3E0C824FCF582E834FFF583221A
:1032230012322722E028F8A3E03922123232221286
:103233003227F9221231D07458221231D0745A2213
:103243001231D0742622E024FFF8A3E034FFF922E0
:103253001232572212325DF58322E028FAA3E039B5
:103263008A8222123232740A22851082851183E007
:10327300F50CA3E0F50D7402780C22120FCD780C37
:103283002285108285118312328E22E0F8A3E0F5A5
:1032930083888222123773780822851082851183EE
:1032A300120FD97402780822851082851183123295
:1032B3008E780822E508F0A3E50922ECF0A3EDF0EF
:1032C30022E4F0A3F0A3F0A32212328E1232D3220F
:1032D300E4F0A3F0A3F0A3F02285108285118312FA
:1032E30032E622E02401F0A3E03400221237631215
:1032F30032F622E8F0A3E9F02239F985108285112C
:1033030083E8F0A3E912332724FC221232F6740A6D
:103313002212331B12332722E4F0A3F0A37480F0AC
:10332300A3743F22F0851082851183E02212379423
:10333300743222E508F0A3E509F02274F0120D615E
:1033430074F4120CF1740A120D3DEAF0A3EBF0745D
:1033530006120D3D1232BE7402120D3DE4F0A3F0CD
:103363007406120D3D1232A3120CDE7404120D3DCD
:103373001232B780501232AB120BF1850C82850DDD
:1033830083120C3F851082851183E0FEA3E0F58351
:103393008E82120C4B850C82850D837808120C00EB
:1033A3000CEC70010D7404120D3D12223B120D3D05
:1033B3001235577406120D3D12356540B87402126A
:1033C3000D3D1232E2F07402120D3DC082C08374CF
:1033D30006120D3D123249D083D0821231F34003DD
:1033E3000235447402120D3DE0FEA3E0FF740212A5
:1033F3000D3DE02401FCA3E03400FD8033850C8205
:10340300850D83780C120BF18C088D0974027808F2
:10341300120CDE741C120D3D123297120BF1780C54
:1034230079081205105004ECFEEDFF0CEC70010D51
:103433008E088F0974027808120CDE741C120D3D7D
:10344300E02508F50CA3E03509F50D7406120D3DD2
:1034530012356540A87402120D3DE06E7003A3E0BF
:103463006F70030233C07402120D3D1232A3120CAB
:10347300DE7408120D3D1233367408120D3D1231FD
:10348300CC741C120D3DE028FCA3E039FD8C82F5C1
:10349300837808120BF1850C82850D83120C3F8C07
:1034A300828D83120C4B850C82850D837808120C58
:1034B300008E088F0974027808120CDE741E120D38
:1034C3003D12379F120D3D1231CC741E120D3D1269
:1034D3003549803F1232AB120BF1850C82850D8387
:1034E300120C3F851082851183E0C0E0A3E0F583D1
:1034F300D082120C4B850C82850D837808120C0048
:103503000CEC70010D7404120D3D12223B120D3DA3
:10351300123557740A120D3D12356540B78E088F68
:103523000974027808120CDE7420120D3D12379FC5
:10353300120D3D1231CC7420120D3D123549023368
:10354300B6740C0231ADE028F50CA3E039F50D7C1F
:10355300007D00221231D0E50C28F50CE50D39F57C
:103563000D221231D0C3EC98ED1232002274F01206
:103573000D6174EE120CF1740C120D3DEAF0A3EB25
:10358300F0740A120D3D1232BE742A120D3DE0FE94
:10359300A3E0FF740A120D3D1232B1120BF1900237
:1035A30083780C120BF17808790C12055C8E0CEF02
:1035B300F50D3395E0F50EF50F780C120336780808
:1035C300790C12055C7424120D3D780C120BF17802
:1035D3000C7908120510500A7424120D3D78081254
:1035E3000C007408120D3DE4F0A3F07422120D3D9B
:1035F300123784120D3D1232F2742C120D3D123724
:103603005F801E7408120D3D1237908E088F097467
:10361300027808120CDE7404120D3D123754120D99
:103623003D1237A8120D3DC3E09EA3E09FA2D265D1
:10363300D03340030237457406120D3DE4F0A3F086
:10364300740C120D3D12378A120D3D02371B8C0884
:103653008D0974027808120CDE740A120D3D1237BC
:103663006F120C3F740E120D3D120C4B7424120D8D
:103673003D780C120BF1740E120D3D7808120BF10C
:10368300780C790812051050528C088D0974027851
:1036930008120CDE7404120D3D123297120BF174F2
:1036A30002120D3D1221FA120BF17808790C120562
:1036B3005C740E120D3D780C120BF17808790C1224
:1036C300091B8510828511831221FA120BF17808E8
:1036D300790C1207011232AB120C000CEC70010DC5
:1036E3007402120D3D12374A7402120D3DE8F0A325
:1036F300E9F0C3EC9EED9FA2D265D03350030236AE
:10370300517406120D3D1237908510828511831274
:10371300374A851082851183123799120D3DC08275
:10372300C0837428120D3D1231CCD083D082123164
:10373300F340030236067C007D001232841232C449
:1037430080AF74120231ADE02404F8A3E03400F931
:103753002212375A74042212377BF922123763225A
:10376300E0F8A3E0F98510828511832212377322D2
:1037730012377B8882F58322E02508F8A3E0350918
:10378300221231D07404221231D0740222123794DF
:10379300221232E6F0221232F674062212375A85CA
:1037A30010828511831232F674082274F0120D61AF
:1037B30074B3120CF1851082851183EAF0A3EBF048
:1037C300740F120D3DECF0A3EDF0740B120D3DE4FC
:1037D300F0A3801B745D120D3D124095740F120D02
:1037E3003D1240A5120D5F740B120D3D12412FF0D7
:1037F3001240B2F9851082851183E02401FAA3E017
:103803003400FB851082851183EAF0A3EBF0742565
:10381300696015E970BE740B120D3D124095744D2D
:10382300120D077F08020DCD1240B2642570198571
:103833001082851183E0240108124138745D120D52
:103843003D12409579258094740E120D3DE4F07479
:103853000D120D3DE4F07408120D3DE4F0740712EF
:103863000D3DE4F0741B120D477402120D3D12411D
:10387300437419120D3D748BF0A3740280197407FD
:10388300120D3DE070077407120D3DEAF0851082BA
:10389300851183E8F0A3E9F0124103FAA3E0F5836D
:1038A3008A82E0FA24E060D624FD601724F860D60B
:1038B30024FE600624FD600F80117408120D3DE0A4
:1038C3000480C9740D80F5740E80F1851082851112
:1038D3008312408CE0642A7044745F120D3D1240E1
:1038E3008C124095EAFCEBFD8A82F583124095EC3D
:1038F3002402FC50010D745F120D3D1240D8C3EB3E
:1039030012405D5013C3E49AFCE49BFDECFAEDFB1B
:103913007408120D3DE004F012413D803C7A007BB7
:1039230000802AEA75F00AA4FAA9F075F00AEBA45C
:1039330029FBEA28F8E43BF9E824D0FAE934FFFB51
:10394300851082851183E02401F81241381240B2B8
:10395300F874D028C3940A40CA7408120D3DE0607D
:1039630007740E120D3DE4F01240B2642E600302A0
:1039730039FF85108285118312408285108285115B
:1039830083E8F0A3E9124168642A702E745F120D74
:103993003D1240C6F98882F58312407C7404120DEF
:1039A3003DECF0A3EDF0E82402F8500109745F1236
:1039B3000D3D12410F12416F804B7404120D3DE413
:1039C300F0A3124168FC74D02CC3940A50387404D9
:1039D300120D3D12407575F00AA4F8ADF075F00AAA
:1039E300E9A42DF9E82CF8E439F9E824D0F8E9340E
:1039F300FFF97404120D3D12416F80C67404120D59
:103A03003D74FFF0A3F07C00124103FDA3E0F583B6
:103A13008D82E024B4600824E4600624FC70057CF5
:103A23000112413D1240B2C0E07406120D3DD0E0D8
:103A3300124173F07406120D3DE07003023F00243F
:103A4300BB7003023ECB24FE7003023ECB24EF7017
:103A530003023C2124F57003023B00147003023C73
:103A6300C2147003023ECB147003023ECB147003E6
:103A7300023ECB24FE7003023CC224FB602414707C
:103A830003023BF7147003023C2124FD7003023B45
:103A93004024FE7003023C2124FD7003023C150206
:103AA3003F0C745F120D3D12411CE8FEE9FFE5086F
:103AB3002402F50850020509ECA2E0740B5027120A
:103AC3000D3D12406F3395E0FA8E828F831241438E
:103AD300A3EAF0A3F0745F120D3D1240A5E508F0D0
:103AE300A3E5090237F2120D3D12406F8E828F83D8
:103AF300124143745F120D3D12408C80E0745F12DB
:103B03000D3D1240C6F5838882E0C0E0741B120DA0
:103B13003DD0E0F0745F120D3D1240B82402F8A3CB
:103B2300E03400F9745F120D3D12410F12414374EA
:103B33001C120D3DA882A9837409023BED745F1228
:103B43000D3D12411CE5082402FCE43509FD745FB8
:103B5300120D3D1240D87402120D3D124143E84943
:103B6300700C7402120D3D749CF0A37402F0740483
:103B7300120D3D1240CD500C7404120D3D7410F023
:103B8300A37427F07E007F0080050EEE70010F7492
:103B930002120D3D12406F8882F583A3AC82AD8380
:103BA3007402120D3DECF0A3EDF088828983E0608E
:103BB300147404120D3D12406FC3EE98EF99A2D214
:103BC30065D03340C57402120D3D1240E6740912EC
:103BD3000D3D124143C3E49EF8E49FF97409120DAD
:103BE3003DE028F8A3E039F97402120D3DE8F0A393
:103BF300E9023F23740D120D3DE060167404120DAB
:103C03003D12407549700B7404120D3D7401F0A30D
:103C1300E4F07419120D3D74ABF0A37402F0745FF9
:103C2300120D3D1240F47406120D3DE064707038BD
:103C330085088285098312407C7411120D3DECF0D6
:103C4300A3ED124161E508124065120D3D12410FCB
:103C53001241437415120D3D7410124161A3F074A7
:103C630007120D3DE4023D37ECA2E0E508501612C1
:103C7300404A120D3D124149120C277411120D3D99
:103C8300120C338019124065120D3D12415CF8A3EA
:103C9300E0F97411120D3DE8F0A3E91241617406D5
:103CA300120D3DE0646F70097415120D3D740880A8
:103CB300A9E06475709D7415120D3D740A809B74A0
:103CC3005F120D3D1240F4ECA2E0E50850101240E3
:103CD3004A120D3D1241497808120BF18016124029
:103CE30065120D3D12415CF508A3E0F5093395E03B
:103CF300F50AF50B7411120D3D7808120C009002B1
:103D03006F780812031040217407120D3D742DF0D3
:103D13007411120D3D7808120BF17808120B7374AD
:103D230011120D3D7808120C007415120D3D740A22
:103D3300124161A3F0744C120D3DA882A983740251
:103D4300120D3D1241437409120D3D12414374118A
:103D5300120D3D120C27EC4D4E4F6004D200801023
:103D6300C2007404120D3D124075497003023E3ABD
:103D73007402120D3D1240E67402120D3D124143CE
:103D83007411120D3D780C120BF17415120D3D7860
:103D930008120BF1780C7908120B017419120D3DFE
:103DA300E02508F8A3E035098882F583E0C0E074D4
:103DB30002120D3D1240A5D0E0F07411120D3D78B2
:103DC3000C120BF17415120D3D7808120BF1780CDF
:103DD3007908120B017411120D3D780C120C00744A
:103DE30011120D3D120C27EC4D4E4F7083740412CB
:103DF3000D3D1240CD5040740E120D3DE0603874FD
:103E030007120D3DE06004D2F08002C2F0A2F0E49C
:103E130033F8EA98F8EB9400F97404120D3DE8F0D6
:103E2300A3E980127402120D3D1241437402120D74
:103E33003D1240A57430F07402120D3D1240E67439
:103E43004C120D3DC082C0837402120D3D12407CA2
:103E5300D083D082E582C39CFEE5839DFF74041268
:103E63000D3D12407CC3EE9CEF9DA2D265D0334042
:103E7300B3740D120D3DE07003023F24A200400312
:103E8300023F247406120D3DE064786005E0645837
:103E93007010E088828983F0E824FF18E934FFF981
:103EA3008012E0646F707A7402120D3D12410FE0CC
:103EB3006430606D7402120D3D1241437402120DA1
:103EC3003D1240A5743080587402120D3D74BCF04D
:103ED300A37402F07409120D3D74BCF0A37402F0D4
:103EE3007409120D3D1240B860377409120D3D126A
:103EF30040827409120D3DE8F0A3E980E285108247
:103F03008511831240EB12413C7402120D3D74DFA4
:103F1300F0A37402F07409120D3D74E2F0A374026D
:103F2300F07409120D3DC082C0837402120D3D125C
:103F3300406FD083D082E0C398F8A3E099F974046A
:103F4300120D3D1241437404120D3DE0F8C3EA988B
:103F5300EB99A2D265D03350067E007F0080217496
:103F630007120D3DE06004D2F08002C2F0EAC3986C
:103F7300F8EB99F9A2F0E433FAE89AFEE99400FF2A
:103F83007408120D3DE070208019745D120D3D120E
:103F9300409B120D3D1240A5120D5F740B120D3D97
:103FA30012412A12405450E27407120D3DE0605151
:103FB300745D120D3D1240957407120D3DE0F974C6
:103FC3000F120D3D1240A5120D5F802D745D120D71
:103FD3003D1240957402120D3D1240B8F9740F1250
:103FE3000D3D1240A5120D5F7402120D3DE012410A
:103FF300887402120D3D124143740B120D3D1241A0
:104003002A7404120D3DE024FFF0A3E034FFF074A2
:1040130004120D3D1240CD50B37408120D3DE070F3
:10402300030237F312405450030237F3745D120D49
:104033003D12409B120D3D1240A5120D5F740B12F1
:104043000D3D12412A80DD2404F8E43509F9745F3B
:1040530022EE24FF1EEF34FFFFC39400A2D265D0EB
:1040630033222402F8E43509F9745F22E0F8A3E06F
:10407300F922E0F8A3E0F9E822E0FCA3E0FD22E066
:10408300240108A3E03400F922E0FAA3E0F5838ACF
:104093008222E0FAA3E0FB22E0FAA3E0FB7920749A
:1040A3000F221240A922E0F8A3E0F583888222853B
:1040B30010828511831240BC22E0F8A3E0F58388C7
:1040C30082E0221240BCF8A3E022C3A3E09400A242
:1040D300D265D03322E0FEA3E0F5838E82ECF0A319
:1040E300EDF0221240EBF922E024FFF8A3E034FFC5
:1040F300221240F8221240A9E0F508A3E0F50922B4
:10410300851082851183E012417EE0221241132241
:10411300E0FCA3E0F5838C82221240F8850882F547
:1041230083E0F8A3E0F92212412FF022E02401F00A
:10413300A3E0340022A3E03400F9851082851183C3
:10414300E8F0A3E9F02212414D22124113E8F0A353
:10415300E9F08508828509832212414DE022F0A30C
:10416300E4F0A3F0221241911240BD22E8F0A3E94A
:1041730012419112417EE8F0A3E922124188851091
:1041830082851183222401F8A3E03400F922F0850B
:104193001082851183E022C082C08374CD120CF19A
:1041A3007422120D3D74AA7806F0A3D8FC74281269
:1041B3000D3DE4F0A3F0742A120D3DE4F0742B12CC
:1041C3000D3D1245CA742F120D3D1245CA741112CA
:1041D3000D3D74BB7806F0A3D8FC7417120D3D7423
:1041E30001F0A3E4F07419120D3DE4F0741A120DFA
:1041F3003D1245CA741E120D3D1245CA74CC85107A
:10420300828511837806F0A3D8FC7406120D3D74E1
:1042130002F0A3E4F07408120D3DE4F07409120DEA
:104223003D1245CA740D120D3D1245CA7422120D7A
:104233003D7C637D017411120C647411120D3D7485
:1042430011120C648510828511837411120C64742D
:10425300338022C082C083E490010F784BF0A3D84F
:10426300FC9001DF7864F0A3D8FC90015A7809F040
:10427300A3D8FC8003120D07D083D0820200EF7411
:10428300F0120D6174F4120CF18A088B098C0A8DFB
:104293000B74057808120B84E9700302436D7408EC
:1042A300120D577402120D4F12027F7404120D5730
:1042B300AA10AB111202797408120D3D780C120B7F
:1042C300F17404120D3D780C120BDD8510828511FB
:1042D30083C082C0837402120D3D1245C4D083D0C3
:1042E30082C3E098A3E0998510828511835033E05F
:1042F3002400F0A3E0347DF07402120D3D1245C496
:10430300851082851183C3E098F0A3E099F09002B1
:1043130053780C120BF17404120D3D780C120BB68A
:104323008008C3E098F0A3E099F08510828511839B
:104333001245C47AD17B03120C85880C890DE4F5F0
:104343000EF50F7808790C120BC97404120D3D7821
:104353000C120BF17405780C120B847808790C128B
:104363000BC99002577808120BA390025B780812CE
:1043730003104007900102E4F0803A90025F78084E
:104383001203109001024004740180027402F0AA27
:1043930008AB09AC0AAD0B120267790112028B124A
:1043A300026D120219900102E0F912026112027306
:1043B3007901120285740C120D077F08020DCDE9F5
:1043C30053F4FB6007D29243FE0480031247760244
:1043D30000EF53C6C775E40275E54475DA0075DB73
:1043E3007DD2B90200EFC082C083C3EC9401ED1209
:1043F300478E40128A828B83E4F0A3EC24FF1CEDEA
:1044030034FFFD4C70F202427B74F0120D6174F6BE
:10441300120CF17408120D3DEAF0A3EBF0741A12BA
:104423000D3DE06C7003A3E06D60030245AA7402C6
:10443300120D3DE4F0A380087402120D3D1245AF46
:10444300F07402120D3DC082C0837408120D3D1238
:1044530045C4D083D0821245B840030245AA8510D3
:1044630082851183E4F0A302457EEAF8EBF9E8754F
:10447300F019A4F8ACF075F019E9A42CF9851082B1
:10448300851183E024DFFCA3E03401FDEC28F582F1
:10449300ED39F583E0F50CE4F50DF50EF50F780C29
:1044A3001203518A088B0974027808120CDE740215
:1044B300120D3DE0F50AA3E0F50B7404780A120C23
:1044C300DE74BF250AF87401350BF9E82508F58277
:1044D300E93509F5837808120BF1780C7908120590
:1044E3005C7404120D3D7808120BF1780C790812F4
:1044F30007017404120D3D780C120C000AEA7001D6
:104503000B741A120D3D1245C4C3EA98EB99A2D25B
:1045130065D033500302446D7404120D3D780812C4
:104523000BF1900263780C120BF17808790C1207E7
:104533000178081203AEC008851082851183C082FA
:10454300C0837402120D3D1245C4E875F019A4F836
:10455300AAF075F019E9A42AF9740F28F87401393F
:10456300F9D083D082E028F8A3E0398882F583D09C
:10457300E0F08510828511831245AFF085108285A6
:104583001183C082C083741C120D3D1245C4D083B5
:10459300D0821245B8400302443B7404120D3D120D
:1045A30045CAFAFB024504740A0243BAE02401F047
:1045B300A3E0340022C3E098A3E099A2D265D033EC
:1045C30022E0F8A3E0F922E4F0A3F0A3F0A3F022A1
:1045D300900101E4F053F4FB12477612021353F4F3
:1045E300FB53FEFB43F6047A4D7B021202DF790193
:1045F300120243120225791712022B12023D7A008E
:104603007B00750801750900EA7808120CDEE508DD
:10461300F4F852F352FD528F43F72052F452FE52F4
:10462300F643F7400AEA70010BC3940812478D4022
:10463300D17A007B00750801750900EA7808120C2D
:10464300DEE508F452F552FF52F743F7800AEA70A9
:10465300010BC3940512478D40DB7900900267126A
:104663000C0F1201B979011201BF790090026B128C
:104673000C0F1201B979001201BF794012025B904D
:1046830002437404F01201AD7A197B001202BB8A53
:10469300088B0979FF1201EFAA08AB091202AF12C6
:1046A30001C502477012020D900106E060F77E001B
:1046B3007F00EEF8EFF9E828F8E933F9749728F565
:1046C3000C740139F50D745A2EF58274013FF5838C
:1046D300E0700B7C027D00AA0CAB0D1201CB8E089F
:1046E3008F0974037808120CDE749F2508F50E7485
:1046F300013509F50F850C82850D8312478012035E
:1047030051850E82850F83124796850C82850D8312
:10471300A3124780120351850E82850F83A3A3A39F
:10472300A31247960EEE70010FC39404EF12478E47
:1047330040807CBF7D017A9F7B011201F5750819CA
:104743007509007808120ECA7508047808120ECA93
:104753007C047D007A027B001201D17404120D07E0
:10476300900196E4F01201B3900106E4F0120207FF
:104773000246AB53FEFB53F6FB43F74022E0F5083A
:10478300E4F509F50AF50B780822EB9400A2D2654B
:10479300D03322E508F0A3E509F0A3E50AF0A3E589
:1047A3000BF02274F5120D6178007900740B120D71
:1047B3003DE0F508A3E0F5098036EA28F582EB39F8
:1047C300F583E0C0E0E50875F019A4FE85F00A75ED
:1047D300F019E509A4250AFF74DF2EFE74013FFFDB
:1047E300EE28F582EF39F583D0E0F008E87001098F
:1047F300C3E89CE99DA2D265D03340BE7F03020D7E
:10480300CD74F6120D6174C7120CF1900101E4F03E
:1048130012024F900101E0A2E650F890607FE06041
:1048230003024B0B900101E0A2E04003024B0B7427
:104833001F120D577419120D4F1201E9741F120D37
:104843003DE0FC78017900741F120D3D124B93C0BB
:10485300E0851082851183E58228FAE58339FBEA36
:1048630024FFF582EB34FFF583D0E0F008E8700114
:1048730009C3941AE99400A2D265D03340C9EC600D
:104883005014607814700302492A14700302495AC1
:1048930014700302497814700302499724FB7003D0
:1048A3000249B91470030249DF24F77003024A0A6C
:1048B300147003024A2F147003024A571470030240
:1048C3004A84147003024AB0147003024ADE024B96
:1048D3000BE4F508F5097808120ECA7C197D0074FB
:1048E30002120D4F124B42120D0790015A7401F040
:1048F30090010374F4124B2AE4024A01750801750E
:1049030009007808120ECA7C197D007402120D4F3B
:10491300124B42120D0790015B7401F09001037476
:104923004D124B2A024A01750802750900780812D4
:104933000ECA7C197D007402120D4F124B42120DE8
:104943000790015C7401F090010374A6F0A3E412D4
:104953004B2E7402024B0AE4F508F5097808120E8F
:10496300CA7C197D007402120D4F124B42120D07BF
:1049730090015A803C7508017509007808120ECA27
:104983007C197D007402120D4F124B42120D0790D9
:10499300015B801D7508027509007808120ECA7C38
:1049A300197D007402120D4F124B42120D07900134
:1049B3005C7401024B0A7508027509007808120E2F
:1049C300CA7C197D007402120D4F124B42120D075F
:1049D300124B1F90015C124B2E0480227508037545
:1049E30009007808120ECA7C197D007402120D4F5B
:1049F300124B42120D07900103744D124B33F0908A
:104A03000196E004024B0A75080375090078081241
:104A13000ECA7C197D007402120D4F124B42120D07
:104A23000790010374F4124B33024B0A75080475A3
:104A330009007808120ECA7C197D007402120D4F0A
:104A4300124B42120D07124B1F90015E124B2E7434
:104A530004024B0A7508057509007808120ECA7C12
:104A6300197D007402120D4F124B42120D07900173
:104A730003744D124B2490015F124B2E7405024BAD
:104A83000A7508067509007808120ECA7C197D009C
:104A93007402120D4F124B42120D07900103744D15
:104AA300124B24900160124B2E7406805A7508072E
:104AB3007509007808120ECA7C197D007402120D64
:104AC3004F124B42120D0790010374A6F0A3E4F0BA
:104AD30090016104124B2E7407802C750808750928
:104AE300007808120ECA7C197D007402120D4F1251
:104AF3004B42120D0790010374A6F0A3E4F090015A
:104B03006204124B2E7408F079811202499001015C
:104B1300E4F07439120D077F02020DCD9001037486
:104B2300F4F0A37401F022F0A37401F090010822C1
:104B3300F0A37401F090015DF09001087403221258
:104B430001FB740222120201D083D0820200EFC063
:104B530082C08374F8120CF1900273AC10AD11741F
:104B630008120C64F8F9851082851183124B93C0E7
:104B7300E0749728F582740139F583D0E0F008E8F2
:104B83007001097408684970DD7408120D0780B854
:104B9300E58228F582E58339F583E022C082C0836C
:104BA300900107E070037401F0809AD083D08202F1
:104BB30000EF74F6120D617508807509007808120C
:104BC3000ECA7C007D007A007B601202D37402124D
:104BD3000D07120237759C7790618AE0640170F8C3
:104BE300906001E054FC124CB0906003E0C2E0F02E
:104BF300E0C2E1F0E0C2E2F090618A7401F09061FA
:104C03008BE0640170F8906002E0543FF0E0C2E092
:104C1300F0E0C2E1124CB0906018E0C2E2F0E0D2E2
:104C2300E0F0E0C2E4F0A37427F09060047403F0B2
:104C3300906008E4F0A37455F0A3F0A3F090618BA7
:104C43007401F09061877469F090618674F3F09059
:104C530061BC7407F09062657413F09061A27410E4
:104C6300F09061807440F09061907404F0A37448F4
:104C7300F0A3E4F0A374A3F09061A57401F0906134
:104C830094E4F0A374D6F0A374BEF0A37489F0A3E4
:104C9300748EF09061E0E4F0A3745BF0A37406F00B
:104CA300A3E4F09061E904F07F02020DCDF0E0C2CD
:104CB300E2F0E0C2E3F0E054CFF022C082C083E927
:104CC300FA90618AE0640170F890618DE0540360AA
:104CD3000479048053E924E9600A24E8601024CAB3
:104CE300601C802A906000E054804417802B906001
:104CF30000E05480442FF090600C74268021906073
:104D030000E054804465F090600C74278011747F38
:104D13005AF8906000E0548048F090600C7425F0DD
:104D230090618A7401F07900024BAE74F7120D6141
:104D3300E9FE7800C3941B40047903804E740D2967
:104D4300F5D975D902740B29F5D98C828D83E0F5D9
:104D5300D9A3124D93124D93A3124DA1124DA1A3AA
:104D6300E0F5D975D90275D90175D904740129F50E
:104D7300D975D9FF800EE8FCEA2CF582E43BF58374
:104D8300E0F5D908E8C39E40ED79007F01020DCD1F
:104D9300124D9722E0F5D98C828D83A3A322124D65
:104DA30097A3A322C082C0839061C8E0C3941B4031
:104DB3004DE5D9E5D9E5D978007900E5D9C0E0EA30
:104DC30028F582EB39F583D0E0F008E8700109C3D8
:104DD3009406124E8E40E4E5D9E5D9E5D9E5D9E547
:104DE300D978007900E5D9C0E0EC28F582ED39F5F2
:104DF30083D0E0F008E8700109124E8B40E7D083BE
:104E0300D0820200EF74F7120D6174E6120CF19078
:104E13000101E4F0851082851183781AF0A3D8FC90
:104E2300E9851082851183F078017900EA28FCEB8B
:104E330039FDEC24FFF582ED34FFF583E0C0E08516
:104E43001082851183E58228F582E58339F583D0C5
:104E5300E0F008E8700109124E8B40D07C097D0117
:104E6300791AAA10AB11120231120255900101E016
:104E7300A2E650F87991120249900101E4F0741A04
:104E8300120D077F01020DCDC3941AE99400A2D23B
:104E930065D0332274F2120D6174C8120CF1EAFE6C
:104EA300EBFF8C0A8D0B7A087B001202BB8A088BFE
:104EB30009EA4B700A7A007B00120086024F517890
:104EC30008120ECA740A120D47880C890D780C1249
:104ED3000ECA7404120D47880C890D780C120ECA81
:104EE300741E120D47880C890D780C120ECA750CAE
:104EF30002750D00780C120ECA7C047D00EEFAEFE9
:104F0300FB120291740A120D07AA08AB091202AF31
:104F1300780A120ECA7508027509007808120ECABB
:104F23007508047808120ECA90026F120EDB741211
:104F3300120D47880889097808120ECA740C120DDD
:104F4300577424120D4F1202A9740C120D077438F2
:104F5300120D077F06020DCD74F0120D6174F61267
:104F63000CF17406120D3DEAF0A3EBF0A3ECF0A3F1
:104F7300EDF07406120D3D7808120BF190027B7868
:104F83000C120BF17808790C120510503A740612C2
:104F93000D3D7808120BF190026F780C120BF1782B
:104FA30008790C120495700B7A007B007C007D005D
:104FB3000250DD9002497421F0A3E4F07AFF7BFFF5
:104FC3007C7F7D7F0250DDA810A9118808890978AC
:104FD30008120ECA7408120D3D120C0F1202C1748E
:104FE30002120D077402120D3D120C1B7402120DF6
:104FF3003D7808120BF19002E3780C120BF178085C
:10500300790C1207019002E7780C120BF1780879FA
:105013000C12055C7402120D3D780C120BF1780C26
:10502300790812091B780C7908120701850C088589
:105033000D09850E0A850F0B851082851183E0A269
:10504300E050251475F0021202EEFA9002EB780C90
:10505300120BF17808790C12055CEAA2E713FAE463
:1050630013250AF50AEA801175F0021202EEA2E78F
:1050730013F8E413250AF50AE8350BF50B7402124D
:105083000D3D7808120C007402120D3D7808120BC6
:10509300F19002EF780C120BF17808790C12055C91
:1050A300C008C009C00AC00B7406120D3D780C126B
:1050B3000BF17402120D3D7808120BF1780C79088C
:1050C30012091BD00BD00AD009D0087808790C122A
:1050D3000701AA08AB09AC0AAD0B740A120D077FCE
:1050E30008020DCD74F7120D61ECF8EDF98A828B8D
:1050F30083A3AE82AF83E0FAA3E0FBEAC398FCEBA1
:1051030099FDC3EC9404ED940040158E828F83E8DF
:10511300F0A3E9F088828983E4F0A3EAF0A3EBF03B
:105123007F01020DCD74F5120D6190024BE0F8A3DF
:10513300E0F9E849700A90024B74F3F0A37402F0AB
:1051430090024BE0FEA3E0FF74F2C39EFC74039F46
:10515300FDEA2403F8E43BF9C3EC98ED994040E001
:105163008E82F5837401F090024BE02AFCA3E03BAE
:105173008C82F583A3A3A3AC82AD8390024BECF0A6
:10518300A3EDF08E828F83A3ECF0A3EDF0C3E49A3A
:10519300F8E49BF990024BE028FAA3E039806278A7
:1051A300F379028004ECF8EDF988088909C3E5086E
:1051B3009EE5099F504E88828983A3E0FCA3E0FD0E
:1051C30088828983E070DEECC39508F508ED9509C4
:1051D300F509E50824FDF508E50934FFF509C3E5FC
:1051E300089AE5099B40BEE82403FEE439FF7401F5
:1051F300F0EE2AFCEF3BFDE8FAE9FB1202B5EEFA0A
:10520300EFFB80047A007B007F03020DCD74F41260
:105213000D61EAFEEBFF7AF37B0278F37902EE4F3E
:10522300700C0252F8E8FAE9FBE0F8A3E0F9900207
:105233004BE0F50AA3E0F50BC3E8950AE9950B40AB
:10524300030252F888828983A3AC82AD83E82403E6
:10525300F508E439F509EE65087003EF650970C5D3
:1052630088828983E070030252F88C828D83E0F593
:1052730008A3E0F509C3E508950AE509950B50066F
:10528300AE08AF098004E8FEE9FF8E828F83E0F564
:105293000A8A828B83E07022E50A700C8E828F83E8
:1052A300A3E0F508A3E0F5098A828B83A3E508F060
:1052B300A3E509F0EAF8EBF9801DE50A70138E8285
:1052C3008F83A3E0FAA3E0FB8C828D83EAF0A3EB48
:1052D300F088828983E4F088828983A3E0FAA3E0DB
:1052E300FB90024BE06A7003A3E06B700890024BE3
:1052F300E8F0A3E9F07F04020DCD74F6120D617599
:1053030008807509007808120ECA7C007D007A00B7
:105313007B601202D37402120D077981120249795C
:105323009112024990618674E102532FF07F0202C9
:105333000DCDC082C0839061B1E0D2E0803AC082DB
:10534300C083E9F8906188E0F99061B1E06015E904
:10535300A2E24010E8601FE5E170FC75E10BE59106
:10536300A2E650FAE0C2E0F0759100759B009060F0
:105373007F740FF079008001F0D083D0820200EFB8
:10538300E5E170FC89E10200EFE5E170FC75E108FD
:105393000200EFE5E170FC75E1090200EFC082C095
:1053A30083906182E049F0439A0102537CC082C03A
:1053B3008375C300EA4B600BE5A28A828B83F0E519
:1053C300A3A3F0EC4D60031253F3D083D082020009
:1053D300EFC082C08375C311EA4B600BE5A28A82DA
:1053E3008B83F0E5A3A3F0EC4D60031253F380DA53
:1053F300E5A48C828D83F0E5A5A3F0E5A68C828DD0
:1054030083A3A3F08C828D83A3A3A3E4F022A2AF92
:10541300E433F8C2AFE96003439402439401E59493
:10542300A2E250FAE8A2E092AF0200EFA2AFE433A7
:10543300F8C2AFE960034394025394FEE594A2E2F9
:1054430040FA80E074F7120D61E9FEE5BE54FC4EAC
:10545300F5BEE9C3940240099061B1E0C2E0F08077
:105463000579041201DD120FC8EEC39402400790C0
:1054730061B1E0D2E0F079001201D77F01020DCDD6
:1054830074F4120D618A088B098C0A8D0BE59DA2B9
:10549300E050FAE595900244F0E596A3F0E597A372
:1054A300F0A3E4F09002447808120BB6900246E0B1
:1054B300F597900245E0F596E5ADA2E050FA90022B
:1054C30044E0F5957F04020DCDC2C7D2AD0200EFD3
:1054D300C2C7C2AD0200EF740169700575C6C98009
:1054E30006E9700353C680A8C6E59E6870FB0200F8
:1054F300EFC0088908E59E53080753C6F8E508334B
:10550300333354F8450842C6A8C6E59E6870FB7954
:1055130000D0080200EFE9FAE59EA2E64004790113
:105523008019E9700553C67F800874016A700343CC
:10553300C680A8C6E59E6870FB79000200EF74F090
:10554300120D618A088B098C0A8D0B7410120D3DA4
:10555300E0F8A3E0F9E8FAE9FB90026F780C120B8C
:10556300F17808790C120495700E8A828B83E4F02B
:10557300A3F0FAFBFCFD8022EC33ED332482F833F5
:1055830095E0F98A828B83E8F0A3E9F0AA08AB09D6
:10559300ED5480443FFDECC2E7FC7F08020DCDEEE5
:1055A300C0E0E9FA7B001202EBD0E0FE0200EF74E8
:1055B300F6120D6174FE120CF1740C120D47851076
:1055C30082851183E8F0A3E9F0A810A9118808895E
:1055D300097808120ECAE4F508F5097808120ECA0C
:1055E3007CD97D021202C77404120D077402120DD6
:1055F300077F02020DCD74F6120D61EAF8EBF97420
:105603000A120D3DE0FEA3E0FF80188C828D83E03B
:1056130088828983F0A3A882A9838C828D83A3AC1B
:1056230082AD838E088F09E50824FF1EE50934FF48
:10563300FFE508450970D47F02020DCDC082C08307
:10564300851082851183E0F8A3E0F9E84960128AA6
:10565300828B83ECF0A3E824FF18E934FFF9487048
:10566300F2D083D0820200EFC082C08375BE8079FE
:10567300011201D779001201E379001201D7D08317
:10568300D0820200EFC082C08312021F120219D01F
:0B56930083D0820200EFD2AF0200EFD4
:04000005000000D720
:00000001FF
