:020000040000FA
:030000000200D724
:03002B0002104F71
:03004B00020FCFD2
:0300530002105246
:1000830002103100000080FBE49005017830790212
:100093008002F0A3D8FCD9FA7A307B069001077866
:1000A3007979028015E493A3AD82AE838A828B8330
:1000B300F0A3AA82AB838D828E83D8E9D9E77582B8
:1000C300FC75835074001200E97582867583007491
:1000D300001200E975D0007581BF75100175110517
:1000E300759F0002008BC09FF59FE473D09F22D0C1
:1000F30083D082C09FE493C0E0740193C0E0740294
:1001030093F59F22496E69740A00526573756C7486
:10011300733A0A004E6F64652025643A0A00256429
:10012300206D65737361676573206465636F6465D0
:10013300642066726F6D206120746F74616C206F30
:1001430066202564206D657373616765730A0025F6
:1001530064206D65737361676573206C6F73740AD4
:1001630000256420746F74616C207061636B616738
:10017300657320617272697665642066726F6D20A3
:100183006120746F74616C206F662025640A006DB2
:1001930065616E20525353493A2025642064426DB1
:1001A3000A0A0004000020410100000103020203C7
:1001B300000000000000003F010000000000803F3D
:1001C30000000034000000400100B0423BAAB83FE9
:1001D3008C906339AA0CA33A00941E3C8042633D81
:1001E300CFFE753E1572313F8096184BF304353FB1
:1001F300000080BF1872313F2292D43EDD9B2A3F1C
:1002030004000040D85BDE3E3031323334353637BC
:10021300383941424344454600286E756C6C207062
:100223006F696E7465722900303132333435363775
:10023300383961626364656600464C4F4154533FED
:100243002077726F6E6720666F726D61747465726A
:1002530020696E7374616C6C656421003F3F3F00DD
:10026300FFFF7F7FFFFF7FFF01008034C503423F15
:100273001A51123FF304B53F0000803E1200F2EB27
:1002830050001200F2E064001200F2FA640012005F
:10029300F25A57001200F27357001200F2ED5700A2
:1002A3001200F25F58001200F2C458001200F20E5E
:1002B30059001200F25D38001200F2CC380012002F
:1002C300F29039001200F2C139001200F2633C00CF
:1002D3001200F2923C001200F2DD3C001200F25CCC
:1002E3003D001200F2FA42001200F2044300120031
:1002F300F28965001200F29A65001200F26C650043
:100303001200F2DD5B001200F2E65C001200F2560E
:100313005D001200F28F62001200F2C76200120049
:10032300F2D362001200F21563001200F21E6300A2
:100333001200F24863001200F25263001200F25CF2
:1003430063001200F29810001200F256110012001E
:10035300F22123001200F2ED33001200F21F3600E7
:100363001200F2A261001200F25B5F001200F29C25
:100373005F001200F24E65001200F2845400120076
:10038300F28460001200F2E263001200F2C7590027
:100393001200F26C63001200F21443001200F29A8E
:1003A30064001200F22265001200F2004D001200F8
:1003B300F24364001200F25364001200F2CF5D00B6
:1003C300000022A2E792D65002F40430F70663F04D
:1003D300FF05F0B3400384800384F40430D605633F
:1003E300F0FF05F022C008C3E096F50808A3E096E5
:1003F300420808A3E096420808A3E0964208A2D266
:1004030065D033E5087001D3D00822080808E63028
:10041300E711120C48120426080808C64480C618BF
:10042300181822181818E9799EC608CAC608CBC638
:1004330008CCC6C370207996CACBCC7019798ECB01
:10044300CC70137986CC700EF9802ACA33CACB33A9
:10045300CBCC33CC331930E7F2CCCBCA3350147046
:1004630004EA30E00DE4CA3ACACB3BCBCC3CCC50D7
:100473000209C3E913C6CC182313C6CB18C6CA187E
:10048300C6F9221204C620F01430E72B74FFFCFBDC
:10049300FA747F8022E4FCFBFA7480801AB480082B
:1004A300BC00F2BB00EF800F50EBF9E4C39AFAE40F
:1004B3009BFBE49CFCE499C6CC18C6CB18C6CA18AF
:1004C300C6F922E4C9C608CAC608CBC6D333030893
:1004D300CCC63392F0C3947F402E94184019C9B907
:1004E3000704CACBCC225025C309CA33CACB33CBAA
:1004F300CC33CC33D9F422F4600DC9CCC313CB1362
:10050300CBCA13CAD9F6CC22E4FCFBFA2214FCFBB7
:10051300FA22E62618461846184622E727194719ED
:1005230047194722181818E60846087009E62608EE
:100533007005E633F4220822191919E709470970EF
:1005430009E727097005E733F4220922E60846087C
:10055300C3134608336002E633F422E7094709C3AD
:10056300134709336002E733F42212054F60251263
:10057300055E6020120515700302051E080808E7D2
:100583006670101819E766700A1819E76670041880
:1005930019E76622F42212054F601C12055E6017EC
:1005A300120515700712051E7001D322C0D0120563
:1005B3001E7006D0D0B322C32233D0D0501430E003
:1005C300F6C3E7960809E7960809E7960809E79648
:1005D300B32220E0D5E6970809E6970809E69708CD
:1005E30009E697B32212054F601B12055E601612CF
:1005F3000515700712051E600CB322C0D012051E2C
:100603007005D0D022C32233D0D0501330E0EBC3D7
:10061300E7960809E7960809E7960809E79622206E
:10062300E0E4E6970809E6970809E6970809E697DC
:10063300220012054F604F12055E6012E754806678
:10064300F6120527701112051E703B090909F4F60D
:1006530018F618F618F62212053B70151205150840
:10066300080860EAE6447FF618768018E4F618F680
:1006730022120515601612051E7012E4F608F6081C
:10068300F608E65480F609090918181822EAC0E0AA
:10069300EBC0E0ECC0E0EDC0E0E687F0A4FBACF01B
:1006A30008E687F0A42CFCE435F0FA1809E687F095
:1006B300A42C4B60027401CA35F0FCE433FB09E659
:1006C30087F0D2F7A42CCB35F0FC1908E687F0A409
:1006D3002BCC35F0FBE433FD0819E687F0D2E7A411
:1006E3002C4ACB35F0CD3400FC09E687F0D2E7A4E1
:1006F3002DCC35F0FDE433FA0918E687F0D2F7A4E0
:100703002CCD35F0CA3400FC08E687F0D2E7D2F7E7
:10071300A42ACC35F07A7E20E70B0ACB33CBCD333A
:10072300CDCC33CC33CB3350147004ED30E00ED248
:10073300F1E4CD3DCDCC3CCC3B5005DA05C2F1EB29
:10074300547FC63308E63392F0FBE73309E733C33C
:100753009A502D2B70190C0D4C4D70151806E60888
:10076300C333700D20F10AA2F013F6E418800B4096
:1007730024E4F630F002768018F618F618F6802492
:10078300D33B14501074FFA2F013F6187680E418CC
:10079300F618F6800FA2F013F618E63303F618ECFA
:1007A300F618EDF6D0E0FDD0E0FCD0E0FBD0E0FAA7
:1007B3002212055E604612054F603DE9687008F637
:1007C30018F618F618F622748067F71207E8090975
:1007D30009748067F72212054F601D12055E7005CC
:1007E300191919801A120527701F12053BC37003CC
:1007F300E6673319191940071818182208080874EE
:10080300FFF618F618F618F62212053B60171205C4
:100813001E702192F01205157019501720F014085C
:100823000808090909E7F61819E7F61819E7F61889
:1008330019E7F62212051560E6E869701F0808E655
:100843002480F608E436F618547FB47F0CE654800F
:100853006007F6E418F618F622181822E9C6CC0841
:10086300C6CD08C6CE08C6CFC0E0E8C0E0EAC0E007
:10087300EBC0E009E9F809E7FA09E7FBE6F918E64E
:10088300F8C3EC98ED99EE9AEBC2E7F5F0EFC2E707
:1008930095F0500E600CEBCFFBEACEFAE9CDF9E808
:1008A300CCF8EAA2E7D2E7FAEB33FB13F5F0EEA2BA
:1008B300E7D2E7FEEF33FFC5F013A2E730E601B35B
:1008C30013C5F0C3C0E0C0F07F00C39BFB605E9420
:1008D30018600F401D14601AD0E023F9D0E0F8022D
:1008E30009BA8AF0E9486003D2F0E4AFF0FAF9F804
:1008F300803BEB30E40D89F0EA6003D2F0E4AFF023
:10090300F9CAF8EB30E30D88F0EF6002D2F0AFF0F4
:10091300E4CAC9F8EB54076014FBC3EA13FAE913FA
:10092300F9E813F8EF135002D2E0FFDBEDD0E0C09B
:10093300E030E739C3E49FFFF5F0EC98FC42F0EDBB
:1009430099FD42F0EE9AFE42F0D0E0F9D0E0F8E5EE
:10095300F0607AE923F9EE20E742D8028067C3EF1B
:1009630033FFEC33FCED33FDEE33FE80EAEC28FC81
:10097300ED39FDEE3AFED0E023F9D0E0F8400280F5
:100983001BC3EE13FEED13FDEC13FCEF135002D269
:10099300E0FF08B800067F7F74FF802EEF33501707
:1009A3008CF020F00260100CBC000C0DBD00080E92
:1009B300BE000408E860DFE933E813FFEE2313FE0B
:1009C3004F4D4C8008E95480FFE4FEFDFCEE33EF0D
:1009D30033F47004FCFD7E80D0E0FBD0E0FAD0E07D
:1009E300F8D0E0CFC618CEC618CDC618CCC6F922AB
:1009F30012054F70041818182212055E700D74FF4B
:100A0300F61819F61819F61819F622E7548066F63F
:100A1300120515700F12051E70F014F608F608F68D
:100A230008F680D112051E700CF608F608768008C9
:100A3300E6447F80EC12053E700C12052A60BFE687
:100A43005480F6E480BB12052A700519191980A594
:100A5300E869700C763F18768018F618F6E8F922E4
:100A6300E6CDC0E018ECC0E0E633CD33CDD313F6CA
:100A7300E719FCE7191933CC33C3947F400ECD9D9E
:100A8300502408E65480F6E418F6800FF4043D146D
:100A9300501408E6447FF6187680E418F618F6D06A
:100AA300E0FCD0E0FD22CCD313CCFD18E4C6CBC0D0
:100AB300E018E4C6CAC0E00808ED08C633E613F63A
:100AC30018E433C675F003C3CA97CA09CB97CB1989
:100AD3009C40047D08802EBD0003020B9C16B6FFCC
:100AE300050606081618C3CA33CACB33CB33CA2745
:100AF300CA09CB37CB193CC37D08803E187D08203B
:100B0300E75CC633C6CA33CACB33CB33DDF1D5F08A
:100B1300EB30E77BCA97CA09CB974ACB199C406F46
:100B23004B7025E620E0218066187D08C3CA97CA6A
:100B330009CB97CB199CD3C633C6CA33CACB33CBA5
:100B43003350C9DDE7D5F0E1D3E4C636C608C6366F
:100B5300C608C636C608C636C61818188031C3CAB2
:100B630097CA09CB97CB199CB34097C633C6CA33F0
:100B7300CACB33CB33DD34D5F02EC6A2E0C640C892
:100B8300CA27CA09CB37194A70BECB3CB480B9080F
:100B930008E63308E633601F181818D0E0FAD0E0EF
:100BA300FBD0E0FCD0E0FD22187D08CA27CA09CBA0
:100BB30037CB193CD3808013F618E4B67F11F618AF
:100BC300B6FF0EF618C60470D20808768080CAF6FF
:100BD30018F618F680C5E4CFC0E0E4CEC0E0E4CD5B
:100BE300C0E0E4CCC0E075F020E626F608E633F674
:100BF30008E633F608E633F6181818EC33FCED3341
:100C0300FDEE33FEEF33FFC3EC9709ED9709EE9743
:100C130009EF97191919400FFFEC97FC09ED97FDA0
:100C230009EE97FE191906D5F0BFECF709EDF709A0
:100C3300EEF709EFF7191919D0E0FCD0E0FDD0E089
:100C4300FED0E0FF22181818E4C396F608E496F6DF
:100C530008E496F608E496F622E026F008A3E036C8
:100C6300F008A3E036F008A3E036F022E0F608A38C
:100C7300E0F608A3E0F608A3E0F622E6F008A3E610
:100C8300F008A3E6F008A3E6F022E0FAA3E0FBA352
:100C9300E0FCA3E0FD22EAF0A3EBF0A3ECF0A3ED6C
:100CA300F022E0FCA3E0FDA3E0FEA3E0FF22ECF0D2
:100CB300A3EDF0A3EEF0A3EFF022E0F8A3E0F9A395
:100CC300E0FAA3E0FB22E8F0A3E9F0A3EAF0A3EB48
:100CD300F022CAC0E0E6F0A308DAFAD0E0FA22CAAA
:100CE300C0E0E0A3C582CCC582C583CDC583F0A394
:100CF300C582CCC582C583CDC583DAE6D0E0CA22DE
:100D0300C3E498F8E499F9120D448026C3E49AFAEF
:100D1300E49BFBE920E7E9120D44E498F8E499F930
:100D230022C3E498F8E499F9120D44E498F8E4999D
:100D3300F9C3E49AFAE49BFB22EB20E7CFE920E72F
:100D4300E0B90010BB0008E88AF084F8AAF022E4B6
:100D5300FBC8FA22EB70227B10C833C8C933C933EE
:100D63005007C39AC3DBF280069A50012ADBEAC814
:100D730033F4C8C933F4C9FA2275F008E4C833C898
:100D8300C933C933C99AC99B5004C92AC93BD5F091
:100D9300ECFBC833F4C8E4C9FA22700422600D18CE
:100DA300C6C333C608C633C6D5E0F41822251010CF
:100DB300AF08F510400C15118008F510400215110D
:100DC300D2AF2200C0D0251010AF08F510500C058B
:100DD300118008F51050020511D2AFD0D022251092
:100DE300F58210AF08F510400C15118008F510407E
:100DF300021511D2AF851183222510F582E4351136
:100E0300F583222510F8E43511F9222510FAE4358B
:100E130011FB222510FCE43511FD22E4732510C5D6
:100E230082C0E0E51134FFC583C0E0E510C39582BD
:100E330024F810AF088583118582108008858311FB
:100E4300858210D2AFCEF0A3E520F0A37808E608A0
:100E5300F0A3DEFAEFF0A3E58124FAF8E608F0A3A5
:100E6300E608F0A3E608F0A30808E608F0A3E608FE
:100E7300F0A315811581D0E0FED0E0F8158115812E
:100E83001581E8C0E0EEC0E022851183851082E081
:100E9300A3FEE0A3F5207808E0A3F608DFFAE0A3B9
:100EA300FFE0A3C0E0E0A3C0E0E0A3C0E0E0A3C094
:100EB300E0E0A3C0E010AF088582108583118008AD
:100EC300858210858311D2AFD083D0820200EFC018
:100ED300D02510C582C0E0E51134FFC583C0E0E52D
:100EE30010C3958224F310AF088583118582108087
:100EF30008858311858210D2AFC8F0A3E9F0A3EA75
:100F0300F0A3EBF0A37908E709F0A3D8FAECF0A378
:100F1300EDF0A3EEF0A3EFF0A3D0E0F0A3D0E0F068
:100F2300A3D0E0F0A3E520F0A3E5F0F0A322851120
:100F330083851082E0C0E0A3E0F9A3E0FAA3E0FB1D
:100F4300A37808E0F608A3DFFAE0FCA3E0FDA3E042
:100F5300FEA3E0FFA3E0C0E0A3E0C0E0A3E0F5D080
:100F6300A3E0F520A3E0A3F5F010AF088583118576
:100F730082108008858311858210D2AFD082D083FE
:100F8300D0E0F8D0E0327404800474028000C0E042
:100F9300F404120DE1D0E0120CD522740480047421
:100FA300028000CCC0E0EDC0E0E510C39CCCAD11E5
:100FB30050011D10AF068C108D1180068C108D1101
:100FC300D2AF120CE2D0E0FDD0E0FC22C0E074F21C
:100FD300120ED2900502E02401F0A3E03400F09059
:100FE3000502C3E094F0A3E09400403B900504E0C5
:100FF300700474018001E4F0E0F91202919005029B
:10100300E4F0A3F0900506F0900507E004F09006E5
:10101300CFE0F8900507E0C3984007E4F09005059A
:1010230004F07901120327C2C17F01020F31C0E02E
:10103300C0D0C082C083E591900501F0759B00E0AC
:10104300F4F591D083D082D0D0D0E032C2C732C081
:10105300E0C0D0E8C0E0C082C083A8A1E8A2E45009
:101063000690062B7401F0E8F4F5A1C2C2D083D038
:1010730082D0E0F8D0D0D0E0321232648882F58397
:101083002212108822E0F508A3E0F50922F085106A
:10109300828511832274F0120E208C088D0974103E
:1010A300120DFCE0FEA3E0FF7416120DFCE0F50A3E
:1010B300A3E0F50B7418120DFCE0F50EA3E0F50F99
:1010C300850E0CF50D780C120F8D7416120DFC1293
:1010D3000FA2780A120F8D7418120DFC120FA28E34
:1010E3000C8F0D780C120F8D12034B740A120DC660
:1010F300780E120F8D7416120DFC120FA2780A12BD
:101103000F8D7418120DFC120FA2EEFCEFFDAA084E
:10111300AB091203517408120DC6C3EB12225650C9
:10112300067AFF7BFF8029780A120F8D7414120D43
:10113300FC120FA27418120DFC120FA2EEFCEFFDAD
:10114300AA08AB091203577406120DC67A007B0076
:1011530002325F74F0120E2074C8120DB0741412B0
:101163000DFC12336D7414120DFCE0F50A74481271
:101173000DFC121084E50A8508F0A4C50AA8F085C1
:1011830009F0A428F88508F0EDA428F50B7402787B
:101193000A120D9D780A120F8DEAFCEBFD744C12B6
:1011A3000DFC12227012039F7402120DC6744E12AC
:1011B3000DFC12337B741A120DFC1222C7120DFCA4
:1011C30012337E7406120DFCE4F0A3F0744A120D80
:1011D300FC123833120DFC123857120DFC7401F057
:1011E300A3E4F07448120DFC1232F8742C120DFCB7
:1011F3001222D3120DFC123352120D9D740C120DD8
:10120300FC12336680698A088B0974027808120D10
:101213009D7404120DFC122202120DFC1233BD1236
:101223000DFC1222A9120C6F7420120DFC78081207
:101233000C6F780C7908120634740A120DFC122212
:10124300A9120C7E0AEA70010B7448120DFC1222DB
:10125300AF40B37410120DFC123833120DFC123868
:1012630048120DFC12383F7408120DFC123391F032
:101273007406120DFCC082C0837448120DFC123236
:101283007BD083D0821232A24003021A97740612D3
:101293000DFC123352120D9D7412120DFC1233E524
:1012A3007420120DFC7808120C6F741A120DFC785E
:1012B3000C120C6F7808790C1206347412120DFCA0
:1012C30012220E120DFC122264120C7E7406120DF1
:1012D300FC1232761222F0120DFC123839120DFC78
:1012E3001233A17420120DFC123373804B120DFCC8
:1012F3007808120C6F7406120DFC123321120D9D27
:101303007402120DFC12332D120C6FE50FC2E7F5B8
:101313000F7808790C1207D97420120DFC78081283
:101323000C7E122315120DFC123839120DFC1222F9
:1013330076120DFCE8F0A3E9121090C082C083740A
:1013430014120DFC12327BD083D08212222B409DCB
:10135300120DFC7808120C6F9006E4780C120C6FD7
:101363007808790C12059940030216467406120D8B
:10137300FC1232761222F0120DFC123839120DFCD7
:101383001233A17426120DFC123373806D120DFCFF
:10139300123839120DFC12227C120C6F7420120DBC
:1013A300FC7808120C6F780C79081209F38A828B87
:1013B30083780C120C7E850C08850D09850E0A8531
:1013C3000F0B780C79081206347426120DFC78087A
:1013D300120C6F780C79081207D97426120DFC7859
:1013E3000C120C7E122315120DFC123839120DFC4F
:1013F300122276120DFCE8F0A3E9121090C082C00D
:10140300837414120DFC12327BD083D0821232A269
:1014130074125003021390120DFC123833120DFC98
:10142300123315120DFC1233BD120DFC1233601270
:101433000C6F9006DC780C120C6F7808790C12058F
:10144300E874265013120DFC120C8D1203BD741A8E
:10145300120DFC120C998011120DFC120C8D12212D
:10146300F1120DFC7808120C7E740A120DFC123373
:1014730039120CBD7430120DFC120CC97430120DEC
:10148300FC7808120C6F741A120DFC780C120C6F96
:101493007808790C1206347426120DFC780C120CA1
:1014A3006F7808790C1207B47434120DFC780812A3
:1014B3000C7E7430120DFC7808120C6F741A120D26
:1014C300FC780C120C6F7808790C1207B4740A12AA
:1014D3000DFC123360120C7E7408120DFC1222A153
:1014E300807A741E120DFC123839120DFC1233155A
:1014F300120DFC1222CD120DFC7808120C6F74121F
:10150300120DFC123839120DFC122290120C6F7856
:1015130008790C120634740A120DFC1222A9120C5B
:101523006F7808790C1207D9740A120DFC12336014
:10153300120C7E0AEA70010B740C120DFC1238397E
:10154300120DFC1232D2F97402120DFC1233A17483
:1015530014120DFC1222AF408912338B121090C06B
:1015630082C0837448120DFC12327BD083D0821266
:1015730032A240030216467406120DFC1222707446
:1015830016120DFC12337E7404120DFC123839123C
:101593000DFC1222FD120D9D741E120DFC123366FA
:1015A300805E7412120DFC123839120DFC122225C2
:1015B300120C6F741E120DFC123839120DFC12221C
:1015C30090120C6F7808790C1206347416120DFC05
:1015D300780C120C6F7808790C1207D97416120D57
:1015E300FC7808120C7E0AEA70010B740C120DFCD5
:1015F300123839120DFC122276120DFCE8F0A3E921
:10160300F07414120DFC1222AF40977416120DFCE5
:101613007808120C6F7434120DFC780C120C6F786E
:1016230008790C1209F37416120DFC7808120C7E5B
:101633007406120DFC1222707404120DFC12327621
:101643000215497406120DFC1232761222F0120DA5
:10165300FC123276803A7412120DFC123839120DD4
:10166300FC12227C120C6F7420120DFC7808120CF1
:101673006F780C79081206348A828B83780C120CEB
:101683007E122315120DFC123839120DFC1232D2C0
:10169300F97402120DFC1222D9C082C08374141291
:1016A3000DFC12327BD083D0821232A240A8741A6E
:1016B300120DFC7808120C6F7420120DFC780C12BA
:1016C3000C6F7808790C1206347412120DFC123266
:1016D3007B744E120DFC122264120C7E741A120DCE
:1016E300FC1222C7120DFC1222C1120DFC12383358
:1016F300120DFC12225E120DFC123848120DFCC0B2
:1017030082C0837414120DFC12327BD083D08212F8
:1017130032A240030212567406120DFC12327B747D
:101723002C120DFCE0687003A3E0697003021256EB
:101733007408120DFC1222A18033120DFC780812DA
:101743000C6F12331B120D9D7404120DFC12332DFA
:10175300120C6FE50FC2E7F50F7808790C1207D961
:101763007420120DFC7808120C7E12338B12109029
:10177300C082C0837448120DFC12327BD083D082A6
:1017830012222B40B5120DFC7808120C6F9006E460
:10179300780C120C6F7808790C1205994003021229
:1017A300567408120DFC12339E7426120DFC12336C
:1017B30073806612334C120D9D7404120DFC1238A3
:1017C30009E8FAE9FB8882F583780C120C6F742020
:1017D300120DFC7808120C6F780C79081209F38A41
:1017E300828B83780C120C7E850C08850D09850E7F
:1017F3000A850F0B780C79081206347426120DFC37
:101803007808120C6F780C79081207D97426120D18
:10181300FC780C120C7E12338B121090C082C083A2
:101823007448120DFC12327BD083D0821232A24054
:10183300827408120DFC123352120D9D7404120DA2
:10184300FC122202120DFC1233BD120DFC12336086
:10185300120C6F9006DC780C120C6F7808790C125E
:1018630005E874265013120DFC120C8D1203BD747F
:101873001A120DFC120C998011120DFC120C8D1210
:1018830021F1120DFC7808120C7E740A120DFC1261
:101893003339120CBD7430120DFC120CC9743012A2
:1018A3000DFC7808120C6F741A120DFC780C120CD4
:1018B3006F7808790C1206347426120DFC780C121A
:1018C3000C6F7808790C1207B47434120DFC780885
:1018D300120C7E7430120DFC7808120C6F741A12FD
:1018E3000DFC780C120C6F7808790C1207B4740A8B
:1018F300120DFC123360120C7E7408120DFC1222BE
:101903007080428A088B0974027808120D9D740452
:10191300120DFC12226A120C6F7434120DFC78083B
:10192300120C6F780C79081209F38A088B09740278
:101933007808120D9D7450120DFC12226A120C7E4F
:101943000AEA70010B7448120DFC1222AF40B47402
:1019530006120DFCC082C0837414120DFC1232F8FF
:10196300D083D0821232A24003021A8C7408120D63
:10197300FC12339E7410120DFC12327680788A08A2
:101983008B0974027808120D9DAC08AD097402121C
:101993000DFCE02CF8A3E03DF9740A120DFC1222B1
:1019A300CD120DFC780C120C6F7450120DFC122228
:1019B30014120C6F780C7908120634740A120DFC99
:1019C300123360120C6F780C79081207D9740A125B
:1019D3000DFC1222A9120C7E0AEA70010B74481244
:1019E3000DFC1222AF4097122315120DFC12383949
:1019F300120DFC1232D2F97402120DFC1222D9C05C
:101A030082C0837414120DFC12327BD083D08212F5
:101A130032A250757408120DFC1222707416120D46
:101A2300FC12337E804E8A088B0974027808120DEB
:101A33009DAC08AD097404120DFC12221A780C1225
:101A43000C6F7402120DFC122214120C6F780C79B5
:101A5300081206347416120DFC7808120C6F780CF9
:101A630079081207D97416120DFC780C120C7E0A31
:101A7300EA70010B7448120DFC1222AF40A87408DF
:101A8300120DFC1222700219E07408120DFC1222CE
:101A93007002124C7448120DFCE024FEF508A3E01A
:101AA30034FFF5097448120DFCE0F50A8508F0A42B
:101AB300C50AA8F08509F0A428F88508F0E9A42848
:101AC300F50B7402780A120D9D744A120DFCE02581
:101AD3000AF8A3E0350BF97404120DFC1222D31299
:101AE3000DFCE0F50CA3E0F50D742C120DFCE0F5F4
:101AF3000AA3E0F50BE50C850AF0A4C50CA8F08554
:101B03000BF0A428F8850AF0E50DA428F50D74025E
:101B1300780C120D9D742E120DFCE50CF0A3E50D4F
:101B2300F0742E120DFC12327B744C120DFC122237
:101B33005E120DFC1233A1740C120DFC1222491219
:101B43000DFC12223D1222E3740C120DFC12220E24
:101B5300120DFC12223DF583120CBD741A120DFCFA
:101B6300120CC9740C120DFC12327BC3E498F8E416
:101B730099F9742A120DFC1233A1742A120DFCE098
:101B8300F87410120DFC12225E120DFC123848126A
:101B93000DFC1233E5742C120DFC122208120DFCFD
:101BA300E8F0A3E9021C4E12334C120D9D7410127F
:101BB3000DFC12381E12337E7424120DFC12228A7D
:101BC300120DFC12230F120DFC12228A120DFC12AD
:101BD3002237120DFC1222D9C082C0837448120D21
:101BE300FC12327BD083D0821232A240BA74241208
:101BF3000DFC122249120DFC12330C1222E3742441
:101C0300120DFC12220E120DFC123302120CBD74C3
:101C13001A120DFC120CC97406120DFC1222BA1210
:101C23000DFC123833120DFC122231120DFC12334B
:101C3300A1742A120DFC122249120DFC12225E120B
:101C43000DFC123857120DFC1232B6F07406120D49
:101C5300FC12224F5003021E91740C120DFC12222F
:101C630049120DFC1232DD741E120DFC123848129B
:101C73000DFC123352120D9D7424120DFC1233E528
:101C8300741A120DFC7808120C6F9006DC780C1293
:101C93000C6F7808790C12056D7003021E7A741E9E
:101CA300120DFC12228A120DFC123857120DFC126F
:101CB300380E806212334C120D9D7404120DFC1207
:101CC3003346120C6F7408120DFC123321120D9D52
:101CD3007404120DFC12332D120C6F7808790C1258
:101CE30009F3741A120DFC780C120C6F7808790C36
:101CF3001209F37424120DFC12228A120DFC122213
:101D030064120C7E122315120DFC12228A120DFC92
:101D1300122237120DFC1222D9C082C083744812DA
:101D23000DFC12327BD083D0821232A2408674081B
:101D3300120DFC1222A180787412120DFC12228A59
:101D4300120DFC123315120DFC1222CD120DFC786C
:101D530008120C6F7424120DFC12228A120DFC124D
:101D63002290120C6F7808790C120634740A120D43
:101D7300FC1222A9120C6F7808790C1207D9740A85
:101D8300120DFC123360120C7E0AEA70010B740C04
:101D9300120DFC12228A120DFC1232D2F9740E12A9
:101DA3000DFC1222D3120DFC1222AF408B12338B87
:101DB300121090C082C0837448120DFC12327BD083
:101DC30083D0821232A24003021E7A7416120DFCD3
:101DD30012337E7408120DFC122270741E120DFC55
:101DE30012228A120DFC1222FD120D9D7412120D85
:101DF300FC12336680638A088B0974027808120D1B
:101E03009D7404120DFC123346120C6F7412120DE2
:101E1300FC12228A120DFC122290120C6F780879A0
:101E23000C1206347416120DFC780C120C6F780821
:101E3300790C1207D97416120DFC7808120C7E0A5D
:101E4300EA70010B740C120DFC12228A120DFC12A3
:101E53002237120DFCE8F0A3E9F07448120DFC12CE
:101E630022AF40927408120DFC122270741E120DE0
:101E7300FC123276021D9F741E120DFC12228A126E
:101E83000DFC123857120DFC12380E021BD8742E9B
:101E9300120DFC12327B744A120DFC122231120D08
:101EA300FC1233A1742C120DFC12327B7406120D3A
:101EB300FC1222D3120DFC122208807D7410120D25
:101EC300FC123839120DFC12230F120DFC12383993
:101ED300120DFC1232D2F97402120DFC1222D9C077
:101EE30082C0837414120DFC12327BD083D0821211
:101EF30032A240C87412120DFC123360120C6F90A0
:101F030006E8780C120C6F7808790C1207D9741252
:101F1300120DFC123360120C7E7406120DFC122299
:101F230008120DFC123848120DFC1222BA120DFCD5
:101F3300123833120DFC122231120DFC12384812E2
:101F43000DFC12224F50030221EC7406120DFC12F9
:101F53003352120D9D7410120DFC1233E5741012DE
:101F63000DFC12327B744E120DFC123302120CBDA7
:101F7300741A120DFC120CC97408120DFC1222A162
:101F8300801712334C120D9D7404120DFC12381E6F
:101F9300123373121090123391121090C082C083C7
:101FA3007448120DFC12327BD083D0821232A240CD
:101FB300D17410120DFC123833120DFC1232DD7481
:101FC30012120DFC1233A1741A120DFC7808120CB4
:101FD3006F9006DC780C120C6F7808790C12056D83
:101FE30070030221D87408120DFC1222A1807A74A6
:101FF3000E120DFC123839120DFC123315120DFCA2
:102003001222CD120DFC7808120C6F7410120DFC05
:10201300123839120DFC122290120C6F7808790CC9
:10202300120634740A120DFC1222A9120C6F7808DE
:10203300790C1207D9740A120DFC123360120C7E4C
:102043000AEA70010B740C120DFC123839120DFCE4
:102053001232D2F97402120DFC1233A17414120D50
:10206300FC1222AF408912338B121090C082C083BE
:102073007448120DFC12327BD083D0821232A240FC
:102083000302216A7416120DFC1222C1120DFC12F6
:102093003833120DFC122276120DFC123857120D32
:1020A300FC12227012334C120D9D740E120DFC1291
:1020B3003366805E7410120DFC123839120DFC1257
:1020C3002225120C6F740E120DFC123839120DFCFE
:1020D300122290120C6F7808790C120634741612BF
:1020E3000DFC780C120C6F7808790C1207D9741652
:1020F300120DFC7808120C7E0AEA70010B740C12A4
:102103000DFC123839120DFC122276120DFCE8F088
:10211300A3E9F07414120DFC1222AF409774161247
:102123000DFC7808120C6F7412120DFC1222A91206
:102133000C6F7808790C1209F3741A120DFC780CE1
:10214300120C6F7808790C1209F37416120DFC78CF
:1021530008120C7E7406120DFC1222707404120D08
:10216300FC1232760220567406120DFC12327612DD
:1021730022F0120DFC123276F97402120DFC1222B7
:10218300D9C082C0837414120DFC12327BD083D069
:10219300821232A24003021EF77410120DFC123891
:1021A30039120DFC12227C120C6F741A120DFC787A
:1021B30008120C6F780C79081209F38A828B8378E2
:1021C3000C120C7E122315120DFC123839120DFC61
:1021D3001232D280A37406120DFC1232761222F050
:1021E300120DFC123276021ED9743802325C1203CD
:1021F300BD8A088B098C0AEDB2E7F50B741A22121B
:102203003809740A2212327F74082212327F745002
:102213002212221A780822E02CF8A3E03D8882F5E6
:1022230083221222967808221232A67420221232B6
:10223300E17404221232E1740E221232E1E824FC2A
:10224300F582E934FF2212327F741022C3A3E01215
:102253002256229400A2D265D033221232E17410A6
:1022630022123306780822123822780C22E0FAA3CD
:10227300E0FB221232E17402221232E1E8FAE9FBB6
:102283008882F583780C2212327F740E22122296F2
:10229300780C22E028FCA3E0398C82F583221238E3
:1022A30012E8F0A3E92212333D780C2212327FC3E5
:1022B300EA98EB1232AF221232BAF0742A221233A6
:1022C30082740C221233827420221233A5741622D4
:1022D3001233A57448221233A585108285118322F7
:1022E300F5831233CAF0221238121232D6F985104E
:1022F300828511831233A5740422E8F0A3E9123313
:10230300D6F508A3E0F50974027808221233061201
:102313003382851082851183123843740C2274F042
:10232300120E2074BC120DB0743E120DFCEAF0A321
:10233300EBF0742E120DFC12336D7402120DFCE4DB
:10234300F0A3F0742A120DFC123373807E74021210
:102353000DFC123352120D9D7458120DFC123346AC
:10236300120C6FE50BC2E7F50B7402120DFC12336E
:1023730021120D9D745A120DFC12332D120C6FE5B0
:102383000FC2E7F50F7808790C1207D97414120DF0
:10239300FC7808120C7E742A120DFC7808120C6F5C
:1023A3007414120DFC780C120C6F7808790C12055A
:1023B300E850107414120DFC120CBD742A120DFC9B
:1023C300120CC97402120DFC123391F07402120D37
:1023D300FCC082C083742E120DFC12327BD083D0DA
:1023E300821232A25003022350742A120DFC780881
:1023F300120C6F9006EC780C120C6F7808790C12A3
:1024030006347440120DFC7808120C7E742E120DE3
:10241300FC1232F87428120DFC1233A1742E120D23
:10242300FC123352120D9D7432120DFC123366806E
:10243300667436120DFC1232F2120DFC1232DDE814
:10244300FAE98882F5837808120C6FE50BB2E7F599
:102453000B8A8289837808120C7E7408120DFC1291
:1024630033DF120DFC1232F2120DFC1232D2F97468
:1024730026120DFC123857120DFCC082C083742E35
:10248300120DFC12327BD083D0821232A240A2748E
:1024930028120DFC1232B6F07428120DFC12224FD2
:1024A3005003023256743C120DFCE4F0A3F074287E
:1024B300120DFC123352120D9D7436120DFC1233A1
:1024C300E57436120DFC1232EC120DFC1232DD747F
:1024D30034120DFC1233A17436120DFC1232E612C3
:1024E3000DFC1232DD7430120DFC1233A1803774EF
:1024F3003A120DFC1232EC120DFC12330212337E2F
:102503007410120DFC120CBD7434120DFC12326DDA
:10251300120CC9742A120DFC120CBD7430120DFC7E
:1025230012326D120CC97428120DFC12339E7440C2
:10253300120DFC7808120C6F12331B120D9D745A86
:10254300120DFC12332D120C6FE50FC2E7F50F7855
:1025530008790C120599500302289B7440120DFC54
:102563007808120C6F12331B120D9D7458120DFC58
:10257300123264F9E824FCF582E934FFF583780C20
:10258300120C6FE50FC2E7F50F7808790C12059965
:1025930040108510828511831232B6F0C312225681
:1025A300508C7420120DFC12337E741C120DFC121D
:1025B30033C3F8A3E0F97402120DFCE8F0A3E902B7
:1025C30026FF12334C120D9DEC2508F8ED3509F961
:1025D300E824FCF8E934FFF97438120DFC1233A136
:1025E3007438120DFC123339120CBD7414120DFC25
:1025F300120CC9740A120DFC12328539F9742412B3
:102603000DFC1233A17424120DFC123339120CBDCC
:102613007404120DFC120CC97414120DFC78081208
:102623000C6F7420120DFC780C120C6F7808790C67
:10263300120634C008C009C00AC00B7404120DFC92
:10264300780C120C6F741C120DFC7808120C6F7846
:102653000C7908120634D00BD00AD009D0087808B8
:10266300790C1207D97438120DFC123360120C7EE8
:102673007404120DFC7808120C6F7420120DFC7890
:102683000C120C6F7808790C120634C008C009C00C
:102693000AC00B7414120DFC780C120C6F741C120C
:1026A3000DFC7808120C6F780C7908120634D00BE5
:1026B300D00AD009D0087808790C1207B474241210
:1026C3000DFC123360120C7E7408120DFC1233DF02
:1026D300120DFC12328DFD7408120DFCC082C083F2
:1026E300743E120DFC12327BD083D0821232A25080
:1026F300030225C57402120DFC123391F0742812E3
:102703000DFCC082C0837402120DFC12327BD08395
:10271300D0821232A2500302289B7402120DFC12C3
:102723003352120D9D740A120DFC1233E5740A1212
:102733000DFC1232EC120DFCE028FAA3E039FB8AFF
:1027430082F583780C120C6F741C120DFC7808123E
:102753000C6F7808790C1206347410120DFC78088B
:10276300120C7E7420120DFC7808120C6F780C7911
:10277300081206348A828B83780C120C7E74401202
:102783000DFC7808120C6F7410120DFC780C120CEF
:102793006FE50FC2E7F50F7808790C12059950031E
:1027A30002289B740A120DFC1232E6120DFC12323F
:1027B30096120CBD740C120DFC120CC97410120D80
:1027C300FC7808120C6F7410120DFC780C120C6F4D
:1027D3007808790C120634C008C009C00AC00B740B
:1027E3000C120DFC780C120C6F740C120DFC780893
:1027F300120C6F780C7908120634D00BD00AD0096A
:10280300D0087808790C1207D9AA08AB09AC0AAD2D
:102813000B1203BDEAF8EBF9ECFAEDFB7418120D99
:10282300FC120CC97418120DFC120CBD8E828F831E
:10283300120CC9740C120DFC7808120C6F74181268
:102843000DFC780C120C6F7808790C1209F37420C4
:10285300120DFC7808120C7E7410120DFC7808120D
:102863000C6F7418120DFC780C120C6F7808790C2D
:102873001209F3E50BB2E7F50B741C120DFC780893
:10288300120C7E7408120DFCE4F0A3F07454120DC4
:10289300FCE0FCA3E00226D97430120DFC1233399C
:1028A300120CBD7404120DFC120CC9851082851123
:1028B3008312327B7428120DFCE0687003A3E06975
:1028C300704D7404120DFC7808120C6F9006DC78BE
:1028D3000C120C6F7808790C1205E840030224925D
:1028E3007404120DFC7808120C6FE50BB2E7F50BBC
:1028F3007430120DFC123360120C7E7408120DFC3E
:10290300E4F0A3F07456120DFC12327602247174B3
:102913003C120DFCC3E0941E12225040077AFF7B49
:10292300FF02325A743C120DFC123391122301122E
:102933000D9D743A120DFC1233E5743A120DFC121C
:1029430032E6120DFC123302120CBD742A120DFC76
:10295300120CC97430120DFC1232C3120CBD741464
:10296300120DFC120CC97434120DFC1232C3120C7A
:10297300BD740C120DFC120CC97434120DFC12330D
:1029830039120CBD7418120DFC120CC97414120DFB
:10299300FC7808120C6F7404120DFC780C120C6F87
:1029A3007808790C1207B4C008C009C00AC00B74B8
:1029B30014120DFC780C120C6F7404120DFC7808C1
:1029C300120C6F780C79081207D9D00BD00AD009F2
:1029D300D0087808790C120634C008C009C00AC0B0
:1029E3000B740C120DFC7808120C6F7418120DFC8A
:1029F300780C120C6F7808790C1207B4C008C00960
:102A0300C00AC00B740C120DFC780C120C6F7418F6
:102A1300120DFC7808120C6F780C79081207D9D0C4
:102A23000BD00AD009D0087808790C120634D00FDD
:102A3300D00ED00DD00C780C79081207D9C00CC079
:102A43000DC00EC00F7418120DFC7808120C6F9095
:102A530006F0780C120C6F7808790C120634741493
:102A6300120DFC780C120C6F7808790C120634D016
:102A73000FD00ED00DD00C780C79081209F3741016
:102A8300120DFC780C120C7E7410120DFC780812D7
:102A93000C6F7410120DFC780C120C6F7808790C03
:102AA3001206349006E8780C120C6F7808790C1231
:102AB30007D9AA08AB09AC0AAD0B1203BD740C12FB
:102AC3000DFC120C997410120DFC7808120C6F9007
:102AD30006DC780C120C6F7808790C1205E8501A92
:102AE300740C120DFC7808120C6FE50BB2E7F50BB2
:102AF300740C120DFC7808120C7E742A120DFC78EB
:102B030008120C6F7404120DFC780C120C6F780809
:102B1300790C1207B4C008C009C00AC00B742A128A
:102B23000DFC780C120C6F7404120DFC7808120C57
:102B33006F780C79081207D9D00BD00AD009D008C6
:102B43007808790C120634C008C009C00AC00B7497
:102B530014120DFC7808120C6FC008C009C00AC01B
:102B63000B7410120DFC780C120C6F740C120DFC0C
:102B73007808120C6F780C79081207D9D00BD00A99
:102B8300D009D0087808790C1209F37418120DFCD7
:102B9300780C120C6F7808790C1207B47418120DA4
:102BA300FC780C120C6F7808790C120634D00FD015
:102BB3000ED00DD00C780C79081207D9742A120D97
:102BC300FC7808120C6F780C79081209F374101250
:102BD3000DFC780C120C7E7420120DFC1222E5748D
:102BE3001C120DFC1233C32401F8A3E03400F97462
:102BF30002120DFCE8F0A3E9022D157424120DFC5A
:102C03001232851233ABF8A3E034FFF9740A120DC4
:102C1300FC1233BD120DFC123339120CBD741412A5
:102C23000DFC120CC9123333120CBD7404120DFCCB
:102C3300120CC97420120DFC7808120C6F74141254
:102C43000DFC780C120C6F7808790C120634C0084E
:102C5300C009C00AC00B741C120DFC780C120C6F57
:102C63007404120DFC7808120C6F780C79081206A4
:102C730034D00BD00AD009D0087808790C1207D9C0
:102C8300740A120DFC123360120C7E7420120DFCB8
:102C93007808120C6F7404120DFC780C120C6F7808
:102CA30008790C120634C008C009C00AC00B741C92
:102CB300120DFC780C120C6F7414120DFC780812B0
:102CC3000C6F780C7908120634D00BD00AD009D0D7
:102CD300087808790C1207B412335A120C7E740860
:102CE300120DFC1233DF120DFC12328DFD7408122B
:102CF3000DFCC082C083743E120DFC12327BD08364
:102D0300D0821232A25003022BFE7402120DFC1267
:102D13003391F07428120DFCC082C0837402120D2B
:102D2300FC12327BD083D0821232A250030224F2EF
:102D33007402120DFC123352120D9D7424120DFCF9
:102D43001233E57424120DFC1232EC120DFC123214
:102D530096120CBD740C120DFC120CC97424120DC6
:102D6300FC1232E6120DFC123315120DFC1233BDA8
:102D7300120DFC123339120CBD7414120DFC120C1B
:102D8300C9741C120DFC780C120C6F740C120DFC20
:102D93007808120C6F780C79081206347418120D27
:102DA300FC780C120C7E740C120DFC780C120C6F58
:102DB3007420120DFC7808120C6F780C7908120637
:102DC30034740C120DFC780C120C7E7410120DFC72
:102DD3007808120C6F7410120DFC780C120C6F78BB
:102DE30008790C120634C008C009C00AC00B741855
:102DF300120DFC780C120C6F7418120DFC7808126B
:102E03000C6F780C7908120634D00BD00AD009D095
:102E1300087808790C1207D9AA08AB09AC0AAD0BDC
:102E23001203BD7404120DFC120C997404120DFCF0
:102E3300120CBDEE24FCF582EF34FFF583120CC9AE
:102E43007410120DFC7808120C6F7404120DFC78C8
:102E53000C120C6F7808790C1209F37420120DFC14
:102E63007808120C7E7418120DFC7808120C6F741B
:102E730004120DFC780C120C6F7808790C1209F30C
:102E8300741C120DFC7808120C7E742A120DFC7847
:102E930008120C6F7420120DFC780C120C6F78085A
:102EA300790C120634C008C009C00AC00B740C1296
:102EB3000DFC780C120C6F741C120DFC7808120CAC
:102EC3006F780C7908120634D00BD00AD009D008D9
:102ED3007808790C1207D97410120DFC7808120CBB
:102EE3007E740C120DFC7808120C6F7420120DFC0A
:102EF300780C120C6F7808790C120634C008C009DC
:102F0300C00AC00B742A120DFC780C120C6F741CCF
:102F1300120DFC7808120C6F780C7908120634D065
:102F23000BD00AD009D0087808790C1207B4740CB6
:102F3300120DFC7808120C7E7414120DFC78081222
:102F43000C6F741C120DFC780C120C6F7808790C42
:102F53001206347418120DFC7808120C7E741412C5
:102F63000DFC7808120C6F7420120DFC780C120CF7
:102F73006F7808790C1206347414120DFC78081259
:102F83000C7E7408120DFCE4F0A3F07456120DFCD1
:102F930012327602308C7424120DFC1232F2120DAE
:102FA300FCE028F8A3E01233ABFCA3E034FFFD8C74
:102FB30082F583120CBD742A120DFC120CC9123354
:102FC30033120CBD7404120DFC120CC9742A120DB9
:102FD300FC7808120C6F7420120DFC780C120C6F25
:102FE3007808790C120634C008C009C00AC00B74F3
:102FF30004120DFC780C120C6F741C120DFC780873
:10300300120C6F780C7908120634D00BD00AD00951
:10301300D0087808790C1207D98C828D837808122E
:103023000C7E7404120DFC7808120C6F7420120DC0
:10303300FC780C120C6F7808790C120634C008C0A7
:1030430009C00AC00B742A120DFC780C120C6F74A1
:103053001C120DFC7808120C6F780C7908120634D8
:10306300D00BD00AD009D0087808790C1207B41213
:10307300335A120C7E7408120DFC1233DF120DFC4E
:103083001232F2120DFC1232D2F97426120DFC1216
:103093003857120DFCC082C083742E120DFC1232FD
:1030A3007BD083D0821232A25003022F9974101264
:1030B3000DFC7808120C6F7410120DFC780C120CB6
:1030C3006F7808790C120634C008C009C00AC00B17
:1030D3007418120DFC780C120C6F7418120DFC7816
:1030E30008120C6F780C7908120634D00BD00AD072
:1030F30009D0087808790C1207D9AA08AB09AC0AD9
:10310300AD0B1203BD7404120DFC120C997404125E
:103113000DFC120CBD740A120DFCE0FCA3E0CC24E0
:10312300FCF582EC34FFF583120CC97404120DFC18
:103133007808120C6F9006DC780C120C6F78087903
:103143000C12056D604A7410120DFC7808120C6F96
:103153007404120DFC780C120C6F7808790C1209A8
:10316300F37420120DFC7808120C7E7418120DFCF7
:103173007808120C6F7404120DFC780C120C6F7823
:1031830008790C1209F3741C120DFC7808120C7EDA
:103193007420120DFC7808120C6F740C120DFC785D
:1031A3000C120C6F7808790C120634C008C009C0E1
:1031B3000AC00B741C120DFC780C120C6F741412E1
:1031C3000DFC7808120C6F780C7908120634D00BBA
:1031D300D00AD009D0087808790C1207D9741012D4
:1031E3000DFC7808120C7E7420120DFC7808120C6A
:1031F3006F7414120DFC780C120C6F7808790C1292
:103203000634C008C009C00AC00B741C120DFC7838
:103213000C120C6F740C120DFC7808120C6F780CE6
:103223007908120634D00BD00AD009D0087808796F
:103233000C1207B4742A120DFC7808120C7E740861
:10324300120DFCE4F0A3F07454120DFCE0FCA3E0B7
:10325300022CEF7A007B007444120DC67F08020E25
:103263008CE0250CF8A3E0350D22E0FCA3E0F58308
:103273008C8222E0F8A3E02212327F22E0F8A3E05E
:10328300F92212327FEC28F8ED2212327FEC28FC6F
:10329300ED3922E028FEA3E039FF8E82F583221266
:1032A30032A622C3E098A3E01232AF2299A2D265DC
:1032B300D033221232BA22E024FFF0A3E034FF22FB
:1032C300E0F8A3E0C824FCF582E834FFF58322127A
:1032D30032D622E028F8A3E039221232E122123258
:1032E300D6F92212327F74582212327F745A221274
:1032F300327F742622E024FFF8A3E034FFF9221280
:1033030033062212330CF58322E028FAA3E0398A2C
:1033130082221232E1740A22851082851183E0F53C
:103323000CA3E0F50D7402780C2212107C780C22A9
:1033330085108285118312333D22E0F8A3E0F583E3
:1033430088822212382278082285108285118312FE
:103353001088740278082285108285118312333D08
:10336300780822E508F0A3E50922ECF0A3EDF022AA
:10337300E4F0A3F0A3F0A32212333D12338222E43C
:10338300F0A3F0A3F0A3F0228510828511831233FA
:103393009522E02401F0A3E0340022123812123304
:1033A300A522E8F0A3E9F02239F98510828511837B
:1033B300E8F0A3E91233D624FC221233A5740A22BF
:1033C3001233CA1233D622E4F0A3F0A37480F0A31D
:1033D300743F22F0851082851183E02212384374F2
:1033E3003222E508F0A3E509F02274F0120E2074EE
:1033F300F4120DB0740A120DFCEAF0A3EBF074069C
:10340300120DFC12336D7402120DFCE4F0A3F07480
:1034130006120DFC123352120D9D7404120DFC1290
:103423003366805012335A120C6F850C82850D83DC
:10343300120CBD851082851183E0FEA3E0F5838E17
:1034430082120CC9850C82850D837808120C7E0CC0
:10345300EC70010D7404120DFC1222EA120DFC1221
:1034630036067406120DFC12361440B87402120D9F
:10347300FC123391F07402120DFCC082C0837406F7
:10348300120DFC1232F8D083D0821232A240030212
:1034930035F37402120DFCE0FEA3E0FF7402120D7B
:1034A300FCE02401FCA3E03400FD8033850C82851D
:1034B3000D83780C120C6F8C088D09740278081236
:1034C3000D9D741C120DFC123346120C6F780C798F
:1034D300081205E85004ECFEEDFF0CEC70010D8EB4
:1034E300088F0974027808120D9D741C120DFCE0FC
:1034F3002508F50CA3E03509F50D7406120DFC1231
:10350300361440A87402120DFCE06E7003A3E06F42
:10351300700302346F7402120DFC123352120D9DAC
:103523007408120DFC1233E57408120DFC12327B81
:10353300741C120DFCE028FCA3E039FD8C82F5839A
:103543007808120C6F850C82850D83120CBD8C825A
:103553008D83120CC9850C82850D837808120C7E2D
:103563008E088F0974027808120D9D741E120DFCCB
:1035730012384E120DFC12327B741E120DFC1235E2
:10358300F8803F12335A120C6F850C82850D83121B
:103593000CBD851082851183E0C0E0A3E0F583D0E4
:1035A30082120CC9850C82850D837808120C7E0C5F
:1035B300EC70010D7404120DFC1222EA120DFC12C0
:1035C3003606740A120DFC12361440B78E088F09A2
:1035D30074027808120D9D7420120DFC12384E12DD
:1035E3000DFC12327B7420120DFC1235F802346587
:1035F300740C02325CE028F50CA3E039F50D7C0075
:103603007D002212327FE50C28F50CE50D39F50D0E
:103613002212327FC3EC98ED1232AF2274F0120EF5
:103623002074EE120DB0740C120DFCEAF0A3EBF053
:10363300740A120DFC12336D742A120DFCE0FEA302
:10364300E0FF740A120DFC123360120C6F9006EC4B
:10365300780C120C6F7808790C1206348E0CEFF587
:103663000D3395E0F50EF50F780C12040E780879FA
:103673000C1206347424120DFC780C120C6F780CA7
:1036830079081205E8500A7424120DFC7808120C0C
:103693007E7408120DFCE4F0A3F07422120DFC12E8
:1036A3003833120DFC1233A1742C120DFC12380E98
:1036B300801E7408120DFC12383F8E088F097402A5
:1036C3007808120D9D7404120DFC123803120DFCC0
:1036D300123857120DFCC3E09EA3E09FA2D265D01F
:1036E3003340030237F47406120DFCE4F0A3F074C4
:1036F3000C120DFC123839120DFC0237CA8C088DDE
:103703000974027808120D9D740A120DFC12381EFA
:10371300120CBD740E120DFC120CC97424120DFC94
:10372300780C120C6F740E120DFC7808120C6F7863
:103733000C79081205E850528C088D097402780838
:10374300120D9D7404120DFC123346120C6F740299
:10375300120DFC1222A9120C6F7808790C12063490
:10376300740E120DFC780C120C6F7808790C120988
:10377300F38510828511831222A9120C6F780879C0
:103783000C1207D912335A120C7E0CEC70010D7413
:1037930002120DFC1237F97402120DFCE8F0A3E9D2
:1037A300F0C3EC9EED9FA2D265D0335003023700E5
:1037B3007406120DFC12383F85108285118312376F
:1037C300F9851082851183123848120DFCC082C01E
:1037D300837428120DFC12327BD083D0821232A262
:1037E30040030236B57C007D0012333312337380FD
:1037F300AF741202325CE02404F8A3E03400F9222F
:1038030012380974042212382AF92212381222E0DB
:10381300F8A3E0F98510828511832212382222123F
:10382300382A8882F58322E02508F8A3E0350922A7
:1038330012327F74042212327F740222123843221E
:10384300123395F0221233A574062212380985101B
:10385300828511831233A574082274F5120E207821
:103863000079007508017E007F001239B7F50AE878
:10387300FCE9FDEC75F028A4FC85F00975F028ED52
:10388300A42509FD74302CFC74053DFDEC2EF58256
:10389300ED3FF583E0650A60037508000EEE7001E5
:1038A3000FC39406EF123C8A40C0E508A2E050041F
:1038B3007901801008E8700109C39402E9123C8A77
:1038C30040A179007F03020E8C74F2120E2074C89B
:1038D300120DB0EAFEEBFF8C0A8D0B7A087B001207
:1038E300036F8A088B09EA4B700A7A007B00120087
:1038F300860239867808120F8D740A120E06880C18
:10390300890D780C120F8D7404120E06880C890D24
:10391300780C120F8D741E120E06880C890D780C0C
:10392300120F8D750C02750D00780C120F8D7C042F
:103933007D00EEFAEFFB120345740A120DC6AA08C6
:10394300AB09120363780A120F8D7508027509001B
:103953007808120F8D7508047808120F8D9006DC15
:10396300120F9E7412120E06880889097808120F26
:103973008D740C120E167424120E0E12035D740C49
:10398300120DC67438120DC67F06020E8C74F71220
:103993000E2079017E007F00800C1239B760027916
:1039A300000EEE70010FC3EE9CEF123CD640EB7F8E
:1039B30001020E8CEA2EF582EB3FF583E02274F0D0
:1039C300120E2074F6120DB07408120DFCEAF0A367
:1039D300EBF0741A120DFCE06C7003A3E06D60034E
:1039E300023B627402120DFCE4F0A380087402121D
:1039F3000DFC123C3DF07402120DFCC082C08374B6
:103A030008120DFC123C46D083D082123C5740036F
:103A1300023B62851082851183E4F0A3023B31EA05
:103A2300F8EBF9E875F018A4F8ACF075F018E9A410
:103A33002CF9851082851183E0FCA3E0FDEC2CFCBE
:103A4300ED33FD74CA2CFC74053DFDEC28F582EDC5
:103A5300123D51E4F50EF50F780C1204298A088BF8
:103A63000974027808120D9D7402120DFCE0F50A28
:103A7300A3E0F50B7404780A120D9D74AA250AF8C5
:103A83007405350BF9E82508F582E93509F58378DE
:103A930008120C6F780C79081206347404120DFCAA
:103AA3007808120C6F780C79081207D97404120D78
:103AB300FC780C120C7E0AEA70010B741A120DFCCE
:103AC300123C46C3EA98EB99A2D265D03350030265
:103AD3003A227404120DFC7808120C6F9006E078F9
:103AE3000C120C6F7808790C1207D9780812048627
:103AF300C008851082851183C082C0837402120DB1
:103B0300FC123C46E875F00CA4F8AAF075F00CE939
:103B1300A42AF9740E28F8740539F9D083D08212D7
:103B23003C4CD0E0F0851082851183123C3DF0853A
:103B33001082851183C082C083741C120DFC123C59
:103B430046D083D082123C5740030239F0740412EA
:103B53000DFCE4F0A3F0A3F0A3F0FAFB023ABE7568
:103B63000C00750D00E50C75F028A4FEA8F075F0A7
:103B730028E50DA428FF74302EF50E74053FF50FCC
:103B8300E50C75F00CA4F8AAF075F00CE50DA42A69
:103B9300F9740E28F508740539F5097C0C7D00AA23
:103BA30008FB1202C1E9705B850882850983E0F98D
:103BB300FA850E82850F83A3A3A3A3A3A3A3A3F0D4
:103BC300A3E4F09006E47808120C6FE50E240CF5DC
:103BD30082E4350FF5837808120C5C900580744DF0
:103BE3002EF874053FF9123C4CEAF0850E82850FDE
:103BF30083A3A3A3A3A3A3A3A3A3A3E06A7002A382
:103C0300E060189006E47808120C6FE50E2410F5B6
:103C130082E4350FF5837808120C5C050CE50C7013
:103C230002050DC39402E50D123C8A5003023B6862
:103C3300740A120DC67F08020E8CE02401F0A3E083
:103C4300340022E0F8A3E0F922E028F8A3E0398861
:103C530082F58322C3E098A3E099A2D265D03322F0
:103C6300C082C083C3EC9401123C8940128A828BC8
:103C730083E4F0A3EC24FF1CED34FFFD4C70F2D081
:103C830083D0820200EFED9400A2D265D033227478
:103C9300F6120E20EAFEEBFF7A007B0080279005E8
:103CA3002FE0C0E0750801750900EA7808120D9D40
:103CB300D0E05508700AEE2AF582EF3BF583E4F075
:103CC3000AEA70010B123CD240D47F02020E8CC36D
:103CD300EA9CEB9DA2D265D0332274F1120E20EA46
:103CE300FEEBFF7A007B00740F120DFCE0F50AA3D4
:103CF300E0F50B804FEAF8EBF9E828F8E933F9EE41
:103D030028F582EF123D51850A08850B09E50875F0
:103D1300F018A4F50885F00E75F018E509A4250E32
:103D2300F50974CA2508F50874053509F509E50888
:103D330028F582E50939F583E50CF0A3E50DF00AD2
:103D4300EA70010B123CD240AC7F07020E8C39F5AE
:103D530083E0F50CA3E0F50D2274F0120E2074C875
:103D6300120DB0900501E4F0120333900501E0A2B7
:103D7300E650F890607FE060030242AE900501E0F8
:103D8300A2E040030242AE741E120E167418120E05
:103D93000E1202A3E970030242AE7418120E0E1241
:103DA30002B5E970030242AE741E120DFCE0FE740C
:103DB3001F120DFCE090052FF07C027D00741E1293
:103DC3000DFCE5822CF582E5833DF583E0F9A3E064
:103DD300F508E9F509EC24FEF8ED34FFF97A027BE6
:103DE30000120D3CE828F8E933F985108285118328
:103DF300E58228F582E58339F583E508F0A3E50933
:103E0300F0EC2402FCE43DFDC3EC941A123C89401F
:103E1300ACEE6039147003023ECA24FE602F1470A6
:103E230003023ECA24FA7003023F4B147003023F9D
:103E3300DE24F770030240681470030240F8147024
:103E43000302418B14700302421E0242AEE4F508E2
:103E5300F5097808120F8D7C0C7D007402120E0E8A
:103E63001242C3120DC69005261242E2120C6F9045
:103E730005447808120C5C1242D4120C6FC008C0BF
:103E830009C00AC00B1242EB12040E9006D0780848
:103E9300120C6F780C79081209F3780C120F8990C1
:103EA30006D0120C8D1242BD120DC68A088B098CE6
:103EB3000A8D0BD00FD00ED00DD00C780C790812D0
:103EC30007D99005488079750801750900780812AB
:103ED3000F8D7C0C7D007402120E0E1242C3120D64
:103EE300C69005271242E2120C6F90056C780812F7
:103EF3000C5C1242C9120C6FC008C009C00AC00B87
:103F03001242EB12040E9006D07808120C6F780C54
:103F130079081209F3780C120F899006D0120C8DD0
:103F23001242BD120DC68A088B098C0A8D0BD00F65
:103F3300D00ED00DD00C780C79081207D9900570EB
:103F4300780C120C7E0242AE7508027509007808DF
:103F5300120F8D7C0C7D007402120E0E1242C312DE
:103F63000DC69005281242E2120C6F9005447808A2
:103F7300120C5C1242D4120C6FC008C009C00AC0F4
:103F83000B1242EB12040E9006D07808120C6F78D5
:103F93000C79081209F3780C120F899006D0120CD1
:103FA3008D1242BD120DC68A088B098C0A8D0BD067
:103FB3000FD00ED00DD00C780C79081207D99005CC
:103FC30048780C120C7E90052FE0F470030242AE89
:103FD3007C027D007A867B050242AB750803750976
:103FE300007808120F8D7C0C7D007402120E0E12E5
:103FF30042C3120DC61242DF120C6F90056C780893
:10400300120C5C1242C9120C6FC008C009C00AC06E
:104013000B1242EB12040E9006D07808120C6F7844
:104023000C79081209F3780C120F899006D0120C40
:104033008D1242BD120DC68A088B098C0A8D0BD0D6
:104043000FD00ED00DD00C780C79081207D990053B
:1040530070780C120C7E90052FE0F470030242AED0
:104063007C020240EF7508037509007808120F8D72
:104073007C0C7D007402120E0E1242C3120DC61286
:1040830042DF120C6F9005447808120C5C1242D484
:10409300120C6FC008C009C00AC00B1242EB120415
:1040A3000E9006D07808120C6F780C79081209F379
:1040B300780C120F899006D0120C8D1242BD120D8E
:1040C300C68A088B098C0A8D0BD00FD00ED00DD069
:1040D3000C780C79081207D9900548780C120C7EDD
:1040E30090052FE0F470030242AE7C037D007A88D2
:1040F3007B050242AB7508047509007808120F8D21
:104103007C0C7D007402120E0E1242C3120DC69077
:10411300052A1242E2120C6F9005447808120C5CD7
:104123001242D4120C6FC008C009C00AC00B12425D
:10413300EB12040E9006D07808120C6F780C7908F5
:104143001209F3780C120F899006D0120C8D1242CB
:10415300BD120DC68A088B098C0A8D0BD00FD00EA9
:10416300D00DD00C780C79081207D9900548780C3B
:10417300120C7E90052FE0F470030242AE7C037DA7
:10418300007A8A7B050242AB750805750900780839
:10419300120F8D7C0C7D007402120E0E1242C3129C
:1041A3000DC690052B1242E2120C6F90056C780835
:1041B300120C5C1242C9120C6FC008C009C00AC0BD
:1041C3000B1242EB12040E9006D07808120C6F7893
:1041D3000C79081209F3780C120F899006D0120C8F
:1041E3008D1242BD120DC68A088B098C0A8D0BD025
:1041F3000FD00ED00DD00C780C79081207D990058A
:1042030070780C120C7E90052FE0F470030242AE1E
:104213007C037D007A8C7B050242AB750806750929
:10422300007808120F8D7C0C7D007402120E0E12A2
:1042330042C3120DC690052C1242E2120C6F900578
:104243006C7808120C5C1242C9120C6FC008C009CA
:10425300C00AC00B1242EB12040E9006D07808126B
:104263000C6F780C79081209F3780C120F899006F9
:10427300D0120C8D1242BD120DC68A088B098C0A0E
:104283008D0BD00FD00ED00DD00C780C79081207FF
:10429300D9900570780C120C7E90052FE0F4600B1A
:1042A3007C037D007A8E7B051202D379811203276A
:1042B300900501E4F07438023C351203AB74042218
:1042C3001202D974022212032DE9F99005707808BD
:1042D3002212032DE9F990054878082290052974E4
:1042E30001F09006E4780822E9F50C3395E0F50D2A
:1042F300F50EF50F780C22C082C0831202A9023C8E
:1043030082C082C08390052F74FFF01202DF023C4B
:104313008274F0120E2074B3120DB08510828511D1
:1043230083EAF0A3EBF0740F120DFCECF0A3EDF0B5
:10433300740B120DFCE4F0A3801B745D120DFC12D0
:104343004BFB740F120DFC124C0B120E1E740B124E
:104353000DFC124C95F0124C18F9851082851183CF
:10436300E02401FAA3E03400FB851082851183EA7F
:10437300F0A3EBF07425696015E970BE740B120DA0
:10438300FC124BFB744D120DC67F08020E8C124CAF
:104393001864257019851082851183E024010812A1
:1043A3004C9E745D120DFC124BFB79258094740EA8
:1043B300120DFCE4F0740D120DFCE4F07408120D00
:1043C300FCE4F07407120DFCE4F0741B120E067487
:1043D30002120DFC124CA97419120DFC7434F0A3D3
:1043E300740780197407120DFCE070077407120D2F
:1043F300FCEAF0851082851183E8F0A3E9F0124C02
:1044030069FAA3E0F5838A82E0FA24E060D624FD0A
:10441300601724F860D624FE600624FD600F801127
:104423007408120DFCE00480C9740D80F5740E80CD
:10443300F1851082851183124BF2E0642A70447473
:104443005F120DFC124BF2124BFBEAFCEBFD8A826E
:10445300F583124BFBEC2402FC50010D745F120D2B
:10446300FC124C3EC3EB124BC35013C3E49AFCE45F
:104473009BFDECFAEDFB7408120DFCE004F0124C0A
:10448300A3803C7A007B00802AEA75F00AA4FAA98B
:10449300F075F00AEBA429FBEA28F8E43BF9E824D9
:1044A300D0FAE934FFFB851082851183E02401F8FB
:1044B300124C9E124C18F874D028C3940A40CA7444
:1044C30008120DFCE06007740E120DFCE4F0124CB0
:1044D30018642E6003024565851082851183124B93
:1044E300E8851082851183E8F0A3E9124CCE642A93
:1044F300702E745F120DFC124C2CF98882F5831216
:104503004BE27404120DFCECF0A3EDF0E82402F886
:10451300500109745F120DFC124C75124CD5804B7F
:104523007404120DFCE4F0A3124CCEFC74D02CC323
:10453300940A50387404120DFC124BDB75F00AA474
:10454300F8ADF075F00AE9A42DF9E82CF8E439F98F
:10455300E824D0F8E934FFF97404120DFC124CD5A9
:1045630080C67404120DFC74FFF0A3F07C00124C9F
:1045730069FDA3E0F5838D82E024B4600824E46040
:104583000624FC70057C01124CA3124C18C0E07485
:1045930006120DFCD0E0124CD9F07406120DFCE0AB
:1045A3007003024A6624BB7003024A3124FE70037F
:1045B300024A3124EF700302478724F57003024651
:1045C30066147003024828147003024A31147003FE
:1045D300024A31147003024A3124FE700302482850
:1045E30024FB602414700302475D147003024787A1
:1045F30024FD70030246A624FE700302478724FDB0
:10460300700302477B024A72745F120DFC124C82E4
:10461300E8FEE9FFE5082402F50850020509ECA2CB
:10462300E0740B5027120DFC124BD53395E0FA8E34
:10463300828F83124CA9A3EAF0A3F0745F120DFCDE
:10464300124C0BE508F0A3E509024358120DFC12C6
:104653004BD58E828F83124CA9745F120DFC124BC3
:10466300F280E0745F120DFC124C2CF5838882E01B
:10467300C0E0741B120DFCD0E0F0745F120DFC124D
:104683004C1E2402F8A3E03400F9745F120DFC12EF
:104693004C75124CA9741C120DFCA882A9837409D1
:1046A300024753745F120DFC124C82E5082402FC8E
:1046B300E43509FD745F120DFC124C3E7402120DB9
:1046C300FC124CA9E849700C7402120DFC7445F0FD
:1046D300A37407F07404120DFC124C33500C7404D1
:1046E300120DFC7410F0A37427F07E007F00800588
:1046F3000EEE70010F7402120DFC124BD58882F579
:1047030083A3AC82AD837402120DFCECF0A3EDF035
:1047130088828983E060147404120DFC124BD5C3A4
:10472300EE98EF99A2D265D03340C57402120DFC06
:10473300124C4C7409120DFC124CA9C3E49EF8E40C
:104743009FF97409120DFCE028F8A3E039F974020B
:10475300120DFCE8F0A3E9024A89740D120DFCE086
:1047630060167404120DFC124BDB49700B740412B7
:104773000DFC7401F0A3E4F07419120DFC7454F0F1
:10478300A37407F0745F120DFC124C5A7406120DD9
:10479300FCE064707038850882850983124BE274EB
:1047A30011120DFCECF0A3ED124CC7E508124BCB34
:1047B300120DFC124C75124CA97415120DFC7410D9
:1047C300124CC7A3F07407120DFCE402489DECA23F
:1047D300E0E5085016124BB0120DFC124CAF120C50
:1047E300A57411120DFC120CB18019124BCB120DD2
:1047F300FC124CC2F8A3E0F97411120DFCE8F0A30B
:10480300E9124CC77406120DFCE0646F700974154D
:10481300120DFC740880A9E06475709D7415120D67
:10482300FC740A809B745F120DFC124C5AECA2E0DC
:10483300E5085010124BB0120DFC124CAF78081261
:104843000C6F8016124BCB120DFC124CC2F508A351
:10485300E0F5093395E0F50AF50B7411120DFC78B8
:1048630008120C7E9006DC78081203E840217407D6
:10487300120DFC742DF07411120DFC7808120C6FDC
:104883007808120C4B7411120DFC7808120C7E740C
:1048930015120DFC740A124CC7A3F0744C120DFCD4
:1048A300A882A9837402120DFC124CA97409120D7B
:1048B300FC124CA97411120DFC120CA5EC4D4E4FB9
:1048C3006004D2008010C2007404120DFC124BDB92
:1048D3004970030249A07402120DFC124C4C74027D
:1048E300120DFC124CA97411120DFC780C120C6FF2
:1048F3007415120DFC7808120C6F780C7908120BE2
:10490300D97419120DFCE02508F8A3E03509888253
:10491300F583E0C0E07402120DFC124C0BD0E0F002
:104923007411120DFC780C120C6F7415120DFC78B7
:1049330008120C6F780C7908120BD97411120DFC44
:10494300780C120C7E7411120DFC120CA5EC4D4E5A
:104953004F70837404120DFC124C335040740E12CA
:104963000DFCE060387407120DFCE06004D2F080A7
:1049730002C2F0A2F0E433F8EA98F8EB9400F97479
:1049830004120DFCE8F0A3E980127402120DFC126C
:104993004CA97402120DFC124C0B7430F074021209
:1049A3000DFC124C4C744C120DFCC082C08374027B
:1049B300120DFC124BE2D083D082E582C39CFEE54C
:1049C300839DFF7404120DFC124BE2C3EE9CEF9D1A
:1049D300A2D265D03340B3740D120DFCE070030214
:1049E3004A8AA2004003024A8A7406120DFCE0645C
:1049F300786005E064587010E088828983F0E824C9
:104A0300FF18E934FFF98012E0646F707A740212C0
:104A13000DFC124C75E06430606D7402120DFC12D3
:104A23004CA97402120DFC124C0B743080587402A2
:104A3300120DFC7465F0A37407F07409120DFC7475
:104A430065F0A37407F07409120DFC124C1E603755
:104A53007409120DFC124BE87409120DFCE8F0A363
:104A6300E980E2851082851183124C51124CA274A5
:104A730002120DFC7488F0A37407F07409120DFC84
:104A8300748BF0A37407F07409120DFCC082C08309
:104A93007402120DFC124BD5D083D082E0C398F878
:104AA300A3E099F97404120DFC124CA97404120DBD
:104AB300FCE0F8C3EA98EB99A2D265D03350067EA6
:104AC300007F0080217407120DFCE06004D2F080A7
:104AD30002C2F0EAC398F8EB99F9A2F0E433FAE8DA
:104AE3009AFEE99400FF7408120DFCE0702080190F
:104AF300745D120DFC124C01120DFC124C0B120EC4
:104B03001E740B120DFC124C90124BBA50E2740738
:104B1300120DFCE06051745D120DFC124BFB740727
:104B2300120DFCE0F9740F120DFC124C0B120E1E49
:104B3300802D745D120DFC124BFB7402120DFC12DE
:104B43004C1EF9740F120DFC124C0B120E1E740244
:104B5300120DFCE0124CEE7402120DFC124CA974FF
:104B63000B120DFC124C907404120DFCE024FFF0A8
:104B7300A3E034FFF07404120DFC124C3350B374F1
:104B830008120DFCE07003024359124BBA500302A2
:104B93004359745D120DFC124C01120DFC124C0BA7
:104BA300120E1E740B120DFC124C9080DD2404F8BF
:104BB300E43509F9745F22EE24FF1EEF34FFFFC3CF
:104BC3009400A2D265D033222402F8E43509F974A3
:104BD3005F22E0F8A3E0F922E0F8A3E0F9E822E09D
:104BE300FCA3E0FD22E0240108A3E03400F922E065
:104BF300FAA3E0F5838A8222E0FAA3E0FB22E0FA3B
:104C0300A3E0FB7920740F22124C0F22E0F8A3E0FB
:104C1300F583888222851082851183124C2222E03B
:104C2300F8A3E0F5838882E022124C22F8A3E02265
:104C3300C3A3E09400A2D265D03322E0FEA3E0F543
:104C4300838E82ECF0A3EDF022124C51F922E02482
:104C5300FFF8A3E034FF22124C5E22124C0FE0F562
:104C630008A3E0F50922851082851183E0124CE444
:104C7300E022124C7922E0FCA3E0F5838C8222121D
:104C83004C5E850882F583E0F8A3E0F922124C9587
:104C9300F022E02401F0A3E0340022A3E03400F981
:104CA300851082851183E8F0A3E9F022124CB32228
:104CB300124C79E8F0A3E9F0850882850983221272
:104CC3004CB3E022F0A3E4F0A3F022124CF7124C11
:104CD3002322E8F0A3E9124CF7124CE4E8F0A3E92D
:104CE30022124CEE851082851183222401F8A3E061
:104CF3003400F922F0851082851183E02274F012CA
:104D03000E2074EA120DB0851082851183EAF0A398
:104D1300EBF0A3ECF0A3EDF0C2007426120DFC78C7
:104D230008120C6F9006DC780C120C6F7808790C63
:104D330012056D700B7A007B007C807D3F0250E191
:104D43008510828511837808120C6F9006DC780C2D
:104D5300120C6F7808790C12056D7003024DE28511
:104D630010828511837808120C6FEDC2E7F50B9062
:104D7300078C780C120C6F7808790C12056D70157E
:104D830090062C7422F0A3E4F0851082851183121F
:104D93000C8D0250E17426120DFC7808120C6F90F2
:104DA300078C780C120C6F7808790C12056D70144F
:104DB30090062C7422F0A3E4F07AFF7BFF7C7F7DC6
:104DC3007F0250E17426120DFC7808120C6F9007D5
:104DD30090780C120C6F7808790C12056D700B7AB1
:104DE300007B007C007D000250E1851082851183E9
:104DF3007808120C6F9006DC780C120C6F78087927
:104E03000C1205E84003024E8D7426120DFC78083F
:104E1300120C6F78081204867406120DFC780812BF
:104E23000C7E7426120DFC7808120C6F7406120D9A
:104E3300FC780C120C6F780C12040E7808790C12A3
:104E430007B4900794780C120C6F7808790C12054C
:104E530099500B90062C7421F0A3E4F08081851007
:104E6300828511837808120C6FE50BC2E7F50B8579
:104E730010828511837808120C7E7406120DFC785B
:104E830008120C6FE508A2E0920085108285118359
:104E93007808120C6FE50B5480443FF50BE50AC20A
:104EA300E7F50A740A120DFC7808120C7E8510824D
:104EB3008511837808120C6FE50A33E50B332482DE
:104EC300F5083395E0F509F50AF50B780812040E99
:104ED3007426120DFC780C120C6F7808790C1206EC
:104EE300347406120DFC7808120C7E7406120DFC45
:104EF300120C8D120381851082851183120C998502
:104F030010828511837808120C6F78081204867456
:104F130004120DFCE508F0A3E509F0740A120DFC78
:104F2300120C8D12038D7412120DFC120C9974263F
:104F3300120DFC7808120C6F7404120DFCE0F50CD2
:104F4300A3E0F50D3395E0F50EF50F780C12040E82
:104F53007808790C1207B47412120DFC780C120C39
:104F63006F7808790C120634C008C009C00AC00B58
:104F73007406120DFC7808120C6F8510828511835C
:104F8300780C120C6F7808790C1207B4900720780C
:104F93000C120C6F7808790C120634D00FD00ED097
:104FA3000DD00C780C79081207D9AA0CAB0DAC0EF6
:104FB300AD0F12037B740E120DFC120C9985108237
:104FC300851183E4F0A3F0A37480F0A3743FF0741D
:104FD30004120DFCE0FAA3E0FB120375EA4B702FF9
:104FE30002507E740A120DFC780C120C6F740A12B4
:104FF3000DFC7808120C6F780C7908120634740AC9
:10500300120DFC780C120C7EEBC313FBEA13FAEAC5
:10501300A2E05027851082851183780C120C6F74DF
:105023000A120DFC7808120C6F780C7908120634FA
:10503300851082851183780C120C7E74016A4B7083
:10504300A27404120DFCC3A3E09400A2D265D03372
:105053005029750800750900750A80750B3F851086
:1050630082851183780C120C6F7808790C1209F37E
:105073008510828511837808120C7E740E120DFC44
:105083007808120C6F7404120DFCE0F98510828508
:105093001183780C120C6FE9A2E713F9E413250EC0
:1050A300F50EE9350FF50F7808790C120634740EF6
:1050B300120DFC7808120C7EA200740E5010120D13
:1050C300FC7808120C6FE50BB2E7F50B8008120DA4
:1050D300FC7808120C6FAA08AB09AC0AAD0B741666
:1050E300120DC67F08020E8C75E40275E54475DA6D
:1050F3000075DB7DD2B90200EF74FA120DB0900592
:1051030001E4F053F4FB53FEFB53F6FB43F7401269
:1051130002F153F4FB53FEFB43F6047A307B061291
:1051230003B779011203211203037917120309123A
:10513300031B7A007B00750801750900EA780812E1
:105143000D9DE508F4F852F352FD528F43F72052B8
:10515300F452FE52F643F7400AEA70010BC3940877
:1051630012546E40D17A007B00750801750900EA7C
:105173007808120D9DE508F452F552FF52F743F7F4
:10518300800AEA70010BC3940512546E40DB790068
:10519300120291794012033F1202977A347B001274
:1051A300036F8A088B09AE08AF09750806EEFCEF9A
:1051B300FD7AFF79FF1202AF1508E50870EFEEFAEA
:1051C300EFFB12036312027F1202E580031202EB6C
:1051D300900505E060F79005801254647E007F001F
:1051E300EEF8EFF9E828F8E933F9748228F50C743E
:1051F3000539F50D74262EF58274053FF583E070AD
:105203000B7C027D00AA0CAB0D1202CD8E088F0918
:1052130074037808120D9D748A2508F50E740535FC
:1052230009F50F850C82850D8312544712042985D5
:105233000E82850F83125454850C82850D83A3122D
:105243005447120429850E82850F83A3A3A3A312B7
:1052530054540EEE70010FC39404EF12546F408048
:105263007CAA7D057A8A7B051202BB75080C750939
:10527300007808120F8D7508047808120F8D7C04CE
:105283007D007A027B001202C77404120DC612025B
:105293009D900505E4F090053A125464900562125E
:1052A3005464900580C3E0940AA3E0940050030281
:1052B30051CB7A367B061203B77E007F00EEF8EF00
:1052C300F9E875F028A4F8AAF075F028E9A42AF9FA
:1052D300743028F8740539F98510828511831254C6
:1052E30077241CF8A3E03400F97404120DFC125463
:1052F300772414F8A3E03400F97402120DFC12545D
:1053030077F8A3E0C82418F582E438F583780C1203
:105313000C6F7402120DFC125441120C6F780812B8
:105323000429780C79081209F3AA0CAB0DAC0EAD65
:105333000F1203938A0C8B0D8C0E8D0F9006D07871
:1053430008120C6F780C7908120634780C12048654
:105353007404120DFC125434E50CF08E088F097896
:1053630008120F8D7A407B061203B77402120DC622
:1053730075080A7509007808120F8D7402120DFC66
:10538300E0F8A3E0C8240CF582E438F5837808122A
:105393000C6F7808120F8D7A4A7B061203B77404D8
:1053A300120DC6851082851183E0F8A3E0C824108E
:1053B300F582E438F5837808120C6F7808120F8DA4
:1053C3007A7B7B061203B77402120DC67508147537
:1053D30009007808120F8D7404120DFC1254411247
:1053E3000C6F7808120F8D7A8D7B061203B7740445
:1053F300120DC67404120DFC125434E0F5083395F3
:10540300E0F5097808120F8D7ABB7B061203B77497
:1054130002120DC60EEE70010FC39402EF12546F09
:1054230050030252C07A007B007406120DC60200BC
:10543300EF12543822E0F8A3E0F583888222125455
:1054430038780822E0F508E4F509F50AF50B780841
:1054530022E508F0A3E509F0A3E50AF0A3E50BF0C4
:1054630022E02401F0A3E03400F022EB9400A2D266
:1054730065D03322E8F0A3E9F0851082851183E03B
:105483002274F0120E2074F8120DB085108285116B
:1054930083EAF0A3EBF0A3ECF0A3ED125750120C48
:1054A3006F9006DC780C120C6F7808790C12056D7E
:1054B300700B7A007B007C807D3F0257468510820B
:1054C3008511837808120C6FEDC2E7F50B9006F493
:1054D300780C120C6F7808790C12059950449006D9
:1054E3002C7422F0A3E4125750120C6F9006DC7850
:1054F3000C120C6F7808790C1205E8500E75080031
:10550300750900750A00750B00800C7508FF750995
:10551300FF750A7F750B7FAA08AB09AC0AAD0B02B6
:1055230057468510828511837808120C6F9006F810
:10553300780C120C6F7808790C120634851082856A
:1055430011837808120C7E851082851183780812E6
:105553000C6FE50BC2E7F50B7808120486E508FA31
:10556300851082851183780C120C6F9006DC780805
:10557300120C6F780C79081205E850398510828572
:1055830011837808120C6FEAF50C3395E0F50DF5ED
:105593000EF50F780C12040E7808790C1207B490EC
:1055A30006DC780C120C6F7808790C12056D60011B
:1055B3000AEAF404FA851082851183780C120C6FC1
:1055C300EAF5083395E0F509F50AF50B78081204B6
:1055D3000E780C79081207B47404120DFC780C12BF
:1055E3000C7E7404120DFC780C120C6F9006E0789C
:1055F30008120C6F780C79081205E850277404120E
:105603000DFC780C120C6F9006E07808120C6F7882
:105613000C79081207D97404120DFC780C120C7E55
:10562300D2008002C2007404120DFC7808120C6FC1
:105633009006FC780C120C6F7808790C12063490E3
:105643000700780C120C6F7808790C1207D97404D0
:10565300120DFC780C120C6F7808790C120634903A
:105663000704780C120C6F7808790C1207D97404AC
:10567300120DFC780C120C6F7808790C120634901A
:105683000708780C120C6F7808790C1207D9740488
:10569300120DFC780C120C6F7808790C12063490FA
:1056A300070C780C120C6F7808790C1207D9740464
:1056B300120DFC780C120C6F7808790C12063490DA
:1056C3000710780C120C6F7808790C1207D9740440
:1056D300120DFC780C120C6F7808790C12063490BA
:1056E30006E8780C120C6F7808790C1207D985102C
:1056F300828511837808120C7EA2005025851082C2
:10570300851183780C120C6F9007187808120C6FB0
:10571300780C7908120634851082851183780C126F
:105723000C7EEAF98510828511837808120C6FAA22
:1057330008AB09AC0AAD0BE9A2E713F9E4132CFC9F
:10574300E93DFD7408120DC67F08020E8CF085102A
:1057530082851183780822E953F4FB6007D29243D0
:10576300FE04800953FEFB53F6FB43F7400200EFB0
:10577300C082C08374AA9005307806F0A3D8FC9049
:1057830005361257D4A3F074BB9005587806F0A3DE
:10579300D8FC90055E7401F0A31257D4FAFB743061
:1057A3002AF874053BF9E8241DF582E439F583E40E
:1057B300F0E82445F582E439F583E4F00AEA700160
:1057C3000BC3940AEB1259BF40D4D083D08202009A
:1057D300EFE41257DD1257DDF0221257E41257E4BB
:1057E30022F0A3F0A3F0A3F0A32274F7120E20E497
:1057F30090050E7818F0A3D8FCFAFB78007900E83E
:10580300FCE9FDEC2CFCED33FDEAFEEBFFEE75F05D
:1058130018A4FE85F00875F018EFA42508FF74CAD4
:105823002EFE74053FFFEE2CF582EF3DF583E4F089
:10583300A3F008E8700109C3940C1259BE40C00AD2
:10584300EA70010BC39404EB1259BF40AEE4900518
:10585300267809F0A3D8FC7F01020E8CC082C08396
:105863009061C8E064287054E5D9E5D9E5D978009A
:105873007900E5D9C0E0EA28F582EB39F583D0E079
:10588300F008E8700109C394061259BE40E4E5D953
:10589300E5D9E5D9E5D9E5D978007900E5D9C0E0BE
:1058A300EC28F582ED39F583D0E0F008E8700109C2
:1058B300C3941A1259BE40E4790180027900025759
:1058C300CDC082C08374F8120DB09006D4AC10AD75
:1058D300117408120CE2F8F9851082851183E582B0
:1058E30028F582E58339F583E0C0E0748228F582E8
:1058F300740539F583D0E0F008E87001097408688D
:105903004970D57408120DC60257CD74F6120E20D5
:1059130074E6120DB0900501E4F0851082851183C1
:10592300781AF0A3D8FCE9851082851183F07401FD
:10593300120DFCEAF0750802750900E50824FEF86B
:10594300E50934FFF97A027B00120D3CE828F8E9F7
:1059530033F9EC28F582ED39F583E0F8A3E0F9E8B3
:10596300FA851082851183E5822508F582E5833562
:1059730009F583E9F0E8A3F0E5082402F508E43526
:1059830009F509C3E508941AE5091259BF40AC7C2F
:10599300087D05791AAA10AB1112030F120339906F
:1059A3000501E0A2E650F87991120327900501E47E
:1059B300F0741A120DC67F02020E8CE99400A2D273
:1059C30065D0332274F0120E2074F6120DB08510D8
:1059D30082851183EAF0A3EBF0A3ECF0A3EDF0854D
:1059E30010828511837808120C6F9006E4780C12EC
:1059F3000C6F7808790C1205E850338510828511F5
:105A0300837808120C6F9006DC780C120C6F780800
:105A1300790C12056D90062C700A7422125BCB7DF3
:105A2300FF025BC17421125BCB7D7F025BC17404F7
:105A3300120E06880889097808120F8D7402120D58
:105A4300FC120C8D1203877402120DC68510828519
:105A53001183120C998510828511837808120C6FBB
:105A6300900718780C120C6F7808790C1205E8501F
:105A7300328510828511837808120C6F7401C31369
:105A830013250AF50AE4350BF50B8510828511837E
:105A93007808120C7E7404120DFCE024FFF0A3E0DE
:105AA30034FFF08510828511837808120C6F9007FC
:105AB3001C780C120C6F7808790C1207D9C008C037
:105AC30009C00AC00B851082851183780C120C6FF4
:105AD3009006E87808120C6F780C79081207D9D071
:105AE3000BD00AD009D0087808790C1209F3851075
:105AF300828511837808120C7E8510828511837844
:105B030008120C6F851082851183780C120C6F7844
:105B130008790C1206347406120DFC7808120C7EF8
:105B23007404120DFCE0F5083395E0F509F50AF568
:105B33000B780812040E900720780C120C6F78086B
