:020000040000FA
:030000000200D724
:03002B0002075277
:03004B000206D0DA
:030053000207554C
:1000830002073400000080FBE490010178987901B5
:100093008002F0A3D8FCD9FA7A987B019001077803
:1000A3009B79018015E493A3AD82AE838A828B830F
:1000B300F0A3AA82AB838D828E83D8E9D9E77582B8
:1000C3005575831974001200E9758286758300746F
:1000D300001200E975D0007581BF7510017511011B
:1000E300759F0002008BC09FF59FE473D09F22D0C1
:1000F30083D082C09FE493C0E0740193C0E0740294
:1001030093F59F22496E69740A00FFFFFFFFE0FF2A
:10011300FFFF2000000064000000E8030000C800A7
:100123000000000000004D454E534147454D20451A
:1001330058454D504C4F00000000000000000100E6
:10014300000100010100303132333435363738399C
:1001530041424344454600286E756C6C20706F69BC
:100163006E7465722900303132333435363738399D
:1001730061626364656600464C4F4154533F207788
:10018300726F6E6720666F726D6174746572206939
:100193006E7374616C6C656421003F3F3F00120015
:1001A300F2D716001200F2A417001200F2E81700AB
:1001B3001200F22E19001200F24119001200F2850A
:1001C30020001200F29F20001200F2C4200012004F
:1001D300F28C21001200F29D21001200F26F210027
:1001E3001200F27F1A001200F2971A001200F2A016
:1001F3001A001200F2A91B001200F2191C001200CF
:10020300F2A81E001200F2E01E001200F2EC1E0023
:100213001200F22E1F001200F2371F001200F241EB
:100223001F001200F24B1F001200F2F21F00120017
:10023300F22E20001200F27720001200F27E20003E
:100243001200F25B1F001200F27F1F001200F2BCCB
:100253001F001200F2DA1F001200F27111001200E7
:10026300F29E11001200F2F211001200F25F12006E
:100273001200F2D212001200F27F13001200F2E415
:1002830014001200F25515001200F2D615001200E8
:10029300F2B016001200F2CC16001200F2BB1D00E1
:1002A3001200F2921C001200F2D31C001200F2851D
:1002B30007001200F24321001200F2EC20001200AA
:1002C300F2FC2000000022C008C3E096F50808A352
:1002D300E096420808A3E096420808A3E096420885
:1002E300A2D265D033E5087001D3D00822E4CFC091
:1002F300E0E4CEC0E0E4CDC0E0E4CCC0E075F020A3
:10030300E626F608E633F608E633F608E633F6188B
:100313001818EC33FCED33FDEE33FEEF33FFC3EC83
:100323009709ED9709EE9709EF97191919400FFFF0
:10033300EC97FC09ED97FD09EE97FE191906D5F028
:10034300BFECF709EDF709EEF709EFF7191919D023
:10035300E0FCD0E0FDD0E0FED0E0FF22E4C396F65F
:1003630008E496F608E496F608E496F6227009087F
:100373000808226016181818C6C333C608C633C641
:1003830008C633C608C633C6D5E0EA22E026F60817
:10039300A3E036F608A3E036F608A3E036F622E03B
:1003A30026F008A3E036F008A3E036F008A3E03611
:1003B300F022C3E697F60809E697F60809E697F6EA
:1003C3000809E697F622C3E096F008A3E096F00842
:1003D300A3E096F008A3E096F022E0F608A3E0F687
:1003E30008A3E0F608A3E0F622E6F008A3E6F00887
:1003F300A3E6F008A3E6F022E0FAA3E0FBA3E0FC07
:10040300A3E0FD22E0FCA3E0FDA3E0FEA3E0FF22C6
:10041300ECF0A3EDF0A3EEF0A3EFF022CAC0E0E608
:10042300F0A308DAFAD0E0FA22CAC0E0E0A3C5825A
:10043300CCC582C583CDC583F0A3C582CCC582C597
:1004430083CDC583DAE6D0E0CA22B90010BB000829
:10045300E88AF084F8AAF022E4FBC8FA22EB7022BF
:100463007B10C833C8C933C9335007C39AC3DBF2FF
:1004730080069A50012ADBEAC833F4C8C933F4C9A9
:10048300FA2275F008E4C833C8C933C933C99AC915
:100493009B5004C92AC93BD5F0ECFBC833F4C8E42C
:1004A300C9FA22700422600D18C6C333C608C633C6
:1004B300C6D5E0F41822251010AF08F510400C152E
:1004C300118008F51040021511D2AF2200C0D025CB
:1004D3001010AF08F510500C05118008F5105002EC
:1004E3000511D2AFD0D0222510F58210AF08F51038
:1004F300400C15118008F51040021511D2AF85117B
:1005030083222510F582E43511F583222510F8E4C2
:100513003511F9222510FAE43511FB222510FCE4EC
:100523003511FD22E4732510C582C0E0E51134FFC7
:10053300C583C0E0E510C3958224F810AF08858316
:10054300118582108008858311858210D2AFCEF089
:10055300A3E520F0A37808E608F0A3DEFAEFF0A302
:10056300E58124FAF8E608F0A3E608F0A3E608F02C
:10057300A30808E608F0A3E608F0A315811581D0C7
:10058300E0FED0E0F8158115811581E8C0E0EEC0EA
:10059300E022851183851082E0A3FEE0A3F5207895
:1005A30008E0A3F608DFFAE0A3FFE0A3C0E0E0A3BE
:1005B300C0E0E0A3C0E0E0A3C0E0E0A3C0E010AF70
:1005C300088582108583118008858210858311D266
:1005D300AFD083D0820200EFC0D02510C582C0E027
:1005E300E51134FFC583C0E0E510C3958224F31001
:1005F300AF08858311858210800885831185821059
:10060300D2AFC8F0A3E9F0A3EAF0A3EBF0A3790813
:10061300E709F0A3D8FAECF0A3EDF0A3EEF0A3EF13
:10062300F0A3D0E0F0A3D0E0F0A3D0E0F0A3E52066
:10063300F0A3E5F0F0A322851183851082E0C0E0EA
:10064300A3E0F9A3E0FAA3E0FBA37808E0F608A38C
:10065300DFFAE0FCA3E0FDA3E0FEA3E0FFA3E0C01C
:10066300E0A3E0C0E0A3E0F5D0A3E0F520A3E0A37E
:10067300F5F010AF088583118582108008858311FA
:10068300858210D2AFD082D083D0E0F8D0E032742C
:10069300028000C0E0F4041204EAD0E012041F2236
:1006A30074028000CCC0E0EDC0E0E510C39CCCAD8B
:1006B3001150011D10AF068C108D1180068C108D0A
:1006C30011D2AF12042CD0E0FDD0E0FC22C0E074C4
:1006D300F21205DB900103E02401F0A3E03400F003
:1006E300900103C3E094E8A3E09403403D90010527
:1006F300E0700474018001E4F0E0F91201B39001A9
:1007030003E4F0A3F0900159E004F0C3940440071C
:10071300E4F090010604F0E5E1600F7901120213A1
:10072300900101E0A2E650F8E4F0C2C17F010206A5
:100733003AC0E0C0D0C082C083E591900101F0755A
:100743009B00E0F4F591D083D082D0D0D0E032C2C8
:10075300C732C0E0C0D0E8C0E0C082C083A8A1E82F
:10076300A2E450069001917401F0E8F4F5A1C2C22D
:10077300D083D082D0E0F8D0D0D0E03200758701AA
:10078300002274F012052974B31204B9851082850E
:100793001183EAF0A3EBF0740F120505ECF0A3ED5F
:1007A300F0740B120505E4F0A3801B745D120505BC
:1007B30012106C740F12050512107C120527740BAE
:1007C300120505121106F0121089F98510828511A0
:1007D30083E02401FAA3E03400FB851082851183B2
:1007E300EAF0A3EBF07425696015E970BE740B128F
:1007F300050512106C744D1204CF7F080205951283
:10080300108964257019851082851183E0240108FD
:1008130012110F745D12050512106C792580947402
:100823000E120505E4F0740D120505E4F0740812C8
:100833000505E4F07407120505E4F0741B12050FB7
:10084300740212050512111A741912050574DAF0EF
:10085300A3740180197407120505E0700774071269
:100863000505EAF0851082851183E8F0A3E9F0120B
:1008730010DAFAA3E0F5838A82E0FA24E060D62452
:10088300FD601724F860D624FE600624FD600F8007
:10089300117408120505E00480C9740D80F5740E07
:1008A30080F1851082851183121063E0642A7044FD
:1008B300745F12050512106312106CEAFCEBFD8ADB
:1008C30082F58312106CEC2402FC50010D745F124C
:1008D30005051210AFC3EB1210345013C3E49AFC96
:1008E300E49BFDECFAEDFB7408120505E004F0123D
:1008F3001114803C7A007B00802AEA75F00AA4FA7E
:10090300A9F075F00AEBA429FBEA28F8E43BF9E81F
:1009130024D0FAE934FFFB851082851183E024019A
:10092300F812110F121089F874D028C3940A40CA20
:100933007408120505E06007740E120505E4F01251
:100943001089642E60030209D685108285118312F3
:100953001059851082851183E8F0A3E912113F64D1
:100963002A702E745F12050512109DF98882F58393
:100973001210537404120505ECF0A3EDF0E8240201
:10098300F8500109745F1205051210E61211468032
:100993004B7404120505E4F0A312113FFC74D02C30
:1009A300C3940A5038740412050512104C75F00AEA
:1009B300A4F8ADF075F00AE9A42DF9E82CF8E439B0
:1009C300F9E824D0F8E934FFF9740412050512118B
:1009D3004680C6740412050574FFF0A3F07C001270
:1009E30010DAFDA3E0F5838D82E024B4600824E4EB
:1009F300600624FC70057C01121114121089C0E0FA
:100A03007406120505D0E012114AF07406120505AA
:100A1300E07003020ED724BB7003020EA224FE7003
:100A230003020EA224EF7003020BF824F5700302F5
:100A33000AD7147003020C99147003020EA21470E7
:100A430003020EA2147003020EA224FE7003020C12
:100A53009924FB6024147003020BCE147003020B61
:100A6300F824FD7003020B1724FE7003020BF82415
:100A7300FD7003020BEC020EE3745F120505121006
:100A8300F3E8FEE9FFE5082402F50850020509EC46
:100A9300A2E0740B50271205051210463395E0FAB5
:100AA3008E828F8312111AA3EAF0A3F0745F1205EA
:100AB3000512107CE508F0A3E5090207C912050534
:100AC3001210468E828F8312111A745F120505125B
:100AD300106380E0745F12050512109DF583888210
:100AE300E0C0E0741B120505D0E0F0745F12050549
:100AF30012108F2402F8A3E03400F9745F12050585
:100B03001210E612111A741C120505A882A9837427
:100B130009020BC4745F1205051210F3E5082402E1
:100B2300FCE43509FD745F1205051210AF7402125F
:100B3300050512111AE849700C740212050574EBCD
:100B4300F0A37401F074041205051210A4500C7480
:100B5300041205057410F0A37427F07E007F008053
:100B6300050EEE70010F74021205051210468882FD
:100B7300F583A3AC82AD837402120505ECF0A3EDFB
:100B8300F088828983E0601474041205051210460C
:100B9300C3EE98EF99A2D265D03340C57402120513
:100BA300051210BD740912050512111AC3E49EF84B
:100BB300E49FF97409120505E028F8A3E039F974F4
:100BC30002120505E8F0A3E9020EFA740D120505F9
:100BD300E06016740412050512104C49700B74047E
:100BE3001205057401F0A3E4F0741912050574FAF3
:100BF300F0A37401F0745F1205051210CB74061292
:100C03000505E064707038850882850983121053E6
:100C13007411120505ECF0A3ED121138E50812105A
:100C23003C1205051210E612111A7415120505740B
:100C330010121138A3F07407120505E4020D0EEC2F
:100C4300A2E0E50850161210211205051211201218
:100C530004077411120505120413801912103C12B3
:100C63000505121133F8A3E0F97411120505E8F034
:100C7300A3E91211387406120505E0646F70097454
:100C830015120505740880A9E06475709D7415122A
:100C93000505740A809B745F1205051210CBECA244
:100CA300E0E50850101210211205051211207808F2
:100CB3001203DD801612103C120505121133F508DC
:100CC300A3E0F5093395E0F50AF50B741112050558
:100CD30078081203EC9001B678081202CA40217416
:100CE30007120505742DF074111205057808120317
:100CF300DD780812035F741112050578081203ECFE
:100D03007415120505740A121138A3F0744C1205F8
:100D130005A882A983740212050512111A74091217
:100D2300050512111A7411120505120407EC4D4E34
:100D33004F6004D2008010C2007404120505121023
:100D43004C497003020E1174021205051210BD7492
:100D53000212050512111A7411120505780C1203FB
:100D6300DD741512050578081203DD780C79081275
:100D730002F07419120505E02508F8A3E035098887
:100D830082F583E0C0E0740212050512107CD0E006
:100D9300F07411120505780C1203DD7415120505A4
:100DA30078081203DD780C79081202F07411120529
:100DB30005780C1203EC7411120505120407EC4DAF
:100DC3004E4F708374041205051210A45040740E24
:100DD300120505E060387407120505E06004D2F0DF
:100DE3008002C2F0A2F0E433F8EA98F8EB9400F939
:100DF3007404120505E8F0A3E980127402120505D4
:100E030012111A740212050512107C7430F0740268
:100E13001205051210BD744C120505C082C08374FF
:100E230002120505121053D083D082E582C39CFEC3
:100E3300E5839DFF7404120505121053C3EE9CEF66
:100E43009DA2D265D03340B3740D120505E0700343
:100E5300020EFBA2004003020EFB7406120505E01E
:100E630064786005E064587010E088828983F0E854
:100E730024FF18E934FFF98012E0646F707A74027A
:100E83001205051210E6E06430606D740212050568
:100E930012111A740212050512107C7430805874F2
:100EA30002120505740BF0A37402F0740912050510
:100EB300740BF0A37402F0740912050512108F600D
:100EC3003774091205051210597409120505E8F063
:100ED300A3E980E28510828511831210C2121113D7
:100EE3007402120505742EF0A37402F0740912053E
:100EF300057431F0A37402F07409120505C082C0B1
:100F0300837402120505121046D083D082E0C39881
:100F1300F8A3E099F9740412050512111A74041266
:100F23000505E0F8C3EA98EB99A2D265D0335006E1
:100F33007E007F0080217407120505E06004D2F073
:100F43008002C2F0EAC398F8EB99F9A2F0E433FA0D
:100F5300E89AFEE99400FF7408120505E07020800A
:100F630019745D12050512107212050512107C1218
:100F73000527740B12050512110112102B50E27490
:100F830007120505E06051745D12050512106C74BB
:100F930007120505E0F9740F12050512107C1205FE
:100FA30027802D745D12050512106C74021205055D
:100FB30012108FF9740F12050512107C1205277495
:100FC30002120505E012115F740212050512111ACF
:100FD300740B1205051211017404120505E024FFB8
:100FE300F0A3E034FFF074041205051210A450B30B
:100FF3007408120505E070030207CA12102B500390
:101003000207CA745D12050512107212050512104B
:101013007C120527740B12050512110180DD2404CF
:10102300F8E43509F9745F22EE24FF1EEF34FFFF65
:10103300C39400A2D265D033222402F8E43509F91F
:10104300745F22E0F8A3E0F922E0F8A3E0F9E822D4
:10105300E0FCA3E0FD22E0240108A3E03400F92230
:10106300E0FAA3E0F5838A8222E0FAA3E0FB22E020
:10107300FAA3E0FB7920740F2212108022E0F8A378
:10108300E0F58388822285108285118312109322D2
:10109300E0F8A3E0F5838882E022121093F8A3E03E
:1010A30022C3A3E09400A2D265D03322E0FEA3E0E2
:1010B300F5838E82ECF0A3EDF0221210C2F922E048
:1010C30024FFF8A3E034FF221210CF22121080E095
:1010D300F508A3E0F50922851082851183E012113A
:1010E30055E0221210EA22E0FCA3E0F5838C822271
:1010F3001210CF850882F583E0F8A3E0F9221211DC
:1011030006F022E02401F0A3E0340022A3E034003F
:10111300F9851082851183E8F0A3E9F022121124E6
:10112300221210EAE8F0A3E9F085088285098322F8
:10113300121124E022F0A3E4F0A3F02212116812AA
:10114300109422E8F0A3E9121168121155E8F0A3F4
:10115300E92212115F851082851183222401F8A3ED
:10116300E03400F922F0851082851183E022C082E9
:10117300C08378007900121256E0C0E0EA28F582B5
:10118300EB39F583D0E0F008E8700109C394191234
:10119300124D40E2D083D0820200EF74F21205298F
:1011A3008A087A197B001202A98A828B83E508F0E8
:1011B3007C017D00740E120505E0F8A3E0F9E82C2C
:1011C300FEE93DFFEE24FFF582EF34FFF583E0C037
:1011D300E0EA2CF582EB3DF583D0E0F00CEC7001F6
:1011E3000DC39419ED12124E40D47F06020595C02B
:1011F30082C0839061C8E0C3941B4048E5D9E5D918
:10120300E5D978007900E5D9C0E0EA28F582EB3921
:10121300F583D0E0F008E8700109C3940612124D7B
:1012230040E4E5D9E5D9E5D9E5D9E5D978007900F0
:10123300E5D9C0E0121256D0E0F008E870010912B7
:10124300124A40EC021197C3941AE99400A2D265A2
:10125300D03322EC28F582ED39F5832274F7120599
:101263002974E61204B9900101E41214DC781AF02F
:10127300A3D8FCE9851082851183F078017900EA0F
:1012830028FCEB39FDEC24FFF582ED34FFF583E018
:10129300C0E0851082851183121374D0E0F008E852
:1012A30070010912124A40D77C087D01791AAA10ED
:1012B300AB111201FB12021F900101E0A2E650F8EC
:1012C300799112136B741A1204CF7F01020595747E
:1012D300F712052974C71204B9900101E4F0120250
:1012E30019900101E0A2E650F890607FE0706F90E2
:1012F3000101E0A2E05067740612051FAA10AB11AA
:101303001202677406120505E0FE7801790074067F
:10131300120505121374E0C0E07420120505E5827E
:1013230028FAE58339FBEA24FFF582EB34FFF583E2
:10133300D0E0F008E870010912124A40D1EEC394DC
:1013430003501BEE6018742012051FEE75F019A4EC
:10135300F8A9F0740E28FA740139FB12025B798143
:1013630012136B74390212CA120213900101E4F0D2
:1013730022E58228F582E58339F5832274F012058C
:101383002974FC1204B97402120505EAF0A3EB12E6
:1013930014DCECF0A3ED1214DCE0F8A3E0F974180C
:1013A300120505E0687003A3E06960030214CE74BC
:1013B3001A120505E0FEA3E0FF7414120505E0FA16
:1013C300A3E0FBEA8EF0A4CAA8F08FF0A428F88E5D
:1013D300F0EBA428FB1202A98A088B097A007B0090
:1013E30080050AEA70010B7414120505E0F8A3E006
:1013F300F9C3EA98EB99A2D265D03340030214CE25
:10140300750A00750B000214B4E8FCE9FDEC2CFC32
:10141300ED33FD7416120505E02CF50DA3E03D85B3
:101423000D82F583E0250AFCA3E0350B8C82F5835E
:10143300E0F5F0C0F0E8FCE9FDEC75F019A4FC85DB
:10144300F00D75F019EDA4250DFD7402120505E0EC
:101453002AF50EA3E03BF50FE50E2CF582E50F3DD3
:10146300F583E0D0F0A4250CF50C08E8700109859C
:101473001082851183E0FCA3E0FDC3E89CE99DA2F3
:10148300D265D0334083EAF8EBF9E828F8E933F979
:10149300E50828F582E50939F583E0250AF8A3E094
:1014A300350B8882F583E50CF0050AE50A70020521
:1014B3000BC3E50A9EE50B9FA2D265D0334003021E
:1014C30013E5750C007800790080A4AA08AB0974B1
:1014D300041204CF7F08020595F0851082851183DD
:1014E3002274F41205298A088B09ECFEEDFFECFA4D
:1014F300EDFB1202A98A0A8B0BAC0AAD0B780079BB
:1015030000740C120505E0F50AA3E0F50B802EE844
:10151300FAE9FBEA2AFAEB33FBE5082AF582E50947
:101523003BF583E0250AFAA3E0350B8A82F583E0D5
:10153300C0E0121256D0E0F008E8700109C3E89E3B
:10154300E99FA2D265D03340C6ECFAEDFB7F0402DB
:10155300059574F4120529E9600B1460701460108A
:1015630014606A806B7A0E7B01790012026D805DD4
:10157300750A04750B00780A120692750A02780A36
:101583001206929001921206A3750A19780A12069E
:10159300927C027D007A0E7B011202797408120498
:1015A300CF900194EAF0A3EBF0750A02780A1206D1
:1015B300927C197D0012027F74021204CF8A0A8B77
:1015C3000B790112026DAA0AAB0B12029D12027370
:1015D30002155074F212052974E01204B98C0A8DB5
:1015E3000B9001BA740812051F741812042C7408A6
:1015F30012050F880C890D780C120692AC0AAD0BFC
:1016030012026174021204CF8A088B09EAFCEBFD13
:101613007A0E7B0112025BAA08AB0912029D7A08BB
:101623007B001202A9900192EAF0A3EBF09001D2A1
:10163300AC10AD11740812042CFCFD7A007B008CF5
:10164300088D09740278081204A685108285118317
:10165300E5822508F8E5833509F9E82AF582E93BAF
:10166300F583E0C0E0ECF8EDF9E828F8E933F99008
:101673000192E028FEA3E0398E82F583E02AF8A3E5
:10168300E03B8882F583D0E0F00AEA70010BC39453
:1016930004EB12124E40A80CEC70010DC39402ED42
:1016A30012124E409674201204CF0211EDC082C074
:1016B300839001921216C39001941216C3021197DC
:1016C300E0FAA3E0FB12029D2274F4120529120230
:1016D30085021550C082C08374CD1204B9742212DE
:1016E300050574AA7806F0A3D8FC7428120505E44E
:1016F300F0A3F0742A120505E4F0742B1205051209
:10170300179B742F12050512179B7411120505748C
:10171300BB7806F0A3D8FC74171205057401F0A377
:10172300E4F07419120505E4F0741A120505121792
:101733009B741E12050512179B74CC8510828511AC
:10174300837806F0A3D8FC74061205057402F0A38F
:10175300E4F07408120505E4F07409120505121784
:101763009B740D12050512179B74221205057C5AF2
:101773007D01741112042C741112050574111204E5
:101783002C851082851183741112042C7433120476
:10179300CFD083D0820200EFE4F0A3F0A3F0A3F054
:1017A30022C082C08378007900E8FAE9FBEA75F089
:1017B30019A4FAACF075F019EBA42CFB740E2AF5FE
:1017C3008274013BF583E47A1AF0A3DAFC08E8702B
:1017D3000109C394031217DF40CF80B5E99400A237
:1017E300D265D0332274F012052974F41204B98A35
:1017F300088B098C0A8D0B74057808120370E97045
:10180300030218D9740812051F7402120517120275
:1018130049740412051FAA10AB1112024374081273
:101823000505780C1203DD7404120505780C120308
:10183300C9851082851183C082C083740212050595
:10184300E0F8A3E0F9D083D082C3E098A3E09985C0
:1018530010828511835035E02400F0A3E0347DF03D
:101863007402120505E0F8A3E0F98510828511835F
:10187300C3E098F0A3E099F090019E780C1203DD89
:101883007404120505780C1203A28008C3E098F0D3
:10189300A3E099F0851082851183E0F8A3E0F97A3B
:1018A300D17B0312044D880C890DE4F50EF50F78F6
:1018B30008790C1203B57404120505780C1203DDC4
:1018C3007405780C1203707808790C1203B5900133
:1018D300A2780812038F9001A678081202CA400763
:1018E300900102E4F0803A9001AA78081202CA90AB
:1018F30001024004740180027402F0AA08AB09AC2F
:101903000AAD0B120231790112025512023712018C
:10191300D7900102E0F912022B12023D7901120263
:101923004F740C1204CF7F08020595E953F4FB6052
:1019330007D29243FE048003121A750200EF53C6C6
:10194300C775E40275E54475DA0075DB7DD2B9022B
:1019530000EF900101E4F053F4FB121A751201D168
:1019630053F4FB53FEFB43F6047A987B011202C146
:10197300790112020D1201EF79171201F512020714
:101983007A007B00750801750900EA78081204A63D
:10199300E508F4F852F352FD528F43F72052F45204
:1019A300FE52F643F7400AEA70010BC39408EB12A8
:1019B30017E040D07A007B00750801750900EA78CA
:1019C300081204A6E508F452F552FF52F743F780D4
:1019D3000AEA70010BC39405EB1217E040DA7900B1
:1019E3009001AE1203FB1201AD79011201B379002C
:1019F3009001B21203FB1201AD79001201B37940D9
:101A03001202251201A178007900745A28F5827414
:101A13000139F583E0C0E0740828F582740139F5D3
:101A230083D0E0F008E8700109C394061217DF4081
:101A3300D91201B9802E900107E0FAE4FBFCFD9076
:101A43000159E0F91202971201E390607F740FF0DD
:101A53001201E9900106E060DD1202911201A790E4
:101A63000106E4F0900107E0FAE4FBFCFD12028BAF
:101A730080E153FEFB53F6FB43F74022C082C08351
:101A830090618AE0640170F880037401F0D083D020
:101A9300820200EFC082C08390618A80ED74F612E7
:101AA300052975088075090078081206927C007D67
:101AB300007A007B601202B574021204CF12020195
:101AC300759C7790618AE0640170F8906001E0543E
:101AD300FC121B9B906003E0C2E0F0E0C2E1F0E087
:101AE300C2E2F090618A7401F090618BE06401704E
:101AF300F8906002E0543FF0E0C2E0F0E0C2E1128F
:101B03001B9B906018E0C2E2F0E0D2E0F0E0C2E498
:101B1300F0A37427F09060047403F0906008E4F07D
:101B2300A37455F0A3F0A3F090618B7401F090615E
:101B3300877469F090618674F3F09061BC7407F068
:101B43009062657413F09061A27410F090618074D8
:101B530040F09061907404F0A37448F0A3E4F0A300
:101B630074A3F09061A57401F0906194E4F0A37400
:101B7300D6F0A374BEF0A37489F0A3748EF09061C1
:101B8300E0E4F0A3745BF0A37406F0A3E4F09061C7
:101B9300E904F07F02020595F0E0C2E2F0E0C2E35F
:101BA300F0E054CFF022C082C083E9FA90618AE06A
:101BB300640170F890618DE05403600479048053EC
:101BC300E924E9600A24E8601024CA601C802A9092
:101BD3006000E054804417802B906000E054804400
:101BE3002FF090600C74268021906000E0548044B4
:101BF30065F090600C74278011747F5AF890600030
:101C0300E0548048F090600C7425F090618A740170
:101C1300F07900021A9074F7120529E9FE7800C3DF
:101C2300941B40047903804E740D29F5D975D902AC
:101C3300740B29F5D98C828D83E0F5D9A3121C7E10
:101C4300121C7EA3121C8C121C8CA3E0F5D975D92F
:101C53000275D90175D904740129F5D975D9FF80A5
:101C63000EE8FCEA2CF582E43BF583E0F5D908E8BD
:101C7300C39E40ED79007F01020595121C8222E08C
:101C8300F5D98C828D83A3A322121C82A3A3227471
:101C9300F7120529ECF8EDF98A828B83A3AE82AFA4
:101CA30083E0FAA3E0FBEAC398FCEB99FDC3EC9451
:101CB30004ED940040158E828F83E8F0A3E9F08849
:101CC300828983E4F0A3EAF0A3EBF07F0102059598
:101CD30074F5120529900196E0F8A3E0F9E849703C
:101CE3000A9001967432F0A37402F0900196E0FE1C
:101CF300A3E0FF7431C39EFC74039FFDEA2403F841
:101D0300E43BF9C3EC98ED994040E08E82F583748F
:101D130001F0900196E02AFCA3E03B8C82F583A3BB
:101D2300A3A3AC82AD83900196ECF0A3EDF08E8279
:101D33008F83A3ECF0A3EDF0C3E49AF8E49BF9904E
:101D43000196E028FAA3E0398062783279028004B0
:101D5300ECF8EDF988088909C3E5089EE5099F5069
:101D63004E88828983A3E0FCA3E0FD88828983E017
:101D730070DEECC39508F508ED9509F509E508242F
:101D8300FDF508E50934FFF509C3E5089AE5099B64
:101D930040BEE82403FEE439FF7401F0EE2AFCEFB1
:101DA3003BFDE8FAE9FB1202A3EEFAEFFB80047AAB
:101DB300007B007F0302059574F4120529EAFEEB0C
:101DC300FF7A327B0278327902EE4F700C021EA347
:101DD300E8FAE9FBE0F8A3E0F9900196E0F50AA33D
:101DE300E0F50BC3E8950AE9950B4003021EA388AF
:101DF300828983A3AC82AD83E82403F508E439F533
:101E030009EE65087003EF650970C588828983E070
:101E13007003021EA38C828D83E0F508A3E0F5090D
:101E2300C3E508950AE509950B5006AE08AF09808E
:101E330004E8FEE9FF8E828F83E0F50A8A828B83B2
:101E4300E07022E50A700C8E828F83A3E0F508A36D
:101E5300E0F5098A828B83A3E508F0A3E509F0EA9C
:101E6300F8EBF9801DE50A70138E828F83A3E0FAE5
:101E7300A3E0FB8C828D83EAF0A3EBF08882898355
:101E8300E4F088828983A3E0FAA3E0FB900196E063
:101E93006A7003A3E06B7008900196E8F0A3E9F081
:101EA3007F0402059574F6120529750880750900EB
:101EB30078081206927C007D007A007B601202B5DE
:101EC30074021204CF7981120213799112021390D2
:101ED300618674E1021EDAF07F02020595C082C0BA
:101EE300839061B1E0D2E0803AC082C083E9F89088
:101EF3006188E0F99061B1E06015E9A2E24010E881
:101F0300601FE5E170FC75E10BE591A2E650FAE094
:101F1300C2E0F0759100759B0090607F740FF079BB
:101F2300008001F0D083D0820200EFE5E170FC89EC
:101F3300E10200EFE5E170FC75E1080200EFE5E185
:101F430070FC75E1090200EFC082C083906182E0FA
:101F530049F0439A01021F27C082C08375C300EA78
:101F63004B600BE5A28A828B83F0E5A3A3F0EC4DD3
:101F73006003121F9ED083D0820200EFC082C08311
:101F830075C311EA4B600BE5A28A828B83F0E5A34C
:101F9300A3F0EC4D6003121F9E80DAE5A48C828DC2
:101FA30083F0E5A5A3F0E5A68C828D83A3A3F08C33
:101FB300828D83A3A3A3E4F022A2AFE433F8C2AFDC
:101FC300E96003439402439401E594A2E250FAE8E2
:101FD300A2E092AF0200EFA2AFE433F8C2AFE96030
:101FE300034394025394FEE594A2E240FA80E07422
:101FF300F7120529E9FEE5BE54FC4EF5BEE9C3948C
:102003000240099061B1E0C2E0F080057904120159
:10201300C5120780EEC3940240079061B1E0D2E09D
:10202300F079001201BF7F0102059574F4120529AE
:102033008A088B098C0A8D0BE59DA2E050FAE59581
:1020430090018DF0E596A3F0E597A3F0A3E4F0905B
:10205300018D78081203A290018FE0F59790018E0D
:10206300E0F596E5ADA2E050FA90018DE0F5957F9D
:1020730004020595C2C7D2AD0200EFC2C7C2AD02CA
:1020830000EF740169700575C6C98006E9700353D2
:10209300C680A8C6E59E6870FB0200EFC0088908E9
:1020A300E59E53080753C6F8E50833333354F84520
:1020B3000842C6A8C6E59E6870FB7900D0080200F6
:1020C300EFE9FAE59EA2E6400479018019E970057B
:1020D30053C67F800874016A700343C680A8C6E5AF
:1020E3009E6870FB79000200EFEEC0E0E9FA7B0026
:1020F3001202C7D0E0FE0200EF74F612052974FE47
:102103001204B9740C12050F851082851183E8F04F
:10211300A3E9F0A810A91188088909780812069282
:10212300E4F508F50978081206927CBB7D021202D9
:10213300AF74041204CF74021204CF7F0202059518
:10214300C082C083851082851183E0F8A3E0F9E89B
:102153004960128A828B83ECF0A3E824FF18E934E8
:10216300FFF94870F2D083D0820200EFC082C083AF
:1021730075BE8079011201BF79001201CB7900127B
:1021830001BFD083D0820200EFC082C0831201DD81
:0F2193001201D7D083D0820200EFD2AF0200EF4B
:04000005000000D720
:00000001FF
